{
  "address": "0x9Da5349aee64a911Df863a1F5fEcCBB4E4079062",
  "abi": [
    {
      "inputs": [
        {
          "internalType": "address",
          "name": "_libAddressManager",
          "type": "address"
        },
        {
          "internalType": "uint256",
          "name": "_fraudProofWindow",
          "type": "uint256"
        },
        {
          "internalType": "uint256",
          "name": "_sequencerPublishWindow",
          "type": "uint256"
        }
      ],
      "stateMutability": "nonpayable",
      "type": "constructor"
    },
    {
      "anonymous": false,
      "inputs": [
        {
          "indexed": false,
          "internalType": "uint256",
          "name": "_chainId",
          "type": "uint256"
        },
        {
          "indexed": true,
          "internalType": "uint256",
          "name": "_batchIndex",
          "type": "uint256"
        },
        {
          "indexed": false,
          "internalType": "bytes32",
          "name": "_batchRoot",
          "type": "bytes32"
        },
        {
          "indexed": false,
          "internalType": "uint256",
          "name": "_batchSize",
          "type": "uint256"
        },
        {
          "indexed": false,
          "internalType": "uint256",
          "name": "_prevTotalElements",
          "type": "uint256"
        },
        {
          "indexed": false,
          "internalType": "bytes",
          "name": "_extraData",
          "type": "bytes"
        }
      ],
      "name": "StateBatchAppended",
      "type": "event"
    },
    {
      "anonymous": false,
      "inputs": [
        {
          "indexed": false,
          "internalType": "uint256",
          "name": "_chainId",
          "type": "uint256"
        },
        {
          "indexed": true,
          "internalType": "uint256",
          "name": "_batchIndex",
          "type": "uint256"
        },
        {
          "indexed": false,
          "internalType": "bytes32",
          "name": "_batchRoot",
          "type": "bytes32"
        }
      ],
      "name": "StateBatchDeleted",
      "type": "event"
    },
    {
      "inputs": [],
      "name": "DEFAULT_CHAINID",
      "outputs": [
        {
          "internalType": "uint256",
          "name": "",
          "type": "uint256"
        }
      ],
      "stateMutability": "view",
      "type": "function"
    },
    {
      "inputs": [],
      "name": "FRAUD_PROOF_WINDOW",
      "outputs": [
        {
          "internalType": "uint256",
          "name": "",
          "type": "uint256"
        }
      ],
      "stateMutability": "view",
      "type": "function"
    },
    {
      "inputs": [],
      "name": "SEQUENCER_PUBLISH_WINDOW",
      "outputs": [
        {
          "internalType": "uint256",
          "name": "",
          "type": "uint256"
        }
      ],
      "stateMutability": "view",
      "type": "function"
    },
    {
      "inputs": [
        {
          "internalType": "bytes32[]",
          "name": "_batch",
          "type": "bytes32[]"
        },
        {
          "internalType": "uint256",
          "name": "_shouldStartAtElement",
          "type": "uint256"
        }
      ],
      "name": "appendStateBatch",
      "outputs": [],
      "stateMutability": "nonpayable",
      "type": "function"
    },
    {
      "inputs": [
        {
          "internalType": "uint256",
          "name": "_chainId",
          "type": "uint256"
        },
        {
          "internalType": "bytes32[]",
          "name": "_batch",
          "type": "bytes32[]"
        },
        {
          "internalType": "uint256",
          "name": "_shouldStartAtElement",
          "type": "uint256"
        },
        {
          "internalType": "string",
          "name": "proposer",
          "type": "string"
        }
      ],
      "name": "appendStateBatchByChainId",
      "outputs": [],
      "stateMutability": "nonpayable",
      "type": "function"
    },
    {
      "inputs": [],
      "name": "batches",
      "outputs": [
        {
          "internalType": "contract IChainStorageContainer",
          "name": "",
          "type": "address"
        }
      ],
      "stateMutability": "view",
      "type": "function"
    },
    {
      "inputs": [
        {
          "components": [
            {
              "internalType": "uint256",
              "name": "batchIndex",
              "type": "uint256"
            },
            {
              "internalType": "bytes32",
              "name": "batchRoot",
              "type": "bytes32"
            },
            {
              "internalType": "uint256",
              "name": "batchSize",
              "type": "uint256"
            },
            {
              "internalType": "uint256",
              "name": "prevTotalElements",
              "type": "uint256"
            },
            {
              "internalType": "bytes",
              "name": "extraData",
              "type": "bytes"
            }
          ],
          "internalType": "struct Lib_OVMCodec.ChainBatchHeader",
          "name": "_batchHeader",
          "type": "tuple"
        }
      ],
      "name": "deleteStateBatch",
      "outputs": [],
      "stateMutability": "nonpayable",
      "type": "function"
    },
    {
      "inputs": [
        {
          "internalType": "uint256",
          "name": "_chainId",
          "type": "uint256"
        },
        {
          "components": [
            {
              "internalType": "uint256",
              "name": "batchIndex",
              "type": "uint256"
            },
            {
              "internalType": "bytes32",
              "name": "batchRoot",
              "type": "bytes32"
            },
            {
              "internalType": "uint256",
              "name": "batchSize",
              "type": "uint256"
            },
            {
              "internalType": "uint256",
              "name": "prevTotalElements",
              "type": "uint256"
            },
            {
              "internalType": "bytes",
              "name": "extraData",
              "type": "bytes"
            }
          ],
          "internalType": "struct Lib_OVMCodec.ChainBatchHeader",
          "name": "_batchHeader",
          "type": "tuple"
        }
      ],
      "name": "deleteStateBatchByChainId",
      "outputs": [],
      "stateMutability": "nonpayable",
      "type": "function"
    },
    {
      "inputs": [],
      "name": "getLastSequencerTimestamp",
      "outputs": [
        {
          "internalType": "uint256",
          "name": "_lastSequencerTimestamp",
          "type": "uint256"
        }
      ],
      "stateMutability": "view",
      "type": "function"
    },
    {
      "inputs": [
        {
          "internalType": "uint256",
          "name": "_chainId",
          "type": "uint256"
        }
      ],
      "name": "getLastSequencerTimestampByChainId",
      "outputs": [
        {
          "internalType": "uint256",
          "name": "_lastSequencerTimestamp",
          "type": "uint256"
        }
      ],
      "stateMutability": "view",
      "type": "function"
    },
    {
      "inputs": [],
      "name": "getTotalBatches",
      "outputs": [
        {
          "internalType": "uint256",
          "name": "_totalBatches",
          "type": "uint256"
        }
      ],
      "stateMutability": "view",
      "type": "function"
    },
    {
      "inputs": [
        {
          "internalType": "uint256",
          "name": "_chainId",
          "type": "uint256"
        }
      ],
      "name": "getTotalBatchesByChainId",
      "outputs": [
        {
          "internalType": "uint256",
          "name": "_totalBatches",
          "type": "uint256"
        }
      ],
      "stateMutability": "view",
      "type": "function"
    },
    {
      "inputs": [],
      "name": "getTotalElements",
      "outputs": [
        {
          "internalType": "uint256",
          "name": "_totalElements",
          "type": "uint256"
        }
      ],
      "stateMutability": "view",
      "type": "function"
    },
    {
      "inputs": [
        {
          "internalType": "uint256",
          "name": "_chainId",
          "type": "uint256"
        }
      ],
      "name": "getTotalElementsByChainId",
      "outputs": [
        {
          "internalType": "uint256",
          "name": "_totalElements",
          "type": "uint256"
        }
      ],
      "stateMutability": "view",
      "type": "function"
    },
    {
      "inputs": [
        {
          "components": [
            {
              "internalType": "uint256",
              "name": "batchIndex",
              "type": "uint256"
            },
            {
              "internalType": "bytes32",
              "name": "batchRoot",
              "type": "bytes32"
            },
            {
              "internalType": "uint256",
              "name": "batchSize",
              "type": "uint256"
            },
            {
              "internalType": "uint256",
              "name": "prevTotalElements",
              "type": "uint256"
            },
            {
              "internalType": "bytes",
              "name": "extraData",
              "type": "bytes"
            }
          ],
          "internalType": "struct Lib_OVMCodec.ChainBatchHeader",
          "name": "_batchHeader",
          "type": "tuple"
        }
      ],
      "name": "insideFraudProofWindow",
      "outputs": [
        {
          "internalType": "bool",
          "name": "_inside",
          "type": "bool"
        }
      ],
      "stateMutability": "view",
      "type": "function"
    },
    {
      "inputs": [],
      "name": "libAddressManager",
      "outputs": [
        {
          "internalType": "contract Lib_AddressManager",
          "name": "",
          "type": "address"
        }
      ],
      "stateMutability": "view",
      "type": "function"
    },
    {
      "inputs": [
        {
          "internalType": "string",
          "name": "_name",
          "type": "string"
        }
      ],
      "name": "resolve",
      "outputs": [
        {
          "internalType": "address",
          "name": "",
          "type": "address"
        }
      ],
      "stateMutability": "view",
      "type": "function"
    },
    {
      "inputs": [
        {
          "internalType": "uint256",
          "name": "window",
          "type": "uint256"
        }
      ],
      "name": "setFraudProofWindow",
      "outputs": [],
      "stateMutability": "nonpayable",
      "type": "function"
    },
    {
      "inputs": [
        {
          "internalType": "bytes32",
          "name": "_element",
          "type": "bytes32"
        },
        {
          "components": [
            {
              "internalType": "uint256",
              "name": "batchIndex",
              "type": "uint256"
            },
            {
              "internalType": "bytes32",
              "name": "batchRoot",
              "type": "bytes32"
            },
            {
              "internalType": "uint256",
              "name": "batchSize",
              "type": "uint256"
            },
            {
              "internalType": "uint256",
              "name": "prevTotalElements",
              "type": "uint256"
            },
            {
              "internalType": "bytes",
              "name": "extraData",
              "type": "bytes"
            }
          ],
          "internalType": "struct Lib_OVMCodec.ChainBatchHeader",
          "name": "_batchHeader",
          "type": "tuple"
        },
        {
          "components": [
            {
              "internalType": "uint256",
              "name": "index",
              "type": "uint256"
            },
            {
              "internalType": "bytes32[]",
              "name": "siblings",
              "type": "bytes32[]"
            }
          ],
          "internalType": "struct Lib_OVMCodec.ChainInclusionProof",
          "name": "_proof",
          "type": "tuple"
        }
      ],
      "name": "verifyStateCommitment",
      "outputs": [
        {
          "internalType": "bool",
          "name": "",
          "type": "bool"
        }
      ],
      "stateMutability": "view",
      "type": "function"
    },
    {
      "inputs": [
        {
          "internalType": "uint256",
          "name": "_chainId",
          "type": "uint256"
        },
        {
          "internalType": "bytes32",
          "name": "_element",
          "type": "bytes32"
        },
        {
          "components": [
            {
              "internalType": "uint256",
              "name": "batchIndex",
              "type": "uint256"
            },
            {
              "internalType": "bytes32",
              "name": "batchRoot",
              "type": "bytes32"
            },
            {
              "internalType": "uint256",
              "name": "batchSize",
              "type": "uint256"
            },
            {
              "internalType": "uint256",
              "name": "prevTotalElements",
              "type": "uint256"
            },
            {
              "internalType": "bytes",
              "name": "extraData",
              "type": "bytes"
            }
          ],
          "internalType": "struct Lib_OVMCodec.ChainBatchHeader",
          "name": "_batchHeader",
          "type": "tuple"
        },
        {
          "components": [
            {
              "internalType": "uint256",
              "name": "index",
              "type": "uint256"
            },
            {
              "internalType": "bytes32[]",
              "name": "siblings",
              "type": "bytes32[]"
            }
          ],
          "internalType": "struct Lib_OVMCodec.ChainInclusionProof",
          "name": "_proof",
          "type": "tuple"
        }
      ],
      "name": "verifyStateCommitmentByChainId",
      "outputs": [
        {
          "internalType": "bool",
          "name": "",
          "type": "bool"
        }
      ],
      "stateMutability": "view",
      "type": "function"
    }
  ],
  "transactionHash": "0xf3014e5adb47786f4c2f2ab5087c3c51e24fdb51104ee7c382f301ca7cd47e52",
  "args": [
    "0x918778e825747a892b17C66fe7D24C618262867d",
    604800,
    12592000
  ],
  "solcInputHash": "f4eec149bc1edd055daacf16545373ae",
  "bytecode": "0x608060405261044060035534801561001657600080fd5b506040516200248c3803806200248c83398101604081905261003791610063565b600080546001600160a01b0319166001600160a01b0394909416939093179092556001556002556100a6565b60008060006060848603121561007857600080fd5b83516001600160a01b038116811461008f57600080fd5b602085015160409095015190969495509392505050565b6123d680620000b66000396000f3fe608060405234801561001057600080fd5b506004361061016c5760003560e01c80638a52e622116100cd578063b8e189ac11610081578063cfdf677e11610066578063cfdf677e146102d7578063d710083f146102df578063e561dddc146102f257600080fd5b8063b8e189ac146102bb578063c17b291b146102ce57600080fd5b80638ca5cbb9116100b25780638ca5cbb9146102825780639418bddd14610295578063ab59f7b8146102a857600080fd5b80638a52e6221461025c5780638c7de7421461026f57600080fd5b80635cb58374116101245780637ad168a0116101095780637ad168a01461023857806380931e371461024057806381eb62ef1461025357600080fd5b80635cb583741461021d5780637aa63a861461023057600080fd5b8063461a447811610155578063461a4478146101d05780634d69ee57146101e35780635bbbb7ed1461020657600080fd5b8063299ca478146101715780632ab65ec7146101bb575b600080fd5b6000546101919073ffffffffffffffffffffffffffffffffffffffff1681565b60405173ffffffffffffffffffffffffffffffffffffffff90911681526020015b60405180910390f35b6101ce6101c9366004611c3e565b6102fa565b005b6101916101de366004611ca5565b61045a565b6101f66101f1366004611dc9565b610507565b60405190151581526020016101b2565b61020f60035481565b6040519081526020016101b2565b61020f61022b366004611e36565b61051f565b61020f61053a565b61020f61054c565b6101f661024e366004611e4f565b610559565b61020f60025481565b61020f61026a366004611e36565b610625565b61020f61027d366004611e36565b610640565b6101ce610290366004611ec6565b6106d4565b6101f66102a3366004611f0b565b610715565b6101ce6102b6366004611e36565b6107bd565b6101ce6102c9366004611f0b565b61087a565b61020f60015481565b610191610889565b6101ce6102ed366004611f40565b6108ac565b61020f610b5e565b61032a61030683610b6b565b6040516020016103169190611fdb565b60405160208183030381529060405261045a565b73ffffffffffffffffffffffffffffffffffffffff163373ffffffffffffffffffffffffffffffffffffffff16146103cf5760405162461bcd60e51b815260206004820152603b60248201527f537461746520626174636865732063616e206f6e6c792062652064656c65746560448201527f6420627920746865204d564d5f467261756456657269666965722e000000000060648201526084015b60405180910390fd5b6103d881610715565b61044c576040805162461bcd60e51b81526020600482015260248101919091527f537461746520626174636865732063616e206f6e6c792062652064656c65746560448201527f642077697468696e207468652066726175642070726f6f662077696e646f772e60648201526084016103c6565b6104568282610cc8565b5050565b600080546040517fbf40fac100000000000000000000000000000000000000000000000000000000815273ffffffffffffffffffffffffffffffffffffffff9091169063bf40fac1906104b1908590600401612066565b60206040518083038186803b1580156104c957600080fd5b505afa1580156104dd573d6000803e3d6000fd5b505050506040513d601f19601f82011682018060405250810190610501919061209b565b92915050565b6000610517600354858585610559565b949350505050565b60008061052b83610f1a565b64ffffffffff16949350505050565b6000610547600354610625565b905090565b600061054760035461051f565b60006105658584610fcc565b6105b15760405162461bcd60e51b815260206004820152601560248201527f496e76616c6964206261746368206865616465722e000000000000000000000060448201526064016103c6565b6105ce836020015185846000015185602001518760400151611091565b61061a5760405162461bcd60e51b815260206004820152601860248201527f496e76616c696420696e636c7573696f6e2070726f6f662e000000000000000060448201526064016103c6565b506001949350505050565b60008061063183610f1a565b5064ffffffffff169392505050565b600061064a610889565b73ffffffffffffffffffffffffffffffffffffffff1663576f2588836040518263ffffffff1660e01b815260040161068491815260200190565b60206040518083038186803b15801561069c57600080fd5b505afa1580156106b0573d6000803e3d6000fd5b505050506040513d601f19601f8201168201806040525081019061050191906120b8565b60006106e1600354610b6b565b6040516020016106f191906120d1565b60405160208183030381529060405290506107106003548484846108ac565b505050565b60008082608001518060200190518101906107309190612112565b509050806107a65760405162461bcd60e51b815260206004820152602560248201527f4261746368206865616465722074696d657374616d702063616e6e6f7420626560448201527f207a65726f00000000000000000000000000000000000000000000000000000060648201526084016103c6565b42600154826107b59190612171565b119392505050565b6107fb6040518060400160405280600d81526020017f4d455449535f4d414e414745520000000000000000000000000000000000000081525061045a565b73ffffffffffffffffffffffffffffffffffffffff163373ffffffffffffffffffffffffffffffffffffffff16146108755760405162461bcd60e51b815260206004820152600b60248201527f6e6f7720616c6c6f77656400000000000000000000000000000000000000000060448201526064016103c6565b600155565b610886600354826102fa565b50565b60006105476040518060600160405280602181526020016123806021913961045a565b6108b584610625565b82146109295760405162461bcd60e51b815260206004820152603d60248201527f41637475616c20626174636820737461727420696e64657820646f6573206e6f60448201527f74206d6174636820657870656374656420737461727420696e6465782e00000060648201526084016103c6565b60006109348261045a565b90506109746040518060400160405280600b81526020017f426f6e644d616e6167657200000000000000000000000000000000000000000081525061045a565b6040517ff3b96f1c0000000000000000000000000000000000000000000000000000000081526004810187905233602482015273ffffffffffffffffffffffffffffffffffffffff8381166044830152919091169063f3b96f1c9060640160206040518083038186803b1580156109ea57600080fd5b505afa1580156109fe573d6000803e3d6000fd5b505050506040513d601f19601f82011682018060405250810190610a229190612189565b610a945760405162461bcd60e51b815260206004820152602f60248201527f50726f706f73657220646f6573206e6f74206861766520656e6f75676820636f60448201527f6c6c61746572616c20706f73746564000000000000000000000000000000000060648201526084016103c6565b6000845111610b0b5760405162461bcd60e51b815260206004820152602360248201527f43616e6e6f74207375626d697420616e20656d7074792073746174652062617460448201527f63682e000000000000000000000000000000000000000000000000000000000060648201526084016103c6565b610b5785854233604051602001610b4292919091825273ffffffffffffffffffffffffffffffffffffffff16602082015260400190565b604051602081830303815290604052846112ff565b5050505050565b6000610547600354610640565b606081610bab57505060408051808201909152600181527f3000000000000000000000000000000000000000000000000000000000000000602082015290565b8160005b8115610bd55780610bbf816121ab565b9150610bce9050600a83612213565b9150610baf565b60008167ffffffffffffffff811115610bf057610bf0611aa9565b6040519080825280601f01601f191660200182016040528015610c1a576020820181803683370190505b509050815b8515610cbf57610c30600182612227565b90506000610c3f600a88612213565b610c4a90600a61223e565b610c549088612227565b610c5f90603061227b565b905060008160f81b905080848481518110610c7c57610c7c6122a0565b60200101907effffffffffffffffffffffffffffffffffffffffffffffffffffffffffffff1916908160001a905350610cb6600a89612213565b97505050610c1f565b50949350505050565b610cd0610889565b73ffffffffffffffffffffffffffffffffffffffff1663576f2588836040518263ffffffff1660e01b8152600401610d0a91815260200190565b60206040518083038186803b158015610d2257600080fd5b505afa158015610d36573d6000803e3d6000fd5b505050506040513d601f19601f82011682018060405250810190610d5a91906120b8565b815110610da95760405162461bcd60e51b815260206004820152601460248201527f496e76616c696420626174636820696e6465782e00000000000000000000000060448201526064016103c6565b610db38282610fcc565b610dff5760405162461bcd60e51b815260206004820152601560248201527f496e76616c6964206261746368206865616465722e000000000000000000000060448201526064016103c6565b610e07610889565b8151606083015173ffffffffffffffffffffffffffffffffffffffff929092169163bc05257691859160281b6040517fffffffff0000000000000000000000000000000000000000000000000000000060e086901b168152600481019390935260248301919091527fffffffffffffffffffffffffffffffffffffffffffffffffffffff0000000000166044820152606401600060405180830381600087803b158015610eb357600080fd5b505af1158015610ec7573d6000803e3d6000fd5b5050505080600001517f6e9c082632d809680ee6227e58afd9a7c24ee8a43d61577b2e98f9e185fc630d838360200151604051610f0e929190918252602082015260400190565b60405180910390a25050565b6000806000610f27610889565b73ffffffffffffffffffffffffffffffffffffffff166324a49415856040518263ffffffff1660e01b8152600401610f6191815260200190565b60206040518083038186803b158015610f7957600080fd5b505afa158015610f8d573d6000803e3d6000fd5b505050506040513d601f19601f82011682018060405250810190610fb191906122cf565b64ffffffffff602882901c169560509190911c945092505050565b6000610fd6610889565b82516040517f67d18b9b00000000000000000000000000000000000000000000000000000000815260048101869052602481019190915273ffffffffffffffffffffffffffffffffffffffff91909116906367d18b9b9060440160206040518083038186803b15801561104857600080fd5b505afa15801561105c573d6000803e3d6000fd5b505050506040513d601f19601f8201168201806040525081019061108091906120b8565b6110898361149c565b149392505050565b60008082116111085760405162461bcd60e51b815260206004820152603760248201527f4c69625f4d65726b6c65547265653a20546f74616c206c6561766573206d757360448201527f742062652067726561746572207468616e207a65726f2e00000000000000000060648201526084016103c6565b81841061117c5760405162461bcd60e51b8152602060048201526024808201527f4c69625f4d65726b6c65547265653a20496e646578206f7574206f6620626f7560448201527f6e64732e0000000000000000000000000000000000000000000000000000000060648201526084016103c6565b611185826114e2565b8351146112205760405162461bcd60e51b815260206004820152604d60248201527f4c69625f4d65726b6c65547265653a20546f74616c207369626c696e6773206460448201527f6f6573206e6f7420636f72726563746c7920636f72726573706f6e6420746f2060648201527f746f74616c206c65617665732e00000000000000000000000000000000000000608482015260a4016103c6565b8460005b84518110156112f257856001166001141561128b5784818151811061124b5761124b6122a0565b60200260200101518260405160200161126e929190918252602082015260400190565b6040516020818303038152906040528051906020012091506112d9565b8185828151811061129e5761129e6122a0565b60200260200101516040516020016112c0929190918252602082015260400190565b6040516020818303038152906040528051906020012091505b60019590951c94806112ea816121ab565b915050611224565b5090951495945050505050565b60008061130b86610f1a565b9150915042905060006040518060a0016040528061132889610640565b8152602001611336886115c5565b8152602001875181526020018464ffffffffff16815260200186815250905080600001517fbaa1d762384057169afd12b625998a5a7ed502c2e229acdbead30f3f6496399d8883602001518460400151856060015186608001516040516113a1959493929190612311565b60405180910390a26113b1610889565b73ffffffffffffffffffffffffffffffffffffffff1663e6e436c0886113d68461149c565b6113fb856040015186606001516113ed9190612171565b602888811b91909117901b90565b6040517fffffffff0000000000000000000000000000000000000000000000000000000060e086901b168152600481019390935260248301919091527fffffffffffffffffffffffffffffffffffffffffffffffffffffff0000000000166044820152606401600060405180830381600087803b15801561147b57600080fd5b505af115801561148f573d6000803e3d6000fd5b5050505050505050505050565b600081602001518260400151836060015184608001516040516020016114c5949392919061233c565b604051602081830303815290604052805190602001209050919050565b60008082116115595760405162461bcd60e51b815260206004820152603060248201527f4c69625f4d65726b6c65547265653a2043616e6e6f7420636f6d70757465206360448201527f65696c286c6f675f3229206f6620302e0000000000000000000000000000000060648201526084016103c6565b816001141561156a57506000919050565b81600060805b600181106115a85780611586600180831b612227565b901b8316156115a0576115998183612171565b92811c9291505b60011c611570565b506001811b84146115be57610517600182612171565b9392505050565b60008082511161163d5760405162461bcd60e51b815260206004820152603460248201527f4c69625f4d65726b6c65547265653a204d7573742070726f766964652061742060448201527f6c65617374206f6e65206c65616620686173682e00000000000000000000000060648201526084016103c6565b815160011415611669578160008151811061165a5761165a6122a0565b60200260200101519050919050565b60408051610200810182527f290decd9548b62a8d60345a988386fc84ba6bc95484008f6362f93160ef3e56381527f633dc4d7da7256660a892f8f1604a44b5432649cc8ec5cb3ced4c4e6ac94dd1d60208201527f890740a8eb06ce9be422cb8da5cdafc2b58c0a5e24036c578de2a433c828ff7d818301527f3b8ec09e026fdc305365dfc94e189a81b38c7597b3d941c279f042e8206e0bd86060808301919091527fecd50eee38e386bd62be9bedb990706951b65fe053bd9d8a521af753d139e2da60808301527fdefff6d330bb5403f63b14f33b578274160de3a50df4efecf0e0db73bcdd3da560a08301527f617bdd11f7c0a11f49db22f629387a12da7596f9d1704d7465177c63d88ec7d760c08301527f292c23a9aa1d8bea7e2435e555a4a60e379a5a35f3f452bae60121073fb6eead60e08301527fe1cea92ed99acdcb045a6726b2f87107e8a61620a232cf4d7d5b5766b3952e106101008301527f7ad66c0a68c72cb89e4fb4303841966e4062a76ab97451e3b9fb526a5ceb7f826101208301527fe026cc5a4aed3c22a58cbd3d2ac754c9352c5436f638042dca99034e836365166101408301527f3d04cffd8b46a874edf5cfae63077de85f849a660426697b06a829c70dd1409c6101608301527fad676aa337a485e4728a0b240d92b3ef7b3c372d06d189322bfd5f61f1e7203e6101808301527fa2fca4a49658f9fab7aa63289c91b7c7b6c832a6d0e69334ff5b0a3483d09dab6101a08301527f4ebfd9cd7bca2505f7bef59cc1c12ecc708fff26ae4af19abe852afe9e20c8626101c08301527f2def10d13dd169f550f578bda343d9717a138562e0093b380a1120789d53cf106101e083015282518381529081018352909160009190602082018180368337505085519192506000918291508180805b6001841115611a7f5761191a600285612213565b915061192760028561236b565b600114905060005b828110156119d3578a61194382600261223e565b81518110611953576119536122a0565b602002602001015196508a81600261196b919061223e565b611976906001612171565b81518110611986576119866122a0565b6020026020010151955086602089015285604089015287805190602001208b82815181106119b6576119b66122a0565b6020908102919091010152806119cb816121ab565b91505061192f565b508015611a4f57896119e6600186612227565b815181106119f6576119f66122a0565b60200260200101519550878360108110611a1257611a126122a0565b602002015160001b945085602088015284604088015286805190602001208a8381518110611a4257611a426122a0565b6020026020010181815250505b80611a5b576000611a5e565b60015b611a6b9060ff1683612171565b935082611a77816121ab565b935050611906565b89600081518110611a9257611a926122a0565b602002602001015198505050505050505050919050565b7f4e487b7100000000000000000000000000000000000000000000000000000000600052604160045260246000fd5b604051601f82017fffffffffffffffffffffffffffffffffffffffffffffffffffffffffffffffe016810167ffffffffffffffff81118282101715611b1f57611b1f611aa9565b604052919050565b600067ffffffffffffffff831115611b4157611b41611aa9565b611b7260207fffffffffffffffffffffffffffffffffffffffffffffffffffffffffffffffe0601f86011601611ad8565b9050828152838383011115611b8657600080fd5b828260208301376000602084830101529392505050565b600060a08284031215611baf57600080fd5b60405160a0810167ffffffffffffffff8282108183111715611bd357611bd3611aa9565b81604052829350843583526020850135602084015260408501356040840152606085013560608401526080850135915080821115611c1057600080fd5b508301601f81018513611c2257600080fd5b611c3185823560208401611b27565b6080830152505092915050565b60008060408385031215611c5157600080fd5b82359150602083013567ffffffffffffffff811115611c6f57600080fd5b611c7b85828601611b9d565b9150509250929050565b600082601f830112611c9657600080fd5b6115be83833560208501611b27565b600060208284031215611cb757600080fd5b813567ffffffffffffffff811115611cce57600080fd5b61051784828501611c85565b600082601f830112611ceb57600080fd5b8135602067ffffffffffffffff821115611d0757611d07611aa9565b8160051b611d16828201611ad8565b9283528481018201928281019087851115611d3057600080fd5b83870192505b84831015611d4f57823582529183019190830190611d36565b979650505050505050565b600060408284031215611d6c57600080fd5b6040516040810167ffffffffffffffff8282108183111715611d9057611d90611aa9565b81604052829350843583526020850135915080821115611daf57600080fd5b50611dbc85828601611cda565b6020830152505092915050565b600080600060608486031215611dde57600080fd5b83359250602084013567ffffffffffffffff80821115611dfd57600080fd5b611e0987838801611b9d565b93506040860135915080821115611e1f57600080fd5b50611e2c86828701611d5a565b9150509250925092565b600060208284031215611e4857600080fd5b5035919050565b60008060008060808587031215611e6557600080fd5b8435935060208501359250604085013567ffffffffffffffff80821115611e8b57600080fd5b611e9788838901611b9d565b93506060870135915080821115611ead57600080fd5b50611eba87828801611d5a565b91505092959194509250565b60008060408385031215611ed957600080fd5b823567ffffffffffffffff811115611ef057600080fd5b611efc85828601611cda565b95602094909401359450505050565b600060208284031215611f1d57600080fd5b813567ffffffffffffffff811115611f3457600080fd5b61051784828501611b9d565b60008060008060808587031215611f5657600080fd5b84359350602085013567ffffffffffffffff80821115611f7557600080fd5b611f8188838901611cda565b9450604087013593506060870135915080821115611f9e57600080fd5b50611eba87828801611c85565b60005b83811015611fc6578181015183820152602001611fae565b83811115611fd5576000848401525b50505050565b60008251611fed818460208701611fab565b7f5f4d564d5f467261756456657269666965720000000000000000000000000000920191825250601201919050565b60008151808452612034816020860160208601611fab565b601f017fffffffffffffffffffffffffffffffffffffffffffffffffffffffffffffffe0169290920160200192915050565b6020815260006115be602083018461201c565b73ffffffffffffffffffffffffffffffffffffffff8116811461088657600080fd5b6000602082840312156120ad57600080fd5b81516115be81612079565b6000602082840312156120ca57600080fd5b5051919050565b600082516120e3818460208701611fab565b7f5f4d564d5f50726f706f73657200000000000000000000000000000000000000920191825250600d01919050565b6000806040838503121561212557600080fd5b82519150602083015161213781612079565b809150509250929050565b7f4e487b7100000000000000000000000000000000000000000000000000000000600052601160045260246000fd5b6000821982111561218457612184612142565b500190565b60006020828403121561219b57600080fd5b815180151581146115be57600080fd5b60007fffffffffffffffffffffffffffffffffffffffffffffffffffffffffffffffff8214156121dd576121dd612142565b5060010190565b7f4e487b7100000000000000000000000000000000000000000000000000000000600052601260045260246000fd5b600082612222576122226121e4565b500490565b60008282101561223957612239612142565b500390565b6000817fffffffffffffffffffffffffffffffffffffffffffffffffffffffffffffffff048311821515161561227657612276612142565b500290565b600060ff821660ff84168060ff0382111561229857612298612142565b019392505050565b7f4e487b7100000000000000000000000000000000000000000000000000000000600052603260045260246000fd5b6000602082840312156122e157600080fd5b81517fffffffffffffffffffffffffffffffffffffffffffffffffffffff0000000000811681146115be57600080fd5b85815284602082015283604082015282606082015260a060808201526000611d4f60a083018461201c565b848152836020820152826040820152608060608201526000612361608083018461201c565b9695505050505050565b60008261237a5761237a6121e4565b50069056fe436861696e53746f72616765436f6e7461696e65722d5343432d62617463686573a26469706673582212204805b3ff2e7d06878a53492738d16f71a48209a3dbda5a39aa6221c90f01275164736f6c63430008090033",
  "devdoc": {
    "details": "The State Commitment Chain (SCC) contract contains a list of proposed state roots which Proposers assert to be a result of each transaction in the Canonical Transaction Chain (CTC). Elements here have a 1:1 correspondence with transactions in the CTC, and should be the unique state root calculated off-chain by applying the canonical transactions one by one. Runtime target: EVM",
    "kind": "dev",
    "methods": {
      "appendStateBatch(bytes32[],uint256)": {
        "params": {
          "_batch": "Batch of state roots.",
          "_shouldStartAtElement": "Index of the element at which this batch should start."
        }
      },
      "appendStateBatchByChainId(uint256,bytes32[],uint256,string)": {
        "params": {
          "_batch": "Batch of state roots.",
          "_chainId": "identity for the l2 chain.",
          "_shouldStartAtElement": "Index of the element at which this batch should start."
        }
      },
      "batches()": {
        "returns": {
          "_0": "Reference to the batch storage container."
        }
      },
      "constructor": {
        "params": {
          "_libAddressManager": "Address of the Address Manager."
        }
      },
      "deleteStateBatch((uint256,bytes32,uint256,uint256,bytes))": {
        "params": {
          "_batchHeader": "Header of the batch to start deleting from."
        }
      },
      "deleteStateBatchByChainId(uint256,(uint256,bytes32,uint256,uint256,bytes))": {
        "params": {
          "_batchHeader": "Header of the batch to start deleting from.",
          "_chainId": "identity for the l2 chain."
        }
      },
      "getLastSequencerTimestamp()": {
        "returns": {
          "_lastSequencerTimestamp": "Last sequencer batch timestamp."
        }
      },
      "getLastSequencerTimestampByChainId(uint256)": {
        "params": {
          "_chainId": "identity for the l2 chain."
        },
        "returns": {
          "_lastSequencerTimestamp": "Last sequencer batch timestamp."
        }
      },
      "getTotalBatches()": {
        "returns": {
          "_totalBatches": "Total submitted batches."
        }
      },
      "getTotalBatchesByChainId(uint256)": {
        "params": {
          "_chainId": "identity for the l2 chain."
        },
        "returns": {
          "_totalBatches": "Total submitted batches."
        }
      },
      "getTotalElements()": {
        "returns": {
          "_totalElements": "Total submitted elements."
        }
      },
      "getTotalElementsByChainId(uint256)": {
        "params": {
          "_chainId": "identity for the l2 chain."
        },
        "returns": {
          "_totalElements": "Total submitted elements."
        }
      },
      "insideFraudProofWindow((uint256,bytes32,uint256,uint256,bytes))": {
        "params": {
          "_batchHeader": "Header of the batch to check."
        },
        "returns": {
          "_inside": "Whether or not the batch is inside the fraud proof window."
        }
      },
      "resolve(string)": {
        "params": {
          "_name": "Name to resolve an address for."
        },
        "returns": {
          "_0": "Address associated with the given name."
        }
      },
      "verifyStateCommitment(bytes32,(uint256,bytes32,uint256,uint256,bytes),(uint256,bytes32[]))": {
        "params": {
          "_batchHeader": "Header of the batch in which the element was included.",
          "_element": "Hash of the element to verify a proof for.",
          "_proof": "Merkle inclusion proof for the element."
        }
      },
      "verifyStateCommitmentByChainId(uint256,bytes32,(uint256,bytes32,uint256,uint256,bytes),(uint256,bytes32[]))": {
        "params": {
          "_batchHeader": "Header of the batch in which the element was included.",
          "_chainId": "identity for the l2 chain.",
          "_element": "Hash of the element to verify a proof for.",
          "_proof": "Merkle inclusion proof for the element."
        }
      }
    },
    "title": "MVM_StateCommitmentChain",
    "version": 1
  },
  "userdoc": {
    "kind": "user",
    "methods": {
      "appendStateBatch(bytes32[],uint256)": {
        "notice": "Appends a batch of state roots to the chain."
      },
      "appendStateBatchByChainId(uint256,bytes32[],uint256,string)": {
        "notice": "Appends a batch of state roots to the chain."
      },
      "batches()": {
        "notice": "Accesses the batch storage container."
      },
      "deleteStateBatch((uint256,bytes32,uint256,uint256,bytes))": {
        "notice": "Deletes all state roots after (and including) a given batch."
      },
      "deleteStateBatchByChainId(uint256,(uint256,bytes32,uint256,uint256,bytes))": {
        "notice": "Deletes all state roots after (and including) a given batch."
      },
      "getLastSequencerTimestamp()": {
        "notice": "Retrieves the timestamp of the last batch submitted by the sequencer."
      },
      "getLastSequencerTimestampByChainId(uint256)": {
        "notice": "Retrieves the timestamp of the last batch submitted by the sequencer."
      },
      "getTotalBatches()": {
        "notice": "Retrieves the total number of batches submitted."
      },
      "getTotalBatchesByChainId(uint256)": {
        "notice": "Retrieves the total number of batches submitted."
      },
      "getTotalElements()": {
        "notice": "Retrieves the total number of elements submitted."
      },
      "getTotalElementsByChainId(uint256)": {
        "notice": "Retrieves the total number of elements submitted."
      },
      "insideFraudProofWindow((uint256,bytes32,uint256,uint256,bytes))": {
        "notice": "Checks whether a given batch is still inside its fraud proof window."
      },
      "resolve(string)": {
        "notice": "Resolves the address associated with a given name."
      },
      "verifyStateCommitment(bytes32,(uint256,bytes32,uint256,uint256,bytes),(uint256,bytes32[]))": {
        "notice": "Verifies a batch inclusion proof."
      },
      "verifyStateCommitmentByChainId(uint256,bytes32,(uint256,bytes32,uint256,uint256,bytes),(uint256,bytes32[]))": {
        "notice": "Verifies a batch inclusion proof."
      }
    },
    "version": 1
  },
  "storageLayout": {
    "storage": [
      {
        "astId": 16199,
        "contract": "contracts/MVM/MVM_StateCommitmentChain.sol:MVM_StateCommitmentChain",
        "label": "libAddressManager",
        "offset": 0,
        "slot": "0",
        "type": "t_contract(Lib_AddressManager)16191"
      },
      {
        "astId": 12509,
        "contract": "contracts/MVM/MVM_StateCommitmentChain.sol:MVM_StateCommitmentChain",
        "label": "FRAUD_PROOF_WINDOW",
        "offset": 0,
        "slot": "1",
        "type": "t_uint256"
      },
      {
        "astId": 12511,
        "contract": "contracts/MVM/MVM_StateCommitmentChain.sol:MVM_StateCommitmentChain",
        "label": "SEQUENCER_PUBLISH_WINDOW",
        "offset": 0,
        "slot": "2",
        "type": "t_uint256"
      },
      {
        "astId": 12514,
        "contract": "contracts/MVM/MVM_StateCommitmentChain.sol:MVM_StateCommitmentChain",
        "label": "DEFAULT_CHAINID",
        "offset": 0,
        "slot": "3",
        "type": "t_uint256"
      }
    ],
    "types": {
      "t_contract(Lib_AddressManager)16191": {
        "encoding": "inplace",
        "label": "contract Lib_AddressManager",
        "numberOfBytes": "20"
      },
      "t_uint256": {
        "encoding": "inplace",
        "label": "uint256",
        "numberOfBytes": "32"
      }
    }
  }
}