{
  "address": "0x431e877E216714647a4DCcEFFC03d7B4Fd4B825E",
  "abi": [
    {
      "inputs": [],
      "stateMutability": "nonpayable",
      "type": "constructor"
    },
    {
      "anonymous": false,
      "inputs": [
        {
          "indexed": false,
          "internalType": "uint256",
          "name": "_chainId",
          "type": "uint256"
        },
        {
          "indexed": false,
          "internalType": "uint256",
          "name": "_batchIndex",
          "type": "uint256"
        },
        {
          "indexed": false,
          "internalType": "uint40",
          "name": "_shouldStartAtElement",
          "type": "uint40"
        },
        {
          "indexed": false,
          "internalType": "uint24",
          "name": "_totalElementsToAppend",
          "type": "uint24"
        },
        {
          "indexed": false,
          "internalType": "uint256",
          "name": "_txBatchSize",
          "type": "uint256"
        },
        {
          "indexed": false,
          "internalType": "uint256",
          "name": "_txBatchTime",
          "type": "uint256"
        },
        {
          "indexed": false,
          "internalType": "bytes32",
          "name": "_root",
          "type": "bytes32"
        }
      ],
      "name": "AppendBatchElement",
      "type": "event"
    },
    {
      "anonymous": false,
      "inputs": [
        {
          "indexed": false,
          "internalType": "address",
          "name": "_sender",
          "type": "address"
        },
        {
          "indexed": false,
          "internalType": "uint256",
          "name": "_chainId",
          "type": "uint256"
        },
        {
          "indexed": false,
          "internalType": "uint256",
          "name": "_batchIndex",
          "type": "uint256"
        },
        {
          "indexed": false,
          "internalType": "uint256",
          "name": "_blockNumber",
          "type": "uint256"
        },
        {
          "indexed": false,
          "internalType": "uint256",
          "name": "_stakeAmount",
          "type": "uint256"
        },
        {
          "indexed": false,
          "internalType": "bool",
          "name": "_verified",
          "type": "bool"
        },
        {
          "indexed": false,
          "internalType": "bool",
          "name": "_sequencer",
          "type": "bool"
        }
      ],
      "name": "SetBatchTxData",
      "type": "event"
    },
    {
      "anonymous": false,
      "inputs": [
        {
          "indexed": false,
          "internalType": "address",
          "name": "_sender",
          "type": "address"
        },
        {
          "indexed": false,
          "internalType": "uint256",
          "name": "_chainId",
          "type": "uint256"
        },
        {
          "indexed": false,
          "internalType": "uint256",
          "name": "_batchIndex",
          "type": "uint256"
        },
        {
          "indexed": false,
          "internalType": "uint256",
          "name": "_blockNumber",
          "type": "uint256"
        },
        {
          "indexed": false,
          "internalType": "uint256",
          "name": "_amount",
          "type": "uint256"
        }
      ],
      "name": "VerifierStake",
      "type": "event"
    },
    {
      "inputs": [],
      "name": "CONFIG_OWNER_KEY",
      "outputs": [
        {
          "internalType": "string",
          "name": "",
          "type": "string"
        }
      ],
      "stateMutability": "view",
      "type": "function"
    },
    {
      "inputs": [],
      "name": "TXDATA_SUBMIT_TIMEOUT",
      "outputs": [
        {
          "internalType": "uint256",
          "name": "",
          "type": "uint256"
        }
      ],
      "stateMutability": "view",
      "type": "function"
    },
    {
      "inputs": [],
      "name": "appendSequencerBatchByChainId",
      "outputs": [],
      "stateMutability": "nonpayable",
      "type": "function"
    },
    {
      "inputs": [
        {
          "internalType": "uint256",
          "name": "_chainId",
          "type": "uint256"
        },
        {
          "internalType": "uint256",
          "name": "_batchIndex",
          "type": "uint256"
        },
        {
          "internalType": "uint256",
          "name": "_blockNumber",
          "type": "uint256"
        },
        {
          "internalType": "bytes",
          "name": "_data",
          "type": "bytes"
        }
      ],
      "name": "checkBatchTxHash",
      "outputs": [
        {
          "internalType": "bytes32",
          "name": "txHash",
          "type": "bytes32"
        },
        {
          "internalType": "bool",
          "name": "verified",
          "type": "bool"
        }
      ],
      "stateMutability": "view",
      "type": "function"
    },
    {
      "inputs": [],
      "name": "disableWhiteList",
      "outputs": [],
      "stateMutability": "nonpayable",
      "type": "function"
    },
    {
      "inputs": [
        {
          "internalType": "uint256",
          "name": "_chainId",
          "type": "uint256"
        },
        {
          "internalType": "uint256",
          "name": "_batchIndex",
          "type": "uint256"
        },
        {
          "internalType": "uint256",
          "name": "_blockNumber",
          "type": "uint256"
        }
      ],
      "name": "getBatchTxData",
      "outputs": [
        {
          "internalType": "bytes",
          "name": "txData",
          "type": "bytes"
        },
        {
          "internalType": "bool",
          "name": "verified",
          "type": "bool"
        }
      ],
      "stateMutability": "view",
      "type": "function"
    },
    {
      "inputs": [],
      "name": "getStakeBaseCost",
      "outputs": [
        {
          "internalType": "uint256",
          "name": "",
          "type": "uint256"
        }
      ],
      "stateMutability": "view",
      "type": "function"
    },
    {
      "inputs": [
        {
          "internalType": "uint256",
          "name": "_chainId",
          "type": "uint256"
        },
        {
          "internalType": "uint256",
          "name": "_batchIndex",
          "type": "uint256"
        }
      ],
      "name": "getStakeCostByBatch",
      "outputs": [
        {
          "internalType": "uint256",
          "name": "",
          "type": "uint256"
        }
      ],
      "stateMutability": "view",
      "type": "function"
    },
    {
      "inputs": [],
      "name": "getStakeSeqSeconds",
      "outputs": [
        {
          "internalType": "uint256",
          "name": "",
          "type": "uint256"
        }
      ],
      "stateMutability": "view",
      "type": "function"
    },
    {
      "inputs": [],
      "name": "getStakeUnitCost",
      "outputs": [
        {
          "internalType": "uint256",
          "name": "",
          "type": "uint256"
        }
      ],
      "stateMutability": "view",
      "type": "function"
    },
    {
      "inputs": [],
      "name": "getTxBatchSize",
      "outputs": [
        {
          "internalType": "uint256",
          "name": "",
          "type": "uint256"
        }
      ],
      "stateMutability": "view",
      "type": "function"
    },
    {
      "inputs": [],
      "name": "getTxDataSliceCount",
      "outputs": [
        {
          "internalType": "uint256",
          "name": "",
          "type": "uint256"
        }
      ],
      "stateMutability": "view",
      "type": "function"
    },
    {
      "inputs": [],
      "name": "getTxDataSliceSize",
      "outputs": [
        {
          "internalType": "uint256",
          "name": "",
          "type": "uint256"
        }
      ],
      "stateMutability": "view",
      "type": "function"
    },
    {
      "inputs": [
        {
          "internalType": "address",
          "name": "_verifier",
          "type": "address"
        }
      ],
      "name": "isWhiteListed",
      "outputs": [
        {
          "internalType": "bool",
          "name": "",
          "type": "bool"
        }
      ],
      "stateMutability": "view",
      "type": "function"
    },
    {
      "inputs": [],
      "name": "libAddressManager",
      "outputs": [
        {
          "internalType": "contract Lib_AddressManager",
          "name": "",
          "type": "address"
        }
      ],
      "stateMutability": "view",
      "type": "function"
    },
    {
      "inputs": [
        {
          "internalType": "string",
          "name": "_name",
          "type": "string"
        }
      ],
      "name": "resolve",
      "outputs": [
        {
          "internalType": "address",
          "name": "",
          "type": "address"
        }
      ],
      "stateMutability": "view",
      "type": "function"
    },
    {
      "inputs": [
        {
          "internalType": "uint256",
          "name": "_chainId",
          "type": "uint256"
        },
        {
          "internalType": "uint256",
          "name": "_batchIndex",
          "type": "uint256"
        },
        {
          "internalType": "uint256",
          "name": "_blockNumber",
          "type": "uint256"
        },
        {
          "internalType": "bytes",
          "name": "_data",
          "type": "bytes"
        },
        {
          "internalType": "uint256",
          "name": "_leafIndex",
          "type": "uint256"
        },
        {
          "internalType": "uint256",
          "name": "_totalLeaves",
          "type": "uint256"
        },
        {
          "internalType": "bytes32[]",
          "name": "_proof",
          "type": "bytes32[]"
        }
      ],
      "name": "setBatchTxDataForStake",
      "outputs": [],
      "stateMutability": "nonpayable",
      "type": "function"
    },
    {
      "inputs": [
        {
          "internalType": "uint256",
          "name": "_chainId",
          "type": "uint256"
        },
        {
          "internalType": "uint256",
          "name": "_batchIndex",
          "type": "uint256"
        },
        {
          "internalType": "uint256",
          "name": "_blockNumber",
          "type": "uint256"
        },
        {
          "internalType": "bytes",
          "name": "_data",
          "type": "bytes"
        }
      ],
      "name": "setBatchTxDataForVerifier",
      "outputs": [],
      "stateMutability": "nonpayable",
      "type": "function"
    },
    {
      "inputs": [
        {
          "internalType": "uint256",
          "name": "_chainId",
          "type": "uint256"
        },
        {
          "internalType": "uint256",
          "name": "_batchIndex",
          "type": "uint256"
        },
        {
          "internalType": "uint256",
          "name": "_blockNumber",
          "type": "uint256"
        },
        {
          "internalType": "bool",
          "name": "_verified",
          "type": "bool"
        }
      ],
      "name": "setBatchTxDataVerified",
      "outputs": [],
      "stateMutability": "nonpayable",
      "type": "function"
    },
    {
      "inputs": [
        {
          "internalType": "uint256",
          "name": "_stakeBaseCost",
          "type": "uint256"
        }
      ],
      "name": "setStakeBaseCost",
      "outputs": [],
      "stateMutability": "nonpayable",
      "type": "function"
    },
    {
      "inputs": [
        {
          "internalType": "uint256",
          "name": "_seconds",
          "type": "uint256"
        }
      ],
      "name": "setStakeSeqSeconds",
      "outputs": [],
      "stateMutability": "nonpayable",
      "type": "function"
    },
    {
      "inputs": [
        {
          "internalType": "uint256",
          "name": "_stakeUnitCost",
          "type": "uint256"
        }
      ],
      "name": "setStakeUnitCost",
      "outputs": [],
      "stateMutability": "nonpayable",
      "type": "function"
    },
    {
      "inputs": [
        {
          "internalType": "uint256",
          "name": "_size",
          "type": "uint256"
        }
      ],
      "name": "setTxBatchSize",
      "outputs": [],
      "stateMutability": "nonpayable",
      "type": "function"
    },
    {
      "inputs": [
        {
          "internalType": "uint256",
          "name": "_count",
          "type": "uint256"
        }
      ],
      "name": "setTxDataSliceCount",
      "outputs": [],
      "stateMutability": "nonpayable",
      "type": "function"
    },
    {
      "inputs": [
        {
          "internalType": "uint256",
          "name": "_size",
          "type": "uint256"
        }
      ],
      "name": "setTxDataSliceSize",
      "outputs": [],
      "stateMutability": "nonpayable",
      "type": "function"
    },
    {
      "inputs": [
        {
          "internalType": "address",
          "name": "_verifier",
          "type": "address"
        },
        {
          "internalType": "bool",
          "name": "_allowed",
          "type": "bool"
        }
      ],
      "name": "setWhiteList",
      "outputs": [],
      "stateMutability": "nonpayable",
      "type": "function"
    },
    {
      "inputs": [],
      "name": "stakeBaseCost",
      "outputs": [
        {
          "internalType": "uint256",
          "name": "",
          "type": "uint256"
        }
      ],
      "stateMutability": "view",
      "type": "function"
    },
    {
      "inputs": [],
      "name": "stakeSeqSeconds",
      "outputs": [
        {
          "internalType": "uint256",
          "name": "",
          "type": "uint256"
        }
      ],
      "stateMutability": "view",
      "type": "function"
    },
    {
      "inputs": [],
      "name": "stakeUnitCost",
      "outputs": [
        {
          "internalType": "uint256",
          "name": "",
          "type": "uint256"
        }
      ],
      "stateMutability": "view",
      "type": "function"
    },
    {
      "inputs": [],
      "name": "txBatchSize",
      "outputs": [
        {
          "internalType": "uint256",
          "name": "",
          "type": "uint256"
        }
      ],
      "stateMutability": "view",
      "type": "function"
    },
    {
      "inputs": [],
      "name": "txDataSliceCount",
      "outputs": [
        {
          "internalType": "uint256",
          "name": "",
          "type": "uint256"
        }
      ],
      "stateMutability": "view",
      "type": "function"
    },
    {
      "inputs": [],
      "name": "txDataSliceSize",
      "outputs": [
        {
          "internalType": "uint256",
          "name": "",
          "type": "uint256"
        }
      ],
      "stateMutability": "view",
      "type": "function"
    },
    {
      "inputs": [
        {
          "internalType": "uint256",
          "name": "_chainId",
          "type": "uint256"
        },
        {
          "internalType": "uint256",
          "name": "_batchIndex",
          "type": "uint256"
        },
        {
          "internalType": "uint256",
          "name": "_blockNumber",
          "type": "uint256"
        }
      ],
      "name": "verifierStake",
      "outputs": [],
      "stateMutability": "payable",
      "type": "function"
    },
    {
      "inputs": [
        {
          "internalType": "address",
          "name": "",
          "type": "address"
        }
      ],
      "name": "whitelist",
      "outputs": [
        {
          "internalType": "bool",
          "name": "",
          "type": "bool"
        }
      ],
      "stateMutability": "view",
      "type": "function"
    },
    {
      "inputs": [
        {
          "internalType": "uint256",
          "name": "_chainId",
          "type": "uint256"
        },
        {
          "internalType": "uint256",
          "name": "_batchIndex",
          "type": "uint256"
        },
        {
          "internalType": "uint256",
          "name": "_blockNumber",
          "type": "uint256"
        }
      ],
      "name": "withdrawStake",
      "outputs": [],
      "stateMutability": "nonpayable",
      "type": "function"
    }
  ],
  "transactionHash": "0xdd80550557de1bef6543a0f8ac13871f4e403690e4ec43e5ba050fcf65d83c52",
  "args": [],
  "solcInputHash": "afb251d135b51a655a0ec250ea0760e3",
  "bytecode": "0x608060405234801561001057600080fd5b50600080546001600160a01b03191690556146cc806100306000396000f3fe6080604052600436106102335760003560e01c80637600fa1211610138578063a6a56da5116100b0578063d6a97a341161007f578063f137391611610064578063f137391614610653578063f1e7746114610673578063f6f24f671461069357600080fd5b8063d6a97a3414610629578063dcd836161461063e57600080fd5b8063a6a56da5146105b6578063a8cda37b146105c9578063b357ab92146105de578063d5fb60d9146105f457600080fd5b806386e4206e116101075780639447fe88116100ec5780639447fe88146105505780639b19251a14610566578063a5f5e7191461059657600080fd5b806386e4206e146105105780638d14e1271461053057600080fd5b80637600fa121461049a5780637f9c9777146104ba57806381147877146104da57806383cbbb6d146104f057600080fd5b80633ac19597116101cb5780634e74b1551161019a57806361f4edea1161017f57806361f4edea146103e6578063669fdeb5146104145780636f9170f61461046a57600080fd5b80634e74b155146103bc5780635e7ce13a146103d157600080fd5b80633ac1959714610351578063461a44781461037157806348406b861461039157806348f24165146103a757600080fd5b8063279f9b1111610207578063279f9b11146102a9578063299ca478146102c957806335005ffb1461031b57806338897fdd1461033b57600080fd5b806213c63d1461023857806302adf2d61461025c578063167c705014610271578063172e218d14610287575b600080fd5b34801561024457600080fd5b506002545b6040519081526020015b60405180910390f35b34801561026857600080fd5b50600454610249565b34801561027d57600080fd5b5061024960045481565b34801561029357600080fd5b506102a76102a2366004613f0f565b6106a9565b005b3480156102b557600080fd5b506102a76102c4366004613f4e565b610928565b3480156102d557600080fd5b506000546102f69073ffffffffffffffffffffffffffffffffffffffff1681565b60405173ffffffffffffffffffffffffffffffffffffffff9091168152602001610253565b34801561032757600080fd5b506102a7610336366004613f7a565b610db2565b34801561034757600080fd5b5061024960015481565b34801561035d57600080fd5b506102a761036c366004613f7a565b610f5d565b34801561037d57600080fd5b506102f661038c366004614087565b611066565b34801561039d57600080fd5b5061024960065481565b3480156103b357600080fd5b50600654610249565b3480156103c857600080fd5b50600354610249565b3480156103dd57600080fd5b50600554610249565b3480156103f257600080fd5b50610406610401366004613f4e565b611113565b60405161025392919061414a565b34801561042057600080fd5b5061045d6040518060400160405280600d81526020017f4d455449535f4d414e414745520000000000000000000000000000000000000081525081565b604051610253919061416e565b34801561047657600080fd5b5061048a6104853660046141a6565b6112ad565b6040519015158152602001610253565b3480156104a657600080fd5b506102496104b53660046141c3565b6112e9565b3480156104c657600080fd5b506102a76104d5366004613f7a565b6113e3565b3480156104e657600080fd5b5061024960055481565b3480156104fc57600080fd5b506102a761050b366004614205565b61158e565b34801561051c57600080fd5b506102a761052b366004613f7a565b611af3565b34801561053c57600080fd5b506102a761054b366004614302565b611c9e565b34801561055c57600080fd5b5061024960025481565b34801561057257600080fd5b5061048a6105813660046141a6565b60086020526000908152604090205460ff1681565b3480156105a257600080fd5b506102a76105b1366004613f7a565b611de4565b6102a76105c4366004613f4e565b611eed565b3480156105d557600080fd5b506102a7612596565b3480156105ea57600080fd5b5061024960035481565b34801561060057600080fd5b5061061461060f366004614337565b612a62565b60408051928352901515602083015201610253565b34801561063557600080fd5b50600154610249565b34801561064a57600080fd5b506102a7612baa565b34801561065f57600080fd5b506102a761066e366004613f7a565b612cba565b34801561067f57600080fd5b506102a761068e366004614337565b612e65565b34801561069f57600080fd5b5061024961070881565b6106e76040518060400160405280600d81526020017f4d455449535f4d414e4147455200000000000000000000000000000000000000815250611066565b73ffffffffffffffffffffffffffffffffffffffff163373ffffffffffffffffffffffffffffffffffffffff16146107b25760405162461bcd60e51b815260206004820152604b60248201527f4d564d5f43616e6f6e6963616c5472616e73616374696f6e3a2046756e63746960448201527f6f6e2063616e206f6e6c792062652063616c6c656420627920746865204d455460648201527f49535f4d414e414745522e000000000000000000000000000000000000000000608482015260a4015b60405180910390fd5b6000848152600c6020908152604080832085845290915290206003015461081b5760405162461bcd60e51b815260206004820152601660248201527f7478206461746120646f6573206e6f742065786973740000000000000000000060448201526064016107a9565b6000848152600c6020908152604080832085845290915290206002015483146108865760405162461bcd60e51b815260206004820152601560248201527f696e636f727265637420626174636820696e646578000000000000000000000060448201526064016107a9565b6000848152600c6020908152604080832085845290915290206005015460ff16151581151514156108f95760405162461bcd60e51b815260206004820152601a60248201527f766572696669656420737461747573206e6f74206368616e676500000000000060448201526064016107a9565b6000938452600c602090815260408086209386529290529220600501805460ff19169215159290921790915550565b6000838152600b602090815260408083208484529091529020600301546109b75760405162461bcd60e51b815260206004820152602660248201527f7468657265206973206e6f207374616b6520666f72207468697320626174636860448201527f20696e646578000000000000000000000000000000000000000000000000000060648201526084016107a9565b6000838152600b60209081526040808320848452909152902060050154610a205760405162461bcd60e51b815260206004820152601460248201527f7374616b6520616d6f756e74206973207a65726f00000000000000000000000060448201526064016107a9565b6000838152600b6020908152604080832084845290915281206006015460ff166003811115610a5157610a51614391565b14610a9e5760405162461bcd60e51b815260206004820152601b60248201527f7769746864726177616c7320617265206e6f7420616c6c6f776564000000000060448201526064016107a9565b6000838152600b6020908152604080832084845290915290205473ffffffffffffffffffffffffffffffffffffffff163314610b1c5760405162461bcd60e51b815260206004820152601e60248201527f63616e206e6f74207769746864726177206f746865722773207374616b65000060448201526064016107a9565b6000838152600b602090815260408083208484529091529020600401544211610bad5760405162461bcd60e51b815260206004820152602960248201527f63616e206e6f7420776974686472617720647572696e67207375626d6974207060448201527f726f74656374696f6e000000000000000000000000000000000000000000000060648201526084016107a9565b33600090815260096020908152604080832054868452600b8352818420858552909252909120600501541115610c255760405162461bcd60e51b815260206004820152601260248201527f696e73756666696369656e74207374616b65000000000000000000000000000060448201526064016107a9565b6000838152600b60209081526040808320848452909152902060050154471015610c915760405162461bcd60e51b815260206004820152601460248201527f696e73756666696369656e742062616c616e636500000000000000000000000060448201526064016107a9565b6000838152600b60209081526040808320848452825280832060068101805460ff191660031790556005015433845260099092528220805491929091610cd89084906143ef565b90915550506000838152600b602090815260408083208484529091528082206005015490513391908381818185875af1925050503d8060008114610d38576040519150601f19603f3d011682016040523d82523d6000602084013e610d3d565b606091505b5050905080610d8e5760405162461bcd60e51b815260206004820152601460248201527f696e73756666696369656e742062616c616e636500000000000000000000000060448201526064016107a9565b506000928352600b6020908152604080852092855291905282206005019190915550565b610df06040518060400160405280600d81526020017f4d455449535f4d414e4147455200000000000000000000000000000000000000815250611066565b73ffffffffffffffffffffffffffffffffffffffff163373ffffffffffffffffffffffffffffffffffffffff1614610eb65760405162461bcd60e51b815260206004820152604b60248201527f4d564d5f43616e6f6e6963616c5472616e73616374696f6e3a2046756e63746960448201527f6f6e2063616e206f6e6c792062652063616c6c656420627920746865204d455460648201527f49535f4d414e414745522e000000000000000000000000000000000000000000608482015260a4016107a9565b60008111610f065760405162461bcd60e51b815260206004820152601660248201527f736c6963652073697a652073686f756c6420677420300000000000000000000060448201526064016107a9565b600154811415610f585760405162461bcd60e51b815260206004820152601a60248201527f736c6963652073697a6520686173206e6f74206368616e67656400000000000060448201526064016107a9565b600155565b610f9b6040518060400160405280600d81526020017f4d455449535f4d414e4147455200000000000000000000000000000000000000815250611066565b73ffffffffffffffffffffffffffffffffffffffff163373ffffffffffffffffffffffffffffffffffffffff16146110615760405162461bcd60e51b815260206004820152604b60248201527f4d564d5f43616e6f6e6963616c5472616e73616374696f6e3a2046756e63746960448201527f6f6e2063616e206f6e6c792062652063616c6c656420627920746865204d455460648201527f49535f4d414e414745522e000000000000000000000000000000000000000000608482015260a4016107a9565b600655565b600080546040517fbf40fac100000000000000000000000000000000000000000000000000000000815273ffffffffffffffffffffffffffffffffffffffff9091169063bf40fac1906110bd90859060040161416e565b60206040518083038186803b1580156110d557600080fd5b505afa1580156110e9573d6000803e3d6000fd5b505050506040513d601f19601f8201168201806040525081019061110d9190614406565b92915050565b6000838152600c60209081526040808320848452909152812060030154606091906111805760405162461bcd60e51b815260206004820152601660248201527f7478206461746120646f6573206e6f742065786973740000000000000000000060448201526064016107a9565b6000858152600c6020908152604080832086845290915290206002015484146111eb5760405162461bcd60e51b815260206004820152601560248201527f696e636f727265637420626174636820696e646578000000000000000000000060448201526064016107a9565b6000858152600c602090815260408083208684529091529020600581015460049091018054909160ff1690829061122190614423565b80601f016020809104026020016040519081016040528092919081815260200182805461124d90614423565b801561129a5780601f1061126f5761010080835404028352916020019161129a565b820191906000526020600020905b81548152906001019060200180831161127d57829003601f168201915b5050505050915091509150935093915050565b60075460009060ff16158061110d57505073ffffffffffffffffffffffffffffffffffffffff1660009081526008602052604090205460ff1690565b6000806003541161133c5760405162461bcd60e51b815260206004820152601e60248201527f7374616b65206261736520636f7374206e6f7420636f6e66696720796574000060448201526064016107a9565b6000838152600a602090815260408083208584529091529020600201546113a55760405162461bcd60e51b815260206004820152601c60248201527f626174636820656c656d656e7420646f6573206e6f742065786973740000000060448201526064016107a9565b6006546000848152600a602090815260408083208684529091529020600101546113cf9190614477565b6003546113dc91906144b4565b9392505050565b6114216040518060400160405280600d81526020017f4d455449535f4d414e4147455200000000000000000000000000000000000000815250611066565b73ffffffffffffffffffffffffffffffffffffffff163373ffffffffffffffffffffffffffffffffffffffff16146114e75760405162461bcd60e51b815260206004820152604b60248201527f4d564d5f43616e6f6e6963616c5472616e73616374696f6e3a2046756e63746960448201527f6f6e2063616e206f6e6c792062652063616c6c656420627920746865204d455460648201527f49535f4d414e414745522e000000000000000000000000000000000000000000608482015260a4016107a9565b600081116115375760405162461bcd60e51b815260206004820152601760248201527f736c69636520636f756e742073686f756c64206774203000000000000000000060448201526064016107a9565b6004548114156115895760405162461bcd60e51b815260206004820152601b60248201527f736c69636520636f756e7420686173206e6f74206368616e676564000000000060448201526064016107a9565b600455565b6115be61159a8861348f565b6040516020016115aa91906144cc565b604051602081830303815290604052611066565b73ffffffffffffffffffffffffffffffffffffffff163373ffffffffffffffffffffffffffffffffffffffff161461165e5760405162461bcd60e51b815260206004820152602d60248201527f46756e6374696f6e2063616e206f6e6c792062652063616c6c6564206279207460448201527f68652053657175656e6365722e0000000000000000000000000000000000000060648201526084016107a9565b6000878152600b602090815260408083208884529091529020600301546116ed5760405162461bcd60e51b815260206004820152602760248201527f7468657265206973206e6f207374616b6520666f72207468697320626c6f636b60448201527f206e756d6265720000000000000000000000000000000000000000000000000060648201526084016107a9565b6000878152600b6020908152604080832088845290915290206002015486146117585760405162461bcd60e51b815260206004820152601560248201527f696e636f727265637420626174636820696e646578000000000000000000000060448201526064016107a9565b6000878152600b6020908152604080832088845290915281206006015460ff16600381111561178957611789614391565b146117d65760405162461bcd60e51b815260206004820152601560248201527f6e6f7420616c6c6f77656420746f207375626d6974000000000000000000000060448201526064016107a9565b6117e78787878787878760016135ec565b6000878152600b6020908152604080832088845290915281206006015460ff16600381111561181857611818614391565b1415611a75576000878152600b60209081526040808320888452808352818420805473ffffffffffffffffffffffffffffffffffffffff1685526009845291842054938990529091526005015411156118b35760405162461bcd60e51b815260206004820152601260248201527f696e73756666696369656e74207374616b65000000000000000000000000000060448201526064016107a9565b6000878152600b6020908152604080832088845290915290206005015447101561191f5760405162461bcd60e51b815260206004820152601460248201527f696e73756666696369656e742062616c616e636500000000000000000000000060448201526064016107a9565b6000878152600b60209081526040808320888452909152902060068101805460ff191660011790556005015415611a75576000878152600b6020908152604080832088845282528083206005810154905473ffffffffffffffffffffffffffffffffffffffff168452600990925282208054919290916119a09084906143ef565b90915550506000878152600b602090815260408083208884529091528082206005015490513391908381818185875af1925050503d8060008114611a00576040519150601f19603f3d011682016040523d82523d6000602084013e611a05565b606091505b5050905080611a565760405162461bcd60e51b815260206004820152601460248201527f696e73756666696369656e742062616c616e636500000000000000000000000060448201526064016107a9565b506000878152600b602090815260408083208884529091528120600501555b6000878152600b602090815260408083208884528252918290206005015482513381529182018a9052818301899052606082018890526080820152600160a0820181905260c082015290517ffa136ae724a018470beba9749c1fdfb83177d6bd6aaaab35d6dbfde739e509109181900360e00190a150505050505050565b611b316040518060400160405280600d81526020017f4d455449535f4d414e4147455200000000000000000000000000000000000000815250611066565b73ffffffffffffffffffffffffffffffffffffffff163373ffffffffffffffffffffffffffffffffffffffff1614611bf75760405162461bcd60e51b815260206004820152604b60248201527f4d564d5f43616e6f6e6963616c5472616e73616374696f6e3a2046756e63746960448201527f6f6e2063616e206f6e6c792062652063616c6c656420627920746865204d455460648201527f49535f4d414e414745522e000000000000000000000000000000000000000000608482015260a4016107a9565b60008111611c475760405162461bcd60e51b815260206004820152601660248201527f62617463682073697a652073686f756c6420677420300000000000000000000060448201526064016107a9565b600554811415611c995760405162461bcd60e51b815260206004820152601a60248201527f62617463682073697a6520686173206e6f74206368616e67656400000000000060448201526064016107a9565b600555565b611cdc6040518060400160405280600d81526020017f4d455449535f4d414e4147455200000000000000000000000000000000000000815250611066565b73ffffffffffffffffffffffffffffffffffffffff163373ffffffffffffffffffffffffffffffffffffffff1614611da25760405162461bcd60e51b815260206004820152604b60248201527f4d564d5f43616e6f6e6963616c5472616e73616374696f6e3a2046756e63746960448201527f6f6e2063616e206f6e6c792062652063616c6c656420627920746865204d455460648201527f49535f4d414e414745522e000000000000000000000000000000000000000000608482015260a4016107a9565b73ffffffffffffffffffffffffffffffffffffffff9091166000908152600860205260409020805491151560ff19928316179055600780549091166001179055565b611e226040518060400160405280600d81526020017f4d455449535f4d414e4147455200000000000000000000000000000000000000815250611066565b73ffffffffffffffffffffffffffffffffffffffff163373ffffffffffffffffffffffffffffffffffffffff1614611ee85760405162461bcd60e51b815260206004820152604b60248201527f4d564d5f43616e6f6e6963616c5472616e73616374696f6e3a2046756e63746960448201527f6f6e2063616e206f6e6c792062652063616c6c656420627920746865204d455460648201527f49535f4d414e414745522e000000000000000000000000000000000000000000608482015260a4016107a9565b600355565b611ef6336112ad565b611f685760405162461bcd60e51b815260206004820152602360248201527f6f6e6c792077686974656c6973746564207665726966696572732063616e206360448201527f616c6c000000000000000000000000000000000000000000000000000000000060648201526084016107a9565b346000611f7585856112e9565b9050600060035411611fc95760405162461bcd60e51b815260206004820152601e60248201527f7374616b65206261736520636f7374206e6f7420636f6e66696720796574000060448201526064016107a9565b8181146120185760405162461bcd60e51b815260206004820152601460248201527f7374616b6520636f737420696e636f727265637400000000000000000000000060448201526064016107a9565b6000600254116120905760405162461bcd60e51b815260206004820152602760248201527f73657175656e636572207375626d6974207365636f6e6473206e6f7420636f6e60448201527f666967207965740000000000000000000000000000000000000000000000000060648201526084016107a9565b6000858152600a602090815260408083208784529091529020600201546120f95760405162461bcd60e51b815260206004820152601c60248201527f626174636820656c656d656e7420646f6573206e6f742065786973740000000060448201526064016107a9565b6000858152600a6020908152604080832087845290915290205483906121359064ffffffffff81169065010000000000900462ffffff1661450d565b64ffffffffff161015801561216957506000858152600a6020908152604080832087845290915290205464ffffffffff1683115b6121db5760405162461bcd60e51b815260206004820152602160248201527f626c6f636b206e756d626572206973206e6f7420696e2074686973206261746360448201527f680000000000000000000000000000000000000000000000000000000000000060648201526084016107a9565b6000858152600b60209081526040808320868452909152902060030154156122a35760036000868152600b6020908152604080832087845290915290206006015460ff16600381111561223057612230614391565b146122a35760405162461bcd60e51b815260206004820152602560248201527f74686572652069732061207374616b6520666f7220746869732062617463682060448201527f696e64657800000000000000000000000000000000000000000000000000000060648201526084016107a9565b60006122e36040518060400160405280601481526020017f5374617465436f6d6d69746d656e74436861696e000000000000000000000000815250611066565b9050428173ffffffffffffffffffffffffffffffffffffffff1663c17b291b6040518163ffffffff1660e01b815260040160206040518083038186803b15801561232c57600080fd5b505afa158015612340573d6000803e3d6000fd5b505050506040513d601f19601f820116820180604052508101906123649190614536565b6000888152600a602090815260408083208a845290915290206004015461238b91906144b4565b116123fe5760405162461bcd60e51b815260206004820152602e60248201527f746865206261746368206973206f757473696465206f6620746865206672617560448201527f642070726f6f662077696e646f7700000000000000000000000000000000000060648201526084016107a9565b6040518060e001604052803373ffffffffffffffffffffffffffffffffffffffff1681526020018581526020018681526020014281526020016002544261244591906144b4565b815260208101859052604001600090526000878152600b60209081526040808320888452825291829020835181547fffffffffffffffffffffffff00000000000000000000000000000000000000001673ffffffffffffffffffffffffffffffffffffffff9091161781559083015160018083019190915591830151600282015560608301516003808301919091556080840151600483015560a0840151600583015560c084015160068301805493949193909260ff199091169190849081111561251257612512614391565b021790555050336000908152600960205260408120805486935090919061253a9084906144b4565b9091555050604080513381526020810188905290810186905260608101859052608081018490527f918b3eda1688b2f6d3e6d173db1ec863e43f4d1c369d647b1912b0df8be5f12f9060a00160405180910390a1505050505050565b60043560243560d81c60293560e890811c90602c35901c60003681806125be61159a8961348f565b73ffffffffffffffffffffffffffffffffffffffff163373ffffffffffffffffffffffffffffffffffffffff161461265e5760405162461bcd60e51b815260206004820152602d60248201527f46756e6374696f6e2063616e206f6e6c792062652063616c6c6564206279207460448201527f68652053657175656e6365722e0000000000000000000000000000000000000060648201526084016107a9565b600061266b86601061454f565b61267690602f61457a565b62ffffff169050808411156127155760006126928260076144b4565b905060006126a183600b6144b4565b600554843560cc1c9850833560e01c9650813595509091506126c4600287614598565b11156127125760405162461bcd60e51b815260206004820152601c60248201527f73697a65206f66207478206461746120697320746f6f206c617267650000000060448201526064016107a9565b50505b60006127556040518060400160405280601981526020017f43616e6f6e6963616c5472616e73616374696f6e436861696e00000000000000815250611066565b905060008173ffffffffffffffffffffffffffffffffffffffff1663cfdf677e6040518163ffffffff1660e01b815260040160206040518083038186803b15801561279f57600080fd5b505afa1580156127b3573d6000803e3d6000fd5b505050506040513d601f19601f820116820180604052508101906127d79190614406565b6040517f576f2588000000000000000000000000000000000000000000000000000000008152600481018d905290915060009073ffffffffffffffffffffffffffffffffffffffff83169063576f25889060240160206040518083038186803b15801561284357600080fd5b505afa158015612857573d6000803e3d6000fd5b505050506040513d601f19601f8201168201806040525081019061287b9190614536565b90506000808473ffffffffffffffffffffffffffffffffffffffff166000366040516128a89291906145d3565b6000604051808303816000865af19150503d80600081146128e5576040519150601f19603f3d011682016040523d82523d6000602084013e6128ea565b606091505b50909250905081612902576040513d806000833e8082fd5b50506040518060c001604052808c64ffffffffff1681526020018b62ffffff16815260200187815260200189815260200186815260200142815250600a60008e8152602001908152602001600020600083815260200190815260200160002060008201518160000160006101000a81548164ffffffffff021916908364ffffffffff16021790555060208201518160000160056101000a81548162ffffff021916908362ffffff16021790555060408201518160010155606082015181600201556080820151816003015560a082015181600401559050507f77e48e0d46be115d5fe8dd03f4dbf8eb309c5fdc8ffdcbe6f8eaa5bd6c65aed98c828d8d8a8d8b604051612a4c9796959493929190968752602087019590955264ffffffffff93909316604086015262ffffff919091166060850152608084015260a083015260c082015260e00190565b60405180910390a1505050505050505050505050565b6000848152600c602090815260408083208584529091528120600301548190612acd5760405162461bcd60e51b815260206004820152601660248201527f7478206461746120646f6573206e6f742065786973740000000000000000000060448201526064016107a9565b6000868152600c602090815260408083208784529091529020600201548514612b385760405162461bcd60e51b815260206004820152601560248201527f696e636f727265637420626174636820696e646578000000000000000000000060448201526064016107a9565b8383604051602001612b4b9291906145e3565b604080517fffffffffffffffffffffffffffffffffffffffffffffffffffffffffffffffe081840301815291815281516020928301206000898152600c845282812088825290935291206005015490925060ff16905094509492505050565b612be86040518060400160405280600d81526020017f4d455449535f4d414e4147455200000000000000000000000000000000000000815250611066565b73ffffffffffffffffffffffffffffffffffffffff163373ffffffffffffffffffffffffffffffffffffffff1614612cae5760405162461bcd60e51b815260206004820152604b60248201527f4d564d5f43616e6f6e6963616c5472616e73616374696f6e3a2046756e63746960448201527f6f6e2063616e206f6e6c792062652063616c6c656420627920746865204d455460648201527f49535f4d414e414745522e000000000000000000000000000000000000000000608482015260a4016107a9565b6007805460ff19169055565b612cf86040518060400160405280600d81526020017f4d455449535f4d414e4147455200000000000000000000000000000000000000815250611066565b73ffffffffffffffffffffffffffffffffffffffff163373ffffffffffffffffffffffffffffffffffffffff1614612dbe5760405162461bcd60e51b815260206004820152604b60248201527f4d564d5f43616e6f6e6963616c5472616e73616374696f6e3a2046756e63746960448201527f6f6e2063616e206f6e6c792062652063616c6c656420627920746865204d455460648201527f49535f4d414e414745522e000000000000000000000000000000000000000000608482015260a4016107a9565b60008111612e0e5760405162461bcd60e51b815260206004820152601360248201527f7365636f6e64732073686f756c6420677420300000000000000000000000000060448201526064016107a9565b600254811415612e605760405162461bcd60e51b815260206004820152601760248201527f7365636f6e647320686173206e6f74206368616e67656400000000000000000060448201526064016107a9565b600255565b612e7161159a8561348f565b73ffffffffffffffffffffffffffffffffffffffff163373ffffffffffffffffffffffffffffffffffffffff161415612f125760405162461bcd60e51b815260206004820152602c60248201527f46756e6374696f6e2063616e206e6f742062652063616c6c656420627920746860448201527f652053657175656e6365722e000000000000000000000000000000000000000060648201526084016107a9565b6000848152600b60209081526040808320858452909152902060030154612fa15760405162461bcd60e51b815260206004820152602760248201527f7468657265206973206e6f207374616b6520666f72207468697320626c6f636b60448201527f206e756d6265720000000000000000000000000000000000000000000000000060648201526084016107a9565b6000848152600b60209081526040808320858452909152902060020154831461300c5760405162461bcd60e51b815260206004820152601560248201527f696e636f727265637420626174636820696e646578000000000000000000000060448201526064016107a9565b6000848152600b60209081526040808320858452909152902060040154421161309d5760405162461bcd60e51b815260206004820152603160248201527f63616e206e6f74207375626d697420647572696e672073657175656e6365722060448201527f7375626d69742070726f74656374696f6e00000000000000000000000000000060648201526084016107a9565b6000848152600b6020908152604080832085845290915290205473ffffffffffffffffffffffffffffffffffffffff163314613171576002546000858152600b6020908152604080832086845290915290206004015442916130fe916144b4565b106131715760405162461bcd60e51b815260206004820152602e60248201527f63616e206e6f74207375626d697420647572696e67207374616b65722073756260448201527f6d69742070726f74656374696f6e00000000000000000000000000000000000060648201526084016107a9565b6131ad84848484600080806040519080825280602002602001820160405280156131a5578160200160208202803683370190505b5060006135ec565b6000848152600b6020908152604080832085845290915281206006015460ff1660038111156131de576131de614391565b1415613413576000848152600b6020908152604080832085845280835281842060068101805460ff19166002179055805473ffffffffffffffffffffffffffffffffffffffff16808652600985529285205494879052925260059091015490911080159061326757506000858152600b6020908152604080832086845290915290206005015415155b15613411576000858152600b602090815260408083208684529091529020600501544710156132d85760405162461bcd60e51b815260206004820152601460248201527f696e73756666696369656e742062616c616e636500000000000000000000000060448201526064016107a9565b6000858152600b6020908152604080832086845282528083206005015473ffffffffffffffffffffffffffffffffffffffff85168452600990925282208054919290916133269084906143ef565b90915550506000858152600b6020908152604080832086845290915280822060050154905173ffffffffffffffffffffffffffffffffffffffff841691908381818185875af1925050503d806000811461339c576040519150601f19603f3d011682016040523d82523d6000602084013e6133a1565b606091505b50509050806133f25760405162461bcd60e51b815260206004820152601460248201527f696e73756666696369656e742062616c616e636500000000000000000000000060448201526064016107a9565b506000858152600b602090815260408083208684529091528120600501555b505b6000848152600b60209081526040808320858452825280832060050154815133815292830188905290820186905260608201859052608082015260a0810182905260c08101919091527ffa136ae724a018470beba9749c1fdfb83177d6bd6aaaab35d6dbfde739e509109060e00160405180910390a150505050565b6060816134cf57505060408051808201909152600181527f3000000000000000000000000000000000000000000000000000000000000000602082015290565b8160005b81156134f957806134e381614609565b91506134f29050600a83614598565b91506134d3565b60008167ffffffffffffffff81111561351457613514613f93565b6040519080825280601f01601f19166020018201604052801561353e576020820181803683370190505b509050815b85156135e3576135546001826143ef565b90506000613563600a88614598565b61356e90600a614477565b61357890886143ef565b613583906030614642565b905060008160f81b9050808484815181106135a0576135a0614667565b60200101907effffffffffffffffffffffffffffffffffffffffffffffffffffffffffffff1916908160001a9053506135da600a89614598565b97505050613543565b50949350505050565b600085511161363d5760405162461bcd60e51b815260206004820152600a60248201527f656d70747920646174610000000000000000000000000000000000000000000060448201526064016107a9565b6000888152600a602090815260408083208a84529091529020600201546136a65760405162461bcd60e51b815260206004820152601c60248201527f626174636820656c656d656e7420646f6573206e6f742065786973740000000060448201526064016107a9565b6000888152600a602090815260408083208a845290915290205465010000000000900462ffffff166137405760405162461bcd60e51b815260206004820152603060248201527f626174636820746f74616c20656c656d656e7420746f20617070656e6420736860448201527f6f756c64206e6f74206265207a65726f0000000000000000000000000000000060648201526084016107a9565b6000888152600c602090815260408083208984529091529020600301541561393e576000888152600c6020908152604080832089845290915290206005015460ff16156137cf5760405162461bcd60e51b815260206004820152601060248201527f747820646174612076657269666965640000000000000000000000000000000060448201526064016107a9565b6000888152600c6020908152604080832089845290915290205473ffffffffffffffffffffffffffffffffffffffff163314613911576000888152600c60209081526040808320898452909152902060030154429061383190610708906144b4565b1161387e5760405162461bcd60e51b815260206004820152600d60248201527f696e207375626d697474696e670000000000000000000000000000000000000060448201526064016107a9565b6000888152600c60209081526040808320898452825290912080547fffffffffffffffffffffffff00000000000000000000000000000000000000001633178155600181018890556002810189905542600382015586516138e792600490920191880190613e61565b506000888152600c602090815260408083208984529091529020600501805460ff19169055613a0d565b6000888152600c60209081526040808320898452825290912086516138e792600490920191880190613e61565b6040805160c08101825233815260208082018981528284018b81524260608501908152608085018b8152600060a087018190528f8152600c86528781208e8252865296909620855181547fffffffffffffffffffffffff00000000000000000000000000000000000000001673ffffffffffffffffffffffffffffffffffffffff9091161781559251600184015590516002830155516003820155925180519293926139f09260048501920190613e61565b5060a091909101516005909101805460ff19169115159190911790555b8015613b055760008686604051602001613a289291906145e3565b604080517fffffffffffffffffffffffffffffffffffffffffffffffffffffffffffffffe0818403018152918152815160209283012060008c8152600a84528281208c825290935290822060030154909250613a879083888789613b0f565b9050600181151514613adb5760405162461bcd60e51b815260206004820152601560248201527f7478206461746120766572696679206661696c6564000000000000000000000060448201526064016107a9565b50506000888152600c602090815260408083208984529091529020600501805460ff191660011790555b5050505050505050565b6000808211613b865760405162461bcd60e51b815260206004820152603760248201527f4c69625f4d65726b6c65547265653a20546f74616c206c6561766573206d757360448201527f742062652067726561746572207468616e207a65726f2e00000000000000000060648201526084016107a9565b818410613bfa5760405162461bcd60e51b8152602060048201526024808201527f4c69625f4d65726b6c65547265653a20496e646578206f7574206f6620626f7560448201527f6e64732e0000000000000000000000000000000000000000000000000000000060648201526084016107a9565b613c0382613d7d565b835114613c9e5760405162461bcd60e51b815260206004820152604d60248201527f4c69625f4d65726b6c65547265653a20546f74616c207369626c696e6773206460448201527f6f6573206e6f7420636f72726563746c7920636f72726573706f6e6420746f2060648201527f746f74616c206c65617665732e00000000000000000000000000000000000000608482015260a4016107a9565b8460005b8451811015613d70578560011660011415613d0957848181518110613cc957613cc9614667565b602002602001015182604051602001613cec929190918252602082015260400190565b604051602081830303815290604052805190602001209150613d57565b81858281518110613d1c57613d1c614667565b6020026020010151604051602001613d3e929190918252602082015260400190565b6040516020818303038152906040528051906020012091505b60019590951c9480613d6881614609565b915050613ca2565b5090951495945050505050565b6000808211613df45760405162461bcd60e51b815260206004820152603060248201527f4c69625f4d65726b6c65547265653a2043616e6e6f7420636f6d70757465206360448201527f65696c286c6f675f3229206f6620302e0000000000000000000000000000000060648201526084016107a9565b8160011415613e0557506000919050565b81600060805b60018110613e435780613e21600180831b6143ef565b901b831615613e3b57613e3481836144b4565b92811c9291505b60011c613e0b565b506001811b84146113dc57613e596001826144b4565b949350505050565b828054613e6d90614423565b90600052602060002090601f016020900481019282613e8f5760008555613ed5565b82601f10613ea857805160ff1916838001178555613ed5565b82800160010185558215613ed5579182015b82811115613ed5578251825591602001919060010190613eba565b50613ee1929150613ee5565b5090565b5b80821115613ee15760008155600101613ee6565b80358015158114613f0a57600080fd5b919050565b60008060008060808587031215613f2557600080fd5b843593506020850135925060408501359150613f4360608601613efa565b905092959194509250565b600080600060608486031215613f6357600080fd5b505081359360208301359350604090920135919050565b600060208284031215613f8c57600080fd5b5035919050565b7f4e487b7100000000000000000000000000000000000000000000000000000000600052604160045260246000fd5b604051601f82017fffffffffffffffffffffffffffffffffffffffffffffffffffffffffffffffe016810167ffffffffffffffff8111828210171561400957614009613f93565b604052919050565b600067ffffffffffffffff83111561402b5761402b613f93565b61405c60207fffffffffffffffffffffffffffffffffffffffffffffffffffffffffffffffe0601f86011601613fc2565b905082815283838301111561407057600080fd5b828260208301376000602084830101529392505050565b60006020828403121561409957600080fd5b813567ffffffffffffffff8111156140b057600080fd5b8201601f810184136140c157600080fd5b613e5984823560208401614011565b60005b838110156140eb5781810151838201526020016140d3565b838111156140fa576000848401525b50505050565b600081518084526141188160208601602086016140d0565b601f017fffffffffffffffffffffffffffffffffffffffffffffffffffffffffffffffe0169290920160200192915050565b60408152600061415d6040830185614100565b905082151560208301529392505050565b6020815260006113dc6020830184614100565b73ffffffffffffffffffffffffffffffffffffffff811681146141a357600080fd5b50565b6000602082840312156141b857600080fd5b81356113dc81614181565b600080604083850312156141d657600080fd5b50508035926020909101359150565b600082601f8301126141f657600080fd5b6113dc83833560208501614011565b600080600080600080600060e0888a03121561422057600080fd5b87359650602080890135965060408901359550606089013567ffffffffffffffff8082111561424e57600080fd5b61425a8c838d016141e5565b965060808b0135955060a08b0135945060c08b013591508082111561427e57600080fd5b818b0191508b601f83011261429257600080fd5b8135818111156142a4576142a4613f93565b8060051b91506142b5848301613fc2565b818152918301840191848101908e8411156142cf57600080fd5b938501935b838510156142ed578435825293850193908501906142d4565b80965050505050505092959891949750929550565b6000806040838503121561431557600080fd5b823561432081614181565b915061432e60208401613efa565b90509250929050565b6000806000806080858703121561434d57600080fd5b843593506020850135925060408501359150606085013567ffffffffffffffff81111561437957600080fd5b614385878288016141e5565b91505092959194509250565b7f4e487b7100000000000000000000000000000000000000000000000000000000600052602160045260246000fd5b7f4e487b7100000000000000000000000000000000000000000000000000000000600052601160045260246000fd5b600082821015614401576144016143c0565b500390565b60006020828403121561441857600080fd5b81516113dc81614181565b600181811c9082168061443757607f821691505b60208210811415614471577f4e487b7100000000000000000000000000000000000000000000000000000000600052602260045260246000fd5b50919050565b6000817fffffffffffffffffffffffffffffffffffffffffffffffffffffffffffffffff04831182151516156144af576144af6143c0565b500290565b600082198211156144c7576144c76143c0565b500190565b600082516144de8184602087016140d0565b7f5f4d564d5f53657175656e6365725f5772617070657200000000000000000000920191825250601601919050565b600064ffffffffff80831681851680830382111561452d5761452d6143c0565b01949350505050565b60006020828403121561454857600080fd5b5051919050565b600062ffffff80831681851681830481118215151615614571576145716143c0565b02949350505050565b600062ffffff80831681851680830382111561452d5761452d6143c0565b6000826145ce577f4e487b7100000000000000000000000000000000000000000000000000000000600052601260045260246000fd5b500490565b8183823760009101908152919050565b828152600082516145fb8160208501602087016140d0565b919091016020019392505050565b60007fffffffffffffffffffffffffffffffffffffffffffffffffffffffffffffffff82141561463b5761463b6143c0565b5060010190565b600060ff821660ff84168060ff0382111561465f5761465f6143c0565b019392505050565b7f4e487b7100000000000000000000000000000000000000000000000000000000600052603260045260246000fdfea2646970667358221220b865b1352f49fb7dbbf6ba69c7849a98a4245ea8715f098bfa725a02c522205364736f6c63430008090033",
  "devdoc": {
    "kind": "dev",
    "methods": {
      "appendSequencerBatchByChainId()": {
        "details": "This function uses a custom encoding scheme for efficiency reasons."
      },
      "getBatchTxData(uint256,uint256,uint256)": {
        "params": {
          "_batchIndex": "batch index of CTC.",
          "_blockNumber": "block number.",
          "_chainId": "chain id."
        },
        "returns": {
          "txData": "txData",
          "verified": "verified"
        }
      },
      "getStakeSeqSeconds()": {
        "returns": {
          "_0": "Seconds the Sequencer can sumbit transaction data after verifier staking."
        }
      },
      "resolve(string)": {
        "params": {
          "_name": "Name to resolve an address for."
        },
        "returns": {
          "_0": "Address associated with the given name."
        }
      },
      "setBatchTxDataForStake(uint256,uint256,uint256,bytes,uint256,uint256,bytes32[])": {
        "params": {
          "_batchIndex": "batch index of CTC.",
          "_blockNumber": "slice index.",
          "_chainId": "chain id.",
          "_data": "tx data hex."
        }
      },
      "setBatchTxDataForVerifier(uint256,uint256,uint256,bytes)": {
        "params": {
          "_batchIndex": "batch index of CTC.",
          "_blockNumber": "slice index.",
          "_chainId": "chain id.",
          "_data": "tx data hex."
        }
      },
      "setStakeSeqSeconds(uint256)": {
        "params": {
          "_seconds": "Seconds the Sequencer can sumbit transaction data after verifier staking."
        }
      },
      "setStakeUnitCost(uint256)": {
        "params": {
          "_stakeUnitCost": "Stake cost for verifier."
        }
      },
      "setTxBatchSize(uint256)": {
        "params": {
          "_size": "Batch size of batch."
        }
      },
      "setTxDataSliceCount(uint256)": {
        "params": {
          "_count": "Slice count per batch transaction data."
        }
      },
      "setTxDataSliceSize(uint256)": {
        "params": {
          "_size": "Slice size of batch transaction data."
        }
      },
      "verifierStake(uint256,uint256,uint256)": {
        "params": {
          "_batchIndex": "batch index of CTC.",
          "_blockNumber": "block number.",
          "_chainId": "chain id."
        }
      },
      "withdrawStake(uint256,uint256,uint256)": {
        "params": {
          "_batchIndex": "batch index of CTC.",
          "_blockNumber": "block number.",
          "_chainId": "chain id."
        }
      }
    },
    "version": 1
  },
  "userdoc": {
    "kind": "user",
    "methods": {
      "appendSequencerBatchByChainId()": {
        "notice": "Allows the sequencer to append a batch of transactions."
      },
      "getBatchTxData(uint256,uint256,uint256)": {
        "notice": "Gets batch tx data."
      },
      "getStakeBaseCost()": {
        "notice": "Gets the verifier stake base cost of ETH."
      },
      "getStakeCostByBatch(uint256,uint256)": {
        "notice": "Gets the verifier stake cost of ETH by batch index."
      },
      "getStakeSeqSeconds()": {
        "notice": "Gets seconds can submit transaction data after staking."
      },
      "getStakeUnitCost()": {
        "notice": "Gets the verifier stake unit cost of ETH for per storage unit."
      },
      "getTxBatchSize()": {
        "notice": "Gets batch size per batch."
      },
      "getTxDataSliceCount()": {
        "notice": "Gets slice count per batch transaction data."
      },
      "getTxDataSliceSize()": {
        "notice": "Gets batch transaction data slice size per submit."
      },
      "resolve(string)": {
        "notice": "Resolves the address associated with a given name."
      },
      "setBatchTxDataForStake(uint256,uint256,uint256,bytes,uint256,uint256,bytes32[])": {
        "notice": "Sets batch tx data for stake."
      },
      "setBatchTxDataForVerifier(uint256,uint256,uint256,bytes)": {
        "notice": "Sets batch tx data for verifier."
      },
      "setStakeBaseCost(uint256)": {
        "notice": "receive() external payable { // msg.sender if (msg.sender == resolve('MVM_DiscountOracle')) { uint256 _chainId = getAddressChainId(msg.sender); if (_chainId > 0) { address _to = resolve(string(abi.encodePacked(uint2str(_chainId),\"_MVM_Sequencer_Wrapper\"))); if (_to != address(0) && _to != address(this)) { _to.call{value: msg.value}(\"\"); } } } } function setAddressChainId(address _address, uint256 _chainId)  override public onlyManager { require(_address != address(0), \"address not available\"); require(_chainId > 0, \"chainId not available\"); require(addressChains[_address] != _chainId, \"no change\"); addressChains[_address] = _chainId; } function getAddressChainId(address _address) override public view returns (uint256) { return addressChains[_address]; }"
      },
      "setStakeSeqSeconds(uint256)": {
        "notice": "Sets seconds can submit transaction data after staking."
      },
      "setStakeUnitCost(uint256)": {
        "notice": "Sets the verifier stake unit cost of ETH."
      },
      "setTxBatchSize(uint256)": {
        "notice": "Sets batch size per batch."
      },
      "setTxDataSliceCount(uint256)": {
        "notice": "Sets slice count per batch transaction data."
      },
      "setTxDataSliceSize(uint256)": {
        "notice": "Sets batch transaction data slice size per submit."
      },
      "verifierStake(uint256,uint256,uint256)": {
        "notice": "Stake by verifier."
      },
      "withdrawStake(uint256,uint256,uint256)": {
        "notice": "Withdraw stake by verifier."
      }
    },
    "version": 1
  },
  "storageLayout": {
    "storage": [
      {
        "astId": 16165,
        "contract": "contracts/MVM/MVM_CanonicalTransaction.sol:MVM_CanonicalTransaction",
        "label": "libAddressManager",
        "offset": 0,
        "slot": "0",
        "type": "t_contract(Lib_AddressManager)16157"
      },
      {
        "astId": 10752,
        "contract": "contracts/MVM/MVM_CanonicalTransaction.sol:MVM_CanonicalTransaction",
        "label": "txDataSliceSize",
        "offset": 0,
        "slot": "1",
        "type": "t_uint256"
      },
      {
        "astId": 10754,
        "contract": "contracts/MVM/MVM_CanonicalTransaction.sol:MVM_CanonicalTransaction",
        "label": "stakeSeqSeconds",
        "offset": 0,
        "slot": "2",
        "type": "t_uint256"
      },
      {
        "astId": 10756,
        "contract": "contracts/MVM/MVM_CanonicalTransaction.sol:MVM_CanonicalTransaction",
        "label": "stakeBaseCost",
        "offset": 0,
        "slot": "3",
        "type": "t_uint256"
      },
      {
        "astId": 10758,
        "contract": "contracts/MVM/MVM_CanonicalTransaction.sol:MVM_CanonicalTransaction",
        "label": "txDataSliceCount",
        "offset": 0,
        "slot": "4",
        "type": "t_uint256"
      },
      {
        "astId": 10760,
        "contract": "contracts/MVM/MVM_CanonicalTransaction.sol:MVM_CanonicalTransaction",
        "label": "txBatchSize",
        "offset": 0,
        "slot": "5",
        "type": "t_uint256"
      },
      {
        "astId": 10762,
        "contract": "contracts/MVM/MVM_CanonicalTransaction.sol:MVM_CanonicalTransaction",
        "label": "stakeUnitCost",
        "offset": 0,
        "slot": "6",
        "type": "t_uint256"
      },
      {
        "astId": 10764,
        "contract": "contracts/MVM/MVM_CanonicalTransaction.sol:MVM_CanonicalTransaction",
        "label": "useWhiteList",
        "offset": 0,
        "slot": "7",
        "type": "t_bool"
      },
      {
        "astId": 10768,
        "contract": "contracts/MVM/MVM_CanonicalTransaction.sol:MVM_CanonicalTransaction",
        "label": "whitelist",
        "offset": 0,
        "slot": "8",
        "type": "t_mapping(t_address,t_bool)"
      },
      {
        "astId": 10772,
        "contract": "contracts/MVM/MVM_CanonicalTransaction.sol:MVM_CanonicalTransaction",
        "label": "verifierStakes",
        "offset": 0,
        "slot": "9",
        "type": "t_mapping(t_address,t_uint256)"
      },
      {
        "astId": 10779,
        "contract": "contracts/MVM/MVM_CanonicalTransaction.sol:MVM_CanonicalTransaction",
        "label": "queueBatchElement",
        "offset": 0,
        "slot": "10",
        "type": "t_mapping(t_uint256,t_mapping(t_uint256,t_struct(BatchElement)15283_storage))"
      },
      {
        "astId": 10786,
        "contract": "contracts/MVM/MVM_CanonicalTransaction.sol:MVM_CanonicalTransaction",
        "label": "queueTxDataRequestStake",
        "offset": 0,
        "slot": "11",
        "type": "t_mapping(t_uint256,t_mapping(t_uint256,t_struct(TxDataRequestStake)15270_storage))"
      },
      {
        "astId": 10793,
        "contract": "contracts/MVM/MVM_CanonicalTransaction.sol:MVM_CanonicalTransaction",
        "label": "queueTxData",
        "offset": 0,
        "slot": "12",
        "type": "t_mapping(t_uint256,t_mapping(t_uint256,t_struct(TxDataSlice)15254_storage))"
      }
    ],
    "types": {
      "t_address": {
        "encoding": "inplace",
        "label": "address",
        "numberOfBytes": "20"
      },
      "t_bool": {
        "encoding": "inplace",
        "label": "bool",
        "numberOfBytes": "1"
      },
      "t_bytes32": {
        "encoding": "inplace",
        "label": "bytes32",
        "numberOfBytes": "32"
      },
      "t_bytes_storage": {
        "encoding": "bytes",
        "label": "bytes",
        "numberOfBytes": "32"
      },
      "t_contract(Lib_AddressManager)16157": {
        "encoding": "inplace",
        "label": "contract Lib_AddressManager",
        "numberOfBytes": "20"
      },
      "t_enum(STAKESTATUS)15197": {
        "encoding": "inplace",
        "label": "enum iMVM_CanonicalTransaction.STAKESTATUS",
        "numberOfBytes": "1"
      },
      "t_mapping(t_address,t_bool)": {
        "encoding": "mapping",
        "key": "t_address",
        "label": "mapping(address => bool)",
        "numberOfBytes": "32",
        "value": "t_bool"
      },
      "t_mapping(t_address,t_uint256)": {
        "encoding": "mapping",
        "key": "t_address",
        "label": "mapping(address => uint256)",
        "numberOfBytes": "32",
        "value": "t_uint256"
      },
      "t_mapping(t_uint256,t_mapping(t_uint256,t_struct(BatchElement)15283_storage))": {
        "encoding": "mapping",
        "key": "t_uint256",
        "label": "mapping(uint256 => mapping(uint256 => struct iMVM_CanonicalTransaction.BatchElement))",
        "numberOfBytes": "32",
        "value": "t_mapping(t_uint256,t_struct(BatchElement)15283_storage)"
      },
      "t_mapping(t_uint256,t_mapping(t_uint256,t_struct(TxDataRequestStake)15270_storage))": {
        "encoding": "mapping",
        "key": "t_uint256",
        "label": "mapping(uint256 => mapping(uint256 => struct iMVM_CanonicalTransaction.TxDataRequestStake))",
        "numberOfBytes": "32",
        "value": "t_mapping(t_uint256,t_struct(TxDataRequestStake)15270_storage)"
      },
      "t_mapping(t_uint256,t_mapping(t_uint256,t_struct(TxDataSlice)15254_storage))": {
        "encoding": "mapping",
        "key": "t_uint256",
        "label": "mapping(uint256 => mapping(uint256 => struct iMVM_CanonicalTransaction.TxDataSlice))",
        "numberOfBytes": "32",
        "value": "t_mapping(t_uint256,t_struct(TxDataSlice)15254_storage)"
      },
      "t_mapping(t_uint256,t_struct(BatchElement)15283_storage)": {
        "encoding": "mapping",
        "key": "t_uint256",
        "label": "mapping(uint256 => struct iMVM_CanonicalTransaction.BatchElement)",
        "numberOfBytes": "32",
        "value": "t_struct(BatchElement)15283_storage"
      },
      "t_mapping(t_uint256,t_struct(TxDataRequestStake)15270_storage)": {
        "encoding": "mapping",
        "key": "t_uint256",
        "label": "mapping(uint256 => struct iMVM_CanonicalTransaction.TxDataRequestStake)",
        "numberOfBytes": "32",
        "value": "t_struct(TxDataRequestStake)15270_storage"
      },
      "t_mapping(t_uint256,t_struct(TxDataSlice)15254_storage)": {
        "encoding": "mapping",
        "key": "t_uint256",
        "label": "mapping(uint256 => struct iMVM_CanonicalTransaction.TxDataSlice)",
        "numberOfBytes": "32",
        "value": "t_struct(TxDataSlice)15254_storage"
      },
      "t_struct(BatchElement)15283_storage": {
        "encoding": "inplace",
        "label": "struct iMVM_CanonicalTransaction.BatchElement",
        "members": [
          {
            "astId": 15272,
            "contract": "contracts/MVM/MVM_CanonicalTransaction.sol:MVM_CanonicalTransaction",
            "label": "shouldStartAtElement",
            "offset": 0,
            "slot": "0",
            "type": "t_uint40"
          },
          {
            "astId": 15274,
            "contract": "contracts/MVM/MVM_CanonicalTransaction.sol:MVM_CanonicalTransaction",
            "label": "totalElementsToAppend",
            "offset": 5,
            "slot": "0",
            "type": "t_uint24"
          },
          {
            "astId": 15276,
            "contract": "contracts/MVM/MVM_CanonicalTransaction.sol:MVM_CanonicalTransaction",
            "label": "txBatchSize",
            "offset": 0,
            "slot": "1",
            "type": "t_uint256"
          },
          {
            "astId": 15278,
            "contract": "contracts/MVM/MVM_CanonicalTransaction.sol:MVM_CanonicalTransaction",
            "label": "txBatchTime",
            "offset": 0,
            "slot": "2",
            "type": "t_uint256"
          },
          {
            "astId": 15280,
            "contract": "contracts/MVM/MVM_CanonicalTransaction.sol:MVM_CanonicalTransaction",
            "label": "root",
            "offset": 0,
            "slot": "3",
            "type": "t_bytes32"
          },
          {
            "astId": 15282,
            "contract": "contracts/MVM/MVM_CanonicalTransaction.sol:MVM_CanonicalTransaction",
            "label": "timestamp",
            "offset": 0,
            "slot": "4",
            "type": "t_uint256"
          }
        ],
        "numberOfBytes": "160"
      },
      "t_struct(TxDataRequestStake)15270_storage": {
        "encoding": "inplace",
        "label": "struct iMVM_CanonicalTransaction.TxDataRequestStake",
        "members": [
          {
            "astId": 15256,
            "contract": "contracts/MVM/MVM_CanonicalTransaction.sol:MVM_CanonicalTransaction",
            "label": "sender",
            "offset": 0,
            "slot": "0",
            "type": "t_address"
          },
          {
            "astId": 15258,
            "contract": "contracts/MVM/MVM_CanonicalTransaction.sol:MVM_CanonicalTransaction",
            "label": "blockNumber",
            "offset": 0,
            "slot": "1",
            "type": "t_uint256"
          },
          {
            "astId": 15260,
            "contract": "contracts/MVM/MVM_CanonicalTransaction.sol:MVM_CanonicalTransaction",
            "label": "batchIndex",
            "offset": 0,
            "slot": "2",
            "type": "t_uint256"
          },
          {
            "astId": 15262,
            "contract": "contracts/MVM/MVM_CanonicalTransaction.sol:MVM_CanonicalTransaction",
            "label": "timestamp",
            "offset": 0,
            "slot": "3",
            "type": "t_uint256"
          },
          {
            "astId": 15264,
            "contract": "contracts/MVM/MVM_CanonicalTransaction.sol:MVM_CanonicalTransaction",
            "label": "endtime",
            "offset": 0,
            "slot": "4",
            "type": "t_uint256"
          },
          {
            "astId": 15266,
            "contract": "contracts/MVM/MVM_CanonicalTransaction.sol:MVM_CanonicalTransaction",
            "label": "amount",
            "offset": 0,
            "slot": "5",
            "type": "t_uint256"
          },
          {
            "astId": 15269,
            "contract": "contracts/MVM/MVM_CanonicalTransaction.sol:MVM_CanonicalTransaction",
            "label": "status",
            "offset": 0,
            "slot": "6",
            "type": "t_enum(STAKESTATUS)15197"
          }
        ],
        "numberOfBytes": "224"
      },
      "t_struct(TxDataSlice)15254_storage": {
        "encoding": "inplace",
        "label": "struct iMVM_CanonicalTransaction.TxDataSlice",
        "members": [
          {
            "astId": 15243,
            "contract": "contracts/MVM/MVM_CanonicalTransaction.sol:MVM_CanonicalTransaction",
            "label": "sender",
            "offset": 0,
            "slot": "0",
            "type": "t_address"
          },
          {
            "astId": 15245,
            "contract": "contracts/MVM/MVM_CanonicalTransaction.sol:MVM_CanonicalTransaction",
            "label": "blockNumber",
            "offset": 0,
            "slot": "1",
            "type": "t_uint256"
          },
          {
            "astId": 15247,
            "contract": "contracts/MVM/MVM_CanonicalTransaction.sol:MVM_CanonicalTransaction",
            "label": "batchIndex",
            "offset": 0,
            "slot": "2",
            "type": "t_uint256"
          },
          {
            "astId": 15249,
            "contract": "contracts/MVM/MVM_CanonicalTransaction.sol:MVM_CanonicalTransaction",
            "label": "timestamp",
            "offset": 0,
            "slot": "3",
            "type": "t_uint256"
          },
          {
            "astId": 15251,
            "contract": "contracts/MVM/MVM_CanonicalTransaction.sol:MVM_CanonicalTransaction",
            "label": "txData",
            "offset": 0,
            "slot": "4",
            "type": "t_bytes_storage"
          },
          {
            "astId": 15253,
            "contract": "contracts/MVM/MVM_CanonicalTransaction.sol:MVM_CanonicalTransaction",
            "label": "verified",
            "offset": 0,
            "slot": "5",
            "type": "t_bool"
          }
        ],
        "numberOfBytes": "192"
      },
      "t_uint24": {
        "encoding": "inplace",
        "label": "uint24",
        "numberOfBytes": "3"
      },
      "t_uint256": {
        "encoding": "inplace",
        "label": "uint256",
        "numberOfBytes": "32"
      },
      "t_uint40": {
        "encoding": "inplace",
        "label": "uint40",
        "numberOfBytes": "5"
      }
    }
  }
}