{
  "address": "0x9db3BedF13fa81a887DA2010470E4A5E49523239",
  "abi": [
    {
      "inputs": [
        {
          "internalType": "address",
          "name": "_addressManager",
          "type": "address"
        },
        {
          "internalType": "uint256",
          "name": "_initialDiscount",
          "type": "uint256"
        }
      ],
      "stateMutability": "nonpayable",
      "type": "constructor"
    },
    {
      "inputs": [],
      "name": "CONFIG_OWNER_KEY",
      "outputs": [
        {
          "internalType": "string",
          "name": "",
          "type": "string"
        }
      ],
      "stateMutability": "view",
      "type": "function"
    },
    {
      "inputs": [],
      "name": "discount",
      "outputs": [
        {
          "internalType": "uint256",
          "name": "",
          "type": "uint256"
        }
      ],
      "stateMutability": "view",
      "type": "function"
    },
    {
      "inputs": [],
      "name": "getDiscount",
      "outputs": [
        {
          "internalType": "uint256",
          "name": "",
          "type": "uint256"
        }
      ],
      "stateMutability": "view",
      "type": "function"
    },
    {
      "inputs": [],
      "name": "getMinL2Gas",
      "outputs": [
        {
          "internalType": "uint256",
          "name": "",
          "type": "uint256"
        }
      ],
      "stateMutability": "view",
      "type": "function"
    },
    {
      "inputs": [
        {
          "internalType": "address",
          "name": "_sender",
          "type": "address"
        }
      ],
      "name": "isXDomainSenderAllowed",
      "outputs": [
        {
          "internalType": "bool",
          "name": "",
          "type": "bool"
        }
      ],
      "stateMutability": "view",
      "type": "function"
    },
    {
      "inputs": [],
      "name": "libAddressManager",
      "outputs": [
        {
          "internalType": "contract Lib_AddressManager",
          "name": "",
          "type": "address"
        }
      ],
      "stateMutability": "view",
      "type": "function"
    },
    {
      "inputs": [],
      "name": "minL2Gas",
      "outputs": [
        {
          "internalType": "uint256",
          "name": "",
          "type": "uint256"
        }
      ],
      "stateMutability": "view",
      "type": "function"
    },
    {
      "inputs": [
        {
          "internalType": "address",
          "name": "sender",
          "type": "address"
        },
        {
          "internalType": "uint256",
          "name": "_chainId",
          "type": "uint256"
        }
      ],
      "name": "processL2SeqGas",
      "outputs": [],
      "stateMutability": "payable",
      "type": "function"
    },
    {
      "inputs": [
        {
          "internalType": "string",
          "name": "_name",
          "type": "string"
        }
      ],
      "name": "resolve",
      "outputs": [
        {
          "internalType": "address",
          "name": "",
          "type": "address"
        }
      ],
      "stateMutability": "view",
      "type": "function"
    },
    {
      "inputs": [
        {
          "internalType": "bool",
          "name": "_allowAllXDomainSenders",
          "type": "bool"
        }
      ],
      "name": "setAllowAllXDomainSenders",
      "outputs": [],
      "stateMutability": "nonpayable",
      "type": "function"
    },
    {
      "inputs": [
        {
          "internalType": "uint256",
          "name": "_discount",
          "type": "uint256"
        }
      ],
      "name": "setDiscount",
      "outputs": [],
      "stateMutability": "nonpayable",
      "type": "function"
    },
    {
      "inputs": [
        {
          "internalType": "uint256",
          "name": "_minL2Gas",
          "type": "uint256"
        }
      ],
      "name": "setMinL2Gas",
      "outputs": [],
      "stateMutability": "nonpayable",
      "type": "function"
    },
    {
      "inputs": [
        {
          "internalType": "address",
          "name": "_sender",
          "type": "address"
        },
        {
          "internalType": "bool",
          "name": "_isWhitelisted",
          "type": "bool"
        }
      ],
      "name": "setWhitelistedXDomainSender",
      "outputs": [],
      "stateMutability": "nonpayable",
      "type": "function"
    },
    {
      "inputs": [
        {
          "internalType": "address",
          "name": "",
          "type": "address"
        }
      ],
      "name": "xDomainWL",
      "outputs": [
        {
          "internalType": "bool",
          "name": "",
          "type": "bool"
        }
      ],
      "stateMutability": "view",
      "type": "function"
    }
  ],
  "transactionHash": "0xa08d05c9c172b289791270093ef8f1bf7f60e6059b83678a11d217dc6e6c06e8",
  "args": [
    "0xC9EB2B0bD7dbA69bb72886E9cF5da34d1Ca88C38",
    "0"
  ],
  "solcInputHash": "e13cf1fae44a0e5e7e44bd3761fc9d78",
  "bytecode": "0x608060405234801561001057600080fd5b50604051610cdf380380610cdf83398101604081905261002f91610069565b600080546001600160a01b0319166001600160a01b03939093169290921790915560015562030d406002556004805460ff191690556100a3565b6000806040838503121561007c57600080fd5b82516001600160a01b038116811461009357600080fd5b6020939093015192949293505050565b610c2d806100b26000396000f3fe6080604052600436106100dd5760003560e01c8063d137874b1161007f578063e426541d11610059578063e426541d14610272578063e4af27be146102a2578063e7f1c10f146102b8578063f61caee3146102e857600080fd5b8063d137874b1461021d578063d417f18c14610232578063dabd27191461025257600080fd5b8063669fdeb5116100bb578063669fdeb51461017b5780636b6f4a9d146101d15780639955a4b3146101f5578063bf53926e1461020857600080fd5b8063299ca478146100e25780633eac510e14610139578063461a44781461015b575b600080fd5b3480156100ee57600080fd5b5060005461010f9073ffffffffffffffffffffffffffffffffffffffff1681565b60405173ffffffffffffffffffffffffffffffffffffffff90911681526020015b60405180910390f35b34801561014557600080fd5b5061015961015436600461098b565b610308565b005b34801561016757600080fd5b5061010f6101763660046109dc565b61045c565b34801561018757600080fd5b506101c46040518060400160405280600d81526020017f4d455449535f4d414e414745520000000000000000000000000000000000000081525081565b6040516101309190610aab565b3480156101dd57600080fd5b506101e760015481565b604051908152602001610130565b610159610203366004610b43565b610509565b34801561021457600080fd5b506002546101e7565b34801561022957600080fd5b506001546101e7565b34801561023e57600080fd5b5061015961024d366004610b6f565b61057c565b34801561025e57600080fd5b5061015961026d366004610ba4565b6106f0565b34801561027e57600080fd5b5061029261028d366004610bbd565b610813565b6040519015158152602001610130565b3480156102ae57600080fd5b506101e760025481565b3480156102c457600080fd5b506102926102d3366004610bbd565b60036020526000908152604090205460ff1681565b3480156102f457600080fd5b50610159610303366004610ba4565b610853565b6103466040518060400160405280600d81526020017f4d455449535f4d414e414745520000000000000000000000000000000000000081525061045c565b73ffffffffffffffffffffffffffffffffffffffff163373ffffffffffffffffffffffffffffffffffffffff161461042b576040517f08c379a000000000000000000000000000000000000000000000000000000000815260206004820152604560248201527f4d564d5f446973636f756e744f7261636c653a2046756e6374696f6e2063616e60448201527f206f6e6c792062652063616c6c656420627920746865204d455449535f4d414e60648201527f414745522e000000000000000000000000000000000000000000000000000000608482015260a4015b60405180910390fd5b600480547fffffffffffffffffffffffffffffffffffffffffffffffffffffffffffffff0016911515919091179055565b600080546040517fbf40fac100000000000000000000000000000000000000000000000000000000815273ffffffffffffffffffffffffffffffffffffffff9091169063bf40fac1906104b3908590600401610aab565b60206040518083038186803b1580156104cb57600080fd5b505afa1580156104df573d6000803e3d6000fd5b505050506040513d601f19601f820116820180604052508101906105039190610bda565b92915050565b61051282610813565b610578576040517f08c379a000000000000000000000000000000000000000000000000000000000815260206004820152601960248201527f73656e646572206973206e6f742077686974656c6973746564000000000000006044820152606401610422565b5050565b6105ba6040518060400160405280600d81526020017f4d455449535f4d414e414745520000000000000000000000000000000000000081525061045c565b73ffffffffffffffffffffffffffffffffffffffff163373ffffffffffffffffffffffffffffffffffffffff161461069a576040517f08c379a000000000000000000000000000000000000000000000000000000000815260206004820152604560248201527f4d564d5f446973636f756e744f7261636c653a2046756e6374696f6e2063616e60448201527f206f6e6c792062652063616c6c656420627920746865204d455449535f4d414e60648201527f414745522e000000000000000000000000000000000000000000000000000000608482015260a401610422565b73ffffffffffffffffffffffffffffffffffffffff91909116600090815260036020526040902080547fffffffffffffffffffffffffffffffffffffffffffffffffffffffffffffff0016911515919091179055565b61072e6040518060400160405280600d81526020017f4d455449535f4d414e414745520000000000000000000000000000000000000081525061045c565b73ffffffffffffffffffffffffffffffffffffffff163373ffffffffffffffffffffffffffffffffffffffff161461080e576040517f08c379a000000000000000000000000000000000000000000000000000000000815260206004820152604560248201527f4d564d5f446973636f756e744f7261636c653a2046756e6374696f6e2063616e60448201527f206f6e6c792062652063616c6c656420627920746865204d455449535f4d414e60648201527f414745522e000000000000000000000000000000000000000000000000000000608482015260a401610422565b600155565b60045460009060ff1615156001148061050357505073ffffffffffffffffffffffffffffffffffffffff1660009081526003602052604090205460ff1690565b6108916040518060400160405280600d81526020017f4d455449535f4d414e414745520000000000000000000000000000000000000081525061045c565b73ffffffffffffffffffffffffffffffffffffffff163373ffffffffffffffffffffffffffffffffffffffff1614610971576040517f08c379a000000000000000000000000000000000000000000000000000000000815260206004820152604560248201527f4d564d5f446973636f756e744f7261636c653a2046756e6374696f6e2063616e60448201527f206f6e6c792062652063616c6c656420627920746865204d455449535f4d414e60648201527f414745522e000000000000000000000000000000000000000000000000000000608482015260a401610422565b600255565b8035801515811461098657600080fd5b919050565b60006020828403121561099d57600080fd5b6109a682610976565b9392505050565b7f4e487b7100000000000000000000000000000000000000000000000000000000600052604160045260246000fd5b6000602082840312156109ee57600080fd5b813567ffffffffffffffff80821115610a0657600080fd5b818401915084601f830112610a1a57600080fd5b813581811115610a2c57610a2c6109ad565b604051601f82017fffffffffffffffffffffffffffffffffffffffffffffffffffffffffffffffe0908116603f01168101908382118183101715610a7257610a726109ad565b81604052828152876020848701011115610a8b57600080fd5b826020860160208301376000928101602001929092525095945050505050565b600060208083528351808285015260005b81811015610ad857858101830151858201604001528201610abc565b81811115610aea576000604083870101525b50601f017fffffffffffffffffffffffffffffffffffffffffffffffffffffffffffffffe016929092016040019392505050565b73ffffffffffffffffffffffffffffffffffffffff81168114610b4057600080fd5b50565b60008060408385031215610b5657600080fd5b8235610b6181610b1e565b946020939093013593505050565b60008060408385031215610b8257600080fd5b8235610b8d81610b1e565b9150610b9b60208401610976565b90509250929050565b600060208284031215610bb657600080fd5b5035919050565b600060208284031215610bcf57600080fd5b81356109a681610b1e565b600060208284031215610bec57600080fd5b81516109a681610b1e56fea26469706673582212200c14ed75f25cd267277fd4b37adf2ee5af177aeb74346e4a19f53f306d6b34fe64736f6c63430008090033",
  "devdoc": {
    "kind": "dev",
    "methods": {
      "resolve(string)": {
        "params": {
          "_name": "Name to resolve an address for."
        },
        "returns": {
          "_0": "Address associated with the given name."
        }
      }
    },
    "version": 1
  },
  "userdoc": {
    "kind": "user",
    "methods": {
      "resolve(string)": {
        "notice": "Resolves the address associated with a given name."
      }
    },
    "version": 1
  },
  "storageLayout": {
    "storage": [
      {
        "astId": 16130,
        "contract": "contracts/MVM/MVM_DiscountOracle.sol:MVM_DiscountOracle",
        "label": "libAddressManager",
        "offset": 0,
        "slot": "0",
        "type": "t_contract(Lib_AddressManager)16122"
      },
      {
        "astId": 12675,
        "contract": "contracts/MVM/MVM_DiscountOracle.sol:MVM_DiscountOracle",
        "label": "discount",
        "offset": 0,
        "slot": "1",
        "type": "t_uint256"
      },
      {
        "astId": 12677,
        "contract": "contracts/MVM/MVM_DiscountOracle.sol:MVM_DiscountOracle",
        "label": "minL2Gas",
        "offset": 0,
        "slot": "2",
        "type": "t_uint256"
      },
      {
        "astId": 12681,
        "contract": "contracts/MVM/MVM_DiscountOracle.sol:MVM_DiscountOracle",
        "label": "xDomainWL",
        "offset": 0,
        "slot": "3",
        "type": "t_mapping(t_address,t_bool)"
      },
      {
        "astId": 12683,
        "contract": "contracts/MVM/MVM_DiscountOracle.sol:MVM_DiscountOracle",
        "label": "allowAllXDomainSenders",
        "offset": 0,
        "slot": "4",
        "type": "t_bool"
      }
    ],
    "types": {
      "t_address": {
        "encoding": "inplace",
        "label": "address",
        "numberOfBytes": "20"
      },
      "t_bool": {
        "encoding": "inplace",
        "label": "bool",
        "numberOfBytes": "1"
      },
      "t_contract(Lib_AddressManager)16122": {
        "encoding": "inplace",
        "label": "contract Lib_AddressManager",
        "numberOfBytes": "20"
      },
      "t_mapping(t_address,t_bool)": {
        "encoding": "mapping",
        "key": "t_address",
        "label": "mapping(address => bool)",
        "numberOfBytes": "32",
        "value": "t_bool"
      },
      "t_uint256": {
        "encoding": "inplace",
        "label": "uint256",
        "numberOfBytes": "32"
      }
    }
  }
}