{
  "address": "0xe47bc1F78BFF44b144b4830f0651908012d1E99d",
  "abi": [
    {
      "inputs": [
        {
          "internalType": "address",
          "name": "_addressManager",
          "type": "address"
        },
        {
          "internalType": "address",
          "name": "_metis",
          "type": "address"
        }
      ],
      "stateMutability": "nonpayable",
      "type": "constructor"
    },
    {
      "anonymous": false,
      "inputs": [
        {
          "indexed": false,
          "internalType": "address",
          "name": "sender",
          "type": "address"
        },
        {
          "indexed": false,
          "internalType": "uint256",
          "name": "amount",
          "type": "uint256"
        }
      ],
      "name": "Claim",
      "type": "event"
    },
    {
      "anonymous": false,
      "inputs": [
        {
          "indexed": false,
          "internalType": "uint256",
          "name": "cIndex",
          "type": "uint256"
        },
        {
          "indexed": false,
          "internalType": "address",
          "name": "sender",
          "type": "address"
        },
        {
          "indexed": false,
          "internalType": "enum MVM_Verifier.SETTLEMENT",
          "name": "result",
          "type": "uint8"
        }
      ],
      "name": "Finalize",
      "type": "event"
    },
    {
      "anonymous": false,
      "inputs": [
        {
          "indexed": false,
          "internalType": "uint256",
          "name": "cIndex",
          "type": "uint256"
        },
        {
          "indexed": false,
          "internalType": "uint256",
          "name": "chainID",
          "type": "uint256"
        },
        {
          "components": [
            {
              "internalType": "uint256",
              "name": "batchIndex",
              "type": "uint256"
            },
            {
              "internalType": "bytes32",
              "name": "batchRoot",
              "type": "bytes32"
            },
            {
              "internalType": "uint256",
              "name": "batchSize",
              "type": "uint256"
            },
            {
              "internalType": "uint256",
              "name": "prevTotalElements",
              "type": "uint256"
            },
            {
              "internalType": "bytes",
              "name": "extraData",
              "type": "bytes"
            }
          ],
          "indexed": false,
          "internalType": "struct Lib_OVMCodec.ChainBatchHeader",
          "name": "header",
          "type": "tuple"
        },
        {
          "indexed": false,
          "internalType": "uint256",
          "name": "timestamp",
          "type": "uint256"
        }
      ],
      "name": "NewChallenge",
      "type": "event"
    },
    {
      "anonymous": false,
      "inputs": [
        {
          "indexed": false,
          "internalType": "address",
          "name": "sender",
          "type": "address"
        },
        {
          "indexed": false,
          "internalType": "uint256",
          "name": "stakeLost",
          "type": "uint256"
        }
      ],
      "name": "Penalize",
      "type": "event"
    },
    {
      "anonymous": false,
      "inputs": [
        {
          "indexed": false,
          "internalType": "address",
          "name": "target",
          "type": "address"
        },
        {
          "indexed": false,
          "internalType": "uint256",
          "name": "amount",
          "type": "uint256"
        }
      ],
      "name": "Reward",
      "type": "event"
    },
    {
      "anonymous": false,
      "inputs": [
        {
          "indexed": false,
          "internalType": "uint256",
          "name": "chainID",
          "type": "uint256"
        },
        {
          "indexed": false,
          "internalType": "address",
          "name": "seq",
          "type": "address"
        }
      ],
      "name": "SlashSequencer",
      "type": "event"
    },
    {
      "anonymous": false,
      "inputs": [
        {
          "indexed": false,
          "internalType": "address",
          "name": "verifier",
          "type": "address"
        },
        {
          "indexed": false,
          "internalType": "uint256",
          "name": "amount",
          "type": "uint256"
        }
      ],
      "name": "Stake",
      "type": "event"
    },
    {
      "anonymous": false,
      "inputs": [
        {
          "indexed": false,
          "internalType": "uint256",
          "name": "cIndex",
          "type": "uint256"
        },
        {
          "indexed": false,
          "internalType": "address",
          "name": "verifier",
          "type": "address"
        }
      ],
      "name": "Verify1",
      "type": "event"
    },
    {
      "anonymous": false,
      "inputs": [
        {
          "indexed": false,
          "internalType": "uint256",
          "name": "cIndex",
          "type": "uint256"
        },
        {
          "indexed": false,
          "internalType": "address",
          "name": "verifier",
          "type": "address"
        }
      ],
      "name": "Verify2",
      "type": "event"
    },
    {
      "anonymous": false,
      "inputs": [
        {
          "indexed": false,
          "internalType": "address",
          "name": "sender",
          "type": "address"
        },
        {
          "indexed": false,
          "internalType": "uint256",
          "name": "amount",
          "type": "uint256"
        }
      ],
      "name": "Withdraw",
      "type": "event"
    },
    {
      "inputs": [],
      "name": "CONFIG_OWNER_KEY",
      "outputs": [
        {
          "internalType": "string",
          "name": "",
          "type": "string"
        }
      ],
      "stateMutability": "view",
      "type": "function"
    },
    {
      "inputs": [
        {
          "internalType": "address",
          "name": "",
          "type": "address"
        }
      ],
      "name": "absence_strikes",
      "outputs": [
        {
          "internalType": "uint8",
          "name": "",
          "type": "uint8"
        }
      ],
      "stateMutability": "view",
      "type": "function"
    },
    {
      "inputs": [],
      "name": "activeChallenges",
      "outputs": [
        {
          "internalType": "uint256",
          "name": "",
          "type": "uint256"
        }
      ],
      "stateMutability": "view",
      "type": "function"
    },
    {
      "inputs": [
        {
          "internalType": "uint256",
          "name": "",
          "type": "uint256"
        }
      ],
      "name": "chain_under_challenge",
      "outputs": [
        {
          "internalType": "uint256",
          "name": "",
          "type": "uint256"
        }
      ],
      "stateMutability": "view",
      "type": "function"
    },
    {
      "inputs": [
        {
          "internalType": "uint256",
          "name": "",
          "type": "uint256"
        }
      ],
      "name": "challenges",
      "outputs": [
        {
          "internalType": "address",
          "name": "challenger",
          "type": "address"
        },
        {
          "internalType": "uint256",
          "name": "chainID",
          "type": "uint256"
        },
        {
          "internalType": "uint256",
          "name": "index",
          "type": "uint256"
        },
        {
          "components": [
            {
              "internalType": "uint256",
              "name": "batchIndex",
              "type": "uint256"
            },
            {
              "internalType": "bytes32",
              "name": "batchRoot",
              "type": "bytes32"
            },
            {
              "internalType": "uint256",
              "name": "batchSize",
              "type": "uint256"
            },
            {
              "internalType": "uint256",
              "name": "prevTotalElements",
              "type": "uint256"
            },
            {
              "internalType": "bytes",
              "name": "extraData",
              "type": "bytes"
            }
          ],
          "internalType": "struct Lib_OVMCodec.ChainBatchHeader",
          "name": "header",
          "type": "tuple"
        },
        {
          "internalType": "uint256",
          "name": "timestamp",
          "type": "uint256"
        },
        {
          "internalType": "uint256",
          "name": "numQualifiedVerifiers",
          "type": "uint256"
        },
        {
          "internalType": "uint256",
          "name": "numVerifiers",
          "type": "uint256"
        },
        {
          "internalType": "bool",
          "name": "done",
          "type": "bool"
        }
      ],
      "stateMutability": "view",
      "type": "function"
    },
    {
      "inputs": [],
      "name": "claim",
      "outputs": [],
      "stateMutability": "nonpayable",
      "type": "function"
    },
    {
      "inputs": [
        {
          "internalType": "address",
          "name": "",
          "type": "address"
        }
      ],
      "name": "consensus_strikes",
      "outputs": [
        {
          "internalType": "uint8",
          "name": "",
          "type": "uint8"
        }
      ],
      "stateMutability": "view",
      "type": "function"
    },
    {
      "inputs": [
        {
          "internalType": "bytes",
          "name": "data",
          "type": "bytes"
        },
        {
          "internalType": "bytes",
          "name": "key",
          "type": "bytes"
        }
      ],
      "name": "decrypt",
      "outputs": [
        {
          "internalType": "bytes",
          "name": "",
          "type": "bytes"
        }
      ],
      "stateMutability": "pure",
      "type": "function"
    },
    {
      "inputs": [
        {
          "internalType": "uint256",
          "name": "amount",
          "type": "uint256"
        }
      ],
      "name": "depositSeqStake",
      "outputs": [],
      "stateMutability": "nonpayable",
      "type": "function"
    },
    {
      "inputs": [],
      "name": "disableWhiteList",
      "outputs": [],
      "stateMutability": "nonpayable",
      "type": "function"
    },
    {
      "inputs": [
        {
          "internalType": "bytes",
          "name": "data",
          "type": "bytes"
        },
        {
          "internalType": "bytes",
          "name": "key",
          "type": "bytes"
        }
      ],
      "name": "encrypt",
      "outputs": [
        {
          "internalType": "bytes",
          "name": "",
          "type": "bytes"
        }
      ],
      "stateMutability": "pure",
      "type": "function"
    },
    {
      "inputs": [
        {
          "internalType": "bytes32[]",
          "name": "elements",
          "type": "bytes32[]"
        }
      ],
      "name": "getMerkleRoot",
      "outputs": [
        {
          "internalType": "bytes32",
          "name": "",
          "type": "bytes32"
        }
      ],
      "stateMutability": "pure",
      "type": "function"
    },
    {
      "inputs": [
        {
          "internalType": "address",
          "name": "target",
          "type": "address"
        }
      ],
      "name": "isSufficientlyStaked",
      "outputs": [
        {
          "internalType": "bool",
          "name": "",
          "type": "bool"
        }
      ],
      "stateMutability": "view",
      "type": "function"
    },
    {
      "inputs": [
        {
          "internalType": "address",
          "name": "verifier",
          "type": "address"
        }
      ],
      "name": "isWhiteListed",
      "outputs": [
        {
          "internalType": "bool",
          "name": "",
          "type": "bool"
        }
      ],
      "stateMutability": "view",
      "type": "function"
    },
    {
      "inputs": [],
      "name": "libAddressManager",
      "outputs": [
        {
          "internalType": "contract Lib_AddressManager",
          "name": "",
          "type": "address"
        }
      ],
      "stateMutability": "view",
      "type": "function"
    },
    {
      "inputs": [],
      "name": "metis",
      "outputs": [
        {
          "internalType": "address",
          "name": "",
          "type": "address"
        }
      ],
      "stateMutability": "view",
      "type": "function"
    },
    {
      "inputs": [],
      "name": "minStake",
      "outputs": [
        {
          "internalType": "uint256",
          "name": "",
          "type": "uint256"
        }
      ],
      "stateMutability": "view",
      "type": "function"
    },
    {
      "inputs": [
        {
          "internalType": "uint256",
          "name": "chainID",
          "type": "uint256"
        },
        {
          "components": [
            {
              "internalType": "uint256",
              "name": "batchIndex",
              "type": "uint256"
            },
            {
              "internalType": "bytes32",
              "name": "batchRoot",
              "type": "bytes32"
            },
            {
              "internalType": "uint256",
              "name": "batchSize",
              "type": "uint256"
            },
            {
              "internalType": "uint256",
              "name": "prevTotalElements",
              "type": "uint256"
            },
            {
              "internalType": "bytes",
              "name": "extraData",
              "type": "bytes"
            }
          ],
          "internalType": "struct Lib_OVMCodec.ChainBatchHeader",
          "name": "header",
          "type": "tuple"
        },
        {
          "internalType": "bytes",
          "name": "proposedHash",
          "type": "bytes"
        },
        {
          "internalType": "bytes",
          "name": "keyhash",
          "type": "bytes"
        }
      ],
      "name": "newChallenge",
      "outputs": [],
      "stateMutability": "nonpayable",
      "type": "function"
    },
    {
      "inputs": [],
      "name": "numQualifiedVerifiers",
      "outputs": [
        {
          "internalType": "uint256",
          "name": "",
          "type": "uint256"
        }
      ],
      "stateMutability": "view",
      "type": "function"
    },
    {
      "inputs": [
        {
          "internalType": "string",
          "name": "_name",
          "type": "string"
        }
      ],
      "name": "resolve",
      "outputs": [
        {
          "internalType": "address",
          "name": "",
          "type": "address"
        }
      ],
      "stateMutability": "view",
      "type": "function"
    },
    {
      "inputs": [
        {
          "internalType": "address",
          "name": "",
          "type": "address"
        }
      ],
      "name": "rewards",
      "outputs": [
        {
          "internalType": "uint256",
          "name": "",
          "type": "uint256"
        }
      ],
      "stateMutability": "view",
      "type": "function"
    },
    {
      "inputs": [],
      "name": "seqStake",
      "outputs": [
        {
          "internalType": "uint256",
          "name": "",
          "type": "uint256"
        }
      ],
      "stateMutability": "view",
      "type": "function"
    },
    {
      "inputs": [
        {
          "internalType": "uint256",
          "name": "_minStake",
          "type": "uint256"
        }
      ],
      "name": "setMinStake",
      "outputs": [],
      "stateMutability": "nonpayable",
      "type": "function"
    },
    {
      "inputs": [
        {
          "internalType": "uint256",
          "name": "absence_threshold",
          "type": "uint256"
        },
        {
          "internalType": "uint256",
          "name": "fail_threshold",
          "type": "uint256"
        }
      ],
      "name": "setThreshold",
      "outputs": [],
      "stateMutability": "nonpayable",
      "type": "function"
    },
    {
      "inputs": [
        {
          "internalType": "uint256",
          "name": "window",
          "type": "uint256"
        }
      ],
      "name": "setVerifyWindow",
      "outputs": [],
      "stateMutability": "nonpayable",
      "type": "function"
    },
    {
      "inputs": [
        {
          "internalType": "address",
          "name": "verifier",
          "type": "address"
        },
        {
          "internalType": "bool",
          "name": "allowed",
          "type": "bool"
        }
      ],
      "name": "setWhiteList",
      "outputs": [],
      "stateMutability": "nonpayable",
      "type": "function"
    },
    {
      "inputs": [
        {
          "internalType": "uint256",
          "name": "stake",
          "type": "uint256"
        }
      ],
      "name": "verifierStake",
      "outputs": [],
      "stateMutability": "nonpayable",
      "type": "function"
    },
    {
      "inputs": [
        {
          "internalType": "address",
          "name": "",
          "type": "address"
        }
      ],
      "name": "verifier_stakes",
      "outputs": [
        {
          "internalType": "uint256",
          "name": "",
          "type": "uint256"
        }
      ],
      "stateMutability": "view",
      "type": "function"
    },
    {
      "inputs": [
        {
          "internalType": "uint256",
          "name": "",
          "type": "uint256"
        }
      ],
      "name": "verifiers",
      "outputs": [
        {
          "internalType": "address",
          "name": "",
          "type": "address"
        }
      ],
      "stateMutability": "view",
      "type": "function"
    },
    {
      "inputs": [
        {
          "internalType": "uint256",
          "name": "cIndex",
          "type": "uint256"
        },
        {
          "internalType": "bytes",
          "name": "hash",
          "type": "bytes"
        },
        {
          "internalType": "bytes",
          "name": "keyhash",
          "type": "bytes"
        }
      ],
      "name": "verify1",
      "outputs": [],
      "stateMutability": "nonpayable",
      "type": "function"
    },
    {
      "inputs": [
        {
          "internalType": "uint256",
          "name": "cIndex",
          "type": "uint256"
        },
        {
          "internalType": "bytes",
          "name": "key",
          "type": "bytes"
        }
      ],
      "name": "verify2",
      "outputs": [],
      "stateMutability": "nonpayable",
      "type": "function"
    },
    {
      "inputs": [],
      "name": "verifyWindow",
      "outputs": [
        {
          "internalType": "uint256",
          "name": "",
          "type": "uint256"
        }
      ],
      "stateMutability": "view",
      "type": "function"
    },
    {
      "inputs": [
        {
          "internalType": "address",
          "name": "",
          "type": "address"
        }
      ],
      "name": "whitelist",
      "outputs": [
        {
          "internalType": "bool",
          "name": "",
          "type": "bool"
        }
      ],
      "stateMutability": "view",
      "type": "function"
    },
    {
      "inputs": [
        {
          "internalType": "uint256",
          "name": "amount",
          "type": "uint256"
        }
      ],
      "name": "withdraw",
      "outputs": [],
      "stateMutability": "nonpayable",
      "type": "function"
    },
    {
      "inputs": [
        {
          "internalType": "address",
          "name": "to",
          "type": "address"
        }
      ],
      "name": "withdrawSeqStake",
      "outputs": [],
      "stateMutability": "nonpayable",
      "type": "function"
    }
  ],
  "transactionHash": "0xd602a67bd7e7a9082f511f268d8cf23c39f70ccd831ebb1e54e781ab621f0c78",
  "args": [
    "0xC9EB2B0bD7dbA69bb72886E9cF5da34d1Ca88C38",
    "0xe552Fb52a4F19e44ef5A967632DBc320B0820639"
  ],
  "solcInputHash": "e13cf1fae44a0e5e7e44bd3761fc9d78",
  "bytecode": "0x608060405262015180600e55600260135560046014553480156200002257600080fd5b5060405162005206380380620052068339810160408190526200004591620000ae565b600080546001600160a01b039384166001600160a01b031991821617909155680ad78ebc5ac620000060105560018054929093169116178155600b805460ff19169091179055620000e6565b80516001600160a01b0381168114620000a957600080fd5b919050565b60008060408385031215620000c257600080fd5b620000cd8362000091565b9150620000dd6020840162000091565b90509250929050565b61511080620000f66000396000f3fe608060405234801561001057600080fd5b50600436106102415760003560e01c80636f9170f611610145578063b4b6de38116100bd578063e59745541161008c578063ef53b04111610071578063ef53b0411461056c578063fca0fd6c1461057f578063ffa444ec1461058857600080fd5b8063e597455414610529578063eab0fca31461053c57600080fd5b8063b4b6de38146104f2578063b646c02514610505578063b9c362091461050e578063dcd836161461052157600080fd5b8063939f59fe1161011457806398fe9dfb116100f957806398fe9dfb146104a95780639b19251a146104bc578063ac1eff68146104df57600080fd5b8063939f59fe14610473578063966df42b1461048657600080fd5b80636f9170f6146104035780638c80fd90146104265780638d14e127146104395780638f1d37761461044c57600080fd5b8063461a4478116101d857806353dec0e8116101a75780635cc38c021161018c5780635cc38c02146103945780636593363f146103b4578063669fdeb5146103c757600080fd5b806353dec0e81461036e5780635bf0f25d1461038157600080fd5b8063461a4478146103375780634869bfb61461034a5780634d4127af1461035d5780634e71d92d1461036657600080fd5b80632e1a7d4d116102145780632e1a7d4d146102d1578063375b3c0a146102e6578063383e5e69146102ef57806340a89eae1461030257600080fd5b8063015cfec7146102465780630700037d1461026f57806315b90cb21461029d578063299ca478146102a6575b600080fd5b6102596102543660046144fd565b6105a8565b60405161026691906145d4565b60405180910390f35b61028f61027d3660046145fc565b60066020526000908152604090205481565b604051908152602001610266565b61028f60115481565b6000546102b9906001600160a01b031681565b6040516001600160a01b039091168152602001610266565b6102e46102df366004614619565b6106c7565b005b61028f60105481565b6102e46102fd3660046145fc565b6108cc565b6103256103103660046145fc565b60076020526000908152604090205460ff1681565b60405160ff9091168152602001610266565b6102b96103453660046146f5565b610b13565b61028f610358366004614746565b610bb3565b61028f60125481565b6102e4610bf8565b6102e461037c366004614619565b610d92565b6102e461038f366004614619565b610f92565b61028f6103a2366004614619565b60096020526000908152604090205481565b6102e46103c23660046147bb565b6112f9565b6102596040518060400160405280600d81526020017f4d455449535f4d414e414745520000000000000000000000000000000000000081525081565b6104166104113660046145fc565b611907565b6040519015158152602001610266565b6102e4610434366004614619565b611936565b6102e4610447366004614815565b611bc3565b61045f61045a366004614619565b611cbc565b60405161026698979695949392919061484e565b6102e46104813660046148e4565b611df1565b6103256104943660046145fc565b60086020526000908152604090205460ff1681565b6102596104b736600461497e565b612026565b6104166104ca3660046145fc565b600a6020526000908152604090205460ff1681565b6102b96104ed366004614619565b6120ee565b6102e46105003660046149e2565b612118565b61028f600f5481565b6102e461051c366004614a88565b612732565b6102e4612801565b6001546102b9906001600160a01b031681565b61041661054a3660046145fc565b6010546001600160a01b03909116600090815260026020526040902054101590565b6102e461057a366004614619565b6128d1565b61028f600e5481565b61028f6105963660046145fc565b60026020526000908152604090205481565b6060600085858080601f016020809104026020016040519081016040528093929190818152602001838380828437600092018290525093945083925050505b82518110156106bb57818514156105fd57600091505b61065a83828151811061061257610612614aaa565b01602001517fff000000000000000000000000000000000000000000000000000000000000001687878581811061064b5761064b614aaa565b919091013560f81c905061299a565b83828151811061066c5761066c614aaa565b60200101907effffffffffffffffffffffffffffffffffffffffffffffffffffffffffffff1916908160001a905350816106a581614b08565b92505080806106b390614b08565b9150506105e7565b50909695505050505050565b600f541561071c5760405162461bcd60e51b815260206004820181905260248201527f77697468647261772069732063757272656e746c792070726f6869626974656460448201526064015b60405180910390fd5b336000908152600260205260409020548181101561077c5760405162461bcd60e51b815260206004820152601e60248201527f696e73756666696369656e74207374616b6520746f20776974686472617700006044820152606401610713565b6010546107898383614b23565b10801561079857506010548110155b156107bb57601280549060006107ad83614b3a565b91905055506107bb336129d6565b33600090815260026020526040812080548492906107da908490614b23565b90915550506001546040517fa9059cbb000000000000000000000000000000000000000000000000000000008152336004820152602481018490526001600160a01b039091169063a9059cbb90604401602060405180830381600087803b15801561084457600080fd5b505af1158015610858573d6000803e3d6000fd5b505050506040513d601f19601f8201168201806040525081019061087c9190614b51565b6108c85760405162461bcd60e51b815260206004820152601560248201527f746f6b656e207472616e73666572206661696c656400000000000000000000006044820152606401610713565b5050565b61090a6040518060400160405280600d81526020017f4d455449535f4d414e4147455200000000000000000000000000000000000000815250610b13565b6001600160a01b0316336001600160a01b0316146109905760405162461bcd60e51b815260206004820152603f60248201527f4d564d5f56657269666965723a2046756e6374696f6e2063616e206f6e6c792060448201527f62652063616c6c656420627920746865204d455449535f4d414e414745522e006064820152608401610713565b6000601154116109e25760405162461bcd60e51b815260206004820152600860248201527f6e6f207374616b650000000000000000000000000000000000000000000000006044820152606401610713565b6011546040805133815260208101929092527f884edad9ce6fa2440d8a54cc123490eb96d2768479d49ff9c7366125a9424364910160405180910390a16011805460009091556001546040517fa9059cbb0000000000000000000000000000000000000000000000000000000081526001600160a01b038481166004830152602482018490529091169063a9059cbb90604401602060405180830381600087803b158015610a8f57600080fd5b505af1158015610aa3573d6000803e3d6000fd5b505050506040513d601f19601f82011682018060405250810190610ac79190614b51565b6108c85760405162461bcd60e51b815260206004820152601560248201527f7472616e73666572206d65746973206661696c656400000000000000000000006044820152606401610713565b600080546040517fbf40fac10000000000000000000000000000000000000000000000000000000081526001600160a01b039091169063bf40fac190610b5d9085906004016145d4565b60206040518083038186803b158015610b7557600080fd5b505afa158015610b89573d6000803e3d6000fd5b505050506040513d601f19601f82011682018060405250810190610bad9190614b6e565b92915050565b6000610bf1838380806020026020016040519081016040528093929190818152602001838360200280828437600092019190915250612b4892505050565b9392505050565b33600090815260066020526040902054610c545760405162461bcd60e51b815260206004820152601260248201527f6e6f2072657761726420746f20636c61696d00000000000000000000000000006044820152606401610713565b33600081815260066020526040808220805492905560015490517fa9059cbb00000000000000000000000000000000000000000000000000000000815260048101939093526024830182905290916001600160a01b039091169063a9059cbb90604401602060405180830381600087803b158015610cd157600080fd5b505af1158015610ce5573d6000803e3d6000fd5b505050506040513d601f19601f82011682018060405250810190610d099190614b51565b610d555760405162461bcd60e51b815260206004820152601560248201527f746f6b656e207472616e73666572206661696c656400000000000000000000006044820152606401610713565b60408051338152602081018390527f47cee97cb7acd717b3c0aa1435d004cd5b3c8c57d70dbceb4e4458bbd60e39d491015b60405180910390a150565b610dd06040518060400160405280600d81526020017f4d455449535f4d414e4147455200000000000000000000000000000000000000815250610b13565b6001600160a01b0316336001600160a01b031614610e565760405162461bcd60e51b815260206004820152603f60248201527f4d564d5f56657269666965723a2046756e6374696f6e2063616e206f6e6c792060448201527f62652063616c6c656420627920746865204d455449535f4d414e414745522e006064820152608401610713565b6001546040517f23b872dd000000000000000000000000000000000000000000000000000000008152336004820152306024820152604481018390526001600160a01b03909116906323b872dd90606401602060405180830381600087803b158015610ec157600080fd5b505af1158015610ed5573d6000803e3d6000fd5b505050506040513d601f19601f82011682018060405250810190610ef99190614b51565b610f455760405162461bcd60e51b815260206004820152601560248201527f7472616e73666572206d65746973206661696c656400000000000000000000006044820152606401610713565b8060116000828254610f579190614b8b565b909155505060408051338152602081018390527febedb8b3c678666e7f36970bc8f57abf6d8fa2e828c0da91ea5b75bf68ed101a9101610d87565b610f9b33611907565b61100d5760405162461bcd60e51b815260206004820152602360248201527f6f6e6c792077686974656c6973746564207665726966696572732063616e206360448201527f616c6c00000000000000000000000000000000000000000000000000000000006064820152608401610713565b600f541561105d5760405162461bcd60e51b815260206004820152601d60248201527f7374616b652069732063757272656e746c792070726f686962697465640000006044820152606401610713565b600081116110ad5760405162461bcd60e51b815260206004820152601660248201527f7a65726f207374616b65206e6f7420616c6c6f776564000000000000000000006044820152606401610713565b6001546040517f23b872dd000000000000000000000000000000000000000000000000000000008152336004820152306024820152604481018390526001600160a01b03909116906323b872dd90606401602060405180830381600087803b15801561111857600080fd5b505af115801561112c573d6000803e3d6000fd5b505050506040513d601f19601f820116820180604052508101906111509190614b51565b61119c5760405162461bcd60e51b815260206004820152601560248201527f7472616e73666572206d65746973206661696c656400000000000000000000006044820152606401610713565b3360009081526002602052604081208054918391906111bb8385614b8b565b90915550506010543360009081526002602052604090205410156112475760405162461bcd60e51b815260206004820152602b60248201527f696e73756666696369656e74207374616b6520746f207175616c69667920617360448201527f20612076657269666965720000000000000000000000000000000000000000006064820152608401610713565b806112bc576012805490600061125c83614b08565b9091555050600c80546001810182556000919091527fdf6966c971051c3d54ec59162606531493a51404a002842f56009d7e5cf4a8c70180547fffffffffffffffffffffffff000000000000000000000000000000000000000016331790555b60408051338152602081018490527febedb8b3c678666e7f36970bc8f57abf6d8fa2e828c0da91ea5b75bf68ed101a910160405180910390a15050565b60105433600090815260026020526040902054101561135a5760405162461bcd60e51b815260206004820152601260248201527f696e73756666696369656e74207374616b6500000000000000000000000000006044820152606401610713565b61136333611907565b6113d55760405162461bcd60e51b815260206004820152602360248201527f6f6e6c792077686974656c6973746564207665726966696572732063616e206360448201527f616c6c00000000000000000000000000000000000000000000000000000000006064820152608401610713565b601254600d84815481106113eb576113eb614aaa565b90600052602060002090600d0201600a015414806114395750600e54600d848154811061141a5761141a614aaa565b90600052602060002090600d020160080154426114379190614b23565b115b6114855760405162461bcd60e51b815260206004820152601160248201527f70686173652032206e6f742072656164790000000000000000000000000000006044820152606401610713565b6000838152600560209081526040808320338452909152812080546114a990614ba3565b90501161151e5760405162461bcd60e51b815260206004820152602160248201527f796f75206469646e277420706172746963697061746520696e2070686173652060448201527f31000000000000000000000000000000000000000000000000000000000000006064820152608401610713565b60008381526003602090815260408083203384529091528120805461154290614ba3565b90501115611558576115538361302c565b505050565b6000838152600460209081526040808320338452909152902061157a90614bf7565b6002838360405161158c929190614c38565b602060405180830381855afa1580156115a9573d6000803e3d6000fd5b5050506040513d601f19601f820116820180604052508101906115cc9190614c48565b146116195760405162461bcd60e51b815260206004820152601b60248201527f6b657920616e64206b65796861736820646f6e2774206d6174636800000000006044820152606401610713565b600d838154811061162c5761162c614aaa565b60009182526020909120600d90910201546001600160a01b031633141561171d576116ec600d848154811061166357611663614aaa565b90600052602060002090600d02016003016001015460405160200161168a91815260200190565b604080517fffffffffffffffffffffffffffffffffffffffffffffffffffffffffffffffe08184030181526020601f86018190048102840181019092528483529190859085908190840183828082843760009201919091525061202692505050565b6116f590614c61565b600d848154811061170857611708614aaa565b600091825260209091206004600d9092020101555b6000838152600360209081526040808320338452909152902061174190838361428f565b50600083815260056020908152604080832033845290915290208054611825919061176b90614ba3565b80601f016020809104026020016040519081016040528092919081815260200182805461179790614ba3565b80156117e45780601f106117b9576101008083540402835291602001916117e4565b820191906000526020600020905b8154815290600101906020018083116117c757829003601f168201915b505050505083838080601f01602080910402602001604051908101604052809392919081815260200183838082843760009201919091525061202692505050565b6000848152600560209081526040808320338452825290912082516118509391929190910190614313565b50600d838154811061186457611864614aaa565b60009182526020808320600b600d9093020191909101805460018101825590835291200180547fffffffffffffffffffffffff000000000000000000000000000000000000000016339081179091556040517fcd699b485caf6a8424399921287eff9b6648355e67560923d33b3f9d85517263916118f6918691909182526001600160a01b0316602082015260400190565b60405180910390a16115538361302c565b600b5460009060ff161580610bad5750506001600160a01b03166000908152600a602052604090205460ff1690565b6119746040518060400160405280600d81526020017f4d455449535f4d414e4147455200000000000000000000000000000000000000815250610b13565b6001600160a01b0316336001600160a01b0316146119fa5760405162461bcd60e51b815260206004820152603f60248201527f4d564d5f56657269666965723a2046756e6374696f6e2063616e206f6e6c792060448201527f62652063616c6c656420627920746865204d455449535f4d414e414745522e006064820152608401610713565b6010819055600c5460009015611bbd57600c5460009067ffffffffffffffff811115611a2857611a28614632565b604051908082528060200260200182016040528015611a51578160200160208202803683370190505b50905060005b600c54811015611b1e5760105460026000600c8481548110611a7b57611a7b614aaa565b60009182526020808320909101546001600160a01b0316835282019290925260400190205410611b0e57600c8181548110611ab857611ab8614aaa565b9060005260206000200160009054906101000a90046001600160a01b0316828481518110611ae857611ae8614aaa565b6001600160a01b039092166020928302919091019091015282611b0a81614b08565b9350505b611b1781614b08565b9050611a57565b50600c54821015611bbb57611b35600c6000614387565b60005b82811015611bb957600c828281518110611b5457611b54614aaa565b60209081029190910181015182546001810184556000938452919092200180547fffffffffffffffffffffffff0000000000000000000000000000000000000000166001600160a01b0390921691909117905580611bb181614b08565b915050611b38565b505b505b60125550565b611c016040518060400160405280600d81526020017f4d455449535f4d414e4147455200000000000000000000000000000000000000815250610b13565b6001600160a01b0316336001600160a01b031614611c875760405162461bcd60e51b815260206004820152603f60248201527f4d564d5f56657269666965723a2046756e6374696f6e2063616e206f6e6c792060448201527f62652063616c6c656420627920746865204d455449535f4d414e414745522e006064820152608401610713565b6001600160a01b039091166000908152600a60205260409020805491151560ff19928316179055600b80549091166001179055565b600d8181548110611ccc57600080fd5b90600052602060002090600d02016000915090508060000160009054906101000a90046001600160a01b031690806001015490806002015490806003016040518060a001604052908160008201548152602001600182015481526020016002820154815260200160038201548152602001600482018054611d4c90614ba3565b80601f0160208091040260200160405190810160405280929190818152602001828054611d7890614ba3565b8015611dc55780601f10611d9a57610100808354040283529160200191611dc5565b820191906000526020600020905b815481529060010190602001808311611da857829003601f168201915b5050509190925250505060088201546009830154600a840154600c909401549293919290919060ff1688565b611dfa33611907565b611e6c5760405162461bcd60e51b815260206004820152602360248201527f6f6e6c792077686974656c6973746564207665726966696572732063616e206360448201527f616c6c00000000000000000000000000000000000000000000000000000000006064820152608401610713565b601054336000908152600260205260409020541015611ecd5760405162461bcd60e51b815260206004820152601260248201527f696e73756666696369656e74207374616b6500000000000000000000000000006044820152606401610713565b600085815260056020908152604080832033845290915290208054611ef190614ba3565b159050611f665760405162461bcd60e51b815260206004820152602860248201527f7665726966793120616c726561647920636f6d706c6574656420666f7220746860448201527f652073656e6465720000000000000000000000000000000000000000000000006064820152608401610713565b60008581526005602090815260408083203384529091529020611f8a90858561428f565b5060008581526004602090815260408083203384529091529020611faf90838361428f565b50600d8581548110611fc357611fc3614aaa565b600091825260208220600a600d9092020101805491611fe183614b08565b9091555050604080518681523360208201527f6f8abfaae8c5cb428b362c84259e542ab1f6424d0717b3495b02c4126e92943291015b60405180910390a15050505050565b6060826000805b82518110156120e457845182141561204457600091505b61208383828151811061205957612059614aaa565b602001015160f81c60f81b86848151811061207657612076614aaa565b016020015160f81c613e8f565b83828151811061209557612095614aaa565b60200101907effffffffffffffffffffffffffffffffffffffffffffffffffffffffffffff1916908160001a905350816120ce81614b08565b92505080806120dc90614b08565b91505061202d565b5090949350505050565b600c81815481106120fe57600080fd5b6000918252602090912001546001600160a01b0316905081565b61212133611907565b6121935760405162461bcd60e51b815260206004820152602360248201527f6f6e6c792077686974656c6973746564207665726966696572732063616e206360448201527f616c6c00000000000000000000000000000000000000000000000000000000006064820152608401610713565b6010543360009081526002602052604090205410156121f45760405162461bcd60e51b815260206004820152601260248201527f696e73756666696369656e74207374616b6500000000000000000000000000006044820152606401610713565b60008681526009602052604081205461220f90600190614b23565b90508015806122595750600e54612227906002614c85565b600d828154811061223a5761223a614aaa565b90600052602060002090600d020160080154426122579190614b23565b115b6122a55760405162461bcd60e51b815260206004820152601d60248201527f746865726520697320616e206f6e676f696e67206368616c6c656e67650000006044820152606401610713565b80156122b4576122b48161302c565b60006122f46040518060400160405280601481526020017f5374617465436f6d6d69746d656e74436861696e000000000000000000000000815250610b13565b6040517f9418bddd0000000000000000000000000000000000000000000000000000000081529091506001600160a01b03821690639418bddd9061233c908a90600401614d8f565b60206040518083038186803b15801561235457600080fd5b505afa158015612368573d6000803e3d6000fd5b505050506040513d601f19601f8201168201806040525081019061238c9190614b51565b6123fe5760405162461bcd60e51b815260206004820152602e60248201527f746865206261746368206973206f757473696465206f6620746865206672617560448201527f642070726f6f662077696e646f770000000000000000000000000000000000006064820152608401610713565b6124066143a8565b6020810189905233815242608082015261241f88614da2565b6060808301918252600d80546001810182556000829052845191027fd7b6990105719101dabeb77144f2a3385c8033acd3af97e9423a695e81ad1eb5810180546001600160a01b039093167fffffffffffffffffffffffff00000000000000000000000000000000000000009093169290921782556020808601517fd7b6990105719101dabeb77144f2a3385c8033acd3af97e9423a695e81ad1eb68301556040808701517fd7b6990105719101dabeb77144f2a3385c8033acd3af97e9423a695e81ad1eb7840155945180517fd7b6990105719101dabeb77144f2a3385c8033acd3af97e9423a695e81ad1eb88401908155818301517fd7b6990105719101dabeb77144f2a3385c8033acd3af97e9423a695e81ad1eb9850155958101517fd7b6990105719101dabeb77144f2a3385c8033acd3af97e9423a695e81ad1eba840155938401517fd7b6990105719101dabeb77144f2a3385c8033acd3af97e9423a695e81ad1ebb830155608084015180518796949594936125c7937fd7b6990105719101dabeb77144f2a3385c8033acd3af97e9423a695e81ad1ebc909101920190614313565b5050506080820151600882015560a0820151600982015560c0820151600a82015560e0820151805161260391600b840191602090910190614432565b506101009190910151600c909101805460ff1916911515919091179055600d5460009061263290600190614b23565b6000818152600560209081526040808320338452909152902090915061265990898961428f565b506000818152600460209081526040808320338452909152902061267e90878761428f565b50600d818154811061269257612692614aaa565b600091825260208220600a600d90920201018054916126b083614b08565b9091555050600f80549060006126c583614b08565b909155506126d69050816001614b8b565b60008b8152600960205260409081902091909155517f441214906ecb1ed44d085cb85ab8071c4734e7b4975b38397b9a5df89dec72689061271e9083908d908d904290614e2b565b60405180910390a150505050505050505050565b6127706040518060400160405280600d81526020017f4d455449535f4d414e4147455200000000000000000000000000000000000000815250610b13565b6001600160a01b0316336001600160a01b0316146127f65760405162461bcd60e51b815260206004820152603f60248201527f4d564d5f56657269666965723a2046756e6374696f6e2063616e206f6e6c792060448201527f62652063616c6c656420627920746865204d455449535f4d414e414745522e006064820152608401610713565b601491909155601355565b61283f6040518060400160405280600d81526020017f4d455449535f4d414e4147455200000000000000000000000000000000000000815250610b13565b6001600160a01b0316336001600160a01b0316146128c55760405162461bcd60e51b815260206004820152603f60248201527f4d564d5f56657269666965723a2046756e6374696f6e2063616e206f6e6c792060448201527f62652063616c6c656420627920746865204d455449535f4d414e414745522e006064820152608401610713565b600b805460ff19169055565b61290f6040518060400160405280600d81526020017f4d455449535f4d414e4147455200000000000000000000000000000000000000815250610b13565b6001600160a01b0316336001600160a01b0316146129955760405162461bcd60e51b815260206004820152603f60248201527f4d564d5f56657269666965723a2046756e6374696f6e2063616e206f6e6c792060448201527f62652063616c6c656420627920746865204d455449535f4d414e414745522e006064820152608401610713565b600e55565b600060f883901c6129ae60ff841682614e5b565b905060ff8161ffff1611156129cc576129c961010082614e81565b90505b60f81b9392505050565b60008060005b600c54811015612a3c57836001600160a01b0316600c8281548110612a0357612a03614aaa565b6000918252602090912001546001600160a01b03161415612a2a5760019250809150612a3c565b80612a3481614b08565b9150506129dc565b50811561155357805b600c54612a5490600190614b23565b811015612af757600c612a68826001614b8b565b81548110612a7857612a78614aaa565b600091825260209091200154600c80546001600160a01b039092169183908110612aa457612aa4614aaa565b600091825260209091200180547fffffffffffffffffffffffff0000000000000000000000000000000000000000166001600160a01b039290921691909117905580612aef81614b08565b915050612a45565b50600c805480612b0957612b09614ea4565b600082815260209020810160001990810180547fffffffffffffffffffffffff0000000000000000000000000000000000000000169055019055505050565b600080825111612bc05760405162461bcd60e51b815260206004820152603460248201527f4c69625f4d65726b6c65547265653a204d7573742070726f766964652061742060448201527f6c65617374206f6e65206c65616620686173682e0000000000000000000000006064820152608401610713565b815160011415612bec5781600081518110612bdd57612bdd614aaa565b60200260200101519050919050565b60408051610200810182527f290decd9548b62a8d60345a988386fc84ba6bc95484008f6362f93160ef3e56381527f633dc4d7da7256660a892f8f1604a44b5432649cc8ec5cb3ced4c4e6ac94dd1d60208201527f890740a8eb06ce9be422cb8da5cdafc2b58c0a5e24036c578de2a433c828ff7d818301527f3b8ec09e026fdc305365dfc94e189a81b38c7597b3d941c279f042e8206e0bd86060808301919091527fecd50eee38e386bd62be9bedb990706951b65fe053bd9d8a521af753d139e2da60808301527fdefff6d330bb5403f63b14f33b578274160de3a50df4efecf0e0db73bcdd3da560a08301527f617bdd11f7c0a11f49db22f629387a12da7596f9d1704d7465177c63d88ec7d760c08301527f292c23a9aa1d8bea7e2435e555a4a60e379a5a35f3f452bae60121073fb6eead60e08301527fe1cea92ed99acdcb045a6726b2f87107e8a61620a232cf4d7d5b5766b3952e106101008301527f7ad66c0a68c72cb89e4fb4303841966e4062a76ab97451e3b9fb526a5ceb7f826101208301527fe026cc5a4aed3c22a58cbd3d2ac754c9352c5436f638042dca99034e836365166101408301527f3d04cffd8b46a874edf5cfae63077de85f849a660426697b06a829c70dd1409c6101608301527fad676aa337a485e4728a0b240d92b3ef7b3c372d06d189322bfd5f61f1e7203e6101808301527fa2fca4a49658f9fab7aa63289c91b7c7b6c832a6d0e69334ff5b0a3483d09dab6101a08301527f4ebfd9cd7bca2505f7bef59cc1c12ecc708fff26ae4af19abe852afe9e20c8626101c08301527f2def10d13dd169f550f578bda343d9717a138562e0093b380a1120789d53cf106101e083015282518381529081018352909160009190602082018180368337505085519192506000918291508180805b600184111561300257612e9d600285614f02565b9150612eaa600285614f16565b600114905060005b82811015612f56578a612ec6826002614c85565b81518110612ed657612ed6614aaa565b602002602001015196508a816002612eee9190614c85565b612ef9906001614b8b565b81518110612f0957612f09614aaa565b6020026020010151955086602089015285604089015287805190602001208b8281518110612f3957612f39614aaa565b602090810291909101015280612f4e81614b08565b915050612eb2565b508015612fd25789612f69600186614b23565b81518110612f7957612f79614aaa565b60200260200101519550878360108110612f9557612f95614aaa565b602002015160001b945085602088015284604088015286805190602001208a8381518110612fc557612fc5614aaa565b6020026020010181815250505b80612fde576000612fe1565b60015b612fee9060ff1683614b8b565b935082612ffa81614b08565b935050612e89565b8960008151811061301557613015614aaa565b602002602001015198505050505050505050919050565b6000600d828154811061304157613041614aaa565b60009182526020909120600d90910201600c81015490915060ff16156130a95760405162461bcd60e51b815260206004820152601360248201527f6368616c6c656e676520697320636c6f736564000000000000000000000000006044820152606401610713565b600a810154600b820154148015906130db5750600e546130ca906002614c85565b60088201546130d99042614b23565b105b156130e4575050565b60006131246040518060400160405280601481526020017f5374617465436f6d6d69746d656e74436861696e000000000000000000000000815250610b13565b600084815260056020908152604080832086546001600160a01b0316845290915281209192509061315490614bf7565b905060008084600b018054905067ffffffffffffffff81111561317957613179614632565b6040519080825280602002602001820160405280156131a2578160200160208202803683370190505b50905060008086600b018054905067ffffffffffffffff8111156131c8576131c8614632565b6040519080825280602002602001820160405280156131f1578160200160208202803683370190505b5090506000805b600c548110156136815761324f600c828154811061321857613218614aaa565b6000918252602090912001546001600160a01b03166010546001600160a01b03909116600090815260026020526040902054101590565b15806132885750613286600c828154811061326c5761326c614aaa565b6000918252602090912001546001600160a01b0316611907565b155b156132925761366f565b60008a8152600560205260408120600c80548a939190859081106132b8576132b8614aaa565b60009182526020808320909101546001600160a01b0316835282019290925260400190206132e590614bf7565b141561340857600060076000600c848154811061330457613304614aaa565b60009182526020808320909101546001600160a01b0316835282019290925260400190205460ff16111561339b57600160076000600c848154811061334b5761334b614aaa565b60009182526020808320909101546001600160a01b031683528201929092526040018120805490919061338290849060ff16614f2a565b92506101000a81548160ff021916908360ff1602179055505b600c81815481106133ae576133ae614aaa565b9060005260206000200160009054906101000a90046001600160a01b03168585815181106133de576133de614aaa565b6001600160a01b03909216602092830291909101909101528361340081614b08565b94505061366f565b60008a8152600360205260408120600c80549192918490811061342d5761342d614aaa565b60009182526020808320909101546001600160a01b031683528201929092526040019020805461345c90614ba3565b1515905061355657600260076000600c848154811061347d5761347d614aaa565b60009182526020808320909101546001600160a01b03168352820192909252604001812080549091906134b490849060ff16614f4d565b92506101000a81548160ff021916908360ff16021790555060145460076000600c84815481106134e6576134e6614aaa565b60009182526020808320909101546001600160a01b0316835282019290925260400190205460ff16111561355157613544600c828154811061352a5761352a614aaa565b6000918252602090912001546001600160a01b0316613ec4565b61354e9087614b8b565b95505b61366f565b600060076000600c848154811061356f5761356f614aaa565b60009182526020808320909101546001600160a01b0316835282019290925260400190205460ff16111561360657600160076000600c84815481106135b6576135b6614aaa565b60009182526020808320909101546001600160a01b03168352820192909252604001812080549091906135ed90849060ff16614f2a565b92506101000a81548160ff021916908360ff1602179055505b600c818154811061361957613619614aaa565b9060005260206000200160009054906101000a90046001600160a01b031683838151811061364957613649614aaa565b6001600160a01b03909216602092830291909101909101528161366b81614b08565b9250505b8061367981614b08565b9150506131f8565b50866001600160a01b031663cfdf677e6040518163ffffffff1660e01b815260040160206040518083038186803b1580156136bb57600080fd5b505afa1580156136cf573d6000803e3d6000fd5b505050506040513d601f19601f820116820180604052508101906136f39190614b6e565b600189015460038a01546040517f67d18b9b000000000000000000000000000000000000000000000000000000008152600481019290925260248201526001600160a01b0391909116906367d18b9b9060440160206040518083038186803b15801561375e57600080fd5b505afa158015613772573d6000803e3d6000fd5b505050506040513d601f19601f820116820180604052508101906137969190614c48565b613867896003016040518060a0016040529081600082015481526020016001820154815260200160028201548152602001600382015481526020016004820180546137e090614ba3565b80601f016020809104026020016040519081016040528092919081815260200182805461380c90614ba3565b80156138595780601f1061382e57610100808354040283529160200191613859565b820191906000526020600020905b81548152906001019060200180831161383c57829003601f168201915b505050505081525050613f47565b146138eb578754613880906001600160a01b0316613ec4565b61388a9086614b8b565b94506138aa858360018b600b01805490506138a59190614b23565b613f8d565b7fd1f2f16cb8824bf0d832b207b27728846938ede14202c2335406d9c3509995f7893360036040516138de93929190614f72565b60405180910390a1613e4c565b6064601254604b6138fc9190614c85565b6139069190614f02565b600b8901541015613945577fd1f2f16cb8824bf0d832b207b27728846938ede14202c2335406d9c3509995f7893360006040516138de93929190614f72565b60048801548614613d0d57808311613a695760005b83811015613a5c5760026008600087848151811061397a5761397a614aaa565b60200260200101516001600160a01b03166001600160a01b0316815260200190815260200160002060008282829054906101000a900460ff166139bd9190614f4d565b92506101000a81548160ff021916908360ff160217905550601354600860008784815181106139ee576139ee614aaa565b6020908102919091018101516001600160a01b031682528101919091526040016000205460ff161115613a4a57613a3d858281518110613a3057613a30614aaa565b6020026020010151613ec4565b613a479087614b8b565b95505b80613a5481614b08565b91505061395a565b506138aa85838451613f8d565b6040517f9418bddd0000000000000000000000000000000000000000000000000000000081526001600160a01b03881690639418bddd90613ab19060038c019060040161507f565b60206040518083038186803b158015613ac957600080fd5b505afa158015613add573d6000803e3d6000fd5b505050506040513d601f19601f82011682018060405250810190613b019190614b51565b15613cd95760018801546040517f2ab65ec70000000000000000000000000000000000000000000000000000000081526001600160a01b03891691632ab65ec791613b54919060038d0190600401615092565b600060405180830381600087803b158015613b6e57600080fd5b505af1158015613b82573d6000803e3d6000fd5b5050505060006011541115613ca557601154613b9e9086614b8b565b945060005b81811015613c9857600260086000858481518110613bc357613bc3614aaa565b60200260200101516001600160a01b03166001600160a01b0316815260200190815260200160002060008282829054906101000a900460ff16613c069190614f4d565b92506101000a81548160ff021916908360ff16021790555060135460086000858481518110613c3757613c37614aaa565b6020908102919091018101516001600160a01b031682528101919091526040016000205460ff161115613c8657613c79838281518110613a3057613a30614aaa565b613c839087614b8b565b95505b80613c9081614b08565b915050613ba3565b50613ca585858651613f8d565b7fd1f2f16cb8824bf0d832b207b27728846938ede14202c2335406d9c3509995f7893360026040516138de93929190614f72565b7fd1f2f16cb8824bf0d832b207b27728846938ede14202c2335406d9c3509995f7893360046040516138de93929190614f72565b87546001600160a01b03166000908152600860205260408120805460029290613d3a90849060ff16614f4d565b82546101009290920a60ff8181021990931691831602179091556013548a546001600160a01b031660009081526008602052604090205490911611159050613d9d578754613d90906001600160a01b0316613ec4565b613d9a9086614b8b565b94505b613e0f8589600b01805480602002602001604051908101604052809291908181526020018280548015613df957602002820191906000526020600020905b81546001600160a01b03168152600190910190602001808311613ddb575b505050600b8d01546138a5925060019150614b23565b7fd1f2f16cb8824bf0d832b207b27728846938ede14202c2335406d9c3509995f789336001604051613e4393929190614f72565b60405180910390a15b600c8801805460ff19166001179055600f8054906000613e6b83614b3a565b90915550505060019096015460009081526009602052604081205550505050505050565b600060f883901c60ff8316811115613eb557613eae60ff841682614e81565b90506129cc565b6129c960ff8416610100614e81565b6001600160a01b0381166000908152600260205260408120805490829055601280549083613ef183614b3a565b9190505550613eff836129d6565b604080516001600160a01b0385168152602081018390527f39505629e9ffd84b4cea98325402ef1c5a184b431c9a7314a352e064f6658bed910160405180910390a192915050565b60008160200151826040015183606001518460800151604051602001613f7094939291906150ab565b604051602081830303815290604052805190602001209050919050565b6000613f998285614f02565b905080613fa65750505050565b6000805b84518110156140d057613ff2858281518110613fc857613fc8614aaa565b60200260200101516010546001600160a01b03909116600090815260026020526040902054101590565b156140be57826006600087848151811061400e5761400e614aaa565b60200260200101516001600160a01b03166001600160a01b0316815260200190815260200160002060008282546140459190614b8b565b9091555061405590508383614b8b565b91507f619caafabdd75649b302ba8419e48cccf64f37f1983ac4727cfb38b57703ffc985828151811061408a5761408a614aaa565b6020026020010151846040516140b59291906001600160a01b03929092168252602082015260400190565b60405180910390a15b806140c881614b08565b915050613faa565b5084811015614288576140ef84600081518110613fc857613fc8614aaa565b156141c2576140fe8582614b23565b600660008660008151811061411557614115614aaa565b60200260200101516001600160a01b03166001600160a01b03168152602001908152602001600020600082825461414c9190614b8b565b925050819055507f619caafabdd75649b302ba8419e48cccf64f37f1983ac4727cfb38b57703ffc98460008151811061418757614187614aaa565b6020026020010151868361419b9190614b23565b604080516001600160a01b03909316835260208301919091520160405180910390a1614288565b6141cc8582614b23565b60066000866001815181106141e3576141e3614aaa565b60200260200101516001600160a01b03166001600160a01b03168152602001908152602001600020600082825461421a9190614b8b565b925050819055507f619caafabdd75649b302ba8419e48cccf64f37f1983ac4727cfb38b57703ffc98460018151811061425557614255614aaa565b602002602001015186836142699190614b23565b604080516001600160a01b039093168352602083019190915201612017565b5050505050565b82805461429b90614ba3565b90600052602060002090601f0160209004810192826142bd5760008555614303565b82601f106142d65782800160ff19823516178555614303565b82800160010185558215614303579182015b828111156143035782358255916020019190600101906142e8565b5061430f92915061449f565b5090565b82805461431f90614ba3565b90600052602060002090601f0160209004810192826143415760008555614303565b82601f1061435a57805160ff1916838001178555614303565b82800160010185558215614303579182015b8281111561430357825182559160200191906001019061436c565b50805460008255906000526020600020908101906143a5919061449f565b50565b60405180610120016040528060006001600160a01b0316815260200160008152602001600081526020016144076040518060a0016040528060008152602001600080191681526020016000815260200160008152602001606081525090565b8152602001600081526020016000815260200160008152602001606081526020016000151581525090565b828054828255906000526020600020908101928215614303579160200282015b8281111561430357825182547fffffffffffffffffffffffff0000000000000000000000000000000000000000166001600160a01b03909116178255602090920191600190910190614452565b5b8082111561430f57600081556001016144a0565b60008083601f8401126144c657600080fd5b50813567ffffffffffffffff8111156144de57600080fd5b6020830191508360208285010111156144f657600080fd5b9250929050565b6000806000806040858703121561451357600080fd5b843567ffffffffffffffff8082111561452b57600080fd5b614537888389016144b4565b9096509450602087013591508082111561455057600080fd5b5061455d878288016144b4565b95989497509550505050565b6000815180845260005b8181101561458f57602081850181015186830182015201614573565b818111156145a1576000602083870101525b50601f017fffffffffffffffffffffffffffffffffffffffffffffffffffffffffffffffe0169290920160200192915050565b602081526000610bf16020830184614569565b6001600160a01b03811681146143a557600080fd5b60006020828403121561460e57600080fd5b8135610bf1816145e7565b60006020828403121561462b57600080fd5b5035919050565b7f4e487b7100000000000000000000000000000000000000000000000000000000600052604160045260246000fd5b600067ffffffffffffffff8084111561467c5761467c614632565b604051601f85017fffffffffffffffffffffffffffffffffffffffffffffffffffffffffffffffe0908116603f011681019082821181831017156146c2576146c2614632565b816040528093508581528686860111156146db57600080fd5b858560208301376000602087830101525050509392505050565b60006020828403121561470757600080fd5b813567ffffffffffffffff81111561471e57600080fd5b8201601f8101841361472f57600080fd5b61473e84823560208401614661565b949350505050565b6000806020838503121561475957600080fd5b823567ffffffffffffffff8082111561477157600080fd5b818501915085601f83011261478557600080fd5b81358181111561479457600080fd5b8660208260051b85010111156147a957600080fd5b60209290920196919550909350505050565b6000806000604084860312156147d057600080fd5b83359250602084013567ffffffffffffffff8111156147ee57600080fd5b6147fa868287016144b4565b9497909650939450505050565b80151581146143a557600080fd5b6000806040838503121561482857600080fd5b8235614833816145e7565b9150602083013561484381614807565b809150509250929050565b60006101006001600160a01b038b16835289602084015288604084015280606084015287518184015250602087015161012083015260408701516101408301526060870151610160830152608087015160a06101808401526148b46101a0840182614569565b9150508560808301528460a08301528360c08301526148d760e083018415159052565b9998505050505050505050565b6000806000806000606086880312156148fc57600080fd5b85359450602086013567ffffffffffffffff8082111561491b57600080fd5b61492789838a016144b4565b9096509450604088013591508082111561494057600080fd5b5061494d888289016144b4565b969995985093965092949392505050565b600082601f83011261496f57600080fd5b610bf183833560208501614661565b6000806040838503121561499157600080fd5b823567ffffffffffffffff808211156149a957600080fd5b6149b58683870161495e565b935060208501359150808211156149cb57600080fd5b506149d88582860161495e565b9150509250929050565b600080600080600080608087890312156149fb57600080fd5b86359550602087013567ffffffffffffffff80821115614a1a57600080fd5b9088019060a0828b031215614a2e57600080fd5b90955060408801359080821115614a4457600080fd5b614a508a838b016144b4565b90965094506060890135915080821115614a6957600080fd5b50614a7689828a016144b4565b979a9699509497509295939492505050565b60008060408385031215614a9b57600080fd5b50508035926020909101359150565b7f4e487b7100000000000000000000000000000000000000000000000000000000600052603260045260246000fd5b7f4e487b7100000000000000000000000000000000000000000000000000000000600052601160045260246000fd5b6000600019821415614b1c57614b1c614ad9565b5060010190565b600082821015614b3557614b35614ad9565b500390565b600081614b4957614b49614ad9565b506000190190565b600060208284031215614b6357600080fd5b8151610bf181614807565b600060208284031215614b8057600080fd5b8151610bf1816145e7565b60008219821115614b9e57614b9e614ad9565b500190565b600181811c90821680614bb757607f821691505b60208210811415614bf1577f4e487b7100000000000000000000000000000000000000000000000000000000600052602260045260246000fd5b50919050565b6000614c038254614ba3565b82601f821115614c195783600052602060002090505b5491506020811015614bf15760001960209190910360031b1b16919050565b8183823760009101908152919050565b600060208284031215614c5a57600080fd5b5051919050565b80516020808301519190811015614bf15760001960209190910360031b1b16919050565b6000816000190483118215151615614c9f57614c9f614ad9565b500290565b8183528181602085013750600060208284010152600060207fffffffffffffffffffffffffffffffffffffffffffffffffffffffffffffffe0601f840116840101905092915050565b80358252602081013560208301526040810135604083015260608101356060830152600060808201357fffffffffffffffffffffffffffffffffffffffffffffffffffffffffffffffe1833603018112614d4657600080fd5b8201803567ffffffffffffffff811115614d5f57600080fd5b803603841315614d6e57600080fd5b60a06080860152614d8660a086018260208501614ca4565b95945050505050565b602081526000610bf16020830184614ced565b600060a08236031215614db457600080fd5b60405160a0810167ffffffffffffffff8282108183111715614dd857614dd8614632565b81604052843583526020850135602084015260408501356040840152606085013560608401526080850135915080821115614e1257600080fd5b50614e1f3682860161495e565b60808301525092915050565b848152836020820152608060408201526000614e4a6080830185614ced565b905082606083015295945050505050565b600061ffff808316818516808303821115614e7857614e78614ad9565b01949350505050565b600061ffff83811690831681811015614e9c57614e9c614ad9565b039392505050565b7f4e487b7100000000000000000000000000000000000000000000000000000000600052603160045260246000fd5b7f4e487b7100000000000000000000000000000000000000000000000000000000600052601260045260246000fd5b600082614f1157614f11614ed3565b500490565b600082614f2557614f25614ed3565b500690565b600060ff821660ff841680821015614f4457614f44614ad9565b90039392505050565b600060ff821660ff84168060ff03821115614f6a57614f6a614ad9565b019392505050565b8381526001600160a01b03831660208201526060810160058310614fbf577f4e487b7100000000000000000000000000000000000000000000000000000000600052602160045260246000fd5b826040830152949350505050565b80548252600060018083015460208181870152600285015460408701526003850154606087015260048501915060a060808701526000825461500e81614ba3565b8060a08a015260c08683166000811461502e576001811461504257615070565b60ff198416828c015260e08b019450615070565b866000528560002060005b848110156150685781548d820185015290890190870161504d565b8c0183019550505b50929998505050505050505050565b602081526000610bf16020830184614fcd565b82815260406020820152600061473e6040830184614fcd565b8481528360208201528260408201526080606082015260006150d06080830184614569565b969550505050505056fea2646970667358221220287a7ae9ed86d3dcb62f7dbd3de7e543adf323187fc4075851cb144fbabbd6a264736f6c63430008090033",
  "devdoc": {
    "kind": "dev",
    "methods": {
      "resolve(string)": {
        "params": {
          "_name": "Name to resolve an address for."
        },
        "returns": {
          "_0": "Address associated with the given name."
        }
      }
    },
    "version": 1
  },
  "userdoc": {
    "kind": "user",
    "methods": {
      "resolve(string)": {
        "notice": "Resolves the address associated with a given name."
      }
    },
    "version": 1
  },
  "storageLayout": {
    "storage": [
      {
        "astId": 16130,
        "contract": "contracts/MVM/MVM_Verifier.sol:MVM_Verifier",
        "label": "libAddressManager",
        "offset": 0,
        "slot": "0",
        "type": "t_contract(Lib_AddressManager)16122"
      },
      {
        "astId": 13188,
        "contract": "contracts/MVM/MVM_Verifier.sol:MVM_Verifier",
        "label": "metis",
        "offset": 0,
        "slot": "1",
        "type": "t_address"
      },
      {
        "astId": 13290,
        "contract": "contracts/MVM/MVM_Verifier.sol:MVM_Verifier",
        "label": "verifier_stakes",
        "offset": 0,
        "slot": "2",
        "type": "t_mapping(t_address,t_uint256)"
      },
      {
        "astId": 13296,
        "contract": "contracts/MVM/MVM_Verifier.sol:MVM_Verifier",
        "label": "challenge_keys",
        "offset": 0,
        "slot": "3",
        "type": "t_mapping(t_uint256,t_mapping(t_address,t_bytes_storage))"
      },
      {
        "astId": 13302,
        "contract": "contracts/MVM/MVM_Verifier.sol:MVM_Verifier",
        "label": "challenge_key_hashes",
        "offset": 0,
        "slot": "4",
        "type": "t_mapping(t_uint256,t_mapping(t_address,t_bytes_storage))"
      },
      {
        "astId": 13308,
        "contract": "contracts/MVM/MVM_Verifier.sol:MVM_Verifier",
        "label": "challenge_hashes",
        "offset": 0,
        "slot": "5",
        "type": "t_mapping(t_uint256,t_mapping(t_address,t_bytes_storage))"
      },
      {
        "astId": 13312,
        "contract": "contracts/MVM/MVM_Verifier.sol:MVM_Verifier",
        "label": "rewards",
        "offset": 0,
        "slot": "6",
        "type": "t_mapping(t_address,t_uint256)"
      },
      {
        "astId": 13316,
        "contract": "contracts/MVM/MVM_Verifier.sol:MVM_Verifier",
        "label": "absence_strikes",
        "offset": 0,
        "slot": "7",
        "type": "t_mapping(t_address,t_uint8)"
      },
      {
        "astId": 13320,
        "contract": "contracts/MVM/MVM_Verifier.sol:MVM_Verifier",
        "label": "consensus_strikes",
        "offset": 0,
        "slot": "8",
        "type": "t_mapping(t_address,t_uint8)"
      },
      {
        "astId": 13324,
        "contract": "contracts/MVM/MVM_Verifier.sol:MVM_Verifier",
        "label": "chain_under_challenge",
        "offset": 0,
        "slot": "9",
        "type": "t_mapping(t_uint256,t_uint256)"
      },
      {
        "astId": 13328,
        "contract": "contracts/MVM/MVM_Verifier.sol:MVM_Verifier",
        "label": "whitelist",
        "offset": 0,
        "slot": "10",
        "type": "t_mapping(t_address,t_bool)"
      },
      {
        "astId": 13330,
        "contract": "contracts/MVM/MVM_Verifier.sol:MVM_Verifier",
        "label": "useWhiteList",
        "offset": 0,
        "slot": "11",
        "type": "t_bool"
      },
      {
        "astId": 13333,
        "contract": "contracts/MVM/MVM_Verifier.sol:MVM_Verifier",
        "label": "verifiers",
        "offset": 0,
        "slot": "12",
        "type": "t_array(t_address)dyn_storage"
      },
      {
        "astId": 13337,
        "contract": "contracts/MVM/MVM_Verifier.sol:MVM_Verifier",
        "label": "challenges",
        "offset": 0,
        "slot": "13",
        "type": "t_array(t_struct(Challenge)13286_storage)dyn_storage"
      },
      {
        "astId": 13342,
        "contract": "contracts/MVM/MVM_Verifier.sol:MVM_Verifier",
        "label": "verifyWindow",
        "offset": 0,
        "slot": "14",
        "type": "t_uint256"
      },
      {
        "astId": 13344,
        "contract": "contracts/MVM/MVM_Verifier.sol:MVM_Verifier",
        "label": "activeChallenges",
        "offset": 0,
        "slot": "15",
        "type": "t_uint256"
      },
      {
        "astId": 13346,
        "contract": "contracts/MVM/MVM_Verifier.sol:MVM_Verifier",
        "label": "minStake",
        "offset": 0,
        "slot": "16",
        "type": "t_uint256"
      },
      {
        "astId": 13348,
        "contract": "contracts/MVM/MVM_Verifier.sol:MVM_Verifier",
        "label": "seqStake",
        "offset": 0,
        "slot": "17",
        "type": "t_uint256"
      },
      {
        "astId": 13350,
        "contract": "contracts/MVM/MVM_Verifier.sol:MVM_Verifier",
        "label": "numQualifiedVerifiers",
        "offset": 0,
        "slot": "18",
        "type": "t_uint256"
      },
      {
        "astId": 13353,
        "contract": "contracts/MVM/MVM_Verifier.sol:MVM_Verifier",
        "label": "FAIL_THRESHOLD",
        "offset": 0,
        "slot": "19",
        "type": "t_uint256"
      },
      {
        "astId": 13356,
        "contract": "contracts/MVM/MVM_Verifier.sol:MVM_Verifier",
        "label": "ABSENCE_THRESHOLD",
        "offset": 0,
        "slot": "20",
        "type": "t_uint256"
      }
    ],
    "types": {
      "t_address": {
        "encoding": "inplace",
        "label": "address",
        "numberOfBytes": "20"
      },
      "t_array(t_address)dyn_storage": {
        "base": "t_address",
        "encoding": "dynamic_array",
        "label": "address[]",
        "numberOfBytes": "32"
      },
      "t_array(t_struct(Challenge)13286_storage)dyn_storage": {
        "base": "t_struct(Challenge)13286_storage",
        "encoding": "dynamic_array",
        "label": "struct MVM_Verifier.Challenge[]",
        "numberOfBytes": "32"
      },
      "t_bool": {
        "encoding": "inplace",
        "label": "bool",
        "numberOfBytes": "1"
      },
      "t_bytes32": {
        "encoding": "inplace",
        "label": "bytes32",
        "numberOfBytes": "32"
      },
      "t_bytes_storage": {
        "encoding": "bytes",
        "label": "bytes",
        "numberOfBytes": "32"
      },
      "t_contract(Lib_AddressManager)16122": {
        "encoding": "inplace",
        "label": "contract Lib_AddressManager",
        "numberOfBytes": "20"
      },
      "t_mapping(t_address,t_bool)": {
        "encoding": "mapping",
        "key": "t_address",
        "label": "mapping(address => bool)",
        "numberOfBytes": "32",
        "value": "t_bool"
      },
      "t_mapping(t_address,t_bytes_storage)": {
        "encoding": "mapping",
        "key": "t_address",
        "label": "mapping(address => bytes)",
        "numberOfBytes": "32",
        "value": "t_bytes_storage"
      },
      "t_mapping(t_address,t_uint256)": {
        "encoding": "mapping",
        "key": "t_address",
        "label": "mapping(address => uint256)",
        "numberOfBytes": "32",
        "value": "t_uint256"
      },
      "t_mapping(t_address,t_uint8)": {
        "encoding": "mapping",
        "key": "t_address",
        "label": "mapping(address => uint8)",
        "numberOfBytes": "32",
        "value": "t_uint8"
      },
      "t_mapping(t_uint256,t_mapping(t_address,t_bytes_storage))": {
        "encoding": "mapping",
        "key": "t_uint256",
        "label": "mapping(uint256 => mapping(address => bytes))",
        "numberOfBytes": "32",
        "value": "t_mapping(t_address,t_bytes_storage)"
      },
      "t_mapping(t_uint256,t_uint256)": {
        "encoding": "mapping",
        "key": "t_uint256",
        "label": "mapping(uint256 => uint256)",
        "numberOfBytes": "32",
        "value": "t_uint256"
      },
      "t_struct(ChainBatchHeader)15823_storage": {
        "encoding": "inplace",
        "label": "struct Lib_OVMCodec.ChainBatchHeader",
        "members": [
          {
            "astId": 15814,
            "contract": "contracts/MVM/MVM_Verifier.sol:MVM_Verifier",
            "label": "batchIndex",
            "offset": 0,
            "slot": "0",
            "type": "t_uint256"
          },
          {
            "astId": 15816,
            "contract": "contracts/MVM/MVM_Verifier.sol:MVM_Verifier",
            "label": "batchRoot",
            "offset": 0,
            "slot": "1",
            "type": "t_bytes32"
          },
          {
            "astId": 15818,
            "contract": "contracts/MVM/MVM_Verifier.sol:MVM_Verifier",
            "label": "batchSize",
            "offset": 0,
            "slot": "2",
            "type": "t_uint256"
          },
          {
            "astId": 15820,
            "contract": "contracts/MVM/MVM_Verifier.sol:MVM_Verifier",
            "label": "prevTotalElements",
            "offset": 0,
            "slot": "3",
            "type": "t_uint256"
          },
          {
            "astId": 15822,
            "contract": "contracts/MVM/MVM_Verifier.sol:MVM_Verifier",
            "label": "extraData",
            "offset": 0,
            "slot": "4",
            "type": "t_bytes_storage"
          }
        ],
        "numberOfBytes": "160"
      },
      "t_struct(Challenge)13286_storage": {
        "encoding": "inplace",
        "label": "struct MVM_Verifier.Challenge",
        "members": [
          {
            "astId": 13267,
            "contract": "contracts/MVM/MVM_Verifier.sol:MVM_Verifier",
            "label": "challenger",
            "offset": 0,
            "slot": "0",
            "type": "t_address"
          },
          {
            "astId": 13269,
            "contract": "contracts/MVM/MVM_Verifier.sol:MVM_Verifier",
            "label": "chainID",
            "offset": 0,
            "slot": "1",
            "type": "t_uint256"
          },
          {
            "astId": 13271,
            "contract": "contracts/MVM/MVM_Verifier.sol:MVM_Verifier",
            "label": "index",
            "offset": 0,
            "slot": "2",
            "type": "t_uint256"
          },
          {
            "astId": 13274,
            "contract": "contracts/MVM/MVM_Verifier.sol:MVM_Verifier",
            "label": "header",
            "offset": 0,
            "slot": "3",
            "type": "t_struct(ChainBatchHeader)15823_storage"
          },
          {
            "astId": 13276,
            "contract": "contracts/MVM/MVM_Verifier.sol:MVM_Verifier",
            "label": "timestamp",
            "offset": 0,
            "slot": "8",
            "type": "t_uint256"
          },
          {
            "astId": 13278,
            "contract": "contracts/MVM/MVM_Verifier.sol:MVM_Verifier",
            "label": "numQualifiedVerifiers",
            "offset": 0,
            "slot": "9",
            "type": "t_uint256"
          },
          {
            "astId": 13280,
            "contract": "contracts/MVM/MVM_Verifier.sol:MVM_Verifier",
            "label": "numVerifiers",
            "offset": 0,
            "slot": "10",
            "type": "t_uint256"
          },
          {
            "astId": 13283,
            "contract": "contracts/MVM/MVM_Verifier.sol:MVM_Verifier",
            "label": "verifiers",
            "offset": 0,
            "slot": "11",
            "type": "t_array(t_address)dyn_storage"
          },
          {
            "astId": 13285,
            "contract": "contracts/MVM/MVM_Verifier.sol:MVM_Verifier",
            "label": "done",
            "offset": 0,
            "slot": "12",
            "type": "t_bool"
          }
        ],
        "numberOfBytes": "416"
      },
      "t_uint256": {
        "encoding": "inplace",
        "label": "uint256",
        "numberOfBytes": "32"
      },
      "t_uint8": {
        "encoding": "inplace",
        "label": "uint8",
        "numberOfBytes": "1"
      }
    }
  }
}