{
  "address": "0xCCB4a3279310Ed85A3ff1Ef84DE1a9d91fAF56e0",
  "abi": [
    {
      "inputs": [
        {
          "internalType": "address",
          "name": "_libAddressManager",
          "type": "address"
        },
        {
          "internalType": "uint256",
          "name": "_txDataSliceSize",
          "type": "uint256"
        },
        {
          "internalType": "uint256",
          "name": "_stakeSeqSeconds",
          "type": "uint256"
        },
        {
          "internalType": "uint256",
          "name": "_stakeCost",
          "type": "uint256"
        }
      ],
      "stateMutability": "nonpayable",
      "type": "constructor"
    },
    {
      "anonymous": false,
      "inputs": [
        {
          "indexed": false,
          "internalType": "uint256",
          "name": "_chainId",
          "type": "uint256"
        },
        {
          "indexed": false,
          "internalType": "uint256",
          "name": "_batchIndex",
          "type": "uint256"
        },
        {
          "indexed": false,
          "internalType": "uint40",
          "name": "_shouldStartAtElement",
          "type": "uint40"
        },
        {
          "indexed": false,
          "internalType": "uint24",
          "name": "_totalElementsToAppend",
          "type": "uint24"
        },
        {
          "indexed": false,
          "internalType": "uint256",
          "name": "_txBatchTime",
          "type": "uint256"
        },
        {
          "indexed": false,
          "internalType": "bytes32",
          "name": "_txBatchHash",
          "type": "bytes32"
        }
      ],
      "name": "AppendBatchElement",
      "type": "event"
    },
    {
      "anonymous": false,
      "inputs": [
        {
          "indexed": false,
          "internalType": "address",
          "name": "_sender",
          "type": "address"
        },
        {
          "indexed": false,
          "internalType": "uint256",
          "name": "_chainId",
          "type": "uint256"
        },
        {
          "indexed": false,
          "internalType": "uint256",
          "name": "_batchIndex",
          "type": "uint256"
        },
        {
          "indexed": false,
          "internalType": "uint256",
          "name": "_stakeAmount",
          "type": "uint256"
        },
        {
          "indexed": false,
          "internalType": "bool",
          "name": "_verified",
          "type": "bool"
        },
        {
          "indexed": false,
          "internalType": "bool",
          "name": "_sequencer",
          "type": "bool"
        }
      ],
      "name": "SetBatchTxData",
      "type": "event"
    },
    {
      "anonymous": false,
      "inputs": [
        {
          "indexed": false,
          "internalType": "address",
          "name": "_sender",
          "type": "address"
        },
        {
          "indexed": false,
          "internalType": "uint256",
          "name": "_chainId",
          "type": "uint256"
        },
        {
          "indexed": false,
          "internalType": "uint256",
          "name": "_batchIndex",
          "type": "uint256"
        },
        {
          "indexed": false,
          "internalType": "uint256",
          "name": "_amount",
          "type": "uint256"
        }
      ],
      "name": "VerifierStake",
      "type": "event"
    },
    {
      "inputs": [],
      "name": "CONFIG_OWNER_KEY",
      "outputs": [
        {
          "internalType": "string",
          "name": "",
          "type": "string"
        }
      ],
      "stateMutability": "view",
      "type": "function"
    },
    {
      "inputs": [],
      "name": "TXDATA_SUBMIT_TIMEOUT",
      "outputs": [
        {
          "internalType": "uint256",
          "name": "",
          "type": "uint256"
        }
      ],
      "stateMutability": "view",
      "type": "function"
    },
    {
      "inputs": [],
      "name": "appendSequencerBatchByChainId",
      "outputs": [],
      "stateMutability": "nonpayable",
      "type": "function"
    },
    {
      "inputs": [],
      "name": "disableWhiteList",
      "outputs": [],
      "stateMutability": "nonpayable",
      "type": "function"
    },
    {
      "inputs": [
        {
          "internalType": "address",
          "name": "_address",
          "type": "address"
        }
      ],
      "name": "getAddressChainId",
      "outputs": [
        {
          "internalType": "uint256",
          "name": "",
          "type": "uint256"
        }
      ],
      "stateMutability": "view",
      "type": "function"
    },
    {
      "inputs": [
        {
          "internalType": "uint256",
          "name": "_chainId",
          "type": "uint256"
        },
        {
          "internalType": "uint256",
          "name": "_batchIndex",
          "type": "uint256"
        }
      ],
      "name": "getBatchTxData",
      "outputs": [
        {
          "internalType": "string",
          "name": "txData",
          "type": "string"
        },
        {
          "internalType": "bool",
          "name": "verified",
          "type": "bool"
        }
      ],
      "stateMutability": "view",
      "type": "function"
    },
    {
      "inputs": [],
      "name": "getStakeCost",
      "outputs": [
        {
          "internalType": "uint256",
          "name": "",
          "type": "uint256"
        }
      ],
      "stateMutability": "view",
      "type": "function"
    },
    {
      "inputs": [],
      "name": "getStakeSeqSeconds",
      "outputs": [
        {
          "internalType": "uint256",
          "name": "",
          "type": "uint256"
        }
      ],
      "stateMutability": "view",
      "type": "function"
    },
    {
      "inputs": [],
      "name": "getTxBatchSize",
      "outputs": [
        {
          "internalType": "uint256",
          "name": "",
          "type": "uint256"
        }
      ],
      "stateMutability": "view",
      "type": "function"
    },
    {
      "inputs": [],
      "name": "getTxDataSliceCount",
      "outputs": [
        {
          "internalType": "uint256",
          "name": "",
          "type": "uint256"
        }
      ],
      "stateMutability": "view",
      "type": "function"
    },
    {
      "inputs": [],
      "name": "getTxDataSliceSize",
      "outputs": [
        {
          "internalType": "uint256",
          "name": "",
          "type": "uint256"
        }
      ],
      "stateMutability": "view",
      "type": "function"
    },
    {
      "inputs": [
        {
          "internalType": "address",
          "name": "_verifier",
          "type": "address"
        }
      ],
      "name": "isWhiteListed",
      "outputs": [
        {
          "internalType": "bool",
          "name": "",
          "type": "bool"
        }
      ],
      "stateMutability": "view",
      "type": "function"
    },
    {
      "inputs": [],
      "name": "libAddressManager",
      "outputs": [
        {
          "internalType": "contract Lib_AddressManager",
          "name": "",
          "type": "address"
        }
      ],
      "stateMutability": "view",
      "type": "function"
    },
    {
      "inputs": [
        {
          "internalType": "string",
          "name": "_name",
          "type": "string"
        }
      ],
      "name": "resolve",
      "outputs": [
        {
          "internalType": "address",
          "name": "",
          "type": "address"
        }
      ],
      "stateMutability": "view",
      "type": "function"
    },
    {
      "inputs": [
        {
          "internalType": "address",
          "name": "_address",
          "type": "address"
        },
        {
          "internalType": "uint256",
          "name": "_chainId",
          "type": "uint256"
        }
      ],
      "name": "setAddressChainId",
      "outputs": [],
      "stateMutability": "nonpayable",
      "type": "function"
    },
    {
      "inputs": [
        {
          "internalType": "uint256",
          "name": "_chainId",
          "type": "uint256"
        },
        {
          "internalType": "uint256",
          "name": "_batchIndex",
          "type": "uint256"
        },
        {
          "internalType": "uint256",
          "name": "_sliceIndex",
          "type": "uint256"
        },
        {
          "internalType": "string",
          "name": "_data",
          "type": "string"
        },
        {
          "internalType": "bool",
          "name": "_end",
          "type": "bool"
        }
      ],
      "name": "setBatchTxData",
      "outputs": [],
      "stateMutability": "nonpayable",
      "type": "function"
    },
    {
      "inputs": [
        {
          "internalType": "uint256",
          "name": "_chainId",
          "type": "uint256"
        },
        {
          "internalType": "uint256",
          "name": "_batchIndex",
          "type": "uint256"
        },
        {
          "internalType": "uint256",
          "name": "_sliceIndex",
          "type": "uint256"
        },
        {
          "internalType": "string",
          "name": "_data",
          "type": "string"
        },
        {
          "internalType": "bool",
          "name": "_end",
          "type": "bool"
        }
      ],
      "name": "setBatchTxDataForStake",
      "outputs": [],
      "stateMutability": "nonpayable",
      "type": "function"
    },
    {
      "inputs": [
        {
          "internalType": "uint256",
          "name": "_chainId",
          "type": "uint256"
        },
        {
          "internalType": "uint256",
          "name": "_batchIndex",
          "type": "uint256"
        },
        {
          "internalType": "uint256",
          "name": "_sliceIndex",
          "type": "uint256"
        },
        {
          "internalType": "string",
          "name": "_data",
          "type": "string"
        },
        {
          "internalType": "bool",
          "name": "_end",
          "type": "bool"
        }
      ],
      "name": "setBatchTxDataForVerifier",
      "outputs": [],
      "stateMutability": "nonpayable",
      "type": "function"
    },
    {
      "inputs": [
        {
          "internalType": "uint256",
          "name": "_stakeCost",
          "type": "uint256"
        }
      ],
      "name": "setStakeCost",
      "outputs": [],
      "stateMutability": "nonpayable",
      "type": "function"
    },
    {
      "inputs": [
        {
          "internalType": "uint256",
          "name": "_seconds",
          "type": "uint256"
        }
      ],
      "name": "setStakeSeqSeconds",
      "outputs": [],
      "stateMutability": "nonpayable",
      "type": "function"
    },
    {
      "inputs": [
        {
          "internalType": "uint256",
          "name": "_size",
          "type": "uint256"
        }
      ],
      "name": "setTxBatchSize",
      "outputs": [],
      "stateMutability": "nonpayable",
      "type": "function"
    },
    {
      "inputs": [
        {
          "internalType": "uint256",
          "name": "_count",
          "type": "uint256"
        }
      ],
      "name": "setTxDataSliceCount",
      "outputs": [],
      "stateMutability": "nonpayable",
      "type": "function"
    },
    {
      "inputs": [
        {
          "internalType": "uint256",
          "name": "_size",
          "type": "uint256"
        }
      ],
      "name": "setTxDataSliceSize",
      "outputs": [],
      "stateMutability": "nonpayable",
      "type": "function"
    },
    {
      "inputs": [
        {
          "internalType": "address",
          "name": "_verifier",
          "type": "address"
        },
        {
          "internalType": "bool",
          "name": "_allowed",
          "type": "bool"
        }
      ],
      "name": "setWhiteList",
      "outputs": [],
      "stateMutability": "nonpayable",
      "type": "function"
    },
    {
      "inputs": [],
      "name": "stakeCost",
      "outputs": [
        {
          "internalType": "uint256",
          "name": "",
          "type": "uint256"
        }
      ],
      "stateMutability": "view",
      "type": "function"
    },
    {
      "inputs": [],
      "name": "stakeSeqSeconds",
      "outputs": [
        {
          "internalType": "uint256",
          "name": "",
          "type": "uint256"
        }
      ],
      "stateMutability": "view",
      "type": "function"
    },
    {
      "inputs": [],
      "name": "txBatchSize",
      "outputs": [
        {
          "internalType": "uint256",
          "name": "",
          "type": "uint256"
        }
      ],
      "stateMutability": "view",
      "type": "function"
    },
    {
      "inputs": [],
      "name": "txDataSliceCount",
      "outputs": [
        {
          "internalType": "uint256",
          "name": "",
          "type": "uint256"
        }
      ],
      "stateMutability": "view",
      "type": "function"
    },
    {
      "inputs": [],
      "name": "txDataSliceSize",
      "outputs": [
        {
          "internalType": "uint256",
          "name": "",
          "type": "uint256"
        }
      ],
      "stateMutability": "view",
      "type": "function"
    },
    {
      "inputs": [
        {
          "internalType": "uint256",
          "name": "_chainId",
          "type": "uint256"
        },
        {
          "internalType": "uint256",
          "name": "_batchIndex",
          "type": "uint256"
        }
      ],
      "name": "verifierStake",
      "outputs": [],
      "stateMutability": "payable",
      "type": "function"
    },
    {
      "inputs": [
        {
          "internalType": "address",
          "name": "",
          "type": "address"
        }
      ],
      "name": "whitelist",
      "outputs": [
        {
          "internalType": "bool",
          "name": "",
          "type": "bool"
        }
      ],
      "stateMutability": "view",
      "type": "function"
    },
    {
      "inputs": [
        {
          "internalType": "uint256",
          "name": "_chainId",
          "type": "uint256"
        },
        {
          "internalType": "uint256",
          "name": "_batchIndex",
          "type": "uint256"
        }
      ],
      "name": "withdrawStake",
      "outputs": [],
      "stateMutability": "nonpayable",
      "type": "function"
    },
    {
      "stateMutability": "payable",
      "type": "receive"
    }
  ],
  "transactionHash": "0x37a36e2040e36606a31152fc3b51a081ea3cec54d108c694f8fd8c773454d8d5",
  "args": [
    "0xC9EB2B0bD7dbA69bb72886E9cF5da34d1Ca88C38",
    90000,
    86400,
    "100000000000000000"
  ],
  "solcInputHash": "e13cf1fae44a0e5e7e44bd3761fc9d78",
  "bytecode": "0x60806040523480156200001157600080fd5b50604051620041093803806200410983398101604081905262000034916200008d565b600080546001600160a01b0319166001600160a01b0386161790556001838155600283905560038290556006805460ff19169091179055600560048190556200007f908490620000da565b600555506200010892505050565b60008060008060808587031215620000a457600080fd5b84516001600160a01b0381168114620000bc57600080fd5b60208601516040870151606090970151919890975090945092505050565b60008160001904831182151516156200010357634e487b7160e01b600052601160045260246000fd5b500290565b613ff180620001186000396000f3fe6080604052600436106101e65760003560e01c80638d0cb84811610102578063d6a97a3411610095578063f281c1d711610064578063f281c1d71461068e578063f304d868146106ae578063f6f24f67146106e4578063fa3a0e58146106fa57600080fd5b8063d6a97a3414610624578063dcd8361614610639578063f13739161461064e578063f1fdf4691461066e57600080fd5b8063a8cda37b116100d1578063a8cda37b146105c7578063b0002ff8146105dc578063b9112540146105fc578063ceea752f1461060f57600080fd5b80638d0cb848146105335780638d14e127146105615780639447fe88146105815780639b19251a1461059757600080fd5b8063461a44781161017a57806374a46d591161014957806374a46d59146104bd5780637f9c9777146104dd57806381147877146104fd57806386e4206e1461051357600080fd5b8063461a4478146104025780635e7ce13a14610422578063669fdeb5146104375780636f9170f61461048d57600080fd5b8063299ca478116101b6578063299ca4781461037457806335005ffb146103ac57806338897fdd146103cc57806341b6d486146103e257600080fd5b806213c63d1461030f57806302adf2d6146103335780630725be4b14610348578063167c70501461035e57600080fd5b3661030a576102296040518060400160405280601281526020017f4d564d5f446973636f756e744f7261636c65000000000000000000000000000081525061071a565b6001600160a01b0316336001600160a01b031614156103085733600090815260086020526040902054801561030657600061028a610266836107ba565b604051602001610276919061393b565b60405160208183030381529060405261071a565b90506001600160a01b038116158015906102ad57506001600160a01b0381163014155b15610304576040516001600160a01b038216903490600081818185875af1925050503d80600081146102fb576040519150601f19603f3d011682016040523d82523d6000602084013e610300565b606091505b5050505b505b505b005b600080fd5b34801561031b57600080fd5b506002545b6040519081526020015b60405180910390f35b34801561033f57600080fd5b50600454610320565b34801561035457600080fd5b5061032060035481565b34801561036a57600080fd5b5061032060045481565b34801561038057600080fd5b50600054610394906001600160a01b031681565b6040516001600160a01b03909116815260200161032a565b3480156103b857600080fd5b506103086103c736600461397c565b610917565b3480156103d857600080fd5b5061032060015481565b3480156103ee57600080fd5b506103086103fd366004613a84565b610aad565b34801561040e57600080fd5b5061039461041d366004613aef565b61071a565b34801561042e57600080fd5b50600554610320565b34801561044357600080fd5b506104806040518060400160405280600d81526020017f4d455449535f4d414e414745520000000000000000000000000000000000000081525081565b60405161032a9190613b76565b34801561049957600080fd5b506104ad6104a8366004613ba5565b610f12565b604051901515815260200161032a565b3480156104c957600080fd5b506103086104d8366004613a84565b610f41565b3480156104e957600080fd5b506103086104f836600461397c565b61103b565b34801561050957600080fd5b5061032060055481565b34801561051f57600080fd5b5061030861052e36600461397c565b6111cc565b34801561053f57600080fd5b5061055361054e366004613bc2565b61135d565b60405161032a929190613be4565b34801561056d57600080fd5b5061030861057c366004613c08565b6114e4565b34801561058d57600080fd5b5061032060025481565b3480156105a357600080fd5b506104ad6105b2366004613ba5565b60076020526000908152604090205460ff1681565b3480156105d357600080fd5b50610308611603565b3480156105e857600080fd5b506103086105f7366004613a84565b611a62565b61030861060a366004613bc2565b611f1d565b34801561061b57600080fd5b50600354610320565b34801561063057600080fd5b50600154610320565b34801561064557600080fd5b50610308612336565b34801561065a57600080fd5b5061030861066936600461397c565b61242c565b34801561067a57600080fd5b50610308610689366004613bc2565b6125bd565b34801561069a57600080fd5b506103086106a9366004613c3d565b6129b6565b3480156106ba57600080fd5b506103206106c9366004613ba5565b6001600160a01b031660009081526008602052604090205490565b3480156106f057600080fd5b5061032061070881565b34801561070657600080fd5b5061030861071536600461397c565b612bca565b600080546040517fbf40fac10000000000000000000000000000000000000000000000000000000081526001600160a01b039091169063bf40fac190610764908590600401613b76565b60206040518083038186803b15801561077c57600080fd5b505afa158015610790573d6000803e3d6000fd5b505050506040513d601f19601f820116820180604052508101906107b49190613c69565b92915050565b6060816107fa57505060408051808201909152600181527f3000000000000000000000000000000000000000000000000000000000000000602082015290565b8160005b8115610824578061080e81613cb5565b915061081d9050600a83613cee565b91506107fe565b60008167ffffffffffffffff81111561083f5761083f613995565b6040519080825280601f01601f191660200182016040528015610869576020820181803683370190505b509050815b851561090e5761087f600182613d29565b9050600061088e600a88613cee565b61089990600a613d40565b6108a39088613d29565b6108ae906030613d7d565b905060008160f81b9050808484815181106108cb576108cb613da2565b60200101907effffffffffffffffffffffffffffffffffffffffffffffffffffffffffffff1916908160001a905350610905600a89613cee565b9750505061086e565b50949350505050565b6109556040518060400160405280600d81526020017f4d455449535f4d414e414745520000000000000000000000000000000000000081525061071a565b6001600160a01b0316336001600160a01b031614610a065760405162461bcd60e51b815260206004820152604b60248201527f4d564d5f43616e6f6e6963616c5472616e73616374696f6e3a2046756e63746960448201527f6f6e2063616e206f6e6c792062652063616c6c656420627920746865204d455460648201527f49535f4d414e414745522e000000000000000000000000000000000000000000608482015260a4015b60405180910390fd5b60008111610a565760405162461bcd60e51b815260206004820152601660248201527f736c6963652073697a652073686f756c6420677420300000000000000000000060448201526064016109fd565b600154811415610aa85760405162461bcd60e51b815260206004820152601a60248201527f736c6963652073697a6520686173206e6f74206368616e67656400000000000060448201526064016109fd565b600155565b6000858152600b60209081526040808320878452909152902060010154610b3c5760405162461bcd60e51b815260206004820152602660248201527f7468657265206973206e6f207374616b6520666f72207468697320626174636860448201527f20696e646578000000000000000000000000000000000000000000000000000060648201526084016109fd565b6000858152600b6020908152604080832087845290915281206004015460ff166003811115610b6d57610b6d613dd1565b14610bba5760405162461bcd60e51b815260206004820152601560248201527f6e6f7420616c6c6f77656420746f207375626d6974000000000000000000000060448201526064016109fd565b6000858152600b602090815260408083208784529091529020546001600160a01b03163314610c515760405162461bcd60e51b815260206004820152602160248201527f63616e206e6f74207375626d69742077697468206f746865722773207374616b60448201527f650000000000000000000000000000000000000000000000000000000000000060648201526084016109fd565b6000858152600b602090815260408083208784529091529020600201544211610ce25760405162461bcd60e51b815260206004820152603160248201527f63616e206e6f74207375626d697420647572696e672073657175656e6365722060448201527f7375626d69742070726f74656374696f6e00000000000000000000000000000060648201526084016109fd565b610cf185858585856000612d10565b8015610f0b576000858152600b6020908152604080832087845280835281842060048101805460ff191660021790553385526009845291842054938890529091526003015411610e9a576000858152600b60209081526040808320878452909152902060030154471015610da75760405162461bcd60e51b815260206004820152601460248201527f696e73756666696369656e742062616c616e636500000000000000000000000060448201526064016109fd565b6000858152600b6020908152604080832087845282528083206003015433845260099092528220805491929091610ddf908490613d29565b90915550506000858152600b6020908152604080832087845290915280822060030154905133929183918381818185875af1925050503d8060008114610e41576040519150601f19603f3d011682016040523d82523d6000602084013e610e46565b606091505b5050905080610e975760405162461bcd60e51b815260206004820152601460248201527f696e73756666696369656e742062616c616e636500000000000000000000000060448201526064016109fd565b50505b6000858152600b60209081526040808320878452825280832060030154815133815292830189905290820187905260608201526080810182905260a08101919091527f54c17ad82a3a4f3935f09729dcba25c47e5ecfc0d71e386eb6122f8e7db941909060c0015b60405180910390a15b5050505050565b60065460009060ff1615806107b45750506001600160a01b031660009081526007602052604090205460ff1690565b610f4d610266866107ba565b6001600160a01b0316336001600160a01b031614610fd35760405162461bcd60e51b815260206004820152602d60248201527f46756e6374696f6e2063616e206f6e6c792062652063616c6c6564206279207460448201527f68652053657175656e6365722e0000000000000000000000000000000000000060648201526084016109fd565b610fe285858585856001612d10565b8015610f0b5760408051338152602081018790529081018590526000606082015260016080820181905260a08201527f54c17ad82a3a4f3935f09729dcba25c47e5ecfc0d71e386eb6122f8e7db941909060c001610f02565b6110796040518060400160405280600d81526020017f4d455449535f4d414e414745520000000000000000000000000000000000000081525061071a565b6001600160a01b0316336001600160a01b0316146111255760405162461bcd60e51b815260206004820152604b60248201527f4d564d5f43616e6f6e6963616c5472616e73616374696f6e3a2046756e63746960448201527f6f6e2063616e206f6e6c792062652063616c6c656420627920746865204d455460648201527f49535f4d414e414745522e000000000000000000000000000000000000000000608482015260a4016109fd565b600081116111755760405162461bcd60e51b815260206004820152601760248201527f736c69636520636f756e742073686f756c64206774203000000000000000000060448201526064016109fd565b6004548114156111c75760405162461bcd60e51b815260206004820152601b60248201527f736c69636520636f756e7420686173206e6f74206368616e676564000000000060448201526064016109fd565b600455565b61120a6040518060400160405280600d81526020017f4d455449535f4d414e414745520000000000000000000000000000000000000081525061071a565b6001600160a01b0316336001600160a01b0316146112b65760405162461bcd60e51b815260206004820152604b60248201527f4d564d5f43616e6f6e6963616c5472616e73616374696f6e3a2046756e63746960448201527f6f6e2063616e206f6e6c792062652063616c6c656420627920746865204d455460648201527f49535f4d414e414745522e000000000000000000000000000000000000000000608482015260a4016109fd565b600081116113065760405162461bcd60e51b815260206004820152601660248201527f62617463682073697a652073686f756c6420677420300000000000000000000060448201526064016109fd565b6005548114156113585760405162461bcd60e51b815260206004820152601a60248201527f62617463682073697a6520686173206e6f74206368616e67656400000000000060448201526064016109fd565b600555565b6000828152600c60209081526040808320848452909152812060010154606091906113ca5760405162461bcd60e51b815260206004820152601660248201527f7478206461746120646f6573206e6f742065786973740000000000000000000060448201526064016109fd565b6000848152600c60209081526040808320868452825280832060020180548251818502810185019093528083526114b99492939192909184015b828210156114b057838290600052602060002001805461142390613e00565b80601f016020809104026020016040519081016040528092919081815260200182805461144f90613e00565b801561149c5780601f106114715761010080835404028352916020019161149c565b820191906000526020600020905b81548152906001019060200180831161147f57829003601f168201915b505050505081526020019060010190611404565b50505050613710565b6000948552600c602090815260408087209587529490529290932060030154919360ff909216925050565b6115226040518060400160405280600d81526020017f4d455449535f4d414e414745520000000000000000000000000000000000000081525061071a565b6001600160a01b0316336001600160a01b0316146115ce5760405162461bcd60e51b815260206004820152604b60248201527f4d564d5f43616e6f6e6963616c5472616e73616374696f6e3a2046756e63746960448201527f6f6e2063616e206f6e6c792062652063616c6c656420627920746865204d455460648201527f49535f4d414e414745522e000000000000000000000000000000000000000000608482015260a4016109fd565b6001600160a01b039091166000908152600760205260409020805491151560ff19928316179055600680549091166001179055565b60043560243560d81c60293560e890811c90602c35901c6000803661162a610266886107ba565b6001600160a01b0316336001600160a01b0316146116b05760405162461bcd60e51b815260206004820152602d60248201527f46756e6374696f6e2063616e206f6e6c792062652063616c6c6564206279207460448201527f68652053657175656e6365722e0000000000000000000000000000000000000060648201526084016109fd565b60006116bd856010613e54565b6116c890602f613e7f565b62ffffff169050808211156117675760006116e4826007613ea6565b905060006116f383600b613ea6565b600554843560cc1c975081359650909150823560e01c90611715600283613cee565b11156117635760405162461bcd60e51b815260206004820152601c60248201527f73697a65206f66207478206461746120697320746f6f206c617267650000000060448201526064016109fd565b5050505b60006117a76040518060400160405280601981526020017f43616e6f6e6963616c5472616e73616374696f6e436861696e0000000000000081525061071a565b90506000816001600160a01b031663cfdf677e6040518163ffffffff1660e01b815260040160206040518083038186803b1580156117e457600080fd5b505afa1580156117f8573d6000803e3d6000fd5b505050506040513d601f19601f8201168201806040525081019061181c9190613c69565b6040517f576f2588000000000000000000000000000000000000000000000000000000008152600481018c90529091506000906001600160a01b0383169063576f25889060240160206040518083038186803b15801561187b57600080fd5b505afa15801561188f573d6000803e3d6000fd5b505050506040513d601f19601f820116820180604052508101906118b39190613ebe565b9050600080846001600160a01b03166000366040516118d3929190613ed7565b6000604051808303816000865af19150503d8060008114611910576040519150601f19603f3d011682016040523d82523d6000602084013e611915565b606091505b5090925090508161192d576040513d806000833e8082fd5b505060405180608001604052808b64ffffffffff1681526020018a62ffffff16815260200188815260200187815250600a60008d8152602001908152602001600020600083815260200190815260200160002060008201518160000160006101000a81548164ffffffffff021916908364ffffffffff16021790555060208201518160000160056101000a81548162ffffff021916908362ffffff16021790555060408201518160010155606082015181600201559050507fbc126ec1626b22a49c522daccd6a7168b58da9747e30756cd98cf6c679124a248b828c8c8b8b604051611a4d96959493929190958652602086019490945264ffffffffff92909216604085015262ffffff166060840152608083015260a082015260c00190565b60405180910390a15050505050505050505050565b611a6e610266866107ba565b6001600160a01b0316336001600160a01b031614611af45760405162461bcd60e51b815260206004820152602d60248201527f46756e6374696f6e2063616e206f6e6c792062652063616c6c6564206279207460448201527f68652053657175656e6365722e0000000000000000000000000000000000000060648201526084016109fd565b6000858152600b60209081526040808320878452909152902060010154611b835760405162461bcd60e51b815260206004820152602660248201527f7468657265206973206e6f207374616b6520666f72207468697320626174636860448201527f20696e646578000000000000000000000000000000000000000000000000000060648201526084016109fd565b6000858152600b6020908152604080832087845290915281206004015460ff166003811115611bb457611bb4613dd1565b14611c015760405162461bcd60e51b815260206004820152601560248201527f6e6f7420616c6c6f77656420746f207375626d6974000000000000000000000060448201526064016109fd565b6000858152600b60209081526040808320878452909152902060020154421115611c935760405162461bcd60e51b815260206004820152603160248201527f63616e206e6f74207375626d6974206f7574206f662073657175656e6365722060448201527f7375626d69742070726f74656374696f6e00000000000000000000000000000060648201526084016109fd565b611ca285858585856001612d10565b8015610f0b576000858152600b6020908152604080832087845280835281842080546001600160a01b03168552600984529184205493889052909152600301541115611d305760405162461bcd60e51b815260206004820152601260248201527f696e73756666696369656e74207374616b65000000000000000000000000000060448201526064016109fd565b6000858152600b60209081526040808320878452909152902060030154471015611d9c5760405162461bcd60e51b815260206004820152601460248201527f696e73756666696369656e742062616c616e636500000000000000000000000060448201526064016109fd565b6000858152600b60209081526040808320878452825280832060048101805460ff19166001179055600381015490546001600160a01b0316845260099092528220805491929091611dee908490613d29565b90915550506000858152600b6020908152604080832087845290915280822060030154905133929183918381818185875af1925050503d8060008114611e50576040519150601f19603f3d011682016040523d82523d6000602084013e611e55565b606091505b5050905080611ea65760405162461bcd60e51b815260206004820152601460248201527f696e73756666696369656e742062616c616e636500000000000000000000000060448201526064016109fd565b6000878152600b602090815260408083208984528252918290206003015482513381529182018a9052818301899052606082015260016080820181905260a082015290517f54c17ad82a3a4f3935f09729dcba25c47e5ecfc0d71e386eb6122f8e7db941909181900360c00190a150505050505050565b611f2633610f12565b611f985760405162461bcd60e51b815260206004820152602360248201527f6f6e6c792077686974656c6973746564207665726966696572732063616e206360448201527f616c6c000000000000000000000000000000000000000000000000000000000060648201526084016109fd565b6003543490611fe95760405162461bcd60e51b815260206004820152601960248201527f7374616b6520636f7374206e6f7420636f6e666967207965740000000000000060448201526064016109fd565b806003541461203a5760405162461bcd60e51b815260206004820152601460248201527f7374616b6520636f737420696e636f727265637400000000000000000000000060448201526064016109fd565b6000600254116120b25760405162461bcd60e51b815260206004820152602760248201527f73657175656e636572207375626d6974207365636f6e6473206e6f7420636f6e60448201527f666967207965740000000000000000000000000000000000000000000000000060648201526084016109fd565b6000838152600a6020908152604080832085845290915290206001015461211b5760405162461bcd60e51b815260206004820152601c60248201527f626174636820656c656d656e7420646f6573206e6f742065786973740000000060448201526064016109fd565b6000838152600b60209081526040808320858452909152902060010154156121e2576000838152600b6020908152604080832085845290915281206004015460ff16600381111561216e5761216e613dd1565b14156121e25760405162461bcd60e51b815260206004820152602560248201527f74686572652069732061207374616b6520666f7220746869732062617463682060448201527f696e64657800000000000000000000000000000000000000000000000000000060648201526084016109fd565b6040518060a00160405280336001600160a01b03168152602001428152602001600254426122109190613ea6565b815260208101839052604001600090526000848152600b60209081526040808320868452825291829020835181547fffffffffffffffffffffffff0000000000000000000000000000000000000000166001600160a01b03909116178155908301516001808301919091559183015160028201556060830151600380830191909155608084015160048301805493949193909260ff19909116919084908111156122bc576122bc613dd1565b02179055505033600090815260096020526040812080548493509091906122e4908490613ea6565b90915550506040805133815260208101859052908101839052606081018290527fc8e8ecec98771fd35baf93515536f79f3f5433d9e56a429491095197efe9dbe19060800160405180910390a1505050565b6123746040518060400160405280600d81526020017f4d455449535f4d414e414745520000000000000000000000000000000000000081525061071a565b6001600160a01b0316336001600160a01b0316146124205760405162461bcd60e51b815260206004820152604b60248201527f4d564d5f43616e6f6e6963616c5472616e73616374696f6e3a2046756e63746960448201527f6f6e2063616e206f6e6c792062652063616c6c656420627920746865204d455460648201527f49535f4d414e414745522e000000000000000000000000000000000000000000608482015260a4016109fd565b6006805460ff19169055565b61246a6040518060400160405280600d81526020017f4d455449535f4d414e414745520000000000000000000000000000000000000081525061071a565b6001600160a01b0316336001600160a01b0316146125165760405162461bcd60e51b815260206004820152604b60248201527f4d564d5f43616e6f6e6963616c5472616e73616374696f6e3a2046756e63746960448201527f6f6e2063616e206f6e6c792062652063616c6c656420627920746865204d455460648201527f49535f4d414e414745522e000000000000000000000000000000000000000000608482015260a4016109fd565b600081116125665760405162461bcd60e51b815260206004820152601360248201527f7365636f6e64732073686f756c6420677420300000000000000000000000000060448201526064016109fd565b6002548114156125b85760405162461bcd60e51b815260206004820152601760248201527f7365636f6e647320686173206e6f74206368616e67656400000000000000000060448201526064016109fd565b600255565b6000828152600b6020908152604080832084845290915290206001015461264c5760405162461bcd60e51b815260206004820152602660248201527f7468657265206973206e6f207374616b6520666f72207468697320626174636860448201527f20696e646578000000000000000000000000000000000000000000000000000060648201526084016109fd565b6000828152600b6020908152604080832084845290915281206004015460ff16600381111561267d5761267d613dd1565b146126ca5760405162461bcd60e51b815260206004820152601b60248201527f7769746864726177616c7320617265206e6f7420616c6c6f776564000000000060448201526064016109fd565b6000828152600b602090815260408083208484529091529020546001600160a01b0316331461273b5760405162461bcd60e51b815260206004820152601e60248201527f63616e206e6f74207769746864726177206f746865722773207374616b65000060448201526064016109fd565b6000828152600b6020908152604080832084845290915290206002015442116127cc5760405162461bcd60e51b815260206004820152602960248201527f63616e206e6f7420776974686472617720647572696e67207375626d6974207060448201527f726f74656374696f6e000000000000000000000000000000000000000000000060648201526084016109fd565b33600090815260096020908152604080832054858452600b83528184208585529092529091206003015411156128445760405162461bcd60e51b815260206004820152601260248201527f696e73756666696369656e74207374616b65000000000000000000000000000060448201526064016109fd565b6000828152600b602090815260408083208484529091529020600301544710156128b05760405162461bcd60e51b815260206004820152601460248201527f696e73756666696369656e742062616c616e636500000000000000000000000060448201526064016109fd565b6000828152600b60209081526040808320848452825280832060048101805460ff191660039081179091550154338452600990925282208054919290916128f8908490613d29565b90915550506000828152600b6020908152604080832084845290915280822060030154905133929183918381818185875af1925050503d806000811461295a576040519150601f19603f3d011682016040523d82523d6000602084013e61295f565b606091505b50509050806129b05760405162461bcd60e51b815260206004820152601460248201527f696e73756666696369656e742062616c616e636500000000000000000000000060448201526064016109fd565b50505050565b6129f46040518060400160405280600d81526020017f4d455449535f4d414e414745520000000000000000000000000000000000000081525061071a565b6001600160a01b0316336001600160a01b031614612aa05760405162461bcd60e51b815260206004820152604b60248201527f4d564d5f43616e6f6e6963616c5472616e73616374696f6e3a2046756e63746960448201527f6f6e2063616e206f6e6c792062652063616c6c656420627920746865204d455460648201527f49535f4d414e414745522e000000000000000000000000000000000000000000608482015260a4016109fd565b6001600160a01b038216612af65760405162461bcd60e51b815260206004820152601560248201527f61646472657373206e6f7420617661696c61626c65000000000000000000000060448201526064016109fd565b60008111612b465760405162461bcd60e51b815260206004820152601560248201527f636861696e4964206e6f7420617661696c61626c65000000000000000000000060448201526064016109fd565b6001600160a01b038216600090815260086020526040902054811415612bae5760405162461bcd60e51b815260206004820152600960248201527f6e6f206368616e6765000000000000000000000000000000000000000000000060448201526064016109fd565b6001600160a01b03909116600090815260086020526040902055565b612c086040518060400160405280600d81526020017f4d455449535f4d414e414745520000000000000000000000000000000000000081525061071a565b6001600160a01b0316336001600160a01b031614612cb45760405162461bcd60e51b815260206004820152604b60248201527f4d564d5f43616e6f6e6963616c5472616e73616374696f6e3a2046756e63746960448201527f6f6e2063616e206f6e6c792062652063616c6c656420627920746865204d455460648201527f49535f4d414e414745522e000000000000000000000000000000000000000000608482015260a4016109fd565b662386f26fc10000811015612d0b5760405162461bcd60e51b815260206004820152601a60248201527f7374616b6520636f73742073686f756c6420677465203165313600000000000060448201526064016109fd565b600355565b600060015411612d625760405162461bcd60e51b815260206004820152601960248201527f736c6963652073697a65206e6f7420636f6e666967207965740000000000000060448201526064016109fd565b6000835111612db35760405162461bcd60e51b815260206004820152600a60248201527f656d70747920646174610000000000000000000000000000000000000000000060448201526064016109fd565b6000868152600a60209081526040808320888452909152902060010154612e1c5760405162461bcd60e51b815260206004820152601c60248201527f626174636820656c656d656e7420646f6573206e6f742065786973740000000060448201526064016109fd565b6000868152600a6020908152604080832088845290915290205465010000000000900462ffffff16612eb65760405162461bcd60e51b815260206004820152603060248201527f626174636820746f74616c20656c656d656e7420746f20617070656e6420736860448201527f6f756c64206e6f74206265207a65726f0000000000000000000000000000000060648201526084016109fd565b60015460028451612ec79190613cee565b1115612f155760405162461bcd60e51b815260206004820152601f60248201527f736c6963652073697a65206f66206461746120697320746f6f206c617267650060448201526064016109fd565b6004548410612f665760405162461bcd60e51b815260206004820152601660248201527f736c69636520696e64657820697320677265617465720000000000000000000060448201526064016109fd565b6000868152600c60209081526040808320888452909152902060020154841115612fd25760405162461bcd60e51b815260206004820152601560248201527f696e636f727265637420736c69636520696e646578000000000000000000000060448201526064016109fd565b6000868152600c60209081526040808320888452909152902060010154156132ca576000868152600c602090815260408083208884529091529020546001600160a01b031633146131c6576000868152600c6020908152604080832088845290915290206001015442906130499061070890613ea6565b116130965760405162461bcd60e51b815260206004820152600d60248201527f696e207375626d697474696e670000000000000000000000000000000000000060448201526064016109fd565b831561310a5760405162461bcd60e51b815260206004820152602260248201527f736c69636520696e6465782073686f756c642073746172742066726f6d207a6560448201527f726f00000000000000000000000000000000000000000000000000000000000060648201526084016109fd565b6000868152600c6020908152604080832088845280835281842080547fffffffffffffffffffffffff00000000000000000000000000000000000000001633178155426001808301919091558351808601909452888452948a9052925261317692600290920191613776565b506000868152600c60209081526040808320888452909152902060030180547fffffffffffffffffffffffffffffffffffffffffffffffffffffffffffff0000166101008415150217905561341a565b6000868152600c6020908152604080832088845290915290206002015484101561323e576000868152600c60209081526040808320888452909152902060020180548491908690811061321b5761321b613da2565b9060005260206000200190805190602001906132389291906137d3565b5061327b565b6000868152600c602090815260408083208884528252822060020180546001810182559083529181902085516131769391909101918601906137d3565b6000868152600c60209081526040808320888452909152902060030180547fffffffffffffffffffffffffffffffffffffffffffffffffffffffffffff0000166101008415150217905561341a565b604080516001808252818301909252600091816020015b60608152602001906001900390816132e1579050509050838160008151811061330c5761330c613da2565b6020908102919091018101919091526040805160a0810182523381524281840190815281830185815260006060840181905288151560808501528c8152600c86528481208c8252865293909320825181547fffffffffffffffffffffffff0000000000000000000000000000000000000000166001600160a01b03909116178155905160018201559151805191936133ac92600285019290910190613853565b506060820151600390910180546080909301511515610100027fffffffffffffffffffffffffffffffffffffffffffffffffffffffffffff00ff921515929092167fffffffffffffffffffffffffffffffffffffffffffffffffffffffffffff000090931692909217179055505b8180156134245750805b1561370857604080518082018252600181527f5f000000000000000000000000000000000000000000000000000000000000006020808301919091526000898152600a8252838120898252909152918220549091906134899064ffffffffff166107ba565b6000898152600a602090815260408083208b8452909152812054919250906134be9065010000000000900462ffffff166107ba565b60008a8152600a602090815260408083208c8452909152812060010154919250906134e8906107ba565b60008b8152600c602090815260408083208d84528252808320600201805482518185028101850190935280835294955092936135d1939192859084015b828210156114b057838290600052602060002001805461354490613e00565b80601f016020809104026020016040519081016040528092919081815260200182805461357090613e00565b80156135bd5780601f10613592576101008083540402835291602001916135bd565b820191906000526020600020905b8154815290600101906020018083116135a057829003601f168201915b505050505081526020019060010190613525565b90506000600285878689878b886040516020016135f49796959493929190613ee7565b604080517fffffffffffffffffffffffffffffffffffffffffffffffffffffffffffffffe08184030181529082905261362c91613f79565b602060405180830381855afa158015613649573d6000803e3d6000fd5b5050506040513d601f19601f8201168201806040525081019061366c9190613ebe565b60008d8152600a602090815260408083208f845290915290206002015490915081146136da5760405162461bcd60e51b815260206004820152601560248201527f7478206461746120766572696679206661696c6564000000000000000000000060448201526064016109fd565b5050506000898152600c602090815260408083208b84529091529020600301805460ff191660011790555050505b505050505050565b60608060005b835181101561376f578184828151811061373257613732613da2565b602002602001015160405160200161374b929190613f95565b6040516020818303038152906040529150808061376790613cb5565b915050613716565b5092915050565b8280548282559060005260206000209081019282156137c3579160200282015b828111156137c357825180516137b39184916020909101906137d3565b5091602001919060010190613796565b506137cf9291506138a0565b5090565b8280546137df90613e00565b90600052602060002090601f0160209004810192826138015760008555613847565b82601f1061381a57805160ff1916838001178555613847565b82800160010185558215613847579182015b8281111561384757825182559160200191906001019061382c565b506137cf9291506138bd565b8280548282559060005260206000209081019282156137c3579160200282015b828111156137c357825180516138909184916020909101906137d3565b5091602001919060010190613873565b808211156137cf5760006138b482826138d2565b506001016138a0565b5b808211156137cf57600081556001016138be565b5080546138de90613e00565b6000825580601f106138ee575050565b601f01602090049060005260206000209081019061390c91906138bd565b50565b60005b8381101561392a578181015183820152602001613912565b838111156129b05750506000910152565b6000825161394d81846020870161390f565b7f5f4d564d5f53657175656e6365725f5772617070657200000000000000000000920191825250601601919050565b60006020828403121561398e57600080fd5b5035919050565b7f4e487b7100000000000000000000000000000000000000000000000000000000600052604160045260246000fd5b600082601f8301126139d557600080fd5b813567ffffffffffffffff808211156139f0576139f0613995565b604051601f83017fffffffffffffffffffffffffffffffffffffffffffffffffffffffffffffffe0908116603f01168101908282118183101715613a3657613a36613995565b81604052838152866020858801011115613a4f57600080fd5b836020870160208301376000602085830101528094505050505092915050565b80358015158114613a7f57600080fd5b919050565b600080600080600060a08688031215613a9c57600080fd5b853594506020860135935060408601359250606086013567ffffffffffffffff811115613ac857600080fd5b613ad4888289016139c4565b925050613ae360808701613a6f565b90509295509295909350565b600060208284031215613b0157600080fd5b813567ffffffffffffffff811115613b1857600080fd5b613b24848285016139c4565b949350505050565b60008151808452613b4481602086016020860161390f565b601f017fffffffffffffffffffffffffffffffffffffffffffffffffffffffffffffffe0169290920160200192915050565b602081526000613b896020830184613b2c565b9392505050565b6001600160a01b038116811461390c57600080fd5b600060208284031215613bb757600080fd5b8135613b8981613b90565b60008060408385031215613bd557600080fd5b50508035926020909101359150565b604081526000613bf76040830185613b2c565b905082151560208301529392505050565b60008060408385031215613c1b57600080fd5b8235613c2681613b90565b9150613c3460208401613a6f565b90509250929050565b60008060408385031215613c5057600080fd5b8235613c5b81613b90565b946020939093013593505050565b600060208284031215613c7b57600080fd5b8151613b8981613b90565b7f4e487b7100000000000000000000000000000000000000000000000000000000600052601160045260246000fd5b60007fffffffffffffffffffffffffffffffffffffffffffffffffffffffffffffffff821415613ce757613ce7613c86565b5060010190565b600082613d24577f4e487b7100000000000000000000000000000000000000000000000000000000600052601260045260246000fd5b500490565b600082821015613d3b57613d3b613c86565b500390565b6000817fffffffffffffffffffffffffffffffffffffffffffffffffffffffffffffffff0483118215151615613d7857613d78613c86565b500290565b600060ff821660ff84168060ff03821115613d9a57613d9a613c86565b019392505050565b7f4e487b7100000000000000000000000000000000000000000000000000000000600052603260045260246000fd5b7f4e487b7100000000000000000000000000000000000000000000000000000000600052602160045260246000fd5b600181811c90821680613e1457607f821691505b60208210811415613e4e577f4e487b7100000000000000000000000000000000000000000000000000000000600052602260045260246000fd5b50919050565b600062ffffff80831681851681830481118215151615613e7657613e76613c86565b02949350505050565b600062ffffff808316818516808303821115613e9d57613e9d613c86565b01949350505050565b60008219821115613eb957613eb9613c86565b500190565b600060208284031215613ed057600080fd5b5051919050565b8183823760009101908152919050565b600088516020613efa8285838e0161390f565b895191840191613f0d8184848e0161390f565b8951920191613f1f8184848d0161390f565b8851920191613f318184848c0161390f565b8751920191613f438184848b0161390f565b8651920191613f558184848a0161390f565b8551920191613f67818484890161390f565b919091019a9950505050505050505050565b60008251613f8b81846020870161390f565b9190910192915050565b60008351613fa781846020880161390f565b835190830190613e9d81836020880161390f56fea264697066735822122069edc1dafd68972e418b22501ef8a0e80dca273fc6ca4aeb6ba8d79ed39f29a964736f6c63430008090033",
  "devdoc": {
    "kind": "dev",
    "methods": {
      "appendSequencerBatchByChainId()": {
        "details": "This function uses a custom encoding scheme for efficiency reasons."
      },
      "getBatchTxData(uint256,uint256)": {
        "params": {
          "_batchIndex": "batch index of CTC.",
          "_chainId": "chain id."
        },
        "returns": {
          "txData": "txData",
          "verified": "verified"
        }
      },
      "getStakeSeqSeconds()": {
        "returns": {
          "_0": "Seconds the Sequencer can sumbit transaction data after verifier staking."
        }
      },
      "resolve(string)": {
        "params": {
          "_name": "Name to resolve an address for."
        },
        "returns": {
          "_0": "Address associated with the given name."
        }
      },
      "setAddressChainId(address,uint256)": {
        "params": {
          "_address": "contract address.",
          "_chainId": "chain id."
        }
      },
      "setBatchTxData(uint256,uint256,uint256,string,bool)": {
        "params": {
          "_batchIndex": "batch index of CTC.",
          "_chainId": "chain id.",
          "_data": "tx data hex.",
          "_end": "sliceIndex is the end or not.",
          "_sliceIndex": "slice index."
        }
      },
      "setBatchTxDataForStake(uint256,uint256,uint256,string,bool)": {
        "params": {
          "_batchIndex": "batch index of CTC.",
          "_chainId": "chain id.",
          "_data": "tx data hex.",
          "_end": "sliceIndex is the end or not.",
          "_sliceIndex": "slice index."
        }
      },
      "setBatchTxDataForVerifier(uint256,uint256,uint256,string,bool)": {
        "params": {
          "_batchIndex": "batch index of CTC.",
          "_chainId": "chain id.",
          "_data": "tx data hex.",
          "_end": "sliceIndex is the end or not.",
          "_sliceIndex": "slice index."
        }
      },
      "setStakeCost(uint256)": {
        "params": {
          "_stakeCost": "Stake cost for verifier."
        }
      },
      "setStakeSeqSeconds(uint256)": {
        "params": {
          "_seconds": "Seconds the Sequencer can sumbit transaction data after verifier staking."
        }
      },
      "setTxBatchSize(uint256)": {
        "params": {
          "_size": "Batch size of batch."
        }
      },
      "setTxDataSliceCount(uint256)": {
        "params": {
          "_count": "Slice count per batch transaction data."
        }
      },
      "setTxDataSliceSize(uint256)": {
        "params": {
          "_size": "Slice size of batch transaction data."
        }
      },
      "verifierStake(uint256,uint256)": {
        "params": {
          "_batchIndex": "batch index of CTC.",
          "_chainId": "chain id."
        }
      },
      "withdrawStake(uint256,uint256)": {
        "params": {
          "_batchIndex": "batch index of CTC.",
          "_chainId": "chain id."
        }
      }
    },
    "version": 1
  },
  "userdoc": {
    "kind": "user",
    "methods": {
      "appendSequencerBatchByChainId()": {
        "notice": "Allows the sequencer to append a batch of transactions."
      },
      "getAddressChainId(address)": {
        "notice": "Gets address's chain id."
      },
      "getBatchTxData(uint256,uint256)": {
        "notice": "Gets batch tx data."
      },
      "getStakeCost()": {
        "notice": "Gets the verifier stake cost of ETH."
      },
      "getStakeSeqSeconds()": {
        "notice": "Gets seconds can submit transaction data after staking."
      },
      "getTxBatchSize()": {
        "notice": "Gets batch size per batch."
      },
      "getTxDataSliceCount()": {
        "notice": "Gets slice count per batch transaction data."
      },
      "getTxDataSliceSize()": {
        "notice": "Gets batch transaction data slice size per submit."
      },
      "resolve(string)": {
        "notice": "Resolves the address associated with a given name."
      },
      "setAddressChainId(address,uint256)": {
        "notice": "Sets address's chain id."
      },
      "setBatchTxData(uint256,uint256,uint256,string,bool)": {
        "notice": "Sets batch tx data."
      },
      "setBatchTxDataForStake(uint256,uint256,uint256,string,bool)": {
        "notice": "Sets batch tx data for stake."
      },
      "setBatchTxDataForVerifier(uint256,uint256,uint256,string,bool)": {
        "notice": "Sets batch tx data for verifier."
      },
      "setStakeCost(uint256)": {
        "notice": "Sets the verifier stake cost of ETH."
      },
      "setStakeSeqSeconds(uint256)": {
        "notice": "Sets seconds can submit transaction data after staking."
      },
      "setTxBatchSize(uint256)": {
        "notice": "Sets batch size per batch."
      },
      "setTxDataSliceCount(uint256)": {
        "notice": "Sets slice count per batch transaction data."
      },
      "setTxDataSliceSize(uint256)": {
        "notice": "Sets batch transaction data slice size per submit."
      },
      "verifierStake(uint256,uint256)": {
        "notice": "Stake by verifier."
      },
      "withdrawStake(uint256,uint256)": {
        "notice": "Withdraw stake by verifier."
      }
    },
    "version": 1
  },
  "storageLayout": {
    "storage": [
      {
        "astId": 16130,
        "contract": "contracts/MVM/MVM_CanonicalTransaction.sol:MVM_CanonicalTransaction",
        "label": "libAddressManager",
        "offset": 0,
        "slot": "0",
        "type": "t_contract(Lib_AddressManager)16122"
      },
      {
        "astId": 10748,
        "contract": "contracts/MVM/MVM_CanonicalTransaction.sol:MVM_CanonicalTransaction",
        "label": "txDataSliceSize",
        "offset": 0,
        "slot": "1",
        "type": "t_uint256"
      },
      {
        "astId": 10750,
        "contract": "contracts/MVM/MVM_CanonicalTransaction.sol:MVM_CanonicalTransaction",
        "label": "stakeSeqSeconds",
        "offset": 0,
        "slot": "2",
        "type": "t_uint256"
      },
      {
        "astId": 10752,
        "contract": "contracts/MVM/MVM_CanonicalTransaction.sol:MVM_CanonicalTransaction",
        "label": "stakeCost",
        "offset": 0,
        "slot": "3",
        "type": "t_uint256"
      },
      {
        "astId": 10754,
        "contract": "contracts/MVM/MVM_CanonicalTransaction.sol:MVM_CanonicalTransaction",
        "label": "txDataSliceCount",
        "offset": 0,
        "slot": "4",
        "type": "t_uint256"
      },
      {
        "astId": 10756,
        "contract": "contracts/MVM/MVM_CanonicalTransaction.sol:MVM_CanonicalTransaction",
        "label": "txBatchSize",
        "offset": 0,
        "slot": "5",
        "type": "t_uint256"
      },
      {
        "astId": 10758,
        "contract": "contracts/MVM/MVM_CanonicalTransaction.sol:MVM_CanonicalTransaction",
        "label": "useWhiteList",
        "offset": 0,
        "slot": "6",
        "type": "t_bool"
      },
      {
        "astId": 10762,
        "contract": "contracts/MVM/MVM_CanonicalTransaction.sol:MVM_CanonicalTransaction",
        "label": "whitelist",
        "offset": 0,
        "slot": "7",
        "type": "t_mapping(t_address,t_bool)"
      },
      {
        "astId": 10766,
        "contract": "contracts/MVM/MVM_CanonicalTransaction.sol:MVM_CanonicalTransaction",
        "label": "addressChains",
        "offset": 0,
        "slot": "8",
        "type": "t_mapping(t_address,t_uint256)"
      },
      {
        "astId": 10770,
        "contract": "contracts/MVM/MVM_CanonicalTransaction.sol:MVM_CanonicalTransaction",
        "label": "verifierStakes",
        "offset": 0,
        "slot": "9",
        "type": "t_mapping(t_address,t_uint256)"
      },
      {
        "astId": 10777,
        "contract": "contracts/MVM/MVM_CanonicalTransaction.sol:MVM_CanonicalTransaction",
        "label": "queueBatchElement",
        "offset": 0,
        "slot": "10",
        "type": "t_mapping(t_uint256,t_mapping(t_uint256,t_struct(BatchElement)15275_storage))"
      },
      {
        "astId": 10784,
        "contract": "contracts/MVM/MVM_CanonicalTransaction.sol:MVM_CanonicalTransaction",
        "label": "queueTxDataRequestStake",
        "offset": 0,
        "slot": "11",
        "type": "t_mapping(t_uint256,t_mapping(t_uint256,t_struct(TxDataRequestStake)15266_storage))"
      },
      {
        "astId": 10791,
        "contract": "contracts/MVM/MVM_CanonicalTransaction.sol:MVM_CanonicalTransaction",
        "label": "queueTxData",
        "offset": 0,
        "slot": "12",
        "type": "t_mapping(t_uint256,t_mapping(t_uint256,t_struct(TxDataSlice)15254_storage))"
      }
    ],
    "types": {
      "t_address": {
        "encoding": "inplace",
        "label": "address",
        "numberOfBytes": "20"
      },
      "t_array(t_string_storage)dyn_storage": {
        "base": "t_string_storage",
        "encoding": "dynamic_array",
        "label": "string[]",
        "numberOfBytes": "32"
      },
      "t_bool": {
        "encoding": "inplace",
        "label": "bool",
        "numberOfBytes": "1"
      },
      "t_bytes32": {
        "encoding": "inplace",
        "label": "bytes32",
        "numberOfBytes": "32"
      },
      "t_contract(Lib_AddressManager)16122": {
        "encoding": "inplace",
        "label": "contract Lib_AddressManager",
        "numberOfBytes": "20"
      },
      "t_enum(STAKESTATUS)15204": {
        "encoding": "inplace",
        "label": "enum iMVM_CanonicalTransaction.STAKESTATUS",
        "numberOfBytes": "1"
      },
      "t_mapping(t_address,t_bool)": {
        "encoding": "mapping",
        "key": "t_address",
        "label": "mapping(address => bool)",
        "numberOfBytes": "32",
        "value": "t_bool"
      },
      "t_mapping(t_address,t_uint256)": {
        "encoding": "mapping",
        "key": "t_address",
        "label": "mapping(address => uint256)",
        "numberOfBytes": "32",
        "value": "t_uint256"
      },
      "t_mapping(t_uint256,t_mapping(t_uint256,t_struct(BatchElement)15275_storage))": {
        "encoding": "mapping",
        "key": "t_uint256",
        "label": "mapping(uint256 => mapping(uint256 => struct iMVM_CanonicalTransaction.BatchElement))",
        "numberOfBytes": "32",
        "value": "t_mapping(t_uint256,t_struct(BatchElement)15275_storage)"
      },
      "t_mapping(t_uint256,t_mapping(t_uint256,t_struct(TxDataRequestStake)15266_storage))": {
        "encoding": "mapping",
        "key": "t_uint256",
        "label": "mapping(uint256 => mapping(uint256 => struct iMVM_CanonicalTransaction.TxDataRequestStake))",
        "numberOfBytes": "32",
        "value": "t_mapping(t_uint256,t_struct(TxDataRequestStake)15266_storage)"
      },
      "t_mapping(t_uint256,t_mapping(t_uint256,t_struct(TxDataSlice)15254_storage))": {
        "encoding": "mapping",
        "key": "t_uint256",
        "label": "mapping(uint256 => mapping(uint256 => struct iMVM_CanonicalTransaction.TxDataSlice))",
        "numberOfBytes": "32",
        "value": "t_mapping(t_uint256,t_struct(TxDataSlice)15254_storage)"
      },
      "t_mapping(t_uint256,t_struct(BatchElement)15275_storage)": {
        "encoding": "mapping",
        "key": "t_uint256",
        "label": "mapping(uint256 => struct iMVM_CanonicalTransaction.BatchElement)",
        "numberOfBytes": "32",
        "value": "t_struct(BatchElement)15275_storage"
      },
      "t_mapping(t_uint256,t_struct(TxDataRequestStake)15266_storage)": {
        "encoding": "mapping",
        "key": "t_uint256",
        "label": "mapping(uint256 => struct iMVM_CanonicalTransaction.TxDataRequestStake)",
        "numberOfBytes": "32",
        "value": "t_struct(TxDataRequestStake)15266_storage"
      },
      "t_mapping(t_uint256,t_struct(TxDataSlice)15254_storage)": {
        "encoding": "mapping",
        "key": "t_uint256",
        "label": "mapping(uint256 => struct iMVM_CanonicalTransaction.TxDataSlice)",
        "numberOfBytes": "32",
        "value": "t_struct(TxDataSlice)15254_storage"
      },
      "t_string_storage": {
        "encoding": "bytes",
        "label": "string",
        "numberOfBytes": "32"
      },
      "t_struct(BatchElement)15275_storage": {
        "encoding": "inplace",
        "label": "struct iMVM_CanonicalTransaction.BatchElement",
        "members": [
          {
            "astId": 15268,
            "contract": "contracts/MVM/MVM_CanonicalTransaction.sol:MVM_CanonicalTransaction",
            "label": "shouldStartAtElement",
            "offset": 0,
            "slot": "0",
            "type": "t_uint40"
          },
          {
            "astId": 15270,
            "contract": "contracts/MVM/MVM_CanonicalTransaction.sol:MVM_CanonicalTransaction",
            "label": "totalElementsToAppend",
            "offset": 5,
            "slot": "0",
            "type": "t_uint24"
          },
          {
            "astId": 15272,
            "contract": "contracts/MVM/MVM_CanonicalTransaction.sol:MVM_CanonicalTransaction",
            "label": "txBatchTime",
            "offset": 0,
            "slot": "1",
            "type": "t_uint256"
          },
          {
            "astId": 15274,
            "contract": "contracts/MVM/MVM_CanonicalTransaction.sol:MVM_CanonicalTransaction",
            "label": "txBatchHash",
            "offset": 0,
            "slot": "2",
            "type": "t_bytes32"
          }
        ],
        "numberOfBytes": "96"
      },
      "t_struct(TxDataRequestStake)15266_storage": {
        "encoding": "inplace",
        "label": "struct iMVM_CanonicalTransaction.TxDataRequestStake",
        "members": [
          {
            "astId": 15256,
            "contract": "contracts/MVM/MVM_CanonicalTransaction.sol:MVM_CanonicalTransaction",
            "label": "sender",
            "offset": 0,
            "slot": "0",
            "type": "t_address"
          },
          {
            "astId": 15258,
            "contract": "contracts/MVM/MVM_CanonicalTransaction.sol:MVM_CanonicalTransaction",
            "label": "timestamp",
            "offset": 0,
            "slot": "1",
            "type": "t_uint256"
          },
          {
            "astId": 15260,
            "contract": "contracts/MVM/MVM_CanonicalTransaction.sol:MVM_CanonicalTransaction",
            "label": "endtime",
            "offset": 0,
            "slot": "2",
            "type": "t_uint256"
          },
          {
            "astId": 15262,
            "contract": "contracts/MVM/MVM_CanonicalTransaction.sol:MVM_CanonicalTransaction",
            "label": "amount",
            "offset": 0,
            "slot": "3",
            "type": "t_uint256"
          },
          {
            "astId": 15265,
            "contract": "contracts/MVM/MVM_CanonicalTransaction.sol:MVM_CanonicalTransaction",
            "label": "status",
            "offset": 0,
            "slot": "4",
            "type": "t_enum(STAKESTATUS)15204"
          }
        ],
        "numberOfBytes": "160"
      },
      "t_struct(TxDataSlice)15254_storage": {
        "encoding": "inplace",
        "label": "struct iMVM_CanonicalTransaction.TxDataSlice",
        "members": [
          {
            "astId": 15244,
            "contract": "contracts/MVM/MVM_CanonicalTransaction.sol:MVM_CanonicalTransaction",
            "label": "sender",
            "offset": 0,
            "slot": "0",
            "type": "t_address"
          },
          {
            "astId": 15246,
            "contract": "contracts/MVM/MVM_CanonicalTransaction.sol:MVM_CanonicalTransaction",
            "label": "timestamp",
            "offset": 0,
            "slot": "1",
            "type": "t_uint256"
          },
          {
            "astId": 15249,
            "contract": "contracts/MVM/MVM_CanonicalTransaction.sol:MVM_CanonicalTransaction",
            "label": "txDataSlices",
            "offset": 0,
            "slot": "2",
            "type": "t_array(t_string_storage)dyn_storage"
          },
          {
            "astId": 15251,
            "contract": "contracts/MVM/MVM_CanonicalTransaction.sol:MVM_CanonicalTransaction",
            "label": "verified",
            "offset": 0,
            "slot": "3",
            "type": "t_bool"
          },
          {
            "astId": 15253,
            "contract": "contracts/MVM/MVM_CanonicalTransaction.sol:MVM_CanonicalTransaction",
            "label": "end",
            "offset": 1,
            "slot": "3",
            "type": "t_bool"
          }
        ],
        "numberOfBytes": "128"
      },
      "t_uint24": {
        "encoding": "inplace",
        "label": "uint24",
        "numberOfBytes": "3"
      },
      "t_uint256": {
        "encoding": "inplace",
        "label": "uint256",
        "numberOfBytes": "32"
      },
      "t_uint40": {
        "encoding": "inplace",
        "label": "uint40",
        "numberOfBytes": "5"
      }
    }
  }
}