{
  "address": "0x76d4Fc1CB6D554ff9A065914A22C46df0ffB8A6D",
  "abi": [
    {
      "inputs": [
        {
          "internalType": "address",
          "name": "_libAddressManager",
          "type": "address"
        },
        {
          "internalType": "uint256",
          "name": "_txDataSliceSize",
          "type": "uint256"
        },
        {
          "internalType": "uint256",
          "name": "_stakeSeqSeconds",
          "type": "uint256"
        },
        {
          "internalType": "uint256",
          "name": "_stakeBaseCost",
          "type": "uint256"
        },
        {
          "internalType": "uint256",
          "name": "_stakeUnitCost",
          "type": "uint256"
        }
      ],
      "stateMutability": "nonpayable",
      "type": "constructor"
    },
    {
      "anonymous": false,
      "inputs": [
        {
          "indexed": false,
          "internalType": "uint256",
          "name": "_chainId",
          "type": "uint256"
        },
        {
          "indexed": false,
          "internalType": "uint256",
          "name": "_batchIndex",
          "type": "uint256"
        },
        {
          "indexed": false,
          "internalType": "uint40",
          "name": "_shouldStartAtElement",
          "type": "uint40"
        },
        {
          "indexed": false,
          "internalType": "uint24",
          "name": "_totalElementsToAppend",
          "type": "uint24"
        },
        {
          "indexed": false,
          "internalType": "uint256",
          "name": "_txBatchSize",
          "type": "uint256"
        },
        {
          "indexed": false,
          "internalType": "uint256",
          "name": "_txBatchTime",
          "type": "uint256"
        },
        {
          "indexed": false,
          "internalType": "bytes32",
          "name": "_txBatchHash",
          "type": "bytes32"
        }
      ],
      "name": "AppendBatchElement",
      "type": "event"
    },
    {
      "anonymous": false,
      "inputs": [
        {
          "indexed": false,
          "internalType": "address",
          "name": "_sender",
          "type": "address"
        },
        {
          "indexed": false,
          "internalType": "uint256",
          "name": "_chainId",
          "type": "uint256"
        },
        {
          "indexed": false,
          "internalType": "uint256",
          "name": "_batchIndex",
          "type": "uint256"
        },
        {
          "indexed": false,
          "internalType": "uint256",
          "name": "_stakeAmount",
          "type": "uint256"
        },
        {
          "indexed": false,
          "internalType": "bool",
          "name": "_verified",
          "type": "bool"
        },
        {
          "indexed": false,
          "internalType": "bool",
          "name": "_sequencer",
          "type": "bool"
        }
      ],
      "name": "SetBatchTxData",
      "type": "event"
    },
    {
      "anonymous": false,
      "inputs": [
        {
          "indexed": false,
          "internalType": "address",
          "name": "_sender",
          "type": "address"
        },
        {
          "indexed": false,
          "internalType": "uint256",
          "name": "_chainId",
          "type": "uint256"
        },
        {
          "indexed": false,
          "internalType": "uint256",
          "name": "_batchIndex",
          "type": "uint256"
        },
        {
          "indexed": false,
          "internalType": "uint256",
          "name": "_amount",
          "type": "uint256"
        }
      ],
      "name": "VerifierStake",
      "type": "event"
    },
    {
      "inputs": [],
      "name": "CONFIG_OWNER_KEY",
      "outputs": [
        {
          "internalType": "string",
          "name": "",
          "type": "string"
        }
      ],
      "stateMutability": "view",
      "type": "function"
    },
    {
      "inputs": [],
      "name": "TXDATA_SUBMIT_TIMEOUT",
      "outputs": [
        {
          "internalType": "uint256",
          "name": "",
          "type": "uint256"
        }
      ],
      "stateMutability": "view",
      "type": "function"
    },
    {
      "inputs": [],
      "name": "appendSequencerBatchByChainId",
      "outputs": [],
      "stateMutability": "nonpayable",
      "type": "function"
    },
    {
      "inputs": [],
      "name": "disableWhiteList",
      "outputs": [],
      "stateMutability": "nonpayable",
      "type": "function"
    },
    {
      "inputs": [
        {
          "internalType": "uint256",
          "name": "_chainId",
          "type": "uint256"
        },
        {
          "internalType": "uint256",
          "name": "_batchIndex",
          "type": "uint256"
        }
      ],
      "name": "getBatchTxData",
      "outputs": [
        {
          "internalType": "string",
          "name": "txData",
          "type": "string"
        },
        {
          "internalType": "bool",
          "name": "verified",
          "type": "bool"
        }
      ],
      "stateMutability": "view",
      "type": "function"
    },
    {
      "inputs": [],
      "name": "getStakeBaseCost",
      "outputs": [
        {
          "internalType": "uint256",
          "name": "",
          "type": "uint256"
        }
      ],
      "stateMutability": "view",
      "type": "function"
    },
    {
      "inputs": [
        {
          "internalType": "uint256",
          "name": "_chainId",
          "type": "uint256"
        },
        {
          "internalType": "uint256",
          "name": "_batchIndex",
          "type": "uint256"
        }
      ],
      "name": "getStakeCostByBatch",
      "outputs": [
        {
          "internalType": "uint256",
          "name": "",
          "type": "uint256"
        }
      ],
      "stateMutability": "view",
      "type": "function"
    },
    {
      "inputs": [],
      "name": "getStakeSeqSeconds",
      "outputs": [
        {
          "internalType": "uint256",
          "name": "",
          "type": "uint256"
        }
      ],
      "stateMutability": "view",
      "type": "function"
    },
    {
      "inputs": [],
      "name": "getStakeUnitCost",
      "outputs": [
        {
          "internalType": "uint256",
          "name": "",
          "type": "uint256"
        }
      ],
      "stateMutability": "view",
      "type": "function"
    },
    {
      "inputs": [],
      "name": "getTxBatchSize",
      "outputs": [
        {
          "internalType": "uint256",
          "name": "",
          "type": "uint256"
        }
      ],
      "stateMutability": "view",
      "type": "function"
    },
    {
      "inputs": [],
      "name": "getTxDataSliceCount",
      "outputs": [
        {
          "internalType": "uint256",
          "name": "",
          "type": "uint256"
        }
      ],
      "stateMutability": "view",
      "type": "function"
    },
    {
      "inputs": [],
      "name": "getTxDataSliceSize",
      "outputs": [
        {
          "internalType": "uint256",
          "name": "",
          "type": "uint256"
        }
      ],
      "stateMutability": "view",
      "type": "function"
    },
    {
      "inputs": [
        {
          "internalType": "address",
          "name": "_verifier",
          "type": "address"
        }
      ],
      "name": "isWhiteListed",
      "outputs": [
        {
          "internalType": "bool",
          "name": "",
          "type": "bool"
        }
      ],
      "stateMutability": "view",
      "type": "function"
    },
    {
      "inputs": [],
      "name": "libAddressManager",
      "outputs": [
        {
          "internalType": "contract Lib_AddressManager",
          "name": "",
          "type": "address"
        }
      ],
      "stateMutability": "view",
      "type": "function"
    },
    {
      "inputs": [
        {
          "internalType": "string",
          "name": "_name",
          "type": "string"
        }
      ],
      "name": "resolve",
      "outputs": [
        {
          "internalType": "address",
          "name": "",
          "type": "address"
        }
      ],
      "stateMutability": "view",
      "type": "function"
    },
    {
      "inputs": [
        {
          "internalType": "uint256",
          "name": "_chainId",
          "type": "uint256"
        },
        {
          "internalType": "uint256",
          "name": "_batchIndex",
          "type": "uint256"
        },
        {
          "internalType": "uint256",
          "name": "_sliceIndex",
          "type": "uint256"
        },
        {
          "internalType": "string",
          "name": "_data",
          "type": "string"
        },
        {
          "internalType": "bool",
          "name": "_end",
          "type": "bool"
        }
      ],
      "name": "setBatchTxData",
      "outputs": [],
      "stateMutability": "nonpayable",
      "type": "function"
    },
    {
      "inputs": [
        {
          "internalType": "uint256",
          "name": "_chainId",
          "type": "uint256"
        },
        {
          "internalType": "uint256",
          "name": "_batchIndex",
          "type": "uint256"
        },
        {
          "internalType": "uint256",
          "name": "_sliceIndex",
          "type": "uint256"
        },
        {
          "internalType": "string",
          "name": "_data",
          "type": "string"
        },
        {
          "internalType": "bool",
          "name": "_end",
          "type": "bool"
        }
      ],
      "name": "setBatchTxDataForStake",
      "outputs": [],
      "stateMutability": "nonpayable",
      "type": "function"
    },
    {
      "inputs": [
        {
          "internalType": "uint256",
          "name": "_chainId",
          "type": "uint256"
        },
        {
          "internalType": "uint256",
          "name": "_batchIndex",
          "type": "uint256"
        },
        {
          "internalType": "uint256",
          "name": "_sliceIndex",
          "type": "uint256"
        },
        {
          "internalType": "string",
          "name": "_data",
          "type": "string"
        },
        {
          "internalType": "bool",
          "name": "_end",
          "type": "bool"
        }
      ],
      "name": "setBatchTxDataForVerifier",
      "outputs": [],
      "stateMutability": "nonpayable",
      "type": "function"
    },
    {
      "inputs": [
        {
          "internalType": "uint256",
          "name": "_stakeBaseCost",
          "type": "uint256"
        }
      ],
      "name": "setStakeBaseCost",
      "outputs": [],
      "stateMutability": "nonpayable",
      "type": "function"
    },
    {
      "inputs": [
        {
          "internalType": "uint256",
          "name": "_seconds",
          "type": "uint256"
        }
      ],
      "name": "setStakeSeqSeconds",
      "outputs": [],
      "stateMutability": "nonpayable",
      "type": "function"
    },
    {
      "inputs": [
        {
          "internalType": "uint256",
          "name": "_stakeUnitCost",
          "type": "uint256"
        }
      ],
      "name": "setStakeUnitCost",
      "outputs": [],
      "stateMutability": "nonpayable",
      "type": "function"
    },
    {
      "inputs": [
        {
          "internalType": "uint256",
          "name": "_size",
          "type": "uint256"
        }
      ],
      "name": "setTxBatchSize",
      "outputs": [],
      "stateMutability": "nonpayable",
      "type": "function"
    },
    {
      "inputs": [
        {
          "internalType": "uint256",
          "name": "_count",
          "type": "uint256"
        }
      ],
      "name": "setTxDataSliceCount",
      "outputs": [],
      "stateMutability": "nonpayable",
      "type": "function"
    },
    {
      "inputs": [
        {
          "internalType": "uint256",
          "name": "_size",
          "type": "uint256"
        }
      ],
      "name": "setTxDataSliceSize",
      "outputs": [],
      "stateMutability": "nonpayable",
      "type": "function"
    },
    {
      "inputs": [
        {
          "internalType": "address",
          "name": "_verifier",
          "type": "address"
        },
        {
          "internalType": "bool",
          "name": "_allowed",
          "type": "bool"
        }
      ],
      "name": "setWhiteList",
      "outputs": [],
      "stateMutability": "nonpayable",
      "type": "function"
    },
    {
      "inputs": [],
      "name": "stakeBaseCost",
      "outputs": [
        {
          "internalType": "uint256",
          "name": "",
          "type": "uint256"
        }
      ],
      "stateMutability": "view",
      "type": "function"
    },
    {
      "inputs": [],
      "name": "stakeSeqSeconds",
      "outputs": [
        {
          "internalType": "uint256",
          "name": "",
          "type": "uint256"
        }
      ],
      "stateMutability": "view",
      "type": "function"
    },
    {
      "inputs": [],
      "name": "stakeUnitCost",
      "outputs": [
        {
          "internalType": "uint256",
          "name": "",
          "type": "uint256"
        }
      ],
      "stateMutability": "view",
      "type": "function"
    },
    {
      "inputs": [],
      "name": "txBatchSize",
      "outputs": [
        {
          "internalType": "uint256",
          "name": "",
          "type": "uint256"
        }
      ],
      "stateMutability": "view",
      "type": "function"
    },
    {
      "inputs": [],
      "name": "txDataSliceCount",
      "outputs": [
        {
          "internalType": "uint256",
          "name": "",
          "type": "uint256"
        }
      ],
      "stateMutability": "view",
      "type": "function"
    },
    {
      "inputs": [],
      "name": "txDataSliceSize",
      "outputs": [
        {
          "internalType": "uint256",
          "name": "",
          "type": "uint256"
        }
      ],
      "stateMutability": "view",
      "type": "function"
    },
    {
      "inputs": [
        {
          "internalType": "uint256",
          "name": "_chainId",
          "type": "uint256"
        },
        {
          "internalType": "uint256",
          "name": "_batchIndex",
          "type": "uint256"
        }
      ],
      "name": "verifierStake",
      "outputs": [],
      "stateMutability": "payable",
      "type": "function"
    },
    {
      "inputs": [
        {
          "internalType": "address",
          "name": "",
          "type": "address"
        }
      ],
      "name": "whitelist",
      "outputs": [
        {
          "internalType": "bool",
          "name": "",
          "type": "bool"
        }
      ],
      "stateMutability": "view",
      "type": "function"
    },
    {
      "inputs": [
        {
          "internalType": "uint256",
          "name": "_chainId",
          "type": "uint256"
        },
        {
          "internalType": "uint256",
          "name": "_batchIndex",
          "type": "uint256"
        }
      ],
      "name": "withdrawStake",
      "outputs": [],
      "stateMutability": "nonpayable",
      "type": "function"
    }
  ],
  "transactionHash": "0xcf15521647badce1888333bc2564e613022cd6b320ec012f85df09bafee9916b",
  "args": [
    "0xC9EB2B0bD7dbA69bb72886E9cF5da34d1Ca88C38",
    90000,
    86400,
    "100000000000000000",
    "1000000000"
  ],
  "solcInputHash": "611e477be16b54c67803184260b5138e",
  "bytecode": "0x60806040523480156200001157600080fd5b50604051620042ff380380620042ff833981016040819052620000349162000093565b600080546001600160a01b0319166001600160a01b03871617905560018481556002849055600383905560068290556007805460ff191690911790556005600481905562000084908590620000ea565b60055550620001189350505050565b600080600080600060a08688031215620000ac57600080fd5b85516001600160a01b0381168114620000c457600080fd5b602087015160408801516060890151608090990151929a91995097965090945092505050565b60008160001904831182151516156200011357634e487b7160e01b600052601160045260246000fd5b500290565b6141d780620001286000396000f3fe6080604052600436106102185760003560e01c80637f9c97771161011d578063a8cda37b116100b0578063d6a97a341161007f578063f137391611610064578063f137391614610603578063f1fdf46914610623578063f6f24f671461064357600080fd5b8063d6a97a34146105d9578063dcd83616146105ee57600080fd5b8063a8cda37b1461057b578063b0002ff814610590578063b357ab92146105b0578063b9112540146105c657600080fd5b80638d14e127116100ec5780638d14e127146104f55780639447fe88146105155780639b19251a1461052b578063a5f5e7191461055b57600080fd5b80637f9c977714610471578063811478771461049157806386e4206e146104a75780638d0cb848146104c757600080fd5b8063461a4478116101b05780635e7ce13a1161017f5780636f9170f6116101645780636f9170f61461040157806374a46d59146104315780637600fa121461045157600080fd5b80635e7ce13a14610396578063669fdeb5146103ab57600080fd5b8063461a44781461033657806348406b861461035657806348f241651461036c5780634e74b1551461038157600080fd5b806335005ffb116101ec57806335005ffb146102be57806338897fdd146102e05780633ac19597146102f657806341b6d4861461031657600080fd5b806213c63d1461021d57806302adf2d614610241578063167c705014610256578063299ca4781461026c575b600080fd5b34801561022957600080fd5b506002545b6040519081526020015b60405180910390f35b34801561024d57600080fd5b5060045461022e565b34801561026257600080fd5b5061022e60045481565b34801561027857600080fd5b506000546102999073ffffffffffffffffffffffffffffffffffffffff1681565b60405173ffffffffffffffffffffffffffffffffffffffff9091168152602001610238565b3480156102ca57600080fd5b506102de6102d9366004613b1b565b610659565b005b3480156102ec57600080fd5b5061022e60015481565b34801561030257600080fd5b506102de610311366004613b1b565b610809565b34801561032257600080fd5b506102de610331366004613c23565b610912565b34801561034257600080fd5b50610299610351366004613c8e565b610d84565b34801561036257600080fd5b5061022e60065481565b34801561037857600080fd5b5060065461022e565b34801561038d57600080fd5b5060035461022e565b3480156103a257600080fd5b5060055461022e565b3480156103b757600080fd5b506103f46040518060400160405280600d81526020017f4d455449535f4d414e414745520000000000000000000000000000000000000081525081565b6040516102389190613d41565b34801561040d57600080fd5b5061042161041c366004613d76565b610e31565b6040519015158152602001610238565b34801561043d57600080fd5b506102de61044c366004613c23565b610e6d565b34801561045d57600080fd5b5061022e61046c366004613d93565b610fa5565b34801561047d57600080fd5b506102de61048c366004613b1b565b61109f565b34801561049d57600080fd5b5061022e60055481565b3480156104b357600080fd5b506102de6104c2366004613b1b565b61124a565b3480156104d357600080fd5b506104e76104e2366004613d93565b6113f5565b604051610238929190613db5565b34801561050157600080fd5b506102de610510366004613dd9565b61157c565b34801561052157600080fd5b5061022e60025481565b34801561053757600080fd5b50610421610546366004613d76565b60086020526000908152604090205460ff1681565b34801561056757600080fd5b506102de610576366004613b1b565b6116c2565b34801561058757600080fd5b506102de611822565b34801561059c57600080fd5b506102de6105ab366004613c23565b611cde565b3480156105bc57600080fd5b5061022e60035481565b6102de6105d4366004613d93565b6121cd565b3480156105e557600080fd5b5060015461022e565b3480156105fa57600080fd5b506102de61260f565b34801561060f57600080fd5b506102de61061e366004613b1b565b61271f565b34801561062f57600080fd5b506102de61063e366004613d93565b6128ca565b34801561064f57600080fd5b5061022e61070881565b6106976040518060400160405280600d81526020017f4d455449535f4d414e4147455200000000000000000000000000000000000000815250610d84565b73ffffffffffffffffffffffffffffffffffffffff163373ffffffffffffffffffffffffffffffffffffffff16146107625760405162461bcd60e51b815260206004820152604b60248201527f4d564d5f43616e6f6e6963616c5472616e73616374696f6e3a2046756e63746960448201527f6f6e2063616e206f6e6c792062652063616c6c656420627920746865204d455460648201527f49535f4d414e414745522e000000000000000000000000000000000000000000608482015260a4015b60405180910390fd5b600081116107b25760405162461bcd60e51b815260206004820152601660248201527f736c6963652073697a652073686f756c642067742030000000000000000000006044820152606401610759565b6001548114156108045760405162461bcd60e51b815260206004820152601a60248201527f736c6963652073697a6520686173206e6f74206368616e6765640000000000006044820152606401610759565b600155565b6108476040518060400160405280600d81526020017f4d455449535f4d414e4147455200000000000000000000000000000000000000815250610d84565b73ffffffffffffffffffffffffffffffffffffffff163373ffffffffffffffffffffffffffffffffffffffff161461090d5760405162461bcd60e51b815260206004820152604b60248201527f4d564d5f43616e6f6e6963616c5472616e73616374696f6e3a2046756e63746960448201527f6f6e2063616e206f6e6c792062652063616c6c656420627920746865204d455460648201527f49535f4d414e414745522e000000000000000000000000000000000000000000608482015260a401610759565b600655565b6000858152600b602090815260408083208784529091529020600101546109a15760405162461bcd60e51b815260206004820152602660248201527f7468657265206973206e6f207374616b6520666f72207468697320626174636860448201527f20696e64657800000000000000000000000000000000000000000000000000006064820152608401610759565b6000858152600b6020908152604080832087845290915281206004015460ff1660038111156109d2576109d2613e0e565b14610a1f5760405162461bcd60e51b815260206004820152601560248201527f6e6f7420616c6c6f77656420746f207375626d697400000000000000000000006044820152606401610759565b6000858152600b6020908152604080832087845290915290205473ffffffffffffffffffffffffffffffffffffffff163314610ac35760405162461bcd60e51b815260206004820152602160248201527f63616e206e6f74207375626d69742077697468206f746865722773207374616b60448201527f65000000000000000000000000000000000000000000000000000000000000006064820152608401610759565b6000858152600b602090815260408083208784529091529020600201544211610b545760405162461bcd60e51b815260206004820152603160248201527f63616e206e6f74207375626d697420647572696e672073657175656e6365722060448201527f7375626d69742070726f74656374696f6e0000000000000000000000000000006064820152608401610759565b610b6385858585856000612cd0565b8015610d7d576000858152600b6020908152604080832087845280835281842060048101805460ff191660021790553385526009845291842054938890529091526003015411610d0c576000858152600b60209081526040808320878452909152902060030154471015610c195760405162461bcd60e51b815260206004820152601460248201527f696e73756666696369656e742062616c616e63650000000000000000000000006044820152606401610759565b6000858152600b6020908152604080832087845282528083206003015433845260099092528220805491929091610c51908490613e6c565b90915550506000858152600b6020908152604080832087845290915280822060030154905133929183918381818185875af1925050503d8060008114610cb3576040519150601f19603f3d011682016040523d82523d6000602084013e610cb8565b606091505b5050905080610d095760405162461bcd60e51b815260206004820152601460248201527f696e73756666696369656e742062616c616e63650000000000000000000000006044820152606401610759565b50505b6000858152600b60209081526040808320878452825280832060030154815133815292830189905290820187905260608201526080810182905260a08101919091527f54c17ad82a3a4f3935f09729dcba25c47e5ecfc0d71e386eb6122f8e7db941909060c0015b60405180910390a15b5050505050565b600080546040517fbf40fac100000000000000000000000000000000000000000000000000000000815273ffffffffffffffffffffffffffffffffffffffff9091169063bf40fac190610ddb908590600401613d41565b60206040518083038186803b158015610df357600080fd5b505afa158015610e07573d6000803e3d6000fd5b505050506040513d601f19601f82011682018060405250810190610e2b9190613e83565b92915050565b60075460009060ff161580610e2b57505073ffffffffffffffffffffffffffffffffffffffff1660009081526008602052604090205460ff1690565b610e9d610e79866137bf565b604051602001610e899190613ea0565b604051602081830303815290604052610d84565b73ffffffffffffffffffffffffffffffffffffffff163373ffffffffffffffffffffffffffffffffffffffff1614610f3d5760405162461bcd60e51b815260206004820152602d60248201527f46756e6374696f6e2063616e206f6e6c792062652063616c6c6564206279207460448201527f68652053657175656e6365722e000000000000000000000000000000000000006064820152608401610759565b610f4c85858585856001612cd0565b8015610d7d5760408051338152602081018790529081018590526000606082015260016080820181905260a08201527f54c17ad82a3a4f3935f09729dcba25c47e5ecfc0d71e386eb6122f8e7db941909060c001610d74565b60008060035411610ff85760405162461bcd60e51b815260206004820152601e60248201527f7374616b65206261736520636f7374206e6f7420636f6e6669672079657400006044820152606401610759565b6000838152600a602090815260408083208584529091529020600201546110615760405162461bcd60e51b815260206004820152601c60248201527f626174636820656c656d656e7420646f6573206e6f74206578697374000000006044820152606401610759565b6006546000848152600a6020908152604080832086845290915290206001015461108b9190613ee1565b6003546110989190613f1e565b9392505050565b6110dd6040518060400160405280600d81526020017f4d455449535f4d414e4147455200000000000000000000000000000000000000815250610d84565b73ffffffffffffffffffffffffffffffffffffffff163373ffffffffffffffffffffffffffffffffffffffff16146111a35760405162461bcd60e51b815260206004820152604b60248201527f4d564d5f43616e6f6e6963616c5472616e73616374696f6e3a2046756e63746960448201527f6f6e2063616e206f6e6c792062652063616c6c656420627920746865204d455460648201527f49535f4d414e414745522e000000000000000000000000000000000000000000608482015260a401610759565b600081116111f35760405162461bcd60e51b815260206004820152601760248201527f736c69636520636f756e742073686f756c6420677420300000000000000000006044820152606401610759565b6004548114156112455760405162461bcd60e51b815260206004820152601b60248201527f736c69636520636f756e7420686173206e6f74206368616e67656400000000006044820152606401610759565b600455565b6112886040518060400160405280600d81526020017f4d455449535f4d414e4147455200000000000000000000000000000000000000815250610d84565b73ffffffffffffffffffffffffffffffffffffffff163373ffffffffffffffffffffffffffffffffffffffff161461134e5760405162461bcd60e51b815260206004820152604b60248201527f4d564d5f43616e6f6e6963616c5472616e73616374696f6e3a2046756e63746960448201527f6f6e2063616e206f6e6c792062652063616c6c656420627920746865204d455460648201527f49535f4d414e414745522e000000000000000000000000000000000000000000608482015260a401610759565b6000811161139e5760405162461bcd60e51b815260206004820152601660248201527f62617463682073697a652073686f756c642067742030000000000000000000006044820152606401610759565b6005548114156113f05760405162461bcd60e51b815260206004820152601a60248201527f62617463682073697a6520686173206e6f74206368616e6765640000000000006044820152606401610759565b600555565b6000828152600c60209081526040808320848452909152812060010154606091906114625760405162461bcd60e51b815260206004820152601660248201527f7478206461746120646f6573206e6f74206578697374000000000000000000006044820152606401610759565b6000848152600c60209081526040808320868452825280832060020180548251818502810185019093528083526115519492939192909184015b828210156115485783829060005260206000200180546114bb90613f36565b80601f01602080910402602001604051908101604052809291908181526020018280546114e790613f36565b80156115345780601f1061150957610100808354040283529160200191611534565b820191906000526020600020905b81548152906001019060200180831161151757829003601f168201915b50505050508152602001906001019061149c565b5050505061391c565b6000948552600c602090815260408087209587529490529290932060030154919360ff909216925050565b6115ba6040518060400160405280600d81526020017f4d455449535f4d414e4147455200000000000000000000000000000000000000815250610d84565b73ffffffffffffffffffffffffffffffffffffffff163373ffffffffffffffffffffffffffffffffffffffff16146116805760405162461bcd60e51b815260206004820152604b60248201527f4d564d5f43616e6f6e6963616c5472616e73616374696f6e3a2046756e63746960448201527f6f6e2063616e206f6e6c792062652063616c6c656420627920746865204d455460648201527f49535f4d414e414745522e000000000000000000000000000000000000000000608482015260a401610759565b73ffffffffffffffffffffffffffffffffffffffff9091166000908152600860205260409020805491151560ff19928316179055600780549091166001179055565b6117006040518060400160405280600d81526020017f4d455449535f4d414e4147455200000000000000000000000000000000000000815250610d84565b73ffffffffffffffffffffffffffffffffffffffff163373ffffffffffffffffffffffffffffffffffffffff16146117c65760405162461bcd60e51b815260206004820152604b60248201527f4d564d5f43616e6f6e6963616c5472616e73616374696f6e3a2046756e63746960448201527f6f6e2063616e206f6e6c792062652063616c6c656420627920746865204d455460648201527f49535f4d414e414745522e000000000000000000000000000000000000000000608482015260a401610759565b662386f26fc1000081101561181d5760405162461bcd60e51b815260206004820152601f60248201527f7374616b65206261736520636f73742073686f756c64206774652031653136006044820152606401610759565b600355565b60043560243560d81c60293560e890811c90602c35901c600080368161184a610e79896137bf565b73ffffffffffffffffffffffffffffffffffffffff163373ffffffffffffffffffffffffffffffffffffffff16146118ea5760405162461bcd60e51b815260206004820152602d60248201527f46756e6374696f6e2063616e206f6e6c792062652063616c6c6564206279207460448201527f68652053657175656e6365722e000000000000000000000000000000000000006064820152608401610759565b60006118f7866010613f8a565b61190290602f613fb5565b62ffffff169050808311156119a157600061191e826007613f1e565b9050600061192d83600b613f1e565b600554843560cc1c985081359750833560e01c9550909150611950600286613fdc565b111561199e5760405162461bcd60e51b815260206004820152601c60248201527f73697a65206f66207478206461746120697320746f6f206c61726765000000006044820152606401610759565b50505b60006119e16040518060400160405280601981526020017f43616e6f6e6963616c5472616e73616374696f6e436861696e00000000000000815250610d84565b905060008173ffffffffffffffffffffffffffffffffffffffff1663cfdf677e6040518163ffffffff1660e01b815260040160206040518083038186803b158015611a2b57600080fd5b505afa158015611a3f573d6000803e3d6000fd5b505050506040513d601f19601f82011682018060405250810190611a639190613e83565b6040517f576f2588000000000000000000000000000000000000000000000000000000008152600481018d905290915060009073ffffffffffffffffffffffffffffffffffffffff83169063576f25889060240160206040518083038186803b158015611acf57600080fd5b505afa158015611ae3573d6000803e3d6000fd5b505050506040513d601f19601f82011682018060405250810190611b079190614017565b90506000808473ffffffffffffffffffffffffffffffffffffffff16600036604051611b34929190614030565b6000604051808303816000865af19150503d8060008114611b71576040519150601f19603f3d011682016040523d82523d6000602084013e611b76565b606091505b50909250905081611b8e576040513d806000833e8082fd5b50506040518060a001604052808c64ffffffffff1681526020018b62ffffff16815260200186815260200189815260200188815250600a60008e8152602001908152602001600020600083815260200190815260200160002060008201518160000160006101000a81548164ffffffffff021916908364ffffffffff16021790555060208201518160000160056101000a81548162ffffff021916908362ffffff1602179055506040820151816001015560608201518160020155608082015181600301559050507f77e48e0d46be115d5fe8dd03f4dbf8eb309c5fdc8ffdcbe6f8eaa5bd6c65aed98c828d8d898d8d604051611cc89796959493929190968752602087019590955264ffffffffff93909316604086015262ffffff919091166060850152608084015260a083015260c082015260e00190565b60405180910390a1505050505050505050505050565b611cea610e79866137bf565b73ffffffffffffffffffffffffffffffffffffffff163373ffffffffffffffffffffffffffffffffffffffff1614611d8a5760405162461bcd60e51b815260206004820152602d60248201527f46756e6374696f6e2063616e206f6e6c792062652063616c6c6564206279207460448201527f68652053657175656e6365722e000000000000000000000000000000000000006064820152608401610759565b6000858152600b60209081526040808320878452909152902060010154611e195760405162461bcd60e51b815260206004820152602660248201527f7468657265206973206e6f207374616b6520666f72207468697320626174636860448201527f20696e64657800000000000000000000000000000000000000000000000000006064820152608401610759565b6000858152600b6020908152604080832087845290915281206004015460ff166003811115611e4a57611e4a613e0e565b14611e975760405162461bcd60e51b815260206004820152601560248201527f6e6f7420616c6c6f77656420746f207375626d697400000000000000000000006044820152606401610759565b6000858152600b60209081526040808320878452909152902060020154421115611f295760405162461bcd60e51b815260206004820152603160248201527f63616e206e6f74207375626d6974206f7574206f662073657175656e6365722060448201527f7375626d69742070726f74656374696f6e0000000000000000000000000000006064820152608401610759565b611f3885858585856001612cd0565b8015610d7d576000858152600b60209081526040808320878452808352818420805473ffffffffffffffffffffffffffffffffffffffff168552600984529184205493889052909152600301541115611fd35760405162461bcd60e51b815260206004820152601260248201527f696e73756666696369656e74207374616b6500000000000000000000000000006044820152606401610759565b6000858152600b6020908152604080832087845290915290206003015447101561203f5760405162461bcd60e51b815260206004820152601460248201527f696e73756666696369656e742062616c616e63650000000000000000000000006044820152606401610759565b6000858152600b60209081526040808320878452825280832060048101805460ff191660011790556003810154905473ffffffffffffffffffffffffffffffffffffffff1684526009909252822080549192909161209e908490613e6c565b90915550506000858152600b6020908152604080832087845290915280822060030154905133929183918381818185875af1925050503d8060008114612100576040519150601f19603f3d011682016040523d82523d6000602084013e612105565b606091505b50509050806121565760405162461bcd60e51b815260206004820152601460248201527f696e73756666696369656e742062616c616e63650000000000000000000000006044820152606401610759565b6000878152600b602090815260408083208984528252918290206003015482513381529182018a9052818301899052606082015260016080820181905260a082015290517f54c17ad82a3a4f3935f09729dcba25c47e5ecfc0d71e386eb6122f8e7db941909181900360c00190a150505050505050565b6121d633610e31565b6122485760405162461bcd60e51b815260206004820152602360248201527f6f6e6c792077686974656c6973746564207665726966696572732063616e206360448201527f616c6c00000000000000000000000000000000000000000000000000000000006064820152608401610759565b3460006122558484610fa5565b90506000600354116122a95760405162461bcd60e51b815260206004820152601e60248201527f7374616b65206261736520636f7374206e6f7420636f6e6669672079657400006044820152606401610759565b8181146122f85760405162461bcd60e51b815260206004820152601460248201527f7374616b6520636f737420696e636f72726563740000000000000000000000006044820152606401610759565b6000600254116123705760405162461bcd60e51b815260206004820152602760248201527f73657175656e636572207375626d6974207365636f6e6473206e6f7420636f6e60448201527f66696720796574000000000000000000000000000000000000000000000000006064820152608401610759565b6000848152600a602090815260408083208684529091529020600201546123d95760405162461bcd60e51b815260206004820152601c60248201527f626174636820656c656d656e7420646f6573206e6f74206578697374000000006044820152606401610759565b6000848152600b60209081526040808320868452909152902060010154156124a0576000848152600b6020908152604080832086845290915281206004015460ff16600381111561242c5761242c613e0e565b14156124a05760405162461bcd60e51b815260206004820152602560248201527f74686572652069732061207374616b6520666f7220746869732062617463682060448201527f696e6465780000000000000000000000000000000000000000000000000000006064820152608401610759565b6040518060a001604052803373ffffffffffffffffffffffffffffffffffffffff168152602001428152602001600254426124db9190613f1e565b815260208101849052604001600090526000858152600b60209081526040808320878452825291829020835181547fffffffffffffffffffffffff00000000000000000000000000000000000000001673ffffffffffffffffffffffffffffffffffffffff909116178155908301516001808301919091559183015160028201556060830151600380830191909155608084015160048301805493949193909260ff199091169190849081111561259457612594613e0e565b02179055505033600090815260096020526040812080548593509091906125bc908490613f1e565b90915550506040805133815260208101869052908101849052606081018390527fc8e8ecec98771fd35baf93515536f79f3f5433d9e56a429491095197efe9dbe19060800160405180910390a150505050565b61264d6040518060400160405280600d81526020017f4d455449535f4d414e4147455200000000000000000000000000000000000000815250610d84565b73ffffffffffffffffffffffffffffffffffffffff163373ffffffffffffffffffffffffffffffffffffffff16146127135760405162461bcd60e51b815260206004820152604b60248201527f4d564d5f43616e6f6e6963616c5472616e73616374696f6e3a2046756e63746960448201527f6f6e2063616e206f6e6c792062652063616c6c656420627920746865204d455460648201527f49535f4d414e414745522e000000000000000000000000000000000000000000608482015260a401610759565b6007805460ff19169055565b61275d6040518060400160405280600d81526020017f4d455449535f4d414e4147455200000000000000000000000000000000000000815250610d84565b73ffffffffffffffffffffffffffffffffffffffff163373ffffffffffffffffffffffffffffffffffffffff16146128235760405162461bcd60e51b815260206004820152604b60248201527f4d564d5f43616e6f6e6963616c5472616e73616374696f6e3a2046756e63746960448201527f6f6e2063616e206f6e6c792062652063616c6c656420627920746865204d455460648201527f49535f4d414e414745522e000000000000000000000000000000000000000000608482015260a401610759565b600081116128735760405162461bcd60e51b815260206004820152601360248201527f7365636f6e64732073686f756c642067742030000000000000000000000000006044820152606401610759565b6002548114156128c55760405162461bcd60e51b815260206004820152601760248201527f7365636f6e647320686173206e6f74206368616e6765640000000000000000006044820152606401610759565b600255565b6000828152600b602090815260408083208484529091529020600101546129595760405162461bcd60e51b815260206004820152602660248201527f7468657265206973206e6f207374616b6520666f72207468697320626174636860448201527f20696e64657800000000000000000000000000000000000000000000000000006064820152608401610759565b6000828152600b6020908152604080832084845290915281206004015460ff16600381111561298a5761298a613e0e565b146129d75760405162461bcd60e51b815260206004820152601b60248201527f7769746864726177616c7320617265206e6f7420616c6c6f77656400000000006044820152606401610759565b6000828152600b6020908152604080832084845290915290205473ffffffffffffffffffffffffffffffffffffffff163314612a555760405162461bcd60e51b815260206004820152601e60248201527f63616e206e6f74207769746864726177206f746865722773207374616b6500006044820152606401610759565b6000828152600b602090815260408083208484529091529020600201544211612ae65760405162461bcd60e51b815260206004820152602960248201527f63616e206e6f7420776974686472617720647572696e67207375626d6974207060448201527f726f74656374696f6e00000000000000000000000000000000000000000000006064820152608401610759565b33600090815260096020908152604080832054858452600b8352818420858552909252909120600301541115612b5e5760405162461bcd60e51b815260206004820152601260248201527f696e73756666696369656e74207374616b6500000000000000000000000000006044820152606401610759565b6000828152600b60209081526040808320848452909152902060030154471015612bca5760405162461bcd60e51b815260206004820152601460248201527f696e73756666696369656e742062616c616e63650000000000000000000000006044820152606401610759565b6000828152600b60209081526040808320848452825280832060048101805460ff19166003908117909155015433845260099092528220805491929091612c12908490613e6c565b90915550506000828152600b6020908152604080832084845290915280822060030154905133929183918381818185875af1925050503d8060008114612c74576040519150601f19603f3d011682016040523d82523d6000602084013e612c79565b606091505b5050905080612cca5760405162461bcd60e51b815260206004820152601460248201527f696e73756666696369656e742062616c616e63650000000000000000000000006044820152606401610759565b50505050565b600060015411612d225760405162461bcd60e51b815260206004820152601960248201527f736c6963652073697a65206e6f7420636f6e66696720796574000000000000006044820152606401610759565b6000835111612d735760405162461bcd60e51b815260206004820152600a60248201527f656d7074792064617461000000000000000000000000000000000000000000006044820152606401610759565b6000868152600a60209081526040808320888452909152902060020154612ddc5760405162461bcd60e51b815260206004820152601c60248201527f626174636820656c656d656e7420646f6573206e6f74206578697374000000006044820152606401610759565b6000868152600a60209081526040808320888452909152902060010154612e455760405162461bcd60e51b815260206004820152601d60248201527f62617463682073697a652073686f756c64206e6f74206265207a65726f0000006044820152606401610759565b6000868152600a6020908152604080832088845290915290205465010000000000900462ffffff16612edf5760405162461bcd60e51b815260206004820152603060248201527f626174636820746f74616c20656c656d656e7420746f20617070656e6420736860448201527f6f756c64206e6f74206265207a65726f000000000000000000000000000000006064820152608401610759565b60015460028451612ef09190613fdc565b1115612f3e5760405162461bcd60e51b815260206004820152601f60248201527f736c6963652073697a65206f66206461746120697320746f6f206c61726765006044820152606401610759565b6004548410612f8f5760405162461bcd60e51b815260206004820152601660248201527f736c69636520696e6465782069732067726561746572000000000000000000006044820152606401610759565b6000868152600c60209081526040808320888452909152902060020154841115612ffb5760405162461bcd60e51b815260206004820152601560248201527f696e636f727265637420736c69636520696e64657800000000000000000000006044820152606401610759565b6000868152600c6020908152604080832088845290915290206001015415613300576000868152600c6020908152604080832088845290915290205473ffffffffffffffffffffffffffffffffffffffff1633146131fc576000868152600c60209081526040808320888452909152902060010154429061307f9061070890613f1e565b116130cc5760405162461bcd60e51b815260206004820152600d60248201527f696e207375626d697474696e67000000000000000000000000000000000000006044820152606401610759565b83156131405760405162461bcd60e51b815260206004820152602260248201527f736c69636520696e6465782073686f756c642073746172742066726f6d207a6560448201527f726f0000000000000000000000000000000000000000000000000000000000006064820152608401610759565b6000868152600c6020908152604080832088845280835281842080547fffffffffffffffffffffffff00000000000000000000000000000000000000001633178155426001808301919091558351808601909452888452948a905292526131ac92600290920191613982565b506000868152600c60209081526040808320888452909152902060030180547fffffffffffffffffffffffffffffffffffffffffffffffffffffffffffff0000166101008415150217905561345d565b6000868152600c60209081526040808320888452909152902060020154841015613274576000868152600c60209081526040808320888452909152902060020180548491908690811061325157613251614040565b90600052602060002001908051906020019061326e9291906139df565b506132b1565b6000868152600c602090815260408083208884528252822060020180546001810182559083529181902085516131ac9391909101918601906139df565b6000868152600c60209081526040808320888452909152902060030180547fffffffffffffffffffffffffffffffffffffffffffffffffffffffffffff0000166101008415150217905561345d565b604080516001808252818301909252600091816020015b6060815260200190600190039081613317579050509050838160008151811061334257613342614040565b6020908102919091018101919091526040805160a0810182523381524281840190815281830185815260006060840181905288151560808501528c8152600c86528481208c8252865293909320825181547fffffffffffffffffffffffff00000000000000000000000000000000000000001673ffffffffffffffffffffffffffffffffffffffff909116178155905160018201559151805191936133ef92600285019290910190613a5f565b506060820151600390910180546080909301511515610100027fffffffffffffffffffffffffffffffffffffffffffffffffffffffffffff00ff921515929092167fffffffffffffffffffffffffffffffffffffffffffffffffffffffffffff000090931692909217179055505b8180156134675750805b156137b757604080518082018252600181527f5f000000000000000000000000000000000000000000000000000000000000006020808301919091526000898152600a8252838120898252909152918220549091906134cc9064ffffffffff166137bf565b6000898152600a602090815260408083208b8452909152812054919250906135019065010000000000900462ffffff166137bf565b60008a8152600a602090815260408083208c84529091528120600201549192509061352b906137bf565b60008b8152600c602090815260408083208d8452825280832060020180548251818502810185019093528083529495509293613614939192859084015b8282101561154857838290600052602060002001805461358790613f36565b80601f01602080910402602001604051908101604052809291908181526020018280546135b390613f36565b80156136005780601f106135d557610100808354040283529160200191613600565b820191906000526020600020905b8154815290600101906020018083116135e357829003601f168201915b505050505081526020019060010190613568565b90506000600285878689878b88604051602001613637979695949392919061406f565b604080517fffffffffffffffffffffffffffffffffffffffffffffffffffffffffffffffe08184030181529082905261366f91614101565b602060405180830381855afa15801561368c573d6000803e3d6000fd5b5050506040513d601f19601f820116820180604052508101906136af9190614017565b60008d8152600a602090815260408083208f8452909152902060030154909150811461371d5760405162461bcd60e51b815260206004820152601560248201527f7478206461746120766572696679206661696c656400000000000000000000006044820152606401610759565b815160008d8152600a602090815260408083208f8452909152902060010154146137895760405162461bcd60e51b815260206004820152601960248201527f62617463682073697a6520646f6573206e6f74206d61746368000000000000006044820152606401610759565b5050506000898152600c602090815260408083208b84529091529020600301805460ff191660011790555050505b505050505050565b6060816137ff57505060408051808201909152600181527f3000000000000000000000000000000000000000000000000000000000000000602082015290565b8160005b811561382957806138138161411d565b91506138229050600a83613fdc565b9150613803565b60008167ffffffffffffffff81111561384457613844613b34565b6040519080825280601f01601f19166020018201604052801561386e576020820181803683370190505b509050815b851561391357613884600182613e6c565b90506000613893600a88613fdc565b61389e90600a613ee1565b6138a89088613e6c565b6138b3906030614156565b905060008160f81b9050808484815181106138d0576138d0614040565b60200101907effffffffffffffffffffffffffffffffffffffffffffffffffffffffffffff1916908160001a90535061390a600a89613fdc565b97505050613873565b50949350505050565b60608060005b835181101561397b578184828151811061393e5761393e614040565b602002602001015160405160200161395792919061417b565b604051602081830303815290604052915080806139739061411d565b915050613922565b5092915050565b8280548282559060005260206000209081019282156139cf579160200282015b828111156139cf57825180516139bf9184916020909101906139df565b50916020019190600101906139a2565b506139db929150613aac565b5090565b8280546139eb90613f36565b90600052602060002090601f016020900481019282613a0d5760008555613a53565b82601f10613a2657805160ff1916838001178555613a53565b82800160010185558215613a53579182015b82811115613a53578251825591602001919060010190613a38565b506139db929150613ac9565b8280548282559060005260206000209081019282156139cf579160200282015b828111156139cf5782518051613a9c9184916020909101906139df565b5091602001919060010190613a7f565b808211156139db576000613ac08282613ade565b50600101613aac565b5b808211156139db5760008155600101613aca565b508054613aea90613f36565b6000825580601f10613afa575050565b601f016020900490600052602060002090810190613b189190613ac9565b50565b600060208284031215613b2d57600080fd5b5035919050565b7f4e487b7100000000000000000000000000000000000000000000000000000000600052604160045260246000fd5b600082601f830112613b7457600080fd5b813567ffffffffffffffff80821115613b8f57613b8f613b34565b604051601f83017fffffffffffffffffffffffffffffffffffffffffffffffffffffffffffffffe0908116603f01168101908282118183101715613bd557613bd5613b34565b81604052838152866020858801011115613bee57600080fd5b836020870160208301376000602085830101528094505050505092915050565b80358015158114613c1e57600080fd5b919050565b600080600080600060a08688031215613c3b57600080fd5b853594506020860135935060408601359250606086013567ffffffffffffffff811115613c6757600080fd5b613c7388828901613b63565b925050613c8260808701613c0e565b90509295509295909350565b600060208284031215613ca057600080fd5b813567ffffffffffffffff811115613cb757600080fd5b613cc384828501613b63565b949350505050565b60005b83811015613ce6578181015183820152602001613cce565b83811115612cca5750506000910152565b60008151808452613d0f816020860160208601613ccb565b601f017fffffffffffffffffffffffffffffffffffffffffffffffffffffffffffffffe0169290920160200192915050565b6020815260006110986020830184613cf7565b73ffffffffffffffffffffffffffffffffffffffff81168114613b1857600080fd5b600060208284031215613d8857600080fd5b813561109881613d54565b60008060408385031215613da657600080fd5b50508035926020909101359150565b604081526000613dc86040830185613cf7565b905082151560208301529392505050565b60008060408385031215613dec57600080fd5b8235613df781613d54565b9150613e0560208401613c0e565b90509250929050565b7f4e487b7100000000000000000000000000000000000000000000000000000000600052602160045260246000fd5b7f4e487b7100000000000000000000000000000000000000000000000000000000600052601160045260246000fd5b600082821015613e7e57613e7e613e3d565b500390565b600060208284031215613e9557600080fd5b815161109881613d54565b60008251613eb2818460208701613ccb565b7f5f4d564d5f53657175656e6365725f5772617070657200000000000000000000920191825250601601919050565b6000817fffffffffffffffffffffffffffffffffffffffffffffffffffffffffffffffff0483118215151615613f1957613f19613e3d565b500290565b60008219821115613f3157613f31613e3d565b500190565b600181811c90821680613f4a57607f821691505b60208210811415613f84577f4e487b7100000000000000000000000000000000000000000000000000000000600052602260045260246000fd5b50919050565b600062ffffff80831681851681830481118215151615613fac57613fac613e3d565b02949350505050565b600062ffffff808316818516808303821115613fd357613fd3613e3d565b01949350505050565b600082614012577f4e487b7100000000000000000000000000000000000000000000000000000000600052601260045260246000fd5b500490565b60006020828403121561402957600080fd5b5051919050565b8183823760009101908152919050565b7f4e487b7100000000000000000000000000000000000000000000000000000000600052603260045260246000fd5b6000885160206140828285838e01613ccb565b8951918401916140958184848e01613ccb565b89519201916140a78184848d01613ccb565b88519201916140b98184848c01613ccb565b87519201916140cb8184848b01613ccb565b86519201916140dd8184848a01613ccb565b85519201916140ef8184848901613ccb565b919091019a9950505050505050505050565b60008251614113818460208701613ccb565b9190910192915050565b60007fffffffffffffffffffffffffffffffffffffffffffffffffffffffffffffffff82141561414f5761414f613e3d565b5060010190565b600060ff821660ff84168060ff0382111561417357614173613e3d565b019392505050565b6000835161418d818460208801613ccb565b835190830190613fd3818360208801613ccb56fea2646970667358221220566f5ef588c75f55fa885cc49289b9176f518b6b7cc3d10696f382b634c8004564736f6c63430008090033",
  "devdoc": {
    "kind": "dev",
    "methods": {
      "appendSequencerBatchByChainId()": {
        "details": "This function uses a custom encoding scheme for efficiency reasons."
      },
      "getBatchTxData(uint256,uint256)": {
        "params": {
          "_batchIndex": "batch index of CTC.",
          "_chainId": "chain id."
        },
        "returns": {
          "txData": "txData",
          "verified": "verified"
        }
      },
      "getStakeSeqSeconds()": {
        "returns": {
          "_0": "Seconds the Sequencer can sumbit transaction data after verifier staking."
        }
      },
      "resolve(string)": {
        "params": {
          "_name": "Name to resolve an address for."
        },
        "returns": {
          "_0": "Address associated with the given name."
        }
      },
      "setBatchTxData(uint256,uint256,uint256,string,bool)": {
        "params": {
          "_batchIndex": "batch index of CTC.",
          "_chainId": "chain id.",
          "_data": "tx data hex.",
          "_end": "sliceIndex is the end or not.",
          "_sliceIndex": "slice index."
        }
      },
      "setBatchTxDataForStake(uint256,uint256,uint256,string,bool)": {
        "params": {
          "_batchIndex": "batch index of CTC.",
          "_chainId": "chain id.",
          "_data": "tx data hex.",
          "_end": "sliceIndex is the end or not.",
          "_sliceIndex": "slice index."
        }
      },
      "setBatchTxDataForVerifier(uint256,uint256,uint256,string,bool)": {
        "params": {
          "_batchIndex": "batch index of CTC.",
          "_chainId": "chain id.",
          "_data": "tx data hex.",
          "_end": "sliceIndex is the end or not.",
          "_sliceIndex": "slice index."
        }
      },
      "setStakeSeqSeconds(uint256)": {
        "params": {
          "_seconds": "Seconds the Sequencer can sumbit transaction data after verifier staking."
        }
      },
      "setStakeUnitCost(uint256)": {
        "params": {
          "_stakeUnitCost": "Stake cost for verifier."
        }
      },
      "setTxBatchSize(uint256)": {
        "params": {
          "_size": "Batch size of batch."
        }
      },
      "setTxDataSliceCount(uint256)": {
        "params": {
          "_count": "Slice count per batch transaction data."
        }
      },
      "setTxDataSliceSize(uint256)": {
        "params": {
          "_size": "Slice size of batch transaction data."
        }
      },
      "verifierStake(uint256,uint256)": {
        "params": {
          "_batchIndex": "batch index of CTC.",
          "_chainId": "chain id."
        }
      },
      "withdrawStake(uint256,uint256)": {
        "params": {
          "_batchIndex": "batch index of CTC.",
          "_chainId": "chain id."
        }
      }
    },
    "version": 1
  },
  "userdoc": {
    "kind": "user",
    "methods": {
      "appendSequencerBatchByChainId()": {
        "notice": "Allows the sequencer to append a batch of transactions."
      },
      "getBatchTxData(uint256,uint256)": {
        "notice": "Gets batch tx data."
      },
      "getStakeBaseCost()": {
        "notice": "Gets the verifier stake base cost of ETH."
      },
      "getStakeCostByBatch(uint256,uint256)": {
        "notice": "Gets the verifier stake cost of ETH by batch index."
      },
      "getStakeSeqSeconds()": {
        "notice": "Gets seconds can submit transaction data after staking."
      },
      "getStakeUnitCost()": {
        "notice": "Gets the verifier stake unit cost of ETH for per storage unit."
      },
      "getTxBatchSize()": {
        "notice": "Gets batch size per batch."
      },
      "getTxDataSliceCount()": {
        "notice": "Gets slice count per batch transaction data."
      },
      "getTxDataSliceSize()": {
        "notice": "Gets batch transaction data slice size per submit."
      },
      "resolve(string)": {
        "notice": "Resolves the address associated with a given name."
      },
      "setBatchTxData(uint256,uint256,uint256,string,bool)": {
        "notice": "Sets batch tx data."
      },
      "setBatchTxDataForStake(uint256,uint256,uint256,string,bool)": {
        "notice": "Sets batch tx data for stake."
      },
      "setBatchTxDataForVerifier(uint256,uint256,uint256,string,bool)": {
        "notice": "Sets batch tx data for verifier."
      },
      "setStakeBaseCost(uint256)": {
        "notice": "receive() external payable { // msg.sender if (msg.sender == resolve('MVM_DiscountOracle')) { uint256 _chainId = getAddressChainId(msg.sender); if (_chainId > 0) { address _to = resolve(string(abi.encodePacked(uint2str(_chainId),\"_MVM_Sequencer_Wrapper\"))); if (_to != address(0) && _to != address(this)) { _to.call{value: msg.value}(\"\"); } } } } function setAddressChainId(address _address, uint256 _chainId)  override public onlyManager { require(_address != address(0), \"address not available\"); require(_chainId > 0, \"chainId not available\"); require(addressChains[_address] != _chainId, \"no change\"); addressChains[_address] = _chainId; } function getAddressChainId(address _address) override public view returns (uint256) { return addressChains[_address]; }"
      },
      "setStakeSeqSeconds(uint256)": {
        "notice": "Sets seconds can submit transaction data after staking."
      },
      "setStakeUnitCost(uint256)": {
        "notice": "Sets the verifier stake unit cost of ETH."
      },
      "setTxBatchSize(uint256)": {
        "notice": "Sets batch size per batch."
      },
      "setTxDataSliceCount(uint256)": {
        "notice": "Sets slice count per batch transaction data."
      },
      "setTxDataSliceSize(uint256)": {
        "notice": "Sets batch transaction data slice size per submit."
      },
      "verifierStake(uint256,uint256)": {
        "notice": "Stake by verifier."
      },
      "withdrawStake(uint256,uint256)": {
        "notice": "Withdraw stake by verifier."
      }
    },
    "version": 1
  },
  "storageLayout": {
    "storage": [
      {
        "astId": 16126,
        "contract": "contracts/MVM/MVM_CanonicalTransaction.sol:MVM_CanonicalTransaction",
        "label": "libAddressManager",
        "offset": 0,
        "slot": "0",
        "type": "t_contract(Lib_AddressManager)16118"
      },
      {
        "astId": 10748,
        "contract": "contracts/MVM/MVM_CanonicalTransaction.sol:MVM_CanonicalTransaction",
        "label": "txDataSliceSize",
        "offset": 0,
        "slot": "1",
        "type": "t_uint256"
      },
      {
        "astId": 10750,
        "contract": "contracts/MVM/MVM_CanonicalTransaction.sol:MVM_CanonicalTransaction",
        "label": "stakeSeqSeconds",
        "offset": 0,
        "slot": "2",
        "type": "t_uint256"
      },
      {
        "astId": 10752,
        "contract": "contracts/MVM/MVM_CanonicalTransaction.sol:MVM_CanonicalTransaction",
        "label": "stakeBaseCost",
        "offset": 0,
        "slot": "3",
        "type": "t_uint256"
      },
      {
        "astId": 10754,
        "contract": "contracts/MVM/MVM_CanonicalTransaction.sol:MVM_CanonicalTransaction",
        "label": "txDataSliceCount",
        "offset": 0,
        "slot": "4",
        "type": "t_uint256"
      },
      {
        "astId": 10756,
        "contract": "contracts/MVM/MVM_CanonicalTransaction.sol:MVM_CanonicalTransaction",
        "label": "txBatchSize",
        "offset": 0,
        "slot": "5",
        "type": "t_uint256"
      },
      {
        "astId": 10758,
        "contract": "contracts/MVM/MVM_CanonicalTransaction.sol:MVM_CanonicalTransaction",
        "label": "stakeUnitCost",
        "offset": 0,
        "slot": "6",
        "type": "t_uint256"
      },
      {
        "astId": 10760,
        "contract": "contracts/MVM/MVM_CanonicalTransaction.sol:MVM_CanonicalTransaction",
        "label": "useWhiteList",
        "offset": 0,
        "slot": "7",
        "type": "t_bool"
      },
      {
        "astId": 10764,
        "contract": "contracts/MVM/MVM_CanonicalTransaction.sol:MVM_CanonicalTransaction",
        "label": "whitelist",
        "offset": 0,
        "slot": "8",
        "type": "t_mapping(t_address,t_bool)"
      },
      {
        "astId": 10768,
        "contract": "contracts/MVM/MVM_CanonicalTransaction.sol:MVM_CanonicalTransaction",
        "label": "verifierStakes",
        "offset": 0,
        "slot": "9",
        "type": "t_mapping(t_address,t_uint256)"
      },
      {
        "astId": 10775,
        "contract": "contracts/MVM/MVM_CanonicalTransaction.sol:MVM_CanonicalTransaction",
        "label": "queueBatchElement",
        "offset": 0,
        "slot": "10",
        "type": "t_mapping(t_uint256,t_mapping(t_uint256,t_struct(BatchElement)15265_storage))"
      },
      {
        "astId": 10782,
        "contract": "contracts/MVM/MVM_CanonicalTransaction.sol:MVM_CanonicalTransaction",
        "label": "queueTxDataRequestStake",
        "offset": 0,
        "slot": "11",
        "type": "t_mapping(t_uint256,t_mapping(t_uint256,t_struct(TxDataRequestStake)15254_storage))"
      },
      {
        "astId": 10789,
        "contract": "contracts/MVM/MVM_CanonicalTransaction.sol:MVM_CanonicalTransaction",
        "label": "queueTxData",
        "offset": 0,
        "slot": "12",
        "type": "t_mapping(t_uint256,t_mapping(t_uint256,t_struct(TxDataSlice)15242_storage))"
      }
    ],
    "types": {
      "t_address": {
        "encoding": "inplace",
        "label": "address",
        "numberOfBytes": "20"
      },
      "t_array(t_string_storage)dyn_storage": {
        "base": "t_string_storage",
        "encoding": "dynamic_array",
        "label": "string[]",
        "numberOfBytes": "32"
      },
      "t_bool": {
        "encoding": "inplace",
        "label": "bool",
        "numberOfBytes": "1"
      },
      "t_bytes32": {
        "encoding": "inplace",
        "label": "bytes32",
        "numberOfBytes": "32"
      },
      "t_contract(Lib_AddressManager)16118": {
        "encoding": "inplace",
        "label": "contract Lib_AddressManager",
        "numberOfBytes": "20"
      },
      "t_enum(STAKESTATUS)15190": {
        "encoding": "inplace",
        "label": "enum iMVM_CanonicalTransaction.STAKESTATUS",
        "numberOfBytes": "1"
      },
      "t_mapping(t_address,t_bool)": {
        "encoding": "mapping",
        "key": "t_address",
        "label": "mapping(address => bool)",
        "numberOfBytes": "32",
        "value": "t_bool"
      },
      "t_mapping(t_address,t_uint256)": {
        "encoding": "mapping",
        "key": "t_address",
        "label": "mapping(address => uint256)",
        "numberOfBytes": "32",
        "value": "t_uint256"
      },
      "t_mapping(t_uint256,t_mapping(t_uint256,t_struct(BatchElement)15265_storage))": {
        "encoding": "mapping",
        "key": "t_uint256",
        "label": "mapping(uint256 => mapping(uint256 => struct iMVM_CanonicalTransaction.BatchElement))",
        "numberOfBytes": "32",
        "value": "t_mapping(t_uint256,t_struct(BatchElement)15265_storage)"
      },
      "t_mapping(t_uint256,t_mapping(t_uint256,t_struct(TxDataRequestStake)15254_storage))": {
        "encoding": "mapping",
        "key": "t_uint256",
        "label": "mapping(uint256 => mapping(uint256 => struct iMVM_CanonicalTransaction.TxDataRequestStake))",
        "numberOfBytes": "32",
        "value": "t_mapping(t_uint256,t_struct(TxDataRequestStake)15254_storage)"
      },
      "t_mapping(t_uint256,t_mapping(t_uint256,t_struct(TxDataSlice)15242_storage))": {
        "encoding": "mapping",
        "key": "t_uint256",
        "label": "mapping(uint256 => mapping(uint256 => struct iMVM_CanonicalTransaction.TxDataSlice))",
        "numberOfBytes": "32",
        "value": "t_mapping(t_uint256,t_struct(TxDataSlice)15242_storage)"
      },
      "t_mapping(t_uint256,t_struct(BatchElement)15265_storage)": {
        "encoding": "mapping",
        "key": "t_uint256",
        "label": "mapping(uint256 => struct iMVM_CanonicalTransaction.BatchElement)",
        "numberOfBytes": "32",
        "value": "t_struct(BatchElement)15265_storage"
      },
      "t_mapping(t_uint256,t_struct(TxDataRequestStake)15254_storage)": {
        "encoding": "mapping",
        "key": "t_uint256",
        "label": "mapping(uint256 => struct iMVM_CanonicalTransaction.TxDataRequestStake)",
        "numberOfBytes": "32",
        "value": "t_struct(TxDataRequestStake)15254_storage"
      },
      "t_mapping(t_uint256,t_struct(TxDataSlice)15242_storage)": {
        "encoding": "mapping",
        "key": "t_uint256",
        "label": "mapping(uint256 => struct iMVM_CanonicalTransaction.TxDataSlice)",
        "numberOfBytes": "32",
        "value": "t_struct(TxDataSlice)15242_storage"
      },
      "t_string_storage": {
        "encoding": "bytes",
        "label": "string",
        "numberOfBytes": "32"
      },
      "t_struct(BatchElement)15265_storage": {
        "encoding": "inplace",
        "label": "struct iMVM_CanonicalTransaction.BatchElement",
        "members": [
          {
            "astId": 15256,
            "contract": "contracts/MVM/MVM_CanonicalTransaction.sol:MVM_CanonicalTransaction",
            "label": "shouldStartAtElement",
            "offset": 0,
            "slot": "0",
            "type": "t_uint40"
          },
          {
            "astId": 15258,
            "contract": "contracts/MVM/MVM_CanonicalTransaction.sol:MVM_CanonicalTransaction",
            "label": "totalElementsToAppend",
            "offset": 5,
            "slot": "0",
            "type": "t_uint24"
          },
          {
            "astId": 15260,
            "contract": "contracts/MVM/MVM_CanonicalTransaction.sol:MVM_CanonicalTransaction",
            "label": "txBatchSize",
            "offset": 0,
            "slot": "1",
            "type": "t_uint256"
          },
          {
            "astId": 15262,
            "contract": "contracts/MVM/MVM_CanonicalTransaction.sol:MVM_CanonicalTransaction",
            "label": "txBatchTime",
            "offset": 0,
            "slot": "2",
            "type": "t_uint256"
          },
          {
            "astId": 15264,
            "contract": "contracts/MVM/MVM_CanonicalTransaction.sol:MVM_CanonicalTransaction",
            "label": "txBatchHash",
            "offset": 0,
            "slot": "3",
            "type": "t_bytes32"
          }
        ],
        "numberOfBytes": "128"
      },
      "t_struct(TxDataRequestStake)15254_storage": {
        "encoding": "inplace",
        "label": "struct iMVM_CanonicalTransaction.TxDataRequestStake",
        "members": [
          {
            "astId": 15244,
            "contract": "contracts/MVM/MVM_CanonicalTransaction.sol:MVM_CanonicalTransaction",
            "label": "sender",
            "offset": 0,
            "slot": "0",
            "type": "t_address"
          },
          {
            "astId": 15246,
            "contract": "contracts/MVM/MVM_CanonicalTransaction.sol:MVM_CanonicalTransaction",
            "label": "timestamp",
            "offset": 0,
            "slot": "1",
            "type": "t_uint256"
          },
          {
            "astId": 15248,
            "contract": "contracts/MVM/MVM_CanonicalTransaction.sol:MVM_CanonicalTransaction",
            "label": "endtime",
            "offset": 0,
            "slot": "2",
            "type": "t_uint256"
          },
          {
            "astId": 15250,
            "contract": "contracts/MVM/MVM_CanonicalTransaction.sol:MVM_CanonicalTransaction",
            "label": "amount",
            "offset": 0,
            "slot": "3",
            "type": "t_uint256"
          },
          {
            "astId": 15253,
            "contract": "contracts/MVM/MVM_CanonicalTransaction.sol:MVM_CanonicalTransaction",
            "label": "status",
            "offset": 0,
            "slot": "4",
            "type": "t_enum(STAKESTATUS)15190"
          }
        ],
        "numberOfBytes": "160"
      },
      "t_struct(TxDataSlice)15242_storage": {
        "encoding": "inplace",
        "label": "struct iMVM_CanonicalTransaction.TxDataSlice",
        "members": [
          {
            "astId": 15232,
            "contract": "contracts/MVM/MVM_CanonicalTransaction.sol:MVM_CanonicalTransaction",
            "label": "sender",
            "offset": 0,
            "slot": "0",
            "type": "t_address"
          },
          {
            "astId": 15234,
            "contract": "contracts/MVM/MVM_CanonicalTransaction.sol:MVM_CanonicalTransaction",
            "label": "timestamp",
            "offset": 0,
            "slot": "1",
            "type": "t_uint256"
          },
          {
            "astId": 15237,
            "contract": "contracts/MVM/MVM_CanonicalTransaction.sol:MVM_CanonicalTransaction",
            "label": "txDataSlices",
            "offset": 0,
            "slot": "2",
            "type": "t_array(t_string_storage)dyn_storage"
          },
          {
            "astId": 15239,
            "contract": "contracts/MVM/MVM_CanonicalTransaction.sol:MVM_CanonicalTransaction",
            "label": "verified",
            "offset": 0,
            "slot": "3",
            "type": "t_bool"
          },
          {
            "astId": 15241,
            "contract": "contracts/MVM/MVM_CanonicalTransaction.sol:MVM_CanonicalTransaction",
            "label": "end",
            "offset": 1,
            "slot": "3",
            "type": "t_bool"
          }
        ],
        "numberOfBytes": "128"
      },
      "t_uint24": {
        "encoding": "inplace",
        "label": "uint24",
        "numberOfBytes": "3"
      },
      "t_uint256": {
        "encoding": "inplace",
        "label": "uint256",
        "numberOfBytes": "32"
      },
      "t_uint40": {
        "encoding": "inplace",
        "label": "uint40",
        "numberOfBytes": "5"
      }
    }
  }
}