{
  "address": "0x84ab5d278e4b97459999c8f72143fDA9740e4a45",
  "abi": [
    {
      "inputs": [
        {
          "internalType": "address",
          "name": "_libAddressManager",
          "type": "address"
        },
        {
          "internalType": "uint256",
          "name": "_maxTransactionGasLimit",
          "type": "uint256"
        },
        {
          "internalType": "uint256",
          "name": "_l2GasDiscountDivisor",
          "type": "uint256"
        },
        {
          "internalType": "uint256",
          "name": "_enqueueGasCost",
          "type": "uint256"
        }
      ],
      "stateMutability": "nonpayable",
      "type": "constructor"
    },
    {
      "anonymous": false,
      "inputs": [
        {
          "indexed": false,
          "internalType": "address",
          "name": "_sender",
          "type": "address"
        },
        {
          "indexed": false,
          "internalType": "uint256",
          "name": "_chainId",
          "type": "uint256"
        },
        {
          "indexed": false,
          "internalType": "uint256",
          "name": "_index",
          "type": "uint256"
        },
        {
          "indexed": false,
          "internalType": "bytes27",
          "name": "_globalMetadata",
          "type": "bytes27"
        }
      ],
      "name": "BatchElementDeleted",
      "type": "event"
    },
    {
      "anonymous": false,
      "inputs": [
        {
          "indexed": false,
          "internalType": "address",
          "name": "_sender",
          "type": "address"
        },
        {
          "indexed": false,
          "internalType": "uint256",
          "name": "_chainId",
          "type": "uint256"
        },
        {
          "indexed": false,
          "internalType": "bytes32",
          "name": "_object",
          "type": "bytes32"
        },
        {
          "indexed": false,
          "internalType": "bytes27",
          "name": "_globalMetadata",
          "type": "bytes27"
        }
      ],
      "name": "BatchPushed",
      "type": "event"
    },
    {
      "anonymous": false,
      "inputs": [
        {
          "indexed": false,
          "internalType": "address",
          "name": "_sender",
          "type": "address"
        },
        {
          "indexed": false,
          "internalType": "uint256",
          "name": "_chainId",
          "type": "uint256"
        },
        {
          "indexed": false,
          "internalType": "uint256",
          "name": "_index",
          "type": "uint256"
        },
        {
          "indexed": false,
          "internalType": "bytes32",
          "name": "_object",
          "type": "bytes32"
        }
      ],
      "name": "BatchSetted",
      "type": "event"
    },
    {
      "anonymous": false,
      "inputs": [
        {
          "indexed": false,
          "internalType": "address",
          "name": "_sender",
          "type": "address"
        },
        {
          "indexed": false,
          "internalType": "uint256",
          "name": "_chainId",
          "type": "uint256"
        },
        {
          "indexed": false,
          "internalType": "bytes27",
          "name": "_globalMetadata",
          "type": "bytes27"
        }
      ],
      "name": "BatchesGlobalMetadataSet",
      "type": "event"
    },
    {
      "anonymous": false,
      "inputs": [
        {
          "indexed": false,
          "internalType": "uint256",
          "name": "l2GasDiscountDivisor",
          "type": "uint256"
        },
        {
          "indexed": false,
          "internalType": "uint256",
          "name": "enqueueGasCost",
          "type": "uint256"
        },
        {
          "indexed": false,
          "internalType": "uint256",
          "name": "enqueueL2GasPrepaid",
          "type": "uint256"
        }
      ],
      "name": "L2GasParamsUpdated",
      "type": "event"
    },
    {
      "anonymous": false,
      "inputs": [
        {
          "indexed": false,
          "internalType": "uint256",
          "name": "_chainId",
          "type": "uint256"
        },
        {
          "indexed": false,
          "internalType": "uint256",
          "name": "_startingQueueIndex",
          "type": "uint256"
        },
        {
          "indexed": false,
          "internalType": "uint256",
          "name": "_numQueueElements",
          "type": "uint256"
        },
        {
          "indexed": false,
          "internalType": "uint256",
          "name": "_totalElements",
          "type": "uint256"
        }
      ],
      "name": "QueueBatchAppended",
      "type": "event"
    },
    {
      "anonymous": false,
      "inputs": [
        {
          "indexed": false,
          "internalType": "address",
          "name": "_sender",
          "type": "address"
        },
        {
          "indexed": false,
          "internalType": "uint256",
          "name": "_chainId",
          "type": "uint256"
        },
        {
          "indexed": false,
          "internalType": "uint256",
          "name": "_index",
          "type": "uint256"
        },
        {
          "indexed": false,
          "internalType": "bytes27",
          "name": "_globalMetadata",
          "type": "bytes27"
        }
      ],
      "name": "QueueElementDeleted",
      "type": "event"
    },
    {
      "anonymous": false,
      "inputs": [
        {
          "indexed": false,
          "internalType": "address",
          "name": "_sender",
          "type": "address"
        },
        {
          "indexed": false,
          "internalType": "uint256",
          "name": "_chainId",
          "type": "uint256"
        },
        {
          "indexed": false,
          "internalType": "bytes27",
          "name": "_globalMetadata",
          "type": "bytes27"
        }
      ],
      "name": "QueueGlobalMetadataSet",
      "type": "event"
    },
    {
      "anonymous": false,
      "inputs": [
        {
          "indexed": false,
          "internalType": "address",
          "name": "_sender",
          "type": "address"
        },
        {
          "indexed": false,
          "internalType": "uint256",
          "name": "_chainId",
          "type": "uint256"
        },
        {
          "components": [
            {
              "internalType": "bytes32",
              "name": "transactionHash",
              "type": "bytes32"
            },
            {
              "internalType": "uint40",
              "name": "timestamp",
              "type": "uint40"
            },
            {
              "internalType": "uint40",
              "name": "blockNumber",
              "type": "uint40"
            }
          ],
          "indexed": false,
          "internalType": "struct Lib_OVMCodec.QueueElement",
          "name": "_object",
          "type": "tuple"
        }
      ],
      "name": "QueuePushed",
      "type": "event"
    },
    {
      "anonymous": false,
      "inputs": [
        {
          "indexed": false,
          "internalType": "address",
          "name": "_sender",
          "type": "address"
        },
        {
          "indexed": false,
          "internalType": "uint256",
          "name": "_chainId",
          "type": "uint256"
        },
        {
          "indexed": false,
          "internalType": "uint256",
          "name": "_index",
          "type": "uint256"
        },
        {
          "components": [
            {
              "internalType": "bytes32",
              "name": "transactionHash",
              "type": "bytes32"
            },
            {
              "internalType": "uint40",
              "name": "timestamp",
              "type": "uint40"
            },
            {
              "internalType": "uint40",
              "name": "blockNumber",
              "type": "uint40"
            }
          ],
          "indexed": false,
          "internalType": "struct Lib_OVMCodec.QueueElement",
          "name": "_object",
          "type": "tuple"
        }
      ],
      "name": "QueueSetted",
      "type": "event"
    },
    {
      "anonymous": false,
      "inputs": [
        {
          "indexed": false,
          "internalType": "uint256",
          "name": "_chainId",
          "type": "uint256"
        },
        {
          "indexed": false,
          "internalType": "uint256",
          "name": "_startingQueueIndex",
          "type": "uint256"
        },
        {
          "indexed": false,
          "internalType": "uint256",
          "name": "_numQueueElements",
          "type": "uint256"
        },
        {
          "indexed": false,
          "internalType": "uint256",
          "name": "_totalElements",
          "type": "uint256"
        }
      ],
      "name": "SequencerBatchAppended",
      "type": "event"
    },
    {
      "anonymous": false,
      "inputs": [
        {
          "indexed": false,
          "internalType": "uint256",
          "name": "_chainId",
          "type": "uint256"
        },
        {
          "indexed": true,
          "internalType": "uint256",
          "name": "_batchIndex",
          "type": "uint256"
        },
        {
          "indexed": false,
          "internalType": "bytes32",
          "name": "_batchRoot",
          "type": "bytes32"
        },
        {
          "indexed": false,
          "internalType": "uint256",
          "name": "_batchSize",
          "type": "uint256"
        },
        {
          "indexed": false,
          "internalType": "uint256",
          "name": "_prevTotalElements",
          "type": "uint256"
        },
        {
          "indexed": false,
          "internalType": "bytes",
          "name": "_extraData",
          "type": "bytes"
        }
      ],
      "name": "TransactionBatchAppended",
      "type": "event"
    },
    {
      "anonymous": false,
      "inputs": [
        {
          "indexed": false,
          "internalType": "uint256",
          "name": "_chainId",
          "type": "uint256"
        },
        {
          "indexed": true,
          "internalType": "address",
          "name": "_l1TxOrigin",
          "type": "address"
        },
        {
          "indexed": true,
          "internalType": "address",
          "name": "_target",
          "type": "address"
        },
        {
          "indexed": false,
          "internalType": "uint256",
          "name": "_gasLimit",
          "type": "uint256"
        },
        {
          "indexed": false,
          "internalType": "bytes",
          "name": "_data",
          "type": "bytes"
        },
        {
          "indexed": true,
          "internalType": "uint256",
          "name": "_queueIndex",
          "type": "uint256"
        },
        {
          "indexed": false,
          "internalType": "uint256",
          "name": "_timestamp",
          "type": "uint256"
        }
      ],
      "name": "TransactionEnqueued",
      "type": "event"
    },
    {
      "inputs": [],
      "name": "DEFAULT_CHAINID",
      "outputs": [
        {
          "internalType": "uint256",
          "name": "",
          "type": "uint256"
        }
      ],
      "stateMutability": "view",
      "type": "function"
    },
    {
      "inputs": [],
      "name": "MAX_ROLLUP_TX_SIZE",
      "outputs": [
        {
          "internalType": "uint256",
          "name": "",
          "type": "uint256"
        }
      ],
      "stateMutability": "view",
      "type": "function"
    },
    {
      "inputs": [],
      "name": "MIN_ROLLUP_TX_GAS",
      "outputs": [
        {
          "internalType": "uint256",
          "name": "",
          "type": "uint256"
        }
      ],
      "stateMutability": "view",
      "type": "function"
    },
    {
      "inputs": [],
      "name": "appendSequencerBatch",
      "outputs": [],
      "stateMutability": "nonpayable",
      "type": "function"
    },
    {
      "inputs": [],
      "name": "appendSequencerBatchByChainId",
      "outputs": [],
      "stateMutability": "nonpayable",
      "type": "function"
    },
    {
      "inputs": [],
      "name": "batches",
      "outputs": [
        {
          "internalType": "contract IChainStorageContainer",
          "name": "",
          "type": "address"
        }
      ],
      "stateMutability": "view",
      "type": "function"
    },
    {
      "inputs": [
        {
          "internalType": "uint256",
          "name": "_chainId",
          "type": "uint256"
        },
        {
          "internalType": "uint256",
          "name": "_index",
          "type": "uint256"
        },
        {
          "internalType": "bytes27",
          "name": "_globalMetadata",
          "type": "bytes27"
        }
      ],
      "name": "deleteBatchElementsAfterInclusiveByChainId",
      "outputs": [],
      "stateMutability": "nonpayable",
      "type": "function"
    },
    {
      "inputs": [
        {
          "internalType": "address",
          "name": "_target",
          "type": "address"
        },
        {
          "internalType": "uint256",
          "name": "_gasLimit",
          "type": "uint256"
        },
        {
          "internalType": "bytes",
          "name": "_data",
          "type": "bytes"
        }
      ],
      "name": "enqueue",
      "outputs": [],
      "stateMutability": "nonpayable",
      "type": "function"
    },
    {
      "inputs": [
        {
          "internalType": "uint256",
          "name": "_chainId",
          "type": "uint256"
        },
        {
          "internalType": "address",
          "name": "_target",
          "type": "address"
        },
        {
          "internalType": "uint256",
          "name": "_gasLimit",
          "type": "uint256"
        },
        {
          "internalType": "bytes",
          "name": "_data",
          "type": "bytes"
        }
      ],
      "name": "enqueueByChainId",
      "outputs": [],
      "stateMutability": "nonpayable",
      "type": "function"
    },
    {
      "inputs": [],
      "name": "enqueueGasCost",
      "outputs": [
        {
          "internalType": "uint256",
          "name": "",
          "type": "uint256"
        }
      ],
      "stateMutability": "view",
      "type": "function"
    },
    {
      "inputs": [],
      "name": "enqueueL2GasPrepaid",
      "outputs": [
        {
          "internalType": "uint256",
          "name": "",
          "type": "uint256"
        }
      ],
      "stateMutability": "view",
      "type": "function"
    },
    {
      "inputs": [
        {
          "internalType": "uint256",
          "name": "_chainId",
          "type": "uint256"
        },
        {
          "internalType": "uint256",
          "name": "_index",
          "type": "uint256"
        }
      ],
      "name": "getBatchByChainId",
      "outputs": [
        {
          "internalType": "bytes32",
          "name": "",
          "type": "bytes32"
        }
      ],
      "stateMutability": "view",
      "type": "function"
    },
    {
      "inputs": [
        {
          "internalType": "uint256",
          "name": "_chainId",
          "type": "uint256"
        }
      ],
      "name": "getBatchGlobalMetadataByChainId",
      "outputs": [
        {
          "internalType": "bytes27",
          "name": "",
          "type": "bytes27"
        }
      ],
      "stateMutability": "view",
      "type": "function"
    },
    {
      "inputs": [],
      "name": "getLastBlockNumber",
      "outputs": [
        {
          "internalType": "uint40",
          "name": "",
          "type": "uint40"
        }
      ],
      "stateMutability": "view",
      "type": "function"
    },
    {
      "inputs": [
        {
          "internalType": "uint256",
          "name": "_chainId",
          "type": "uint256"
        }
      ],
      "name": "getLastBlockNumberByChainId",
      "outputs": [
        {
          "internalType": "uint40",
          "name": "",
          "type": "uint40"
        }
      ],
      "stateMutability": "view",
      "type": "function"
    },
    {
      "inputs": [],
      "name": "getLastTimestamp",
      "outputs": [
        {
          "internalType": "uint40",
          "name": "",
          "type": "uint40"
        }
      ],
      "stateMutability": "view",
      "type": "function"
    },
    {
      "inputs": [
        {
          "internalType": "uint256",
          "name": "_chainId",
          "type": "uint256"
        }
      ],
      "name": "getLastTimestampByChainId",
      "outputs": [
        {
          "internalType": "uint40",
          "name": "",
          "type": "uint40"
        }
      ],
      "stateMutability": "view",
      "type": "function"
    },
    {
      "inputs": [],
      "name": "getNextQueueIndex",
      "outputs": [
        {
          "internalType": "uint40",
          "name": "",
          "type": "uint40"
        }
      ],
      "stateMutability": "view",
      "type": "function"
    },
    {
      "inputs": [
        {
          "internalType": "uint256",
          "name": "_chainId",
          "type": "uint256"
        }
      ],
      "name": "getNextQueueIndexByChainId",
      "outputs": [
        {
          "internalType": "uint40",
          "name": "",
          "type": "uint40"
        }
      ],
      "stateMutability": "view",
      "type": "function"
    },
    {
      "inputs": [],
      "name": "getNumPendingQueueElements",
      "outputs": [
        {
          "internalType": "uint40",
          "name": "",
          "type": "uint40"
        }
      ],
      "stateMutability": "view",
      "type": "function"
    },
    {
      "inputs": [
        {
          "internalType": "uint256",
          "name": "_chainId",
          "type": "uint256"
        }
      ],
      "name": "getNumPendingQueueElementsByChainId",
      "outputs": [
        {
          "internalType": "uint40",
          "name": "",
          "type": "uint40"
        }
      ],
      "stateMutability": "view",
      "type": "function"
    },
    {
      "inputs": [
        {
          "internalType": "uint256",
          "name": "_index",
          "type": "uint256"
        }
      ],
      "name": "getQueueElement",
      "outputs": [
        {
          "components": [
            {
              "internalType": "bytes32",
              "name": "transactionHash",
              "type": "bytes32"
            },
            {
              "internalType": "uint40",
              "name": "timestamp",
              "type": "uint40"
            },
            {
              "internalType": "uint40",
              "name": "blockNumber",
              "type": "uint40"
            }
          ],
          "internalType": "struct Lib_OVMCodec.QueueElement",
          "name": "_element",
          "type": "tuple"
        }
      ],
      "stateMutability": "view",
      "type": "function"
    },
    {
      "inputs": [
        {
          "internalType": "uint256",
          "name": "_chainId",
          "type": "uint256"
        },
        {
          "internalType": "uint256",
          "name": "_index",
          "type": "uint256"
        }
      ],
      "name": "getQueueElementByChainId",
      "outputs": [
        {
          "components": [
            {
              "internalType": "bytes32",
              "name": "transactionHash",
              "type": "bytes32"
            },
            {
              "internalType": "uint40",
              "name": "timestamp",
              "type": "uint40"
            },
            {
              "internalType": "uint40",
              "name": "blockNumber",
              "type": "uint40"
            }
          ],
          "internalType": "struct Lib_OVMCodec.QueueElement",
          "name": "_element",
          "type": "tuple"
        }
      ],
      "stateMutability": "view",
      "type": "function"
    },
    {
      "inputs": [],
      "name": "getQueueLength",
      "outputs": [
        {
          "internalType": "uint40",
          "name": "",
          "type": "uint40"
        }
      ],
      "stateMutability": "view",
      "type": "function"
    },
    {
      "inputs": [
        {
          "internalType": "uint256",
          "name": "_chainId",
          "type": "uint256"
        }
      ],
      "name": "getQueueLengthByChainId",
      "outputs": [
        {
          "internalType": "uint40",
          "name": "",
          "type": "uint40"
        }
      ],
      "stateMutability": "view",
      "type": "function"
    },
    {
      "inputs": [],
      "name": "getTotalBatches",
      "outputs": [
        {
          "internalType": "uint256",
          "name": "_totalBatches",
          "type": "uint256"
        }
      ],
      "stateMutability": "view",
      "type": "function"
    },
    {
      "inputs": [
        {
          "internalType": "uint256",
          "name": "_chainId",
          "type": "uint256"
        }
      ],
      "name": "getTotalBatchesByChainId",
      "outputs": [
        {
          "internalType": "uint256",
          "name": "_totalBatches",
          "type": "uint256"
        }
      ],
      "stateMutability": "view",
      "type": "function"
    },
    {
      "inputs": [],
      "name": "getTotalElements",
      "outputs": [
        {
          "internalType": "uint256",
          "name": "_totalElements",
          "type": "uint256"
        }
      ],
      "stateMutability": "view",
      "type": "function"
    },
    {
      "inputs": [
        {
          "internalType": "uint256",
          "name": "_chainId",
          "type": "uint256"
        }
      ],
      "name": "getTotalElementsByChainId",
      "outputs": [
        {
          "internalType": "uint256",
          "name": "_totalElements",
          "type": "uint256"
        }
      ],
      "stateMutability": "view",
      "type": "function"
    },
    {
      "inputs": [],
      "name": "l2GasDiscountDivisor",
      "outputs": [
        {
          "internalType": "uint256",
          "name": "",
          "type": "uint256"
        }
      ],
      "stateMutability": "view",
      "type": "function"
    },
    {
      "inputs": [
        {
          "internalType": "uint256",
          "name": "_chainId",
          "type": "uint256"
        }
      ],
      "name": "lengthBatchByChainId",
      "outputs": [
        {
          "internalType": "uint256",
          "name": "",
          "type": "uint256"
        }
      ],
      "stateMutability": "view",
      "type": "function"
    },
    {
      "inputs": [],
      "name": "libAddressManager",
      "outputs": [
        {
          "internalType": "contract Lib_AddressManager",
          "name": "",
          "type": "address"
        }
      ],
      "stateMutability": "view",
      "type": "function"
    },
    {
      "inputs": [],
      "name": "maxTransactionGasLimit",
      "outputs": [
        {
          "internalType": "uint256",
          "name": "",
          "type": "uint256"
        }
      ],
      "stateMutability": "view",
      "type": "function"
    },
    {
      "inputs": [
        {
          "internalType": "uint256",
          "name": "_chainId",
          "type": "uint256"
        },
        {
          "internalType": "bytes32",
          "name": "_object",
          "type": "bytes32"
        },
        {
          "internalType": "bytes27",
          "name": "_globalMetadata",
          "type": "bytes27"
        }
      ],
      "name": "pushBatchByChainId",
      "outputs": [],
      "stateMutability": "nonpayable",
      "type": "function"
    },
    {
      "inputs": [
        {
          "internalType": "uint256",
          "name": "_chainId",
          "type": "uint256"
        },
        {
          "components": [
            {
              "internalType": "bytes32",
              "name": "transactionHash",
              "type": "bytes32"
            },
            {
              "internalType": "uint40",
              "name": "timestamp",
              "type": "uint40"
            },
            {
              "internalType": "uint40",
              "name": "blockNumber",
              "type": "uint40"
            }
          ],
          "internalType": "struct Lib_OVMCodec.QueueElement",
          "name": "_object",
          "type": "tuple"
        }
      ],
      "name": "pushQueueByChainId",
      "outputs": [],
      "stateMutability": "nonpayable",
      "type": "function"
    },
    {
      "inputs": [
        {
          "internalType": "string",
          "name": "_name",
          "type": "string"
        }
      ],
      "name": "resolve",
      "outputs": [
        {
          "internalType": "address",
          "name": "",
          "type": "address"
        }
      ],
      "stateMutability": "view",
      "type": "function"
    },
    {
      "inputs": [
        {
          "internalType": "uint256",
          "name": "_chainId",
          "type": "uint256"
        },
        {
          "internalType": "uint256",
          "name": "_index",
          "type": "uint256"
        },
        {
          "internalType": "bytes32",
          "name": "_object",
          "type": "bytes32"
        }
      ],
      "name": "setBatchByChainId",
      "outputs": [],
      "stateMutability": "nonpayable",
      "type": "function"
    },
    {
      "inputs": [
        {
          "internalType": "uint256",
          "name": "_chainId",
          "type": "uint256"
        },
        {
          "internalType": "bytes27",
          "name": "_globalMetadata",
          "type": "bytes27"
        }
      ],
      "name": "setBatchGlobalMetadataByChainId",
      "outputs": [],
      "stateMutability": "nonpayable",
      "type": "function"
    },
    {
      "inputs": [
        {
          "internalType": "uint256",
          "name": "_l2GasDiscountDivisor",
          "type": "uint256"
        },
        {
          "internalType": "uint256",
          "name": "_enqueueGasCost",
          "type": "uint256"
        }
      ],
      "name": "setGasParams",
      "outputs": [],
      "stateMutability": "nonpayable",
      "type": "function"
    },
    {
      "inputs": [
        {
          "internalType": "uint256",
          "name": "_chainId",
          "type": "uint256"
        },
        {
          "internalType": "uint256",
          "name": "_index",
          "type": "uint256"
        },
        {
          "components": [
            {
              "internalType": "bytes32",
              "name": "transactionHash",
              "type": "bytes32"
            },
            {
              "internalType": "uint40",
              "name": "timestamp",
              "type": "uint40"
            },
            {
              "internalType": "uint40",
              "name": "blockNumber",
              "type": "uint40"
            }
          ],
          "internalType": "struct Lib_OVMCodec.QueueElement",
          "name": "_object",
          "type": "tuple"
        }
      ],
      "name": "setQueueByChainId",
      "outputs": [],
      "stateMutability": "nonpayable",
      "type": "function"
    }
  ],
  "transactionHash": "0x1cca1e6e023d672f631c691199fa3901c52b138fa2004ca18490a499dfe77973",
  "args": [
    "0xedb04e0988B6f372AeB575e3e539E3867bd59789",
    1100000000,
    0,
    60000
  ],
  "solcInputHash": "66a048491e7e94b0d9cf9f741a129084",
  "bytecode": "0x60806040523480156200001157600080fd5b506040516200395038038062003950833981016040819052620000349162000078565b600080546001600160a01b0319166001600160a01b0386161790556004839055600282905560018190556200006a8183620000c5565b60035550620000f392505050565b600080600080608085870312156200008f57600080fd5b84516001600160a01b0381168114620000a757600080fd5b60208601516040870151606090970151919890975090945092505050565b6000816000190483118215151615620000ee57634e487b7160e01b600052601160045260246000fd5b500290565b61384d80620001036000396000f3fe608060405234801561001057600080fd5b50600436106102c85760003560e01c80637a209b931161017b578063b4be51ae116100d8578063db2977221161008c578063e654b1fb11610071578063e654b1fb146105e8578063edcc4a45146105f1578063f722b41a1461060457600080fd5b8063db297722146105cd578063e561dddc146105e057600080fd5b8063ccf987c8116100bd578063ccf987c8146105b4578063cfdf677e146105bd578063d0f89344146105c557600080fd5b8063b4be51ae1461056f578063b8f770051461058257600080fd5b80638d38c6c11161012f578063a14420ee11610114578063a14420ee14610541578063a16d359a14610554578063a8cda37b1461056757600080fd5b80638d38c6c1146105255780639156f18a1461052e57600080fd5b8063876ed5cb11610160578063876ed5cb146105095780638a52e622146105125780638c7de742146103e357600080fd5b80637a209b93146104d75780637aa63a861461050157600080fd5b8063461a4478116102295780635bbbb7ed116101dd5780636fee07e0116101c25780636fee07e01461048157806378f4b2f2146104945780637a167a8a1461049e57600080fd5b80635bbbb7ed1461046557806363d5dbd11461046e57600080fd5b80634f5da7c61161020e5780634f5da7c614610437578063511da5311461044a5780635ae6256d1461045d57600080fd5b8063461a4478146104115780634a0eddab1461042457600080fd5b8063299ca478116102805780632de6a708116102655780632de6a708146103e357806337899770146103f657806343be0a84146103fe57600080fd5b8063299ca4781461035a5780632a7f18be1461039f57600080fd5b806319625535116102b157806319625535146102fe5780632538f3a81461031157806325412c841461034757600080fd5b80630545ba77146102cd5780630b3dfa97146102e2575b600080fd5b6102e06102db366004612f4d565b61060c565b005b6102eb60035481565b6040519081526020015b60405180910390f35b6102e061030c366004612f4d565b6107e6565b61033161031f366004612f86565b60009081526006602052604090205490565b60405164ffffffffff90911681526020016102f5565b6102eb610355366004612f9f565b6109b2565b60005461037a9073ffffffffffffffffffffffffffffffffffffffff1681565b60405173ffffffffffffffffffffffffffffffffffffffff90911681526020016102f5565b6103b26103ad366004612f86565b610a6a565b604080518251815260208084015164ffffffffff9081169183019190915292820151909216908201526060016102f5565b6102eb6103f1366004612f86565b610b13565b610331610bad565b61033161040c366004612f86565b610bc1565b61037a61041f366004613084565b610bec565b610331610432366004612f86565b610c93565b6102e06104453660046130e5565b610ca9565b6102e061045836600461315d565b610dfe565b610331611289565b6102eb61044081565b6102e061047c3660046131c0565b61129d565b6102e061048f3660046131ec565b61145b565b6102eb620186a081565b61044060005260056020527f0dc7af05b69860904321737f972990978ada95ccab9945c9e4152a2706ab58865464ffffffffff16610331565b6104ea6104e5366004612f86565b61146e565b60405164ffffffffff1990911681526020016102f5565b6102eb611502565b6102eb61c35081565b6102eb610520366004612f86565b61151d565b6102eb60045481565b61033161053c366004612f86565b61153a565b6102e061054f366004613245565b611550565b6103b2610562366004612f9f565b611719565b6102e06117a6565b6102e061057d366004613275565b611d6b565b61044060005260066020527ff2fadc8f281df3b2e312450efbc7e5145e4214fc70e639a3a1b10148ef5697af54610331565b6102eb60025481565b61037a611ead565b6102e0611ed5565b6103316105db366004612f86565b612426565b6102eb61243d565b6102eb60015481565b6102e06105ff366004612f9f565b6124c4565b61033161263a565b61064a6040518060400160405280601081526020017f4d564d5f53757065724d616e6167657200000000000000000000000000000000815250610bec565b73ffffffffffffffffffffffffffffffffffffffff163373ffffffffffffffffffffffffffffffffffffffff16146106f1576040805162461bcd60e51b81526020600482015260248101919091527f436861696e53746f72616765436f6e7461696e65723a2046756e6374696f6e2060448201527f63616e206f6e6c792062652063616c6c656420627920746865206f776e65722e60648201526084015b60405180910390fd5b6106f9611ead565b6040517fbc052576000000000000000000000000000000000000000000000000000000008152600481018590526024810184905264ffffffffff198316604482015273ffffffffffffffffffffffffffffffffffffffff919091169063bc05257690606401600060405180830381600087803b15801561077857600080fd5b505af115801561078c573d6000803e3d6000fd5b5050604080513381526020810187905290810185905264ffffffffff19841660608201527fe3b4c53eef322c0bb4aba4dae151a0cd9c381d45db311cbe6ffe8a47806bca9a925060800190505b60405180910390a1505050565b6108246040518060400160405280601081526020017f4d564d5f53757065724d616e6167657200000000000000000000000000000000815250610bec565b73ffffffffffffffffffffffffffffffffffffffff163373ffffffffffffffffffffffffffffffffffffffff16146108c6576040805162461bcd60e51b81526020600482015260248101919091527f436861696e53746f72616765436f6e7461696e65723a2046756e6374696f6e2060448201527f63616e206f6e6c792062652063616c6c656420627920746865206f776e65722e60648201526084016106e8565b6108ce611ead565b6040517fe6e436c0000000000000000000000000000000000000000000000000000000008152600481018590526024810184905264ffffffffff198316604482015273ffffffffffffffffffffffffffffffffffffffff919091169063e6e436c090606401600060405180830381600087803b15801561094d57600080fd5b505af1158015610961573d6000803e3d6000fd5b5050604080513381526020810187905290810185905264ffffffffff19841660608201527fdaa76f618a31042f0705fdcf560ac258420fd56e1202be8a1d3faa236d530e89925060800190506107d9565b60006109bc611ead565b6040517f67d18b9b000000000000000000000000000000000000000000000000000000008152600481018590526024810184905273ffffffffffffffffffffffffffffffffffffffff91909116906367d18b9b9060440160206040518083038186803b158015610a2b57600080fd5b505afa158015610a3f573d6000803e3d6000fd5b505050506040513d601f19601f82011682018060405250810190610a6391906132a2565b9392505050565b604080516060810182526000808252602082018190529181019190915261044060005260066020527ff2fadc8f281df3b2e312450efbc7e5145e4214fc70e639a3a1b10148ef5697af805483908110610ac557610ac56132bb565b6000918252602091829020604080516060810182526002909302909101805483526001015464ffffffffff808216948401949094526501000000000090049092169181019190915292915050565b6000610b1d611ead565b73ffffffffffffffffffffffffffffffffffffffff1663576f2588836040518263ffffffff1660e01b8152600401610b5791815260200190565b60206040518083038186803b158015610b6f57600080fd5b505afa158015610b83573d6000803e3d6000fd5b505050506040513d601f19601f82011682018060405250810190610ba791906132a2565b92915050565b600080610bb861269c565b50949350505050565b6000818152600560209081526040808320546006909252822054610ba79164ffffffffff1690613319565b600080546040517fbf40fac100000000000000000000000000000000000000000000000000000000815273ffffffffffffffffffffffffffffffffffffffff9091169063bf40fac190610c439085906004016133b9565b60206040518083038186803b158015610c5b57600080fd5b505afa158015610c6f573d6000803e3d6000fd5b505050506040513d601f19601f82011682018060405250810190610ba791906133cc565b600080610c9f83612757565b9695505050505050565b610ce76040518060400160405280601081526020017f4d564d5f53757065724d616e6167657200000000000000000000000000000000815250610bec565b73ffffffffffffffffffffffffffffffffffffffff163373ffffffffffffffffffffffffffffffffffffffff1614610d89576040805162461bcd60e51b81526020600482015260248101919091527f436861696e53746f72616765436f6e7461696e65723a2046756e6374696f6e2060448201527f63616e206f6e6c792062652063616c6c656420627920746865206f776e65722e60648201526084016106e8565b6000838152600660205260409020805482919084908110610dac57610dac6132bb565b90600052602060002090600202018181610dc691906133fc565b9050507f5a3965b29b524ca11ad9115cbeff6477733f21383a7d5220aa3bd535ea116eb6338484846040516107d994939291906134b6565b610e1f6040518060600160405280602181526020016137d660219139610bec565b73ffffffffffffffffffffffffffffffffffffffff163373ffffffffffffffffffffffffffffffffffffffff1614610ebf5760405162461bcd60e51b815260206004820152602b60248201527f6f6e6c79207468652063726f737320646f6d61696e206d657373656e6765722060448201527f63616e20656e717565756500000000000000000000000000000000000000000060648201526084016106e8565b61c35081511115610f385760405162461bcd60e51b815260206004820152603d60248201527f5472616e73616374696f6e20646174612073697a652065786365656473206d6160448201527f78696d756d20666f7220726f6c6c7570207472616e73616374696f6e2e00000060648201526084016106e8565b600454821115610fb05760405162461bcd60e51b815260206004820152603d60248201527f5472616e73616374696f6e20676173206c696d69742065786365656473206d6160448201527f78696d756d20666f7220726f6c6c7570207472616e73616374696f6e2e00000060648201526084016106e8565b620186a08210156110295760405162461bcd60e51b815260206004820152602960248201527f5472616e73616374696f6e20676173206c696d697420746f6f206c6f7720746f60448201527f20656e71756575652e000000000000000000000000000000000000000000000060648201526084016106e8565b6003548211156110f75760006002546003548461104691906134ee565b6110509190613505565b905060005a90508181116110cc5760405162461bcd60e51b815260206004820152602b60248201527f496e73756666696369656e742067617320666f72204c322072617465206c696d60448201527f6974696e67206275726e2e00000000000000000000000000000000000000000060648201526084016106e8565b60005b825a6110db90846134ee565b10156110f357806110eb81613540565b9150506110cf565b5050505b600033321415611108575033611121565b5033731111000000000000000000000000000000001111015b60008185858560405160200161113a9493929190613579565b604080517fffffffffffffffffffffffffffffffffffffffffffffffffffffffffffffffe0818403018152828252805160209182012060008a8152600680845284822060608701865283875264ffffffffff4281168887019081524382169789019788528254600181810185558487528887209a516002909202909a01908155905190890180549851831665010000000000027fffffffffffffffffffffffffffffffffffffffffffff000000000000000000009099169190921617969096179095558b8252909252915491935091611212916134ee565b9050808673ffffffffffffffffffffffffffffffffffffffff168473ffffffffffffffffffffffffffffffffffffffff167f6afbb2eaf0241302d1ab6244dff35383c745f31ee1f878e9052d510baeb425068a89894260405161127894939291906135b8565b60405180910390a450505050505050565b60008061129461269c565b95945050505050565b6112db6040518060400160405280601081526020017f4d564d5f53757065724d616e6167657200000000000000000000000000000000815250610bec565b73ffffffffffffffffffffffffffffffffffffffff163373ffffffffffffffffffffffffffffffffffffffff161461137d576040805162461bcd60e51b81526020600482015260248101919091527f436861696e53746f72616765436f6e7461696e65723a2046756e6374696f6e2060448201527f63616e206f6e6c792062652063616c6c656420627920746865206f776e65722e60648201526084016106e8565b611385611ead565b6040517f4cd4d76900000000000000000000000000000000000000000000000000000000815260048101859052602481018490526044810183905273ffffffffffffffffffffffffffffffffffffffff9190911690634cd4d76990606401600060405180830381600087803b1580156113fd57600080fd5b505af1158015611411573d6000803e3d6000fd5b50506040805133815260208101879052908101859052606081018490527fd7503502091a493b0a762f4ddf6bb0854a3b7b9e3955f186226d2fabc94bf7a1925060800190506107d9565b611469610440848484610dfe565b505050565b6000611478611ead565b73ffffffffffffffffffffffffffffffffffffffff166324a49415836040518263ffffffff1660e01b81526004016114b291815260200190565b60206040518083038186803b1580156114ca57600080fd5b505afa1580156114de573d6000803e3d6000fd5b505050506040513d601f19601f82011682018060405250810190610ba791906135e8565b60008061150d61269c565b50505064ffffffffff1692915050565b60008061152983612757565b50505064ffffffffff169392505050565b60008061154683612757565b5095945050505050565b61158e6040518060400160405280601081526020017f4d564d5f53757065724d616e6167657200000000000000000000000000000000815250610bec565b73ffffffffffffffffffffffffffffffffffffffff163373ffffffffffffffffffffffffffffffffffffffff1614611630576040805162461bcd60e51b81526020600482015260248101919091527f436861696e53746f72616765436f6e7461696e65723a2046756e6374696f6e2060448201527f63616e206f6e6c792062652063616c6c656420627920746865206f776e65722e60648201526084016106e8565b611638611ead565b6040517f24d722440000000000000000000000000000000000000000000000000000000081526004810184905264ffffffffff198316602482015273ffffffffffffffffffffffffffffffffffffffff91909116906324d7224490604401600060405180830381600087803b1580156116b057600080fd5b505af11580156116c4573d6000803e3d6000fd5b5050604080513381526020810186905264ffffffffff198516918101919091527fdbc6a2a2ec9c0d9fd8fe896da2050bcea6b51cbc50d6108ec57ba994144cc21a925060600190505b60405180910390a15050565b60408051606081018252600080825260208201819052918101919091526000838152600660205260409020805483908110611756576117566132bb565b6000918252602091829020604080516060810182526002909302909101805483526001015464ffffffffff8082169484019490945265010000000000900490921691810191909152905092915050565b60043560243560d81c60293560e890811c90602c35901c6117c68461151d565b8364ffffffffff16146118415760405162461bcd60e51b815260206004820152603d60248201527f41637475616c20626174636820737461727420696e64657820646f6573206e6f60448201527f74206d6174636820657870656374656420737461727420696e6465782e00000060648201526084016106e8565b61187161184d85612820565b60405160200161185d9190613605565b604051602081830303815290604052610bec565b73ffffffffffffffffffffffffffffffffffffffff163373ffffffffffffffffffffffffffffffffffffffff16146119115760405162461bcd60e51b815260206004820152602d60248201527f46756e6374696f6e2063616e206f6e6c792062652063616c6c6564206279207460448201527f68652053657175656e6365722e0000000000000000000000000000000000000060648201526084016106e8565b60008162ffffff161161198c5760405162461bcd60e51b815260206004820152602860248201527f4d7573742070726f76696465206174206c65617374206f6e652062617463682060448201527f636f6e746578742e00000000000000000000000000000000000000000000000060648201526084016106e8565b60008262ffffff1611611a075760405162461bcd60e51b815260206004820152602160248201527f4d75737420617070656e64206174206c65617374206f6e6520656c656d656e7460448201527f2e0000000000000000000000000000000000000000000000000000000000000060648201526084016106e8565b6000611a1962ffffff83166010613646565b611a2490600f613683565b905064ffffffffff8116361015611aa35760405162461bcd60e51b815260206004820152602260248201527f4e6f7420656e6f756768204261746368436f6e74657874732070726f7669646560448201527f642e00000000000000000000000000000000000000000000000000000000000060648201526084016106e8565b60008581526005602090815260408083205481516080810183528481529283018490529082018390526060820183905264ffffffffff16919060005b8562ffffff168163ffffffff161015611b3f576000611b0560008363ffffffff16612974565b8051909350839150611b17908561369b565b9350826020015185611b2991906136c3565b9450508080611b37906136e3565b915050611adf565b5060008881526006602052604090205464ffffffffff84161115611bf15760405162461bcd60e51b815260206004820152604260248201527f417474656d7074656420746f20617070656e64206d6f726520656c656d656e7460448201527f73207468616e2061726520617661696c61626c6520696e20746865207175657560648201527f652e000000000000000000000000000000000000000000000000000000000000608482015260a4016106e8565b6000611c028362ffffff8916613707565b63ffffffff169050600080836020015160001415611c2b57505060408201516060830151611ca6565b60008b8152600660205260408120611c44600189613319565b64ffffffffff1681548110611c5b57611c5b6132bb565b6000918252602091829020604080516060810182526002909302909101805483526001015464ffffffffff808216948401859052650100000000009091041691018190529093509150505b611ccb8b611cb56001436134ee565b408b62ffffff168664ffffffffff168686612a11565b7f178ecbc4b986ebf7ea68a0a7ae593212f963053458fda23484ad60e95dde758d8b611cf78589613319565b85611d018f61151d565b604051611d2f949392919093845264ffffffffff928316602085015291166040830152606082015260800190565b60405180910390a15050506000978852505060056020526040909520805464ffffffffff191664ffffffffff9096169590951790945550505050565b611da96040518060400160405280601081526020017f4d564d5f53757065724d616e6167657200000000000000000000000000000000815250610bec565b73ffffffffffffffffffffffffffffffffffffffff163373ffffffffffffffffffffffffffffffffffffffff1614611e4b576040805162461bcd60e51b81526020600482015260248101919091527f436861696e53746f72616765436f6e7461696e65723a2046756e6374696f6e2060448201527f63616e206f6e6c792062652063616c6c656420627920746865206f776e65722e60648201526084016106e8565b6000828152600660209081526040822080546001810182559083529120829160020201611e7882826133fc565b50507f56afa4f6505f4a309504be105b887cb40789cdeea8e108f671d00e2ae07f3dcd33838360405161170d93929190613724565b6000611ed06040518060600160405280602181526020016137f760219139610bec565b905090565b60043560d81c60093560e890811c90600c35901c611ef1611502565b8364ffffffffff1614611f6c5760405162461bcd60e51b815260206004820152603d60248201527f41637475616c20626174636820737461727420696e64657820646f6573206e6f60448201527f74206d6174636820657870656374656420737461727420696e6465782e00000060648201526084016106e8565b611faa6040518060400160405280600d81526020017f4d564d5f53657175656e63657200000000000000000000000000000000000000815250610bec565b73ffffffffffffffffffffffffffffffffffffffff163373ffffffffffffffffffffffffffffffffffffffff161461204a5760405162461bcd60e51b815260206004820152602d60248201527f46756e6374696f6e2063616e206f6e6c792062652063616c6c6564206279207460448201527f68652053657175656e6365722e0000000000000000000000000000000000000060648201526084016106e8565b600061205c62ffffff83166010613646565b61206790600f613683565b905064ffffffffff81163610156120e65760405162461bcd60e51b815260206004820152602260248201527f4e6f7420656e6f756768204261746368436f6e74657874732070726f7669646560448201527f642e00000000000000000000000000000000000000000000000000000000000060648201526084016106e8565b6104406000908152600560209081527f0dc7af05b69860904321737f972990978ada95ccab9945c9e4152a2706ab5886546040805160808101825284815292830184905282018390526060820183905264ffffffffff169060005b8562ffffff168163ffffffff16101561219f5760006121658263ffffffff16612c3b565b8051909350839150612177908661369b565b945082602001518461218991906136c3565b9350508080612197906136e3565b915050612141565b5061044060005260066020527ff2fadc8f281df3b2e312450efbc7e5145e4214fc70e639a3a1b10148ef5697af5464ffffffffff8316111561226f5760405162461bcd60e51b815260206004820152604260248201527f417474656d7074656420746f20617070656e64206d6f726520656c656d656e7460448201527f73207468616e2061726520617661696c61626c6520696e20746865207175657560648201527f652e000000000000000000000000000000000000000000000000000000000000608482015260a4016106e8565b60006122808462ffffff8916613707565b63ffffffff1690506000808360200151600014156122a957505060408201516060830151612344565b610440600090815260066020527ff2fadc8f281df3b2e312450efbc7e5145e4214fc70e639a3a1b10148ef5697af6122e2600188613319565b64ffffffffff16815481106122f9576122f96132bb565b6000918252602091829020604080516060810182526002909302909101805483526001015464ffffffffff808216948401859052650100000000009091041691018190529093509150505b6123686123526001436134ee565b408a62ffffff168564ffffffffff168585612cc2565b7f178ecbc4b986ebf7ea68a0a7ae593212f963053458fda23484ad60e95dde758d6104406123968588613319565b8561239f611502565b6040516123cd949392919093845264ffffffffff928316602085015291166040830152606082015260800190565b60405180910390a15050610440600052505060056020527f0dc7af05b69860904321737f972990978ada95ccab9945c9e4152a2706ab5886805464ffffffffff191664ffffffffff929092169190911790555050505050565b60008061243283612757565b509095945050505050565b6000612447611ead565b73ffffffffffffffffffffffffffffffffffffffff16631f7b6d326040518163ffffffff1660e01b815260040160206040518083038186803b15801561248c57600080fd5b505afa1580156124a0573d6000803e3d6000fd5b505050506040513d601f19601f82011682018060405250810190611ed091906132a2565b60008054906101000a900473ffffffffffffffffffffffffffffffffffffffff1673ffffffffffffffffffffffffffffffffffffffff16638da5cb5b6040518163ffffffff1660e01b815260040160206040518083038186803b15801561252a57600080fd5b505afa15801561253e573d6000803e3d6000fd5b505050506040513d601f19601f8201168201806040525081019061256291906133cc565b73ffffffffffffffffffffffffffffffffffffffff163373ffffffffffffffffffffffffffffffffffffffff16146125dc5760405162461bcd60e51b815260206004820181905260248201527f4f6e6c792063616c6c61626c6520627920746865204275726e2041646d696e2e60448201526064016106e8565b600181905560028290556125f08183613646565b60038190556002546001546040805192835260208301919091528101919091527fc6ed75e96b8b18b71edc1a6e82a9d677f8268c774a262c624eeb2cf0a8b3e07e9060600161170d565b61044060009081527f0dc7af05b69860904321737f972990978ada95ccab9945c9e4152a2706ab58865460066020527ff2fadc8f281df3b2e312450efbc7e5145e4214fc70e639a3a1b10148ef5697af54611ed09164ffffffffff1690613319565b60008060008060006126ac611ead565b73ffffffffffffffffffffffffffffffffffffffff1663ccf8f9696040518163ffffffff1660e01b815260040160206040518083038186803b1580156126f157600080fd5b505afa158015612705573d6000803e3d6000fd5b505050506040513d601f19601f8201168201806040525081019061272991906135e8565b64ffffffffff602882901c811697605083901c82169750607883901c8216965060a09290921c169350915050565b6000806000806000612767611ead565b73ffffffffffffffffffffffffffffffffffffffff166324a49415876040518263ffffffff1660e01b81526004016127a191815260200190565b60206040518083038186803b1580156127b957600080fd5b505afa1580156127cd573d6000803e3d6000fd5b505050506040513d601f19601f820116820180604052508101906127f191906135e8565b64ffffffffff602882901c811698605083901c82169850607883901c8216975060a09290921c16945092505050565b60608161286057505060408051808201909152600181527f3000000000000000000000000000000000000000000000000000000000000000602082015290565b8160005b811561288a578061287481613540565b91506128839050600a83613505565b9150612864565b60008167ffffffffffffffff8111156128a5576128a5612fc1565b6040519080825280601f01601f1916602001820160405280156128cf576020820181803683370190505b509050815b8515610bb8576128e56001826134ee565b905060006128f4600a88613505565b6128ff90600a613646565b61290990886134ee565b612914906030613755565b905060008160f81b905080848481518110612931576129316132bb565b60200101907effffffffffffffffffffffffffffffffffffffffffffffffffffffffffffff1916908160001a90535061296b600a89613505565b975050506128d4565b61299f6040518060800160405280600081526020016000815260200160008152602001600081525090565b60006129ac601084613646565b6129b7856020613683565b6129c290600f613683565b6129cc9190613683565b60408051608081018252823560e890811c82526003840135901c6020820152600683013560d890811c92820192909252600b90920135901c6060820152949350505050565b6000612a1b611ead565b9050600080612a2989612757565b50506040805160a08101918290527f576f25880000000000000000000000000000000000000000000000000000000090915260a481018c905291935091506000908073ffffffffffffffffffffffffffffffffffffffff861663576f258860c4830160206040518083038186803b158015612aa357600080fd5b505afa158015612ab7573d6000803e3d6000fd5b505050506040513d601f19601f82011682018060405250810190612adb91906132a2565b81526020018a81526020018981526020018464ffffffffff16815260200160405180602001604052806000815250815250905080600001517fc4c3b7c157dc7d495c3ed62df83a8b8d6bdf6724d0cc0150228eba4976c4e3318b8360200151846040015185606001518660800151604051612b5a95949392919061377a565b60405180910390a26000612b6d82612ec4565b90506000612b95836040015186612b8491906136c3565b612b8e8b876136c3565b8a8a612f0a565b6040517fe6e436c0000000000000000000000000000000000000000000000000000000008152600481018e90526024810184905264ffffffffff198216604482015290915073ffffffffffffffffffffffffffffffffffffffff87169063e6e436c090606401600060405180830381600087803b158015612c1557600080fd5b505af1158015612c29573d6000803e3d6000fd5b50505050505050505050505050505050565b612c666040518060800160405280600081526020016000815260200160008152602001600081525090565b6000612c73601084613646565b612c7e90600f613683565b60408051608081018252823560e890811c82526003840135901c6020820152600683013560d890811c92820192909252600b90920135901c60608201529392505050565b6000612ccc611ead565b9050600080612cd961269c565b50509150915060006040518060a001604052808573ffffffffffffffffffffffffffffffffffffffff16631f7b6d326040518163ffffffff1660e01b815260040160206040518083038186803b158015612d3257600080fd5b505afa158015612d46573d6000803e3d6000fd5b505050506040513d601f19601f82011682018060405250810190612d6a91906132a2565b81526020018a81526020018981526020018464ffffffffff16815260200160405180602001604052806000815250815250905080600001517fc4c3b7c157dc7d495c3ed62df83a8b8d6bdf6724d0cc0150228eba4976c4e3316104408360200151846040015185606001518660800151604051612deb95949392919061377a565b60405180910390a26000612dfe82612ec4565b90506000612e26836040015186612e1591906136c3565b612e1f8b876136c3565b8a8a612f28565b6040517f2015276c0000000000000000000000000000000000000000000000000000000081526004810184905264ffffffffff198216602482015290915073ffffffffffffffffffffffffffffffffffffffff871690632015276c90604401600060405180830381600087803b158015612e9f57600080fd5b505af1158015612eb3573d6000803e3d6000fd5b505050505050505050505050505050565b60008160200151826040015183606001518460800151604051602001612eed94939291906137b0565b604051602081830303815290604052805190602001209050919050565b602883811b8517605084901b17607883901b17901b5b949350505050565b600061129485858585612f0a565b64ffffffffff1981168114612f4a57600080fd5b50565b600080600060608486031215612f6257600080fd5b83359250602084013591506040840135612f7b81612f36565b809150509250925092565b600060208284031215612f9857600080fd5b5035919050565b60008060408385031215612fb257600080fd5b50508035926020909101359150565b7f4e487b7100000000000000000000000000000000000000000000000000000000600052604160045260246000fd5b600067ffffffffffffffff8084111561300b5761300b612fc1565b604051601f85017fffffffffffffffffffffffffffffffffffffffffffffffffffffffffffffffe0908116603f0116810190828211818310171561305157613051612fc1565b8160405280935085815286868601111561306a57600080fd5b858560208301376000602087830101525050509392505050565b60006020828403121561309657600080fd5b813567ffffffffffffffff8111156130ad57600080fd5b8201601f810184136130be57600080fd5b612f2084823560208401612ff0565b6000606082840312156130df57600080fd5b50919050565b600080600060a084860312156130fa57600080fd5b833592506020840135915061311285604086016130cd565b90509250925092565b73ffffffffffffffffffffffffffffffffffffffff81168114612f4a57600080fd5b600082601f83011261314e57600080fd5b610a6383833560208501612ff0565b6000806000806080858703121561317357600080fd5b8435935060208501356131858161311b565b925060408501359150606085013567ffffffffffffffff8111156131a857600080fd5b6131b48782880161313d565b91505092959194509250565b6000806000606084860312156131d557600080fd5b505081359360208301359350604090920135919050565b60008060006060848603121561320157600080fd5b833561320c8161311b565b925060208401359150604084013567ffffffffffffffff81111561322f57600080fd5b61323b8682870161313d565b9150509250925092565b6000806040838503121561325857600080fd5b82359150602083013561326a81612f36565b809150509250929050565b6000806080838503121561328857600080fd5b8235915061329984602085016130cd565b90509250929050565b6000602082840312156132b457600080fd5b5051919050565b7f4e487b7100000000000000000000000000000000000000000000000000000000600052603260045260246000fd5b7f4e487b7100000000000000000000000000000000000000000000000000000000600052601160045260246000fd5b600064ffffffffff83811690831681811015613337576133376132ea565b039392505050565b60005b8381101561335a578181015183820152602001613342565b83811115613369576000848401525b50505050565b6000815180845261338781602086016020860161333f565b601f017fffffffffffffffffffffffffffffffffffffffffffffffffffffffffffffffe0169290920160200192915050565b602081526000610a63602083018461336f565b6000602082840312156133de57600080fd5b8151610a638161311b565b64ffffffffff81168114612f4a57600080fd5b81358155600181016020830135613412816133e9565b64ffffffffff8116905081548164ffffffffff1982161783556040850135613439816133e9565b69ffffffffff00000000008160281b16837fffffffffffffffffffffffffffffffffffffffffffff00000000000000000000841617178455505050505050565b80358252602081013561348b816133e9565b64ffffffffff90811660208401526040820135906134a8826133e9565b808216604085015250505050565b73ffffffffffffffffffffffffffffffffffffffff85168152602081018490526040810183905260c081016112946060830184613479565b600082821015613500576135006132ea565b500390565b60008261353b577f4e487b7100000000000000000000000000000000000000000000000000000000600052601260045260246000fd5b500490565b60007fffffffffffffffffffffffffffffffffffffffffffffffffffffffffffffffff821415613572576135726132ea565b5060010190565b600073ffffffffffffffffffffffffffffffffffffffff808716835280861660208401525083604083015260806060830152610c9f608083018461336f565b8481528360208201526080604082015260006135d7608083018561336f565b905082606083015295945050505050565b6000602082840312156135fa57600080fd5b8151610a6381612f36565b6000825161361781846020870161333f565b7f5f4d564d5f53657175656e636572000000000000000000000000000000000000920191825250600e01919050565b6000817fffffffffffffffffffffffffffffffffffffffffffffffffffffffffffffffff048311821515161561367e5761367e6132ea565b500290565b60008219821115613696576136966132ea565b500190565b600063ffffffff8083168185168083038211156136ba576136ba6132ea565b01949350505050565b600064ffffffffff8083168185168083038211156136ba576136ba6132ea565b600063ffffffff808316818114156136fd576136fd6132ea565b6001019392505050565b600063ffffffff83811690831681811015613337576133376132ea565b73ffffffffffffffffffffffffffffffffffffffff841681526020810183905260a08101612f206040830184613479565b600060ff821660ff84168060ff03821115613772576137726132ea565b019392505050565b85815284602082015283604082015282606082015260a0608082015260006137a560a083018461336f565b979650505050505050565b848152836020820152826040820152608060608201526000610c9f608083018461336f56fe50726f78795f5f4f564d5f4c3143726f7373446f6d61696e4d657373656e676572436861696e53746f72616765436f6e7461696e65722d4354432d62617463686573a2646970667358221220d7ffe0e4fad77974b1a144ae50613c239a16a5518b8a4ae4f0f6f1eb30cdaf9264736f6c63430008090033",
  "devdoc": {
    "details": "The Canonical Transaction Chain (CTC) contract is an append-only log of transactions which must be applied to the rollup state. It defines the ordering of rollup transactions by writing them to the 'CTC:batches' instance of the Chain Storage Container. The CTC only allows Proxy__OVM_L1CrossDomainMessenger address to 'enqueue' an L2 transaction, which will require that the Sequencer will eventually append it to the rollup state. The manager can add, delete and update the transactions data, update queue data,  when a fraud proof accepted in challege. Runtime target: EVM",
    "kind": "dev",
    "methods": {
      "appendSequencerBatch()": {
        "details": "This function uses a custom encoding scheme for efficiency reasons. .param _shouldStartAtElement Specific batch we expect to start appending to. .param _totalElementsToAppend Total number of batch elements we expect to append. .param _contexts Array of batch contexts. .param _transactionDataFields Array of raw transaction data."
      },
      "appendSequencerBatchByChainId()": {
        "details": "This function uses a custom encoding scheme for efficiency reasons. .param _shouldStartAtElement Specific batch we expect to start appending to. .param _totalElementsToAppend Total number of batch elements we expect to append. .param _contexts Array of batch contexts. .param _transactionDataFields Array of raw transaction data."
      },
      "batches()": {
        "returns": {
          "_0": "Reference to the batch storage container."
        }
      },
      "enqueue(address,uint256,bytes)": {
        "params": {
          "_data": "Transaction data.",
          "_gasLimit": "Gas limit for the enqueued L2 transaction.",
          "_target": "Target L2 contract to send the transaction to."
        }
      },
      "enqueueByChainId(uint256,address,uint256,bytes)": {
        "params": {
          "_data": "Transaction data.",
          "_gasLimit": "Gas limit for the enqueued L2 transaction.",
          "_target": "Target L2 contract to send the transaction to."
        }
      },
      "getLastBlockNumber()": {
        "returns": {
          "_0": "Blocknumber for the last transaction."
        }
      },
      "getLastBlockNumberByChainId(uint256)": {
        "returns": {
          "_0": "Blocknumber for the last transaction."
        }
      },
      "getLastTimestamp()": {
        "returns": {
          "_0": "Timestamp for the last transaction."
        }
      },
      "getLastTimestampByChainId(uint256)": {
        "returns": {
          "_0": "Timestamp for the last transaction."
        }
      },
      "getNextQueueIndex()": {
        "returns": {
          "_0": "Index for the next queue element."
        }
      },
      "getNextQueueIndexByChainId(uint256)": {
        "returns": {
          "_0": "Index for the next queue element."
        }
      },
      "getNumPendingQueueElements()": {
        "returns": {
          "_0": "Number of pending queue elements."
        }
      },
      "getNumPendingQueueElementsByChainId(uint256)": {
        "returns": {
          "_0": "Number of pending queue elements."
        }
      },
      "getQueueElement(uint256)": {
        "params": {
          "_index": "Index of the queue element to access."
        },
        "returns": {
          "_element": "Queue element at the given index."
        }
      },
      "getQueueElementByChainId(uint256,uint256)": {
        "params": {
          "_index": "Index of the queue element to access."
        },
        "returns": {
          "_element": "Queue element at the given index."
        }
      },
      "getQueueLength()": {
        "returns": {
          "_0": "Length of the queue."
        }
      },
      "getQueueLengthByChainId(uint256)": {
        "returns": {
          "_0": "Length of the queue."
        }
      },
      "getTotalBatches()": {
        "returns": {
          "_totalBatches": "Total submitted batches."
        }
      },
      "getTotalBatchesByChainId(uint256)": {
        "returns": {
          "_totalBatches": "Total submitted batches."
        }
      },
      "getTotalElements()": {
        "returns": {
          "_totalElements": "Total submitted elements."
        }
      },
      "getTotalElementsByChainId(uint256)": {
        "returns": {
          "_totalElements": "Total submitted elements."
        }
      },
      "resolve(string)": {
        "params": {
          "_name": "Name to resolve an address for."
        },
        "returns": {
          "_0": "Address associated with the given name."
        }
      }
    },
    "title": "CanonicalTransactionChain",
    "version": 1
  },
  "userdoc": {
    "kind": "user",
    "methods": {
      "appendSequencerBatch()": {
        "notice": "Allows the sequencer to append a batch of transactions."
      },
      "appendSequencerBatchByChainId()": {
        "notice": "Allows the sequencer to append a batch of transactions."
      },
      "batches()": {
        "notice": "Accesses the batch storage container."
      },
      "enqueue(address,uint256,bytes)": {
        "notice": "Adds a transaction to the queue."
      },
      "enqueueByChainId(uint256,address,uint256,bytes)": {
        "notice": "Adds a transaction to the queue."
      },
      "getLastBlockNumber()": {
        "notice": "Returns the blocknumber of the last transaction."
      },
      "getLastBlockNumberByChainId(uint256)": {
        "notice": "Returns the blocknumber of the last transaction."
      },
      "getLastTimestamp()": {
        "notice": "Returns the timestamp of the last transaction."
      },
      "getLastTimestampByChainId(uint256)": {
        "notice": "Returns the timestamp of the last transaction."
      },
      "getNextQueueIndex()": {
        "notice": "Returns the index of the next element to be enqueued."
      },
      "getNextQueueIndexByChainId(uint256)": {
        "notice": "Returns the index of the next element to be enqueued."
      },
      "getNumPendingQueueElements()": {
        "notice": "Get the number of queue elements which have not yet been included."
      },
      "getNumPendingQueueElementsByChainId(uint256)": {
        "notice": "Get the number of queue elements which have not yet been included."
      },
      "getQueueElement(uint256)": {
        "notice": "Gets the queue element at a particular index."
      },
      "getQueueElementByChainId(uint256,uint256)": {
        "notice": "Gets the queue element at a particular index."
      },
      "getQueueLength()": {
        "notice": "Retrieves the length of the queue, including both pending and canonical transactions."
      },
      "getQueueLengthByChainId(uint256)": {
        "notice": "Retrieves the length of the queue, including both pending and canonical transactions."
      },
      "getTotalBatches()": {
        "notice": "Retrieves the total number of batches submitted."
      },
      "getTotalBatchesByChainId(uint256)": {
        "notice": "Retrieves the total number of batches submitted."
      },
      "getTotalElements()": {
        "notice": "Retrieves the total number of elements submitted."
      },
      "getTotalElementsByChainId(uint256)": {
        "notice": "Retrieves the total number of elements submitted."
      },
      "resolve(string)": {
        "notice": "Resolves the address associated with a given name."
      },
      "setGasParams(uint256,uint256)": {
        "notice": "Allows the Burn Admin to update the parameters which determine the amount of gas to burn. The value of enqueueL2GasPrepaid is immediately updated as well."
      }
    },
    "version": 1
  },
  "storageLayout": {
    "storage": [
      {
        "astId": 15492,
        "contract": "contracts/L1/rollup/CanonicalTransactionChain.sol:CanonicalTransactionChain",
        "label": "libAddressManager",
        "offset": 0,
        "slot": "0",
        "type": "t_contract(Lib_AddressManager)15484"
      },
      {
        "astId": 4881,
        "contract": "contracts/L1/rollup/CanonicalTransactionChain.sol:CanonicalTransactionChain",
        "label": "enqueueGasCost",
        "offset": 0,
        "slot": "1",
        "type": "t_uint256"
      },
      {
        "astId": 4883,
        "contract": "contracts/L1/rollup/CanonicalTransactionChain.sol:CanonicalTransactionChain",
        "label": "l2GasDiscountDivisor",
        "offset": 0,
        "slot": "2",
        "type": "t_uint256"
      },
      {
        "astId": 4885,
        "contract": "contracts/L1/rollup/CanonicalTransactionChain.sol:CanonicalTransactionChain",
        "label": "enqueueL2GasPrepaid",
        "offset": 0,
        "slot": "3",
        "type": "t_uint256"
      },
      {
        "astId": 4896,
        "contract": "contracts/L1/rollup/CanonicalTransactionChain.sol:CanonicalTransactionChain",
        "label": "maxTransactionGasLimit",
        "offset": 0,
        "slot": "4",
        "type": "t_uint256"
      },
      {
        "astId": 4900,
        "contract": "contracts/L1/rollup/CanonicalTransactionChain.sol:CanonicalTransactionChain",
        "label": "_nextQueueIndex",
        "offset": 0,
        "slot": "5",
        "type": "t_mapping(t_uint256,t_uint40)"
      },
      {
        "astId": 4906,
        "contract": "contracts/L1/rollup/CanonicalTransactionChain.sol:CanonicalTransactionChain",
        "label": "queueElements",
        "offset": 0,
        "slot": "6",
        "type": "t_mapping(t_uint256,t_array(t_struct(QueueElement)15225_storage)dyn_storage)"
      }
    ],
    "types": {
      "t_array(t_struct(QueueElement)15225_storage)dyn_storage": {
        "base": "t_struct(QueueElement)15225_storage",
        "encoding": "dynamic_array",
        "label": "struct Lib_OVMCodec.QueueElement[]",
        "numberOfBytes": "32"
      },
      "t_bytes32": {
        "encoding": "inplace",
        "label": "bytes32",
        "numberOfBytes": "32"
      },
      "t_contract(Lib_AddressManager)15484": {
        "encoding": "inplace",
        "label": "contract Lib_AddressManager",
        "numberOfBytes": "20"
      },
      "t_mapping(t_uint256,t_array(t_struct(QueueElement)15225_storage)dyn_storage)": {
        "encoding": "mapping",
        "key": "t_uint256",
        "label": "mapping(uint256 => struct Lib_OVMCodec.QueueElement[])",
        "numberOfBytes": "32",
        "value": "t_array(t_struct(QueueElement)15225_storage)dyn_storage"
      },
      "t_mapping(t_uint256,t_uint40)": {
        "encoding": "mapping",
        "key": "t_uint256",
        "label": "mapping(uint256 => uint40)",
        "numberOfBytes": "32",
        "value": "t_uint40"
      },
      "t_struct(QueueElement)15225_storage": {
        "encoding": "inplace",
        "label": "struct Lib_OVMCodec.QueueElement",
        "members": [
          {
            "astId": 15220,
            "contract": "contracts/L1/rollup/CanonicalTransactionChain.sol:CanonicalTransactionChain",
            "label": "transactionHash",
            "offset": 0,
            "slot": "0",
            "type": "t_bytes32"
          },
          {
            "astId": 15222,
            "contract": "contracts/L1/rollup/CanonicalTransactionChain.sol:CanonicalTransactionChain",
            "label": "timestamp",
            "offset": 0,
            "slot": "1",
            "type": "t_uint40"
          },
          {
            "astId": 15224,
            "contract": "contracts/L1/rollup/CanonicalTransactionChain.sol:CanonicalTransactionChain",
            "label": "blockNumber",
            "offset": 5,
            "slot": "1",
            "type": "t_uint40"
          }
        ],
        "numberOfBytes": "64"
      },
      "t_uint256": {
        "encoding": "inplace",
        "label": "uint256",
        "numberOfBytes": "32"
      },
      "t_uint40": {
        "encoding": "inplace",
        "label": "uint40",
        "numberOfBytes": "5"
      }
    }
  }
}