{
  "address": "0x0F9D3aE102195F494c623E25076D778C21e47956",
  "abi": [
    {
      "inputs": [
        {
          "internalType": "address",
          "name": "_libAddressManager",
          "type": "address"
        },
        {
          "internalType": "uint256",
          "name": "_fraudProofWindow",
          "type": "uint256"
        },
        {
          "internalType": "uint256",
          "name": "_sequencerPublishWindow",
          "type": "uint256"
        }
      ],
      "stateMutability": "nonpayable",
      "type": "constructor"
    },
    {
      "anonymous": false,
      "inputs": [
        {
          "indexed": false,
          "internalType": "uint256",
          "name": "_chainId",
          "type": "uint256"
        },
        {
          "indexed": true,
          "internalType": "uint256",
          "name": "_batchIndex",
          "type": "uint256"
        },
        {
          "indexed": false,
          "internalType": "bytes32",
          "name": "_batchRoot",
          "type": "bytes32"
        },
        {
          "indexed": false,
          "internalType": "uint256",
          "name": "_batchSize",
          "type": "uint256"
        },
        {
          "indexed": false,
          "internalType": "uint256",
          "name": "_prevTotalElements",
          "type": "uint256"
        },
        {
          "indexed": false,
          "internalType": "bytes",
          "name": "_extraData",
          "type": "bytes"
        }
      ],
      "name": "StateBatchAppended",
      "type": "event"
    },
    {
      "anonymous": false,
      "inputs": [
        {
          "indexed": false,
          "internalType": "uint256",
          "name": "_chainId",
          "type": "uint256"
        },
        {
          "indexed": true,
          "internalType": "uint256",
          "name": "_batchIndex",
          "type": "uint256"
        },
        {
          "indexed": false,
          "internalType": "bytes32",
          "name": "_batchRoot",
          "type": "bytes32"
        }
      ],
      "name": "StateBatchDeleted",
      "type": "event"
    },
    {
      "inputs": [],
      "name": "DEFAULT_CHAINID",
      "outputs": [
        {
          "internalType": "uint256",
          "name": "",
          "type": "uint256"
        }
      ],
      "stateMutability": "view",
      "type": "function"
    },
    {
      "inputs": [],
      "name": "FRAUD_PROOF_WINDOW",
      "outputs": [
        {
          "internalType": "uint256",
          "name": "",
          "type": "uint256"
        }
      ],
      "stateMutability": "view",
      "type": "function"
    },
    {
      "inputs": [],
      "name": "SEQUENCER_PUBLISH_WINDOW",
      "outputs": [
        {
          "internalType": "uint256",
          "name": "",
          "type": "uint256"
        }
      ],
      "stateMutability": "view",
      "type": "function"
    },
    {
      "inputs": [
        {
          "internalType": "bytes32[]",
          "name": "_batch",
          "type": "bytes32[]"
        },
        {
          "internalType": "uint256",
          "name": "_shouldStartAtElement",
          "type": "uint256"
        }
      ],
      "name": "appendStateBatch",
      "outputs": [],
      "stateMutability": "nonpayable",
      "type": "function"
    },
    {
      "inputs": [
        {
          "internalType": "uint256",
          "name": "_chainId",
          "type": "uint256"
        },
        {
          "internalType": "bytes32[]",
          "name": "_batch",
          "type": "bytes32[]"
        },
        {
          "internalType": "uint256",
          "name": "_shouldStartAtElement",
          "type": "uint256"
        },
        {
          "internalType": "string",
          "name": "proposer",
          "type": "string"
        }
      ],
      "name": "appendStateBatchByChainId",
      "outputs": [],
      "stateMutability": "nonpayable",
      "type": "function"
    },
    {
      "inputs": [],
      "name": "batches",
      "outputs": [
        {
          "internalType": "contract IChainStorageContainer",
          "name": "",
          "type": "address"
        }
      ],
      "stateMutability": "view",
      "type": "function"
    },
    {
      "inputs": [
        {
          "components": [
            {
              "internalType": "uint256",
              "name": "batchIndex",
              "type": "uint256"
            },
            {
              "internalType": "bytes32",
              "name": "batchRoot",
              "type": "bytes32"
            },
            {
              "internalType": "uint256",
              "name": "batchSize",
              "type": "uint256"
            },
            {
              "internalType": "uint256",
              "name": "prevTotalElements",
              "type": "uint256"
            },
            {
              "internalType": "bytes",
              "name": "extraData",
              "type": "bytes"
            }
          ],
          "internalType": "struct Lib_OVMCodec.ChainBatchHeader",
          "name": "_batchHeader",
          "type": "tuple"
        }
      ],
      "name": "deleteStateBatch",
      "outputs": [],
      "stateMutability": "nonpayable",
      "type": "function"
    },
    {
      "inputs": [
        {
          "internalType": "uint256",
          "name": "_chainId",
          "type": "uint256"
        },
        {
          "components": [
            {
              "internalType": "uint256",
              "name": "batchIndex",
              "type": "uint256"
            },
            {
              "internalType": "bytes32",
              "name": "batchRoot",
              "type": "bytes32"
            },
            {
              "internalType": "uint256",
              "name": "batchSize",
              "type": "uint256"
            },
            {
              "internalType": "uint256",
              "name": "prevTotalElements",
              "type": "uint256"
            },
            {
              "internalType": "bytes",
              "name": "extraData",
              "type": "bytes"
            }
          ],
          "internalType": "struct Lib_OVMCodec.ChainBatchHeader",
          "name": "_batchHeader",
          "type": "tuple"
        }
      ],
      "name": "deleteStateBatchByChainId",
      "outputs": [],
      "stateMutability": "nonpayable",
      "type": "function"
    },
    {
      "inputs": [],
      "name": "getLastSequencerTimestamp",
      "outputs": [
        {
          "internalType": "uint256",
          "name": "_lastSequencerTimestamp",
          "type": "uint256"
        }
      ],
      "stateMutability": "view",
      "type": "function"
    },
    {
      "inputs": [
        {
          "internalType": "uint256",
          "name": "_chainId",
          "type": "uint256"
        }
      ],
      "name": "getLastSequencerTimestampByChainId",
      "outputs": [
        {
          "internalType": "uint256",
          "name": "_lastSequencerTimestamp",
          "type": "uint256"
        }
      ],
      "stateMutability": "view",
      "type": "function"
    },
    {
      "inputs": [],
      "name": "getTotalBatches",
      "outputs": [
        {
          "internalType": "uint256",
          "name": "_totalBatches",
          "type": "uint256"
        }
      ],
      "stateMutability": "view",
      "type": "function"
    },
    {
      "inputs": [
        {
          "internalType": "uint256",
          "name": "_chainId",
          "type": "uint256"
        }
      ],
      "name": "getTotalBatchesByChainId",
      "outputs": [
        {
          "internalType": "uint256",
          "name": "_totalBatches",
          "type": "uint256"
        }
      ],
      "stateMutability": "view",
      "type": "function"
    },
    {
      "inputs": [],
      "name": "getTotalElements",
      "outputs": [
        {
          "internalType": "uint256",
          "name": "_totalElements",
          "type": "uint256"
        }
      ],
      "stateMutability": "view",
      "type": "function"
    },
    {
      "inputs": [
        {
          "internalType": "uint256",
          "name": "_chainId",
          "type": "uint256"
        }
      ],
      "name": "getTotalElementsByChainId",
      "outputs": [
        {
          "internalType": "uint256",
          "name": "_totalElements",
          "type": "uint256"
        }
      ],
      "stateMutability": "view",
      "type": "function"
    },
    {
      "inputs": [
        {
          "components": [
            {
              "internalType": "uint256",
              "name": "batchIndex",
              "type": "uint256"
            },
            {
              "internalType": "bytes32",
              "name": "batchRoot",
              "type": "bytes32"
            },
            {
              "internalType": "uint256",
              "name": "batchSize",
              "type": "uint256"
            },
            {
              "internalType": "uint256",
              "name": "prevTotalElements",
              "type": "uint256"
            },
            {
              "internalType": "bytes",
              "name": "extraData",
              "type": "bytes"
            }
          ],
          "internalType": "struct Lib_OVMCodec.ChainBatchHeader",
          "name": "_batchHeader",
          "type": "tuple"
        }
      ],
      "name": "insideFraudProofWindow",
      "outputs": [
        {
          "internalType": "bool",
          "name": "_inside",
          "type": "bool"
        }
      ],
      "stateMutability": "view",
      "type": "function"
    },
    {
      "inputs": [],
      "name": "libAddressManager",
      "outputs": [
        {
          "internalType": "contract Lib_AddressManager",
          "name": "",
          "type": "address"
        }
      ],
      "stateMutability": "view",
      "type": "function"
    },
    {
      "inputs": [
        {
          "internalType": "string",
          "name": "_name",
          "type": "string"
        }
      ],
      "name": "resolve",
      "outputs": [
        {
          "internalType": "address",
          "name": "",
          "type": "address"
        }
      ],
      "stateMutability": "view",
      "type": "function"
    },
    {
      "inputs": [
        {
          "internalType": "uint256",
          "name": "window",
          "type": "uint256"
        }
      ],
      "name": "setFraudProofWindow",
      "outputs": [],
      "stateMutability": "nonpayable",
      "type": "function"
    },
    {
      "inputs": [
        {
          "internalType": "bytes32",
          "name": "_element",
          "type": "bytes32"
        },
        {
          "components": [
            {
              "internalType": "uint256",
              "name": "batchIndex",
              "type": "uint256"
            },
            {
              "internalType": "bytes32",
              "name": "batchRoot",
              "type": "bytes32"
            },
            {
              "internalType": "uint256",
              "name": "batchSize",
              "type": "uint256"
            },
            {
              "internalType": "uint256",
              "name": "prevTotalElements",
              "type": "uint256"
            },
            {
              "internalType": "bytes",
              "name": "extraData",
              "type": "bytes"
            }
          ],
          "internalType": "struct Lib_OVMCodec.ChainBatchHeader",
          "name": "_batchHeader",
          "type": "tuple"
        },
        {
          "components": [
            {
              "internalType": "uint256",
              "name": "index",
              "type": "uint256"
            },
            {
              "internalType": "bytes32[]",
              "name": "siblings",
              "type": "bytes32[]"
            }
          ],
          "internalType": "struct Lib_OVMCodec.ChainInclusionProof",
          "name": "_proof",
          "type": "tuple"
        }
      ],
      "name": "verifyStateCommitment",
      "outputs": [
        {
          "internalType": "bool",
          "name": "",
          "type": "bool"
        }
      ],
      "stateMutability": "view",
      "type": "function"
    },
    {
      "inputs": [
        {
          "internalType": "uint256",
          "name": "_chainId",
          "type": "uint256"
        },
        {
          "internalType": "bytes32",
          "name": "_element",
          "type": "bytes32"
        },
        {
          "components": [
            {
              "internalType": "uint256",
              "name": "batchIndex",
              "type": "uint256"
            },
            {
              "internalType": "bytes32",
              "name": "batchRoot",
              "type": "bytes32"
            },
            {
              "internalType": "uint256",
              "name": "batchSize",
              "type": "uint256"
            },
            {
              "internalType": "uint256",
              "name": "prevTotalElements",
              "type": "uint256"
            },
            {
              "internalType": "bytes",
              "name": "extraData",
              "type": "bytes"
            }
          ],
          "internalType": "struct Lib_OVMCodec.ChainBatchHeader",
          "name": "_batchHeader",
          "type": "tuple"
        },
        {
          "components": [
            {
              "internalType": "uint256",
              "name": "index",
              "type": "uint256"
            },
            {
              "internalType": "bytes32[]",
              "name": "siblings",
              "type": "bytes32[]"
            }
          ],
          "internalType": "struct Lib_OVMCodec.ChainInclusionProof",
          "name": "_proof",
          "type": "tuple"
        }
      ],
      "name": "verifyStateCommitmentByChainId",
      "outputs": [
        {
          "internalType": "bool",
          "name": "",
          "type": "bool"
        }
      ],
      "stateMutability": "view",
      "type": "function"
    }
  ],
  "transactionHash": "0xc7c00a55490b39d73c7327dd50009cddf5e6e70d8537718d8854e16496c62732",
  "args": [
    "0xedb04e0988B6f372AeB575e3e539E3867bd59789",
    600,
    30
  ],
  "solcInputHash": "66a048491e7e94b0d9cf9f741a129084",
  "bytecode": "0x60806040526104406003553480156200001757600080fd5b5060405162002609380380620026098339810160408190526200003a9162000067565b600080546001600160a01b0319166001600160a01b039490941693909317909255600155600255620000ac565b6000806000606084860312156200007d57600080fd5b83516001600160a01b03811681146200009557600080fd5b602085015160409095015190969495509392505050565b61254d80620000bc6000396000f3fe608060405234801561001057600080fd5b506004361061016c5760003560e01c80638a52e622116100cd578063b8e189ac11610081578063cfdf677e11610066578063cfdf677e146102d7578063d710083f146102df578063e561dddc146102f257600080fd5b8063b8e189ac146102bb578063c17b291b146102ce57600080fd5b80638ca5cbb9116100b25780638ca5cbb9146102825780639418bddd14610295578063ab59f7b8146102a857600080fd5b80638a52e6221461025c5780638c7de7421461026f57600080fd5b80635cb58374116101245780637ad168a0116101095780637ad168a01461023857806380931e371461024057806381eb62ef1461025357600080fd5b80635cb583741461021d5780637aa63a861461023057600080fd5b8063461a447811610155578063461a4478146101d05780634d69ee57146101e35780635bbbb7ed1461020657600080fd5b8063299ca478146101715780632ab65ec7146101bb575b600080fd5b6000546101919073ffffffffffffffffffffffffffffffffffffffff1681565b60405173ffffffffffffffffffffffffffffffffffffffff90911681526020015b60405180910390f35b6101ce6101c9366004611db5565b6102fa565b005b6101916101de366004611e1c565b61045a565b6101f66101f1366004611f40565b610507565b60405190151581526020016101b2565b61020f60035481565b6040519081526020016101b2565b61020f61022b366004611fad565b61051f565b61020f61053a565b61020f61054c565b6101f661024e366004611fc6565b610559565b61020f60025481565b61020f61026a366004611fad565b610625565b61020f61027d366004611fad565b610640565b6101ce61029036600461203d565b6106d4565b6101f66102a3366004612082565b610715565b6101ce6102b6366004611fad565b6107bd565b6101ce6102c9366004612082565b61087a565b61020f60015481565b610191610889565b6101ce6102ed3660046120b7565b6108ac565b61020f610cd5565b61032a61030683610ce2565b6040516020016103169190612152565b60405160208183030381529060405261045a565b73ffffffffffffffffffffffffffffffffffffffff163373ffffffffffffffffffffffffffffffffffffffff16146103cf5760405162461bcd60e51b815260206004820152603b60248201527f537461746520626174636865732063616e206f6e6c792062652064656c65746560448201527f6420627920746865204d564d5f467261756456657269666965722e000000000060648201526084015b60405180910390fd5b6103d881610715565b61044c576040805162461bcd60e51b81526020600482015260248101919091527f537461746520626174636865732063616e206f6e6c792062652064656c65746560448201527f642077697468696e207468652066726175642070726f6f662077696e646f772e60648201526084016103c6565b6104568282610e3f565b5050565b600080546040517fbf40fac100000000000000000000000000000000000000000000000000000000815273ffffffffffffffffffffffffffffffffffffffff9091169063bf40fac1906104b19085906004016121dd565b60206040518083038186803b1580156104c957600080fd5b505afa1580156104dd573d6000803e3d6000fd5b505050506040513d601f19601f820116820180604052508101906105019190612212565b92915050565b6000610517600354858585610559565b949350505050565b60008061052b83611091565b64ffffffffff16949350505050565b6000610547600354610625565b905090565b600061054760035461051f565b60006105658584611143565b6105b15760405162461bcd60e51b815260206004820152601560248201527f496e76616c6964206261746368206865616465722e000000000000000000000060448201526064016103c6565b6105ce836020015185846000015185602001518760400151611208565b61061a5760405162461bcd60e51b815260206004820152601860248201527f496e76616c696420696e636c7573696f6e2070726f6f662e000000000000000060448201526064016103c6565b506001949350505050565b60008061063183611091565b5064ffffffffff169392505050565b600061064a610889565b73ffffffffffffffffffffffffffffffffffffffff1663576f2588836040518263ffffffff1660e01b815260040161068491815260200190565b60206040518083038186803b15801561069c57600080fd5b505afa1580156106b0573d6000803e3d6000fd5b505050506040513d601f19601f82011682018060405250810190610501919061222f565b60006106e1600354610ce2565b6040516020016106f19190612248565b60405160208183030381529060405290506107106003548484846108ac565b505050565b60008082608001518060200190518101906107309190612289565b509050806107a65760405162461bcd60e51b815260206004820152602560248201527f4261746368206865616465722074696d657374616d702063616e6e6f7420626560448201527f207a65726f00000000000000000000000000000000000000000000000000000060648201526084016103c6565b42600154826107b591906122e8565b119392505050565b6107fb6040518060400160405280600d81526020017f4d455449535f4d414e414745520000000000000000000000000000000000000081525061045a565b73ffffffffffffffffffffffffffffffffffffffff163373ffffffffffffffffffffffffffffffffffffffff16146108755760405162461bcd60e51b815260206004820152600b60248201527f6e6f7720616c6c6f77656400000000000000000000000000000000000000000060448201526064016103c6565b600155565b610886600354826102fa565b50565b60006105476040518060600160405280602181526020016124f76021913961045a565b6108b584610625565b82146109295760405162461bcd60e51b815260206004820152603d60248201527f41637475616c20626174636820737461727420696e64657820646f6573206e6f60448201527f74206d6174636820657870656374656420737461727420696e6465782e00000060648201526084016103c6565b60006109348261045a565b90506109746040518060400160405280600b81526020017f426f6e644d616e6167657200000000000000000000000000000000000000000081525061045a565b6040517ff3b96f1c0000000000000000000000000000000000000000000000000000000081526004810187905233602482015273ffffffffffffffffffffffffffffffffffffffff8381166044830152919091169063f3b96f1c9060640160206040518083038186803b1580156109ea57600080fd5b505afa1580156109fe573d6000803e3d6000fd5b505050506040513d601f19601f82011682018060405250810190610a229190612300565b610a945760405162461bcd60e51b815260206004820152602f60248201527f50726f706f73657220646f6573206e6f74206861766520656e6f75676820636f60448201527f6c6c61746572616c20706f73746564000000000000000000000000000000000060648201526084016103c6565b6000845111610b0b5760405162461bcd60e51b815260206004820152602360248201527f43616e6e6f74207375626d697420616e20656d7074792073746174652062617460448201527f63682e000000000000000000000000000000000000000000000000000000000060648201526084016103c6565b610b496040518060400160405280601981526020017f43616e6f6e6963616c5472616e73616374696f6e436861696e0000000000000081525061045a565b73ffffffffffffffffffffffffffffffffffffffff16638a52e622866040518263ffffffff1660e01b8152600401610b8391815260200190565b60206040518083038186803b158015610b9b57600080fd5b505afa158015610baf573d6000803e3d6000fd5b505050506040513d601f19601f82011682018060405250810190610bd3919061222f565b8451610bde87610625565b610be891906122e8565b1115610c825760405162461bcd60e51b815260206004820152604960248201527f4e756d626572206f6620737461746520726f6f74732063616e6e6f742065786360448201527f65656420746865206e756d626572206f662063616e6f6e6963616c207472616e60648201527f73616374696f6e732e0000000000000000000000000000000000000000000000608482015260a4016103c6565b610cce85854233604051602001610cb992919091825273ffffffffffffffffffffffffffffffffffffffff16602082015260400190565b60405160208183030381529060405284611476565b5050505050565b6000610547600354610640565b606081610d2257505060408051808201909152600181527f3000000000000000000000000000000000000000000000000000000000000000602082015290565b8160005b8115610d4c5780610d3681612322565b9150610d459050600a8361238a565b9150610d26565b60008167ffffffffffffffff811115610d6757610d67611c20565b6040519080825280601f01601f191660200182016040528015610d91576020820181803683370190505b509050815b8515610e3657610da760018261239e565b90506000610db6600a8861238a565b610dc190600a6123b5565b610dcb908861239e565b610dd69060306123f2565b905060008160f81b905080848481518110610df357610df3612417565b60200101907effffffffffffffffffffffffffffffffffffffffffffffffffffffffffffff1916908160001a905350610e2d600a8961238a565b97505050610d96565b50949350505050565b610e47610889565b73ffffffffffffffffffffffffffffffffffffffff1663576f2588836040518263ffffffff1660e01b8152600401610e8191815260200190565b60206040518083038186803b158015610e9957600080fd5b505afa158015610ead573d6000803e3d6000fd5b505050506040513d601f19601f82011682018060405250810190610ed1919061222f565b815110610f205760405162461bcd60e51b815260206004820152601460248201527f496e76616c696420626174636820696e6465782e00000000000000000000000060448201526064016103c6565b610f2a8282611143565b610f765760405162461bcd60e51b815260206004820152601560248201527f496e76616c6964206261746368206865616465722e000000000000000000000060448201526064016103c6565b610f7e610889565b8151606083015173ffffffffffffffffffffffffffffffffffffffff929092169163bc05257691859160281b6040517fffffffff0000000000000000000000000000000000000000000000000000000060e086901b168152600481019390935260248301919091527fffffffffffffffffffffffffffffffffffffffffffffffffffffff0000000000166044820152606401600060405180830381600087803b15801561102a57600080fd5b505af115801561103e573d6000803e3d6000fd5b5050505080600001517f6e9c082632d809680ee6227e58afd9a7c24ee8a43d61577b2e98f9e185fc630d838360200151604051611085929190918252602082015260400190565b60405180910390a25050565b600080600061109e610889565b73ffffffffffffffffffffffffffffffffffffffff166324a49415856040518263ffffffff1660e01b81526004016110d891815260200190565b60206040518083038186803b1580156110f057600080fd5b505afa158015611104573d6000803e3d6000fd5b505050506040513d601f19601f820116820180604052508101906111289190612446565b64ffffffffff602882901c169560509190911c945092505050565b600061114d610889565b82516040517f67d18b9b00000000000000000000000000000000000000000000000000000000815260048101869052602481019190915273ffffffffffffffffffffffffffffffffffffffff91909116906367d18b9b9060440160206040518083038186803b1580156111bf57600080fd5b505afa1580156111d3573d6000803e3d6000fd5b505050506040513d601f19601f820116820180604052508101906111f7919061222f565b61120083611613565b149392505050565b600080821161127f5760405162461bcd60e51b815260206004820152603760248201527f4c69625f4d65726b6c65547265653a20546f74616c206c6561766573206d757360448201527f742062652067726561746572207468616e207a65726f2e00000000000000000060648201526084016103c6565b8184106112f35760405162461bcd60e51b8152602060048201526024808201527f4c69625f4d65726b6c65547265653a20496e646578206f7574206f6620626f7560448201527f6e64732e0000000000000000000000000000000000000000000000000000000060648201526084016103c6565b6112fc82611659565b8351146113975760405162461bcd60e51b815260206004820152604d60248201527f4c69625f4d65726b6c65547265653a20546f74616c207369626c696e6773206460448201527f6f6573206e6f7420636f72726563746c7920636f72726573706f6e6420746f2060648201527f746f74616c206c65617665732e00000000000000000000000000000000000000608482015260a4016103c6565b8460005b8451811015611469578560011660011415611402578481815181106113c2576113c2612417565b6020026020010151826040516020016113e5929190918252602082015260400190565b604051602081830303815290604052805190602001209150611450565b8185828151811061141557611415612417565b6020026020010151604051602001611437929190918252602082015260400190565b6040516020818303038152906040528051906020012091505b60019590951c948061146181612322565b91505061139b565b5090951495945050505050565b60008061148286611091565b9150915042905060006040518060a0016040528061149f89610640565b81526020016114ad8861173c565b8152602001875181526020018464ffffffffff16815260200186815250905080600001517fbaa1d762384057169afd12b625998a5a7ed502c2e229acdbead30f3f6496399d888360200151846040015185606001518660800151604051611518959493929190612488565b60405180910390a2611528610889565b73ffffffffffffffffffffffffffffffffffffffff1663e6e436c08861154d84611613565b6115728560400151866060015161156491906122e8565b602888811b91909117901b90565b6040517fffffffff0000000000000000000000000000000000000000000000000000000060e086901b168152600481019390935260248301919091527fffffffffffffffffffffffffffffffffffffffffffffffffffffff0000000000166044820152606401600060405180830381600087803b1580156115f257600080fd5b505af1158015611606573d6000803e3d6000fd5b5050505050505050505050565b6000816020015182604001518360600151846080015160405160200161163c94939291906124b3565b604051602081830303815290604052805190602001209050919050565b60008082116116d05760405162461bcd60e51b815260206004820152603060248201527f4c69625f4d65726b6c65547265653a2043616e6e6f7420636f6d70757465206360448201527f65696c286c6f675f3229206f6620302e0000000000000000000000000000000060648201526084016103c6565b81600114156116e157506000919050565b81600060805b6001811061171f57806116fd600180831b61239e565b901b8316156117175761171081836122e8565b92811c9291505b60011c6116e7565b506001811b8414611735576105176001826122e8565b9392505050565b6000808251116117b45760405162461bcd60e51b815260206004820152603460248201527f4c69625f4d65726b6c65547265653a204d7573742070726f766964652061742060448201527f6c65617374206f6e65206c65616620686173682e00000000000000000000000060648201526084016103c6565b8151600114156117e057816000815181106117d1576117d1612417565b60200260200101519050919050565b60408051610200810182527f290decd9548b62a8d60345a988386fc84ba6bc95484008f6362f93160ef3e56381527f633dc4d7da7256660a892f8f1604a44b5432649cc8ec5cb3ced4c4e6ac94dd1d60208201527f890740a8eb06ce9be422cb8da5cdafc2b58c0a5e24036c578de2a433c828ff7d818301527f3b8ec09e026fdc305365dfc94e189a81b38c7597b3d941c279f042e8206e0bd86060808301919091527fecd50eee38e386bd62be9bedb990706951b65fe053bd9d8a521af753d139e2da60808301527fdefff6d330bb5403f63b14f33b578274160de3a50df4efecf0e0db73bcdd3da560a08301527f617bdd11f7c0a11f49db22f629387a12da7596f9d1704d7465177c63d88ec7d760c08301527f292c23a9aa1d8bea7e2435e555a4a60e379a5a35f3f452bae60121073fb6eead60e08301527fe1cea92ed99acdcb045a6726b2f87107e8a61620a232cf4d7d5b5766b3952e106101008301527f7ad66c0a68c72cb89e4fb4303841966e4062a76ab97451e3b9fb526a5ceb7f826101208301527fe026cc5a4aed3c22a58cbd3d2ac754c9352c5436f638042dca99034e836365166101408301527f3d04cffd8b46a874edf5cfae63077de85f849a660426697b06a829c70dd1409c6101608301527fad676aa337a485e4728a0b240d92b3ef7b3c372d06d189322bfd5f61f1e7203e6101808301527fa2fca4a49658f9fab7aa63289c91b7c7b6c832a6d0e69334ff5b0a3483d09dab6101a08301527f4ebfd9cd7bca2505f7bef59cc1c12ecc708fff26ae4af19abe852afe9e20c8626101c08301527f2def10d13dd169f550f578bda343d9717a138562e0093b380a1120789d53cf106101e083015282518381529081018352909160009190602082018180368337505085519192506000918291508180805b6001841115611bf657611a9160028561238a565b9150611a9e6002856124e2565b600114905060005b82811015611b4a578a611aba8260026123b5565b81518110611aca57611aca612417565b602002602001015196508a816002611ae291906123b5565b611aed9060016122e8565b81518110611afd57611afd612417565b6020026020010151955086602089015285604089015287805190602001208b8281518110611b2d57611b2d612417565b602090810291909101015280611b4281612322565b915050611aa6565b508015611bc65789611b5d60018661239e565b81518110611b6d57611b6d612417565b60200260200101519550878360108110611b8957611b89612417565b602002015160001b945085602088015284604088015286805190602001208a8381518110611bb957611bb9612417565b6020026020010181815250505b80611bd2576000611bd5565b60015b611be29060ff16836122e8565b935082611bee81612322565b935050611a7d565b89600081518110611c0957611c09612417565b602002602001015198505050505050505050919050565b7f4e487b7100000000000000000000000000000000000000000000000000000000600052604160045260246000fd5b604051601f82017fffffffffffffffffffffffffffffffffffffffffffffffffffffffffffffffe016810167ffffffffffffffff81118282101715611c9657611c96611c20565b604052919050565b600067ffffffffffffffff831115611cb857611cb8611c20565b611ce960207fffffffffffffffffffffffffffffffffffffffffffffffffffffffffffffffe0601f86011601611c4f565b9050828152838383011115611cfd57600080fd5b828260208301376000602084830101529392505050565b600060a08284031215611d2657600080fd5b60405160a0810167ffffffffffffffff8282108183111715611d4a57611d4a611c20565b81604052829350843583526020850135602084015260408501356040840152606085013560608401526080850135915080821115611d8757600080fd5b508301601f81018513611d9957600080fd5b611da885823560208401611c9e565b6080830152505092915050565b60008060408385031215611dc857600080fd5b82359150602083013567ffffffffffffffff811115611de657600080fd5b611df285828601611d14565b9150509250929050565b600082601f830112611e0d57600080fd5b61173583833560208501611c9e565b600060208284031215611e2e57600080fd5b813567ffffffffffffffff811115611e4557600080fd5b61051784828501611dfc565b600082601f830112611e6257600080fd5b8135602067ffffffffffffffff821115611e7e57611e7e611c20565b8160051b611e8d828201611c4f565b9283528481018201928281019087851115611ea757600080fd5b83870192505b84831015611ec657823582529183019190830190611ead565b979650505050505050565b600060408284031215611ee357600080fd5b6040516040810167ffffffffffffffff8282108183111715611f0757611f07611c20565b81604052829350843583526020850135915080821115611f2657600080fd5b50611f3385828601611e51565b6020830152505092915050565b600080600060608486031215611f5557600080fd5b83359250602084013567ffffffffffffffff80821115611f7457600080fd5b611f8087838801611d14565b93506040860135915080821115611f9657600080fd5b50611fa386828701611ed1565b9150509250925092565b600060208284031215611fbf57600080fd5b5035919050565b60008060008060808587031215611fdc57600080fd5b8435935060208501359250604085013567ffffffffffffffff8082111561200257600080fd5b61200e88838901611d14565b9350606087013591508082111561202457600080fd5b5061203187828801611ed1565b91505092959194509250565b6000806040838503121561205057600080fd5b823567ffffffffffffffff81111561206757600080fd5b61207385828601611e51565b95602094909401359450505050565b60006020828403121561209457600080fd5b813567ffffffffffffffff8111156120ab57600080fd5b61051784828501611d14565b600080600080608085870312156120cd57600080fd5b84359350602085013567ffffffffffffffff808211156120ec57600080fd5b6120f888838901611e51565b945060408701359350606087013591508082111561211557600080fd5b5061203187828801611dfc565b60005b8381101561213d578181015183820152602001612125565b8381111561214c576000848401525b50505050565b60008251612164818460208701612122565b7f5f4d564d5f467261756456657269666965720000000000000000000000000000920191825250601201919050565b600081518084526121ab816020860160208601612122565b601f017fffffffffffffffffffffffffffffffffffffffffffffffffffffffffffffffe0169290920160200192915050565b6020815260006117356020830184612193565b73ffffffffffffffffffffffffffffffffffffffff8116811461088657600080fd5b60006020828403121561222457600080fd5b8151611735816121f0565b60006020828403121561224157600080fd5b5051919050565b6000825161225a818460208701612122565b7f5f4d564d5f50726f706f73657200000000000000000000000000000000000000920191825250600d01919050565b6000806040838503121561229c57600080fd5b8251915060208301516122ae816121f0565b809150509250929050565b7f4e487b7100000000000000000000000000000000000000000000000000000000600052601160045260246000fd5b600082198211156122fb576122fb6122b9565b500190565b60006020828403121561231257600080fd5b8151801515811461173557600080fd5b60007fffffffffffffffffffffffffffffffffffffffffffffffffffffffffffffffff821415612354576123546122b9565b5060010190565b7f4e487b7100000000000000000000000000000000000000000000000000000000600052601260045260246000fd5b6000826123995761239961235b565b500490565b6000828210156123b0576123b06122b9565b500390565b6000817fffffffffffffffffffffffffffffffffffffffffffffffffffffffffffffffff04831182151516156123ed576123ed6122b9565b500290565b600060ff821660ff84168060ff0382111561240f5761240f6122b9565b019392505050565b7f4e487b7100000000000000000000000000000000000000000000000000000000600052603260045260246000fd5b60006020828403121561245857600080fd5b81517fffffffffffffffffffffffffffffffffffffffffffffffffffffff00000000008116811461173557600080fd5b85815284602082015283604082015282606082015260a060808201526000611ec660a0830184612193565b8481528360208201528260408201526080606082015260006124d86080830184612193565b9695505050505050565b6000826124f1576124f161235b565b50069056fe436861696e53746f72616765436f6e7461696e65722d5343432d62617463686573a264697066735822122098625a016ddeded12b125d5b794f3406b3f4dd7c5a709ca6a3d9d3e01a290cc364736f6c63430008090033",
  "devdoc": {
    "details": "The State Commitment Chain (SCC) contract contains a list of proposed state roots which Proposers assert to be a result of each transaction in the Canonical Transaction Chain (CTC). Elements here have a 1:1 correspondence with transactions in the CTC, and should be the unique state root calculated off-chain by applying the canonical transactions one by one. Runtime target: EVM",
    "kind": "dev",
    "methods": {
      "appendStateBatch(bytes32[],uint256)": {
        "params": {
          "_batch": "Batch of state roots.",
          "_shouldStartAtElement": "Index of the element at which this batch should start."
        }
      },
      "appendStateBatchByChainId(uint256,bytes32[],uint256,string)": {
        "params": {
          "_batch": "Batch of state roots.",
          "_chainId": "identity for the l2 chain.",
          "_shouldStartAtElement": "Index of the element at which this batch should start."
        }
      },
      "batches()": {
        "returns": {
          "_0": "Reference to the batch storage container."
        }
      },
      "constructor": {
        "params": {
          "_libAddressManager": "Address of the Address Manager."
        }
      },
      "deleteStateBatch((uint256,bytes32,uint256,uint256,bytes))": {
        "params": {
          "_batchHeader": "Header of the batch to start deleting from."
        }
      },
      "deleteStateBatchByChainId(uint256,(uint256,bytes32,uint256,uint256,bytes))": {
        "params": {
          "_batchHeader": "Header of the batch to start deleting from.",
          "_chainId": "identity for the l2 chain."
        }
      },
      "getLastSequencerTimestamp()": {
        "returns": {
          "_lastSequencerTimestamp": "Last sequencer batch timestamp."
        }
      },
      "getLastSequencerTimestampByChainId(uint256)": {
        "params": {
          "_chainId": "identity for the l2 chain."
        },
        "returns": {
          "_lastSequencerTimestamp": "Last sequencer batch timestamp."
        }
      },
      "getTotalBatches()": {
        "returns": {
          "_totalBatches": "Total submitted batches."
        }
      },
      "getTotalBatchesByChainId(uint256)": {
        "params": {
          "_chainId": "identity for the l2 chain."
        },
        "returns": {
          "_totalBatches": "Total submitted batches."
        }
      },
      "getTotalElements()": {
        "returns": {
          "_totalElements": "Total submitted elements."
        }
      },
      "getTotalElementsByChainId(uint256)": {
        "params": {
          "_chainId": "identity for the l2 chain."
        },
        "returns": {
          "_totalElements": "Total submitted elements."
        }
      },
      "insideFraudProofWindow((uint256,bytes32,uint256,uint256,bytes))": {
        "params": {
          "_batchHeader": "Header of the batch to check."
        },
        "returns": {
          "_inside": "Whether or not the batch is inside the fraud proof window."
        }
      },
      "resolve(string)": {
        "params": {
          "_name": "Name to resolve an address for."
        },
        "returns": {
          "_0": "Address associated with the given name."
        }
      },
      "verifyStateCommitment(bytes32,(uint256,bytes32,uint256,uint256,bytes),(uint256,bytes32[]))": {
        "params": {
          "_batchHeader": "Header of the batch in which the element was included.",
          "_element": "Hash of the element to verify a proof for.",
          "_proof": "Merkle inclusion proof for the element."
        }
      },
      "verifyStateCommitmentByChainId(uint256,bytes32,(uint256,bytes32,uint256,uint256,bytes),(uint256,bytes32[]))": {
        "params": {
          "_batchHeader": "Header of the batch in which the element was included.",
          "_chainId": "identity for the l2 chain.",
          "_element": "Hash of the element to verify a proof for.",
          "_proof": "Merkle inclusion proof for the element."
        }
      }
    },
    "title": "StateCommitmentChain",
    "version": 1
  },
  "userdoc": {
    "kind": "user",
    "methods": {
      "appendStateBatch(bytes32[],uint256)": {
        "notice": "Appends a batch of state roots to the chain."
      },
      "appendStateBatchByChainId(uint256,bytes32[],uint256,string)": {
        "notice": "Appends a batch of state roots to the chain."
      },
      "batches()": {
        "notice": "Accesses the batch storage container."
      },
      "deleteStateBatch((uint256,bytes32,uint256,uint256,bytes))": {
        "notice": "Deletes all state roots after (and including) a given batch."
      },
      "deleteStateBatchByChainId(uint256,(uint256,bytes32,uint256,uint256,bytes))": {
        "notice": "Deletes all state roots after (and including) a given batch."
      },
      "getLastSequencerTimestamp()": {
        "notice": "Retrieves the timestamp of the last batch submitted by the sequencer."
      },
      "getLastSequencerTimestampByChainId(uint256)": {
        "notice": "Retrieves the timestamp of the last batch submitted by the sequencer."
      },
      "getTotalBatches()": {
        "notice": "Retrieves the total number of batches submitted."
      },
      "getTotalBatchesByChainId(uint256)": {
        "notice": "Retrieves the total number of batches submitted."
      },
      "getTotalElements()": {
        "notice": "Retrieves the total number of elements submitted."
      },
      "getTotalElementsByChainId(uint256)": {
        "notice": "Retrieves the total number of elements submitted."
      },
      "insideFraudProofWindow((uint256,bytes32,uint256,uint256,bytes))": {
        "notice": "Checks whether a given batch is still inside its fraud proof window."
      },
      "resolve(string)": {
        "notice": "Resolves the address associated with a given name."
      },
      "verifyStateCommitment(bytes32,(uint256,bytes32,uint256,uint256,bytes),(uint256,bytes32[]))": {
        "notice": "Verifies a batch inclusion proof."
      },
      "verifyStateCommitmentByChainId(uint256,bytes32,(uint256,bytes32,uint256,uint256,bytes),(uint256,bytes32[]))": {
        "notice": "Verifies a batch inclusion proof."
      }
    },
    "version": 1
  },
  "storageLayout": {
    "storage": [
      {
        "astId": 15492,
        "contract": "contracts/L1/rollup/StateCommitmentChain.sol:StateCommitmentChain",
        "label": "libAddressManager",
        "offset": 0,
        "slot": "0",
        "type": "t_contract(Lib_AddressManager)15484"
      },
      {
        "astId": 7566,
        "contract": "contracts/L1/rollup/StateCommitmentChain.sol:StateCommitmentChain",
        "label": "FRAUD_PROOF_WINDOW",
        "offset": 0,
        "slot": "1",
        "type": "t_uint256"
      },
      {
        "astId": 7568,
        "contract": "contracts/L1/rollup/StateCommitmentChain.sol:StateCommitmentChain",
        "label": "SEQUENCER_PUBLISH_WINDOW",
        "offset": 0,
        "slot": "2",
        "type": "t_uint256"
      },
      {
        "astId": 7571,
        "contract": "contracts/L1/rollup/StateCommitmentChain.sol:StateCommitmentChain",
        "label": "DEFAULT_CHAINID",
        "offset": 0,
        "slot": "3",
        "type": "t_uint256"
      }
    ],
    "types": {
      "t_contract(Lib_AddressManager)15484": {
        "encoding": "inplace",
        "label": "contract Lib_AddressManager",
        "numberOfBytes": "20"
      },
      "t_uint256": {
        "encoding": "inplace",
        "label": "uint256",
        "numberOfBytes": "32"
      }
    }
  }
}