{
  "address": "0xE0cDbb071144489b52Af578BDdea84dBDFd85576",
  "abi": [
    {
      "inputs": [
        {
          "internalType": "address",
          "name": "_libAddressManager",
          "type": "address"
        }
      ],
      "stateMutability": "nonpayable",
      "type": "constructor"
    },
    {
      "inputs": [
        {
          "internalType": "address",
          "name": "_who",
          "type": "address"
        }
      ],
      "name": "isCollateralized",
      "outputs": [
        {
          "internalType": "bool",
          "name": "",
          "type": "bool"
        }
      ],
      "stateMutability": "view",
      "type": "function"
    },
    {
      "inputs": [
        {
          "internalType": "uint256",
          "name": "_chainId",
          "type": "uint256"
        },
        {
          "internalType": "address",
          "name": "_who",
          "type": "address"
        },
        {
          "internalType": "address",
          "name": "_prop",
          "type": "address"
        }
      ],
      "name": "isCollateralizedByChainId",
      "outputs": [
        {
          "internalType": "bool",
          "name": "",
          "type": "bool"
        }
      ],
      "stateMutability": "view",
      "type": "function"
    },
    {
      "inputs": [],
      "name": "libAddressManager",
      "outputs": [
        {
          "internalType": "contract Lib_AddressManager",
          "name": "",
          "type": "address"
        }
      ],
      "stateMutability": "view",
      "type": "function"
    },
    {
      "inputs": [
        {
          "internalType": "string",
          "name": "_name",
          "type": "string"
        }
      ],
      "name": "resolve",
      "outputs": [
        {
          "internalType": "address",
          "name": "",
          "type": "address"
        }
      ],
      "stateMutability": "view",
      "type": "function"
    }
  ],
  "transactionHash": "0xf790f166730f21619158c73452db3fcb81c4c746c6c109d4a0f61fbc77e90ddf",
  "args": [
    "0xa66Fa1eD0f1C1ee300893B4eb5493FeAD9a7e9c3"
  ],
  "solcInputHash": "66a048491e7e94b0d9cf9f741a129084",
  "bytecode": "0x608060405234801561001057600080fd5b5060405161096f38038061096f83398101604081905261002f91610054565b600080546001600160a01b0319166001600160a01b0392909216919091179055610084565b60006020828403121561006657600080fd5b81516001600160a01b038116811461007d57600080fd5b9392505050565b6108dc806100936000396000f3fe608060405234801561001057600080fd5b506004361061004c5760003560e01c806302ad4d2a14610051578063299ca47814610079578063461a4478146100be578063f3b96f1c146100d1575b600080fd5b61006461005f366004610518565b6100e4565b60405190151581526020015b60405180910390f35b6000546100999073ffffffffffffffffffffffffffffffffffffffff1681565b60405173ffffffffffffffffffffffffffffffffffffffff9091168152602001610070565b6100996100cc36600461056b565b610159565b6100646100df36600461063a565b610206565b60006101246040518060400160405280600c81526020017f4f564d5f50726f706f7365720000000000000000000000000000000000000000815250610159565b73ffffffffffffffffffffffffffffffffffffffff168273ffffffffffffffffffffffffffffffffffffffff16149050919050565b600080546040517fbf40fac100000000000000000000000000000000000000000000000000000000815273ffffffffffffffffffffffffffffffffffffffff9091169063bf40fac1906101b09085906004016106ac565b60206040518083038186803b1580156101c857600080fd5b505afa1580156101dc573d6000803e3d6000fd5b505050506040513d601f19601f8201168201806040525081019061020091906106fd565b92915050565b60008173ffffffffffffffffffffffffffffffffffffffff168373ffffffffffffffffffffffffffffffffffffffff16146102a2576040517f08c379a000000000000000000000000000000000000000000000000000000000815260206004820152601960248201527f73656e646572206d757374207468652070726f706f736572210000000000000060448201526064015b60405180910390fd5b6102d26102ae85610396565b6040516020016102be919061071a565b604051602081830303815290604052610159565b73ffffffffffffffffffffffffffffffffffffffff168273ffffffffffffffffffffffffffffffffffffffff161461038c576040517f08c379a000000000000000000000000000000000000000000000000000000000815260206004820152602360248201527f50726f706f73657220646f6573206e6f74206d6174636820746869732063686160448201527f696e2e00000000000000000000000000000000000000000000000000000000006064820152608401610299565b5060019392505050565b6060816103d657505060408051808201909152600181527f3000000000000000000000000000000000000000000000000000000000000000602082015290565b8160005b811561040057806103ea8161078a565b91506103f99050600a836107c3565b91506103da565b60008167ffffffffffffffff81111561041b5761041b61053c565b6040519080825280601f01601f191660200182016040528015610445576020820181803683370190505b509050815b85156104ea5761045b6001826107fe565b9050600061046a600a886107c3565b61047590600a610815565b61047f90886107fe565b61048a906030610852565b905060008160f81b9050808484815181106104a7576104a7610877565b60200101907effffffffffffffffffffffffffffffffffffffffffffffffffffffffffffff1916908160001a9053506104e1600a896107c3565b9750505061044a565b50949350505050565b73ffffffffffffffffffffffffffffffffffffffff8116811461051557600080fd5b50565b60006020828403121561052a57600080fd5b8135610535816104f3565b9392505050565b7f4e487b7100000000000000000000000000000000000000000000000000000000600052604160045260246000fd5b60006020828403121561057d57600080fd5b813567ffffffffffffffff8082111561059557600080fd5b818401915084601f8301126105a957600080fd5b8135818111156105bb576105bb61053c565b604051601f82017fffffffffffffffffffffffffffffffffffffffffffffffffffffffffffffffe0908116603f011681019083821181831017156106015761060161053c565b8160405282815287602084870101111561061a57600080fd5b826020860160208301376000928101602001929092525095945050505050565b60008060006060848603121561064f57600080fd5b833592506020840135610661816104f3565b91506040840135610671816104f3565b809150509250925092565b60005b8381101561069757818101518382015260200161067f565b838111156106a6576000848401525b50505050565b60208152600082518060208401526106cb81604085016020870161067c565b601f017fffffffffffffffffffffffffffffffffffffffffffffffffffffffffffffffe0169190910160400192915050565b60006020828403121561070f57600080fd5b8151610535816104f3565b6000825161072c81846020870161067c565b7f5f4d564d5f50726f706f73657200000000000000000000000000000000000000920191825250600d01919050565b7f4e487b7100000000000000000000000000000000000000000000000000000000600052601160045260246000fd5b60007fffffffffffffffffffffffffffffffffffffffffffffffffffffffffffffffff8214156107bc576107bc61075b565b5060010190565b6000826107f9577f4e487b7100000000000000000000000000000000000000000000000000000000600052601260045260246000fd5b500490565b6000828210156108105761081061075b565b500390565b6000817fffffffffffffffffffffffffffffffffffffffffffffffffffffffffffffffff048311821515161561084d5761084d61075b565b500290565b600060ff821660ff84168060ff0382111561086f5761086f61075b565b019392505050565b7f4e487b7100000000000000000000000000000000000000000000000000000000600052603260045260246000fdfea2646970667358221220244336c9dab47777c97c1b14796d21ed80b0963f02eb417363517444d2c656c464736f6c63430008090033",
  "devdoc": {
    "details": "This contract is, for now, a stub of the \"real\" BondManager that does nothing but allow the \"OVM_Proposer\" to submit state root batches. Runtime target: EVM",
    "kind": "dev",
    "methods": {
      "constructor": {
        "params": {
          "_libAddressManager": "Address of the Address Manager."
        }
      },
      "isCollateralized(address)": {
        "params": {
          "_who": "Address to check."
        },
        "returns": {
          "_0": "true if the address is properly collateralized, false otherwise."
        }
      },
      "resolve(string)": {
        "params": {
          "_name": "Name to resolve an address for."
        },
        "returns": {
          "_0": "Address associated with the given name."
        }
      }
    },
    "title": "BondManager",
    "version": 1
  },
  "userdoc": {
    "kind": "user",
    "methods": {
      "isCollateralized(address)": {
        "notice": "Checks whether a given address is properly collateralized and can perform actions within the system."
      },
      "resolve(string)": {
        "notice": "Resolves the address associated with a given name."
      }
    },
    "version": 1
  },
  "storageLayout": {
    "storage": [
      {
        "astId": 15492,
        "contract": "contracts/L1/verification/BondManager.sol:BondManager",
        "label": "libAddressManager",
        "offset": 0,
        "slot": "0",
        "type": "t_contract(Lib_AddressManager)15484"
      }
    ],
    "types": {
      "t_contract(Lib_AddressManager)15484": {
        "encoding": "inplace",
        "label": "contract Lib_AddressManager",
        "numberOfBytes": "20"
      }
    }
  }
}