{
  "address": "0xfaAd7fFe832775c66Fb3586f0AF3Ffc09B173ff2",
  "abi": [
    {
      "inputs": [
        {
          "internalType": "address",
          "name": "_libAddressManager",
          "type": "address"
        },
        {
          "internalType": "uint256",
          "name": "_fraudProofWindow",
          "type": "uint256"
        },
        {
          "internalType": "uint256",
          "name": "_sequencerPublishWindow",
          "type": "uint256"
        }
      ],
      "stateMutability": "nonpayable",
      "type": "constructor"
    },
    {
      "anonymous": false,
      "inputs": [
        {
          "indexed": false,
          "internalType": "uint256",
          "name": "_chainId",
          "type": "uint256"
        },
        {
          "indexed": true,
          "internalType": "uint256",
          "name": "_batchIndex",
          "type": "uint256"
        },
        {
          "indexed": false,
          "internalType": "bytes32",
          "name": "_batchRoot",
          "type": "bytes32"
        },
        {
          "indexed": false,
          "internalType": "uint256",
          "name": "_batchSize",
          "type": "uint256"
        },
        {
          "indexed": false,
          "internalType": "uint256",
          "name": "_prevTotalElements",
          "type": "uint256"
        },
        {
          "indexed": false,
          "internalType": "bytes",
          "name": "_extraData",
          "type": "bytes"
        }
      ],
      "name": "StateBatchAppended",
      "type": "event"
    },
    {
      "anonymous": false,
      "inputs": [
        {
          "indexed": false,
          "internalType": "uint256",
          "name": "_chainId",
          "type": "uint256"
        },
        {
          "indexed": true,
          "internalType": "uint256",
          "name": "_batchIndex",
          "type": "uint256"
        },
        {
          "indexed": false,
          "internalType": "bytes32",
          "name": "_batchRoot",
          "type": "bytes32"
        }
      ],
      "name": "StateBatchDeleted",
      "type": "event"
    },
    {
      "inputs": [],
      "name": "DEFAULT_CHAINID",
      "outputs": [
        {
          "internalType": "uint256",
          "name": "",
          "type": "uint256"
        }
      ],
      "stateMutability": "view",
      "type": "function"
    },
    {
      "inputs": [],
      "name": "FRAUD_PROOF_WINDOW",
      "outputs": [
        {
          "internalType": "uint256",
          "name": "",
          "type": "uint256"
        }
      ],
      "stateMutability": "view",
      "type": "function"
    },
    {
      "inputs": [],
      "name": "SEQUENCER_PUBLISH_WINDOW",
      "outputs": [
        {
          "internalType": "uint256",
          "name": "",
          "type": "uint256"
        }
      ],
      "stateMutability": "view",
      "type": "function"
    },
    {
      "inputs": [
        {
          "internalType": "bytes32[]",
          "name": "_batch",
          "type": "bytes32[]"
        },
        {
          "internalType": "uint256",
          "name": "_shouldStartAtElement",
          "type": "uint256"
        }
      ],
      "name": "appendStateBatch",
      "outputs": [],
      "stateMutability": "nonpayable",
      "type": "function"
    },
    {
      "inputs": [
        {
          "internalType": "uint256",
          "name": "_chainId",
          "type": "uint256"
        },
        {
          "internalType": "bytes32[]",
          "name": "_batch",
          "type": "bytes32[]"
        },
        {
          "internalType": "uint256",
          "name": "_shouldStartAtElement",
          "type": "uint256"
        },
        {
          "internalType": "string",
          "name": "proposer",
          "type": "string"
        }
      ],
      "name": "appendStateBatchByChainId",
      "outputs": [],
      "stateMutability": "nonpayable",
      "type": "function"
    },
    {
      "inputs": [],
      "name": "batches",
      "outputs": [
        {
          "internalType": "contract IChainStorageContainer",
          "name": "",
          "type": "address"
        }
      ],
      "stateMutability": "view",
      "type": "function"
    },
    {
      "inputs": [
        {
          "components": [
            {
              "internalType": "uint256",
              "name": "batchIndex",
              "type": "uint256"
            },
            {
              "internalType": "bytes32",
              "name": "batchRoot",
              "type": "bytes32"
            },
            {
              "internalType": "uint256",
              "name": "batchSize",
              "type": "uint256"
            },
            {
              "internalType": "uint256",
              "name": "prevTotalElements",
              "type": "uint256"
            },
            {
              "internalType": "bytes",
              "name": "extraData",
              "type": "bytes"
            }
          ],
          "internalType": "struct Lib_OVMCodec.ChainBatchHeader",
          "name": "_batchHeader",
          "type": "tuple"
        }
      ],
      "name": "deleteStateBatch",
      "outputs": [],
      "stateMutability": "nonpayable",
      "type": "function"
    },
    {
      "inputs": [
        {
          "internalType": "uint256",
          "name": "_chainId",
          "type": "uint256"
        },
        {
          "components": [
            {
              "internalType": "uint256",
              "name": "batchIndex",
              "type": "uint256"
            },
            {
              "internalType": "bytes32",
              "name": "batchRoot",
              "type": "bytes32"
            },
            {
              "internalType": "uint256",
              "name": "batchSize",
              "type": "uint256"
            },
            {
              "internalType": "uint256",
              "name": "prevTotalElements",
              "type": "uint256"
            },
            {
              "internalType": "bytes",
              "name": "extraData",
              "type": "bytes"
            }
          ],
          "internalType": "struct Lib_OVMCodec.ChainBatchHeader",
          "name": "_batchHeader",
          "type": "tuple"
        }
      ],
      "name": "deleteStateBatchByChainId",
      "outputs": [],
      "stateMutability": "nonpayable",
      "type": "function"
    },
    {
      "inputs": [],
      "name": "getLastSequencerTimestamp",
      "outputs": [
        {
          "internalType": "uint256",
          "name": "_lastSequencerTimestamp",
          "type": "uint256"
        }
      ],
      "stateMutability": "view",
      "type": "function"
    },
    {
      "inputs": [
        {
          "internalType": "uint256",
          "name": "_chainId",
          "type": "uint256"
        }
      ],
      "name": "getLastSequencerTimestampByChainId",
      "outputs": [
        {
          "internalType": "uint256",
          "name": "_lastSequencerTimestamp",
          "type": "uint256"
        }
      ],
      "stateMutability": "view",
      "type": "function"
    },
    {
      "inputs": [],
      "name": "getTotalBatches",
      "outputs": [
        {
          "internalType": "uint256",
          "name": "_totalBatches",
          "type": "uint256"
        }
      ],
      "stateMutability": "view",
      "type": "function"
    },
    {
      "inputs": [
        {
          "internalType": "uint256",
          "name": "_chainId",
          "type": "uint256"
        }
      ],
      "name": "getTotalBatchesByChainId",
      "outputs": [
        {
          "internalType": "uint256",
          "name": "_totalBatches",
          "type": "uint256"
        }
      ],
      "stateMutability": "view",
      "type": "function"
    },
    {
      "inputs": [],
      "name": "getTotalElements",
      "outputs": [
        {
          "internalType": "uint256",
          "name": "_totalElements",
          "type": "uint256"
        }
      ],
      "stateMutability": "view",
      "type": "function"
    },
    {
      "inputs": [
        {
          "internalType": "uint256",
          "name": "_chainId",
          "type": "uint256"
        }
      ],
      "name": "getTotalElementsByChainId",
      "outputs": [
        {
          "internalType": "uint256",
          "name": "_totalElements",
          "type": "uint256"
        }
      ],
      "stateMutability": "view",
      "type": "function"
    },
    {
      "inputs": [
        {
          "components": [
            {
              "internalType": "uint256",
              "name": "batchIndex",
              "type": "uint256"
            },
            {
              "internalType": "bytes32",
              "name": "batchRoot",
              "type": "bytes32"
            },
            {
              "internalType": "uint256",
              "name": "batchSize",
              "type": "uint256"
            },
            {
              "internalType": "uint256",
              "name": "prevTotalElements",
              "type": "uint256"
            },
            {
              "internalType": "bytes",
              "name": "extraData",
              "type": "bytes"
            }
          ],
          "internalType": "struct Lib_OVMCodec.ChainBatchHeader",
          "name": "_batchHeader",
          "type": "tuple"
        }
      ],
      "name": "insideFraudProofWindow",
      "outputs": [
        {
          "internalType": "bool",
          "name": "_inside",
          "type": "bool"
        }
      ],
      "stateMutability": "view",
      "type": "function"
    },
    {
      "inputs": [
        {
          "internalType": "uint256",
          "name": "",
          "type": "uint256"
        },
        {
          "components": [
            {
              "internalType": "uint256",
              "name": "batchIndex",
              "type": "uint256"
            },
            {
              "internalType": "bytes32",
              "name": "batchRoot",
              "type": "bytes32"
            },
            {
              "internalType": "uint256",
              "name": "batchSize",
              "type": "uint256"
            },
            {
              "internalType": "uint256",
              "name": "prevTotalElements",
              "type": "uint256"
            },
            {
              "internalType": "bytes",
              "name": "extraData",
              "type": "bytes"
            }
          ],
          "internalType": "struct Lib_OVMCodec.ChainBatchHeader",
          "name": "_batchHeader",
          "type": "tuple"
        }
      ],
      "name": "insideFraudProofWindowByChainId",
      "outputs": [
        {
          "internalType": "bool",
          "name": "_inside",
          "type": "bool"
        }
      ],
      "stateMutability": "view",
      "type": "function"
    },
    {
      "inputs": [],
      "name": "libAddressManager",
      "outputs": [
        {
          "internalType": "contract Lib_AddressManager",
          "name": "",
          "type": "address"
        }
      ],
      "stateMutability": "view",
      "type": "function"
    },
    {
      "inputs": [
        {
          "internalType": "string",
          "name": "_name",
          "type": "string"
        }
      ],
      "name": "resolve",
      "outputs": [
        {
          "internalType": "address",
          "name": "",
          "type": "address"
        }
      ],
      "stateMutability": "view",
      "type": "function"
    },
    {
      "inputs": [
        {
          "internalType": "uint256",
          "name": "window",
          "type": "uint256"
        }
      ],
      "name": "setFraudProofWindow",
      "outputs": [],
      "stateMutability": "nonpayable",
      "type": "function"
    },
    {
      "inputs": [
        {
          "internalType": "bytes32",
          "name": "_element",
          "type": "bytes32"
        },
        {
          "components": [
            {
              "internalType": "uint256",
              "name": "batchIndex",
              "type": "uint256"
            },
            {
              "internalType": "bytes32",
              "name": "batchRoot",
              "type": "bytes32"
            },
            {
              "internalType": "uint256",
              "name": "batchSize",
              "type": "uint256"
            },
            {
              "internalType": "uint256",
              "name": "prevTotalElements",
              "type": "uint256"
            },
            {
              "internalType": "bytes",
              "name": "extraData",
              "type": "bytes"
            }
          ],
          "internalType": "struct Lib_OVMCodec.ChainBatchHeader",
          "name": "_batchHeader",
          "type": "tuple"
        },
        {
          "components": [
            {
              "internalType": "uint256",
              "name": "index",
              "type": "uint256"
            },
            {
              "internalType": "bytes32[]",
              "name": "siblings",
              "type": "bytes32[]"
            }
          ],
          "internalType": "struct Lib_OVMCodec.ChainInclusionProof",
          "name": "_proof",
          "type": "tuple"
        }
      ],
      "name": "verifyStateCommitment",
      "outputs": [
        {
          "internalType": "bool",
          "name": "",
          "type": "bool"
        }
      ],
      "stateMutability": "view",
      "type": "function"
    },
    {
      "inputs": [
        {
          "internalType": "uint256",
          "name": "_chainId",
          "type": "uint256"
        },
        {
          "internalType": "bytes32",
          "name": "_element",
          "type": "bytes32"
        },
        {
          "components": [
            {
              "internalType": "uint256",
              "name": "batchIndex",
              "type": "uint256"
            },
            {
              "internalType": "bytes32",
              "name": "batchRoot",
              "type": "bytes32"
            },
            {
              "internalType": "uint256",
              "name": "batchSize",
              "type": "uint256"
            },
            {
              "internalType": "uint256",
              "name": "prevTotalElements",
              "type": "uint256"
            },
            {
              "internalType": "bytes",
              "name": "extraData",
              "type": "bytes"
            }
          ],
          "internalType": "struct Lib_OVMCodec.ChainBatchHeader",
          "name": "_batchHeader",
          "type": "tuple"
        },
        {
          "components": [
            {
              "internalType": "uint256",
              "name": "index",
              "type": "uint256"
            },
            {
              "internalType": "bytes32[]",
              "name": "siblings",
              "type": "bytes32[]"
            }
          ],
          "internalType": "struct Lib_OVMCodec.ChainInclusionProof",
          "name": "_proof",
          "type": "tuple"
        }
      ],
      "name": "verifyStateCommitmentByChainId",
      "outputs": [
        {
          "internalType": "bool",
          "name": "",
          "type": "bool"
        }
      ],
      "stateMutability": "view",
      "type": "function"
    }
  ],
  "transactionHash": "0x456342b1526f43a00b7a59dadf943d971145e67f007b5daeff0cc2e35cde40a8",
  "args": [
    "0xa66Fa1eD0f1C1ee300893B4eb5493FeAD9a7e9c3",
    604800,
    1800
  ],
  "solcInputHash": "85de57aba6d9c38e3816c5894a634aba",
  "bytecode": "0x608060405261044060035534801561001657600080fd5b50604051620025533803806200255383398101604081905261003791610063565b600080546001600160a01b0319166001600160a01b0394909416939093179092556001556002556100a6565b60008060006060848603121561007857600080fd5b83516001600160a01b038116811461008f57600080fd5b602085015160409095015190969495509392505050565b61249d80620000b66000396000f3fe608060405234801561001057600080fd5b50600436106101775760003560e01c806381eb62ef116100d8578063ab59f7b81161008c578063cfdf677e11610066578063cfdf677e146102f5578063d710083f146102fd578063e561dddc1461031057600080fd5b8063ab59f7b8146102c6578063b8e189ac146102d9578063c17b291b146102ec57600080fd5b80638c7de742116100bd5780638c7de7421461028d5780638ca5cbb9146102a05780639418bddd146102b357600080fd5b806381eb62ef146102715780638a52e6221461027a57600080fd5b80635cb583741161012f5780637aa63a86116101145780637aa63a861461024e5780637ad168a01461025657806380931e371461025e57600080fd5b80635cb58374146102285780636d3454bf1461023b57600080fd5b8063461a447811610160578063461a4478146101db5780634d69ee57146101ee5780635bbbb7ed1461021157600080fd5b8063299ca4781461017c5780632ab65ec7146101c6575b600080fd5b60005461019c9073ffffffffffffffffffffffffffffffffffffffff1681565b60405173ffffffffffffffffffffffffffffffffffffffff90911681526020015b60405180910390f35b6101d96101d4366004611d05565b610318565b005b61019c6101e9366004611d6c565b610478565b6102016101fc366004611e90565b610525565b60405190151581526020016101bd565b61021a60035481565b6040519081526020016101bd565b61021a610236366004611efd565b61053d565b610201610249366004611d05565b610558565b61021a610601565b61021a610613565b61020161026c366004611f16565b610620565b61021a60025481565b61021a610288366004611efd565b6106ec565b61021a61029b366004611efd565b610707565b6101d96102ae366004611f8d565b61079b565b6102016102c1366004611fd2565b6107dc565b6101d96102d4366004611efd565b610884565b6101d96102e7366004611fd2565b610941565b61021a60015481565b61019c610950565b6101d961030b366004612007565b610973565b61021a610c25565b61034861032483610c32565b60405160200161033491906120a2565b604051602081830303815290604052610478565b73ffffffffffffffffffffffffffffffffffffffff163373ffffffffffffffffffffffffffffffffffffffff16146103ed5760405162461bcd60e51b815260206004820152603b60248201527f537461746520626174636865732063616e206f6e6c792062652064656c65746560448201527f6420627920746865204d564d5f467261756456657269666965722e000000000060648201526084015b60405180910390fd5b6103f6816107dc565b61046a576040805162461bcd60e51b81526020600482015260248101919091527f537461746520626174636865732063616e206f6e6c792062652064656c65746560448201527f642077697468696e207468652066726175642070726f6f662077696e646f772e60648201526084016103e4565b6104748282610d8f565b5050565b600080546040517fbf40fac100000000000000000000000000000000000000000000000000000000815273ffffffffffffffffffffffffffffffffffffffff9091169063bf40fac1906104cf90859060040161212d565b60206040518083038186803b1580156104e757600080fd5b505afa1580156104fb573d6000803e3d6000fd5b505050506040513d601f19601f8201168201806040525081019061051f9190612162565b92915050565b6000610535600354858585610620565b949350505050565b60008061054983610fe1565b64ffffffffff16949350505050565b6000808260800151806020019051810190610573919061217f565b509050806105e95760405162461bcd60e51b815260206004820152602560248201527f4261746368206865616465722074696d657374616d702063616e6e6f7420626560448201527f207a65726f00000000000000000000000000000000000000000000000000000060648201526084016103e4565b42600154826105f891906121de565b11949350505050565b600061060e6003546106ec565b905090565b600061060e60035461053d565b600061062c8584611093565b6106785760405162461bcd60e51b815260206004820152601560248201527f496e76616c6964206261746368206865616465722e000000000000000000000060448201526064016103e4565b610695836020015185846000015185602001518760400151611158565b6106e15760405162461bcd60e51b815260206004820152601860248201527f496e76616c696420696e636c7573696f6e2070726f6f662e000000000000000060448201526064016103e4565b506001949350505050565b6000806106f883610fe1565b5064ffffffffff169392505050565b6000610711610950565b73ffffffffffffffffffffffffffffffffffffffff1663576f2588836040518263ffffffff1660e01b815260040161074b91815260200190565b60206040518083038186803b15801561076357600080fd5b505afa158015610777573d6000803e3d6000fd5b505050506040513d601f19601f8201168201806040525081019061051f91906121f6565b60006107a8600354610c32565b6040516020016107b8919061220f565b60405160208183030381529060405290506107d7600354848484610973565b505050565b60008082608001518060200190518101906107f7919061217f565b5090508061086d5760405162461bcd60e51b815260206004820152602560248201527f4261746368206865616465722074696d657374616d702063616e6e6f7420626560448201527f207a65726f00000000000000000000000000000000000000000000000000000060648201526084016103e4565b426001548261087c91906121de565b119392505050565b6108c26040518060400160405280600d81526020017f4d455449535f4d414e4147455200000000000000000000000000000000000000815250610478565b73ffffffffffffffffffffffffffffffffffffffff163373ffffffffffffffffffffffffffffffffffffffff161461093c5760405162461bcd60e51b815260206004820152600b60248201527f6e6f7720616c6c6f77656400000000000000000000000000000000000000000060448201526064016103e4565b600155565b61094d60035482610318565b50565b600061060e60405180606001604052806021815260200161244760219139610478565b61097c846106ec565b82146109f05760405162461bcd60e51b815260206004820152603d60248201527f41637475616c20626174636820737461727420696e64657820646f6573206e6f60448201527f74206d6174636820657870656374656420737461727420696e6465782e00000060648201526084016103e4565b60006109fb82610478565b9050610a3b6040518060400160405280600b81526020017f426f6e644d616e61676572000000000000000000000000000000000000000000815250610478565b6040517ff3b96f1c0000000000000000000000000000000000000000000000000000000081526004810187905233602482015273ffffffffffffffffffffffffffffffffffffffff8381166044830152919091169063f3b96f1c9060640160206040518083038186803b158015610ab157600080fd5b505afa158015610ac5573d6000803e3d6000fd5b505050506040513d601f19601f82011682018060405250810190610ae99190612250565b610b5b5760405162461bcd60e51b815260206004820152602f60248201527f50726f706f73657220646f6573206e6f74206861766520656e6f75676820636f60448201527f6c6c61746572616c20706f73746564000000000000000000000000000000000060648201526084016103e4565b6000845111610bd25760405162461bcd60e51b815260206004820152602360248201527f43616e6e6f74207375626d697420616e20656d7074792073746174652062617460448201527f63682e000000000000000000000000000000000000000000000000000000000060648201526084016103e4565b610c1e85854233604051602001610c0992919091825273ffffffffffffffffffffffffffffffffffffffff16602082015260400190565b604051602081830303815290604052846113c6565b5050505050565b600061060e600354610707565b606081610c7257505060408051808201909152600181527f3000000000000000000000000000000000000000000000000000000000000000602082015290565b8160005b8115610c9c5780610c8681612272565b9150610c959050600a836122da565b9150610c76565b60008167ffffffffffffffff811115610cb757610cb7611b70565b6040519080825280601f01601f191660200182016040528015610ce1576020820181803683370190505b509050815b8515610d8657610cf76001826122ee565b90506000610d06600a886122da565b610d1190600a612305565b610d1b90886122ee565b610d26906030612342565b905060008160f81b905080848481518110610d4357610d43612367565b60200101907effffffffffffffffffffffffffffffffffffffffffffffffffffffffffffff1916908160001a905350610d7d600a896122da565b97505050610ce6565b50949350505050565b610d97610950565b73ffffffffffffffffffffffffffffffffffffffff1663576f2588836040518263ffffffff1660e01b8152600401610dd191815260200190565b60206040518083038186803b158015610de957600080fd5b505afa158015610dfd573d6000803e3d6000fd5b505050506040513d601f19601f82011682018060405250810190610e2191906121f6565b815110610e705760405162461bcd60e51b815260206004820152601460248201527f496e76616c696420626174636820696e6465782e00000000000000000000000060448201526064016103e4565b610e7a8282611093565b610ec65760405162461bcd60e51b815260206004820152601560248201527f496e76616c6964206261746368206865616465722e000000000000000000000060448201526064016103e4565b610ece610950565b8151606083015173ffffffffffffffffffffffffffffffffffffffff929092169163bc05257691859160281b6040517fffffffff0000000000000000000000000000000000000000000000000000000060e086901b168152600481019390935260248301919091527fffffffffffffffffffffffffffffffffffffffffffffffffffffff0000000000166044820152606401600060405180830381600087803b158015610f7a57600080fd5b505af1158015610f8e573d6000803e3d6000fd5b5050505080600001517f6e9c082632d809680ee6227e58afd9a7c24ee8a43d61577b2e98f9e185fc630d838360200151604051610fd5929190918252602082015260400190565b60405180910390a25050565b6000806000610fee610950565b73ffffffffffffffffffffffffffffffffffffffff166324a49415856040518263ffffffff1660e01b815260040161102891815260200190565b60206040518083038186803b15801561104057600080fd5b505afa158015611054573d6000803e3d6000fd5b505050506040513d601f19601f820116820180604052508101906110789190612396565b64ffffffffff602882901c169560509190911c945092505050565b600061109d610950565b82516040517f67d18b9b00000000000000000000000000000000000000000000000000000000815260048101869052602481019190915273ffffffffffffffffffffffffffffffffffffffff91909116906367d18b9b9060440160206040518083038186803b15801561110f57600080fd5b505afa158015611123573d6000803e3d6000fd5b505050506040513d601f19601f8201168201806040525081019061114791906121f6565b61115083611563565b149392505050565b60008082116111cf5760405162461bcd60e51b815260206004820152603760248201527f4c69625f4d65726b6c65547265653a20546f74616c206c6561766573206d757360448201527f742062652067726561746572207468616e207a65726f2e00000000000000000060648201526084016103e4565b8184106112435760405162461bcd60e51b8152602060048201526024808201527f4c69625f4d65726b6c65547265653a20496e646578206f7574206f6620626f7560448201527f6e64732e0000000000000000000000000000000000000000000000000000000060648201526084016103e4565b61124c826115a9565b8351146112e75760405162461bcd60e51b815260206004820152604d60248201527f4c69625f4d65726b6c65547265653a20546f74616c207369626c696e6773206460448201527f6f6573206e6f7420636f72726563746c7920636f72726573706f6e6420746f2060648201527f746f74616c206c65617665732e00000000000000000000000000000000000000608482015260a4016103e4565b8460005b84518110156113b95785600116600114156113525784818151811061131257611312612367565b602002602001015182604051602001611335929190918252602082015260400190565b6040516020818303038152906040528051906020012091506113a0565b8185828151811061136557611365612367565b6020026020010151604051602001611387929190918252602082015260400190565b6040516020818303038152906040528051906020012091505b60019590951c94806113b181612272565b9150506112eb565b5090951495945050505050565b6000806113d286610fe1565b9150915042905060006040518060a001604052806113ef89610707565b81526020016113fd8861168c565b8152602001875181526020018464ffffffffff16815260200186815250905080600001517fbaa1d762384057169afd12b625998a5a7ed502c2e229acdbead30f3f6496399d8883602001518460400151856060015186608001516040516114689594939291906123d8565b60405180910390a2611478610950565b73ffffffffffffffffffffffffffffffffffffffff1663e6e436c08861149d84611563565b6114c2856040015186606001516114b491906121de565b602888811b91909117901b90565b6040517fffffffff0000000000000000000000000000000000000000000000000000000060e086901b168152600481019390935260248301919091527fffffffffffffffffffffffffffffffffffffffffffffffffffffff0000000000166044820152606401600060405180830381600087803b15801561154257600080fd5b505af1158015611556573d6000803e3d6000fd5b5050505050505050505050565b6000816020015182604001518360600151846080015160405160200161158c9493929190612403565b604051602081830303815290604052805190602001209050919050565b60008082116116205760405162461bcd60e51b815260206004820152603060248201527f4c69625f4d65726b6c65547265653a2043616e6e6f7420636f6d70757465206360448201527f65696c286c6f675f3229206f6620302e0000000000000000000000000000000060648201526084016103e4565b816001141561163157506000919050565b81600060805b6001811061166f578061164d600180831b6122ee565b901b8316156116675761166081836121de565b92811c9291505b60011c611637565b506001811b8414611685576105356001826121de565b9392505050565b6000808251116117045760405162461bcd60e51b815260206004820152603460248201527f4c69625f4d65726b6c65547265653a204d7573742070726f766964652061742060448201527f6c65617374206f6e65206c65616620686173682e00000000000000000000000060648201526084016103e4565b815160011415611730578160008151811061172157611721612367565b60200260200101519050919050565b60408051610200810182527f290decd9548b62a8d60345a988386fc84ba6bc95484008f6362f93160ef3e56381527f633dc4d7da7256660a892f8f1604a44b5432649cc8ec5cb3ced4c4e6ac94dd1d60208201527f890740a8eb06ce9be422cb8da5cdafc2b58c0a5e24036c578de2a433c828ff7d818301527f3b8ec09e026fdc305365dfc94e189a81b38c7597b3d941c279f042e8206e0bd86060808301919091527fecd50eee38e386bd62be9bedb990706951b65fe053bd9d8a521af753d139e2da60808301527fdefff6d330bb5403f63b14f33b578274160de3a50df4efecf0e0db73bcdd3da560a08301527f617bdd11f7c0a11f49db22f629387a12da7596f9d1704d7465177c63d88ec7d760c08301527f292c23a9aa1d8bea7e2435e555a4a60e379a5a35f3f452bae60121073fb6eead60e08301527fe1cea92ed99acdcb045a6726b2f87107e8a61620a232cf4d7d5b5766b3952e106101008301527f7ad66c0a68c72cb89e4fb4303841966e4062a76ab97451e3b9fb526a5ceb7f826101208301527fe026cc5a4aed3c22a58cbd3d2ac754c9352c5436f638042dca99034e836365166101408301527f3d04cffd8b46a874edf5cfae63077de85f849a660426697b06a829c70dd1409c6101608301527fad676aa337a485e4728a0b240d92b3ef7b3c372d06d189322bfd5f61f1e7203e6101808301527fa2fca4a49658f9fab7aa63289c91b7c7b6c832a6d0e69334ff5b0a3483d09dab6101a08301527f4ebfd9cd7bca2505f7bef59cc1c12ecc708fff26ae4af19abe852afe9e20c8626101c08301527f2def10d13dd169f550f578bda343d9717a138562e0093b380a1120789d53cf106101e083015282518381529081018352909160009190602082018180368337505085519192506000918291508180805b6001841115611b46576119e16002856122da565b91506119ee600285612432565b600114905060005b82811015611a9a578a611a0a826002612305565b81518110611a1a57611a1a612367565b602002602001015196508a816002611a329190612305565b611a3d9060016121de565b81518110611a4d57611a4d612367565b6020026020010151955086602089015285604089015287805190602001208b8281518110611a7d57611a7d612367565b602090810291909101015280611a9281612272565b9150506119f6565b508015611b165789611aad6001866122ee565b81518110611abd57611abd612367565b60200260200101519550878360108110611ad957611ad9612367565b602002015160001b945085602088015284604088015286805190602001208a8381518110611b0957611b09612367565b6020026020010181815250505b80611b22576000611b25565b60015b611b329060ff16836121de565b935082611b3e81612272565b9350506119cd565b89600081518110611b5957611b59612367565b602002602001015198505050505050505050919050565b7f4e487b7100000000000000000000000000000000000000000000000000000000600052604160045260246000fd5b604051601f82017fffffffffffffffffffffffffffffffffffffffffffffffffffffffffffffffe016810167ffffffffffffffff81118282101715611be657611be6611b70565b604052919050565b600067ffffffffffffffff831115611c0857611c08611b70565b611c3960207fffffffffffffffffffffffffffffffffffffffffffffffffffffffffffffffe0601f86011601611b9f565b9050828152838383011115611c4d57600080fd5b828260208301376000602084830101529392505050565b600060a08284031215611c7657600080fd5b60405160a0810167ffffffffffffffff8282108183111715611c9a57611c9a611b70565b81604052829350843583526020850135602084015260408501356040840152606085013560608401526080850135915080821115611cd757600080fd5b508301601f81018513611ce957600080fd5b611cf885823560208401611bee565b6080830152505092915050565b60008060408385031215611d1857600080fd5b82359150602083013567ffffffffffffffff811115611d3657600080fd5b611d4285828601611c64565b9150509250929050565b600082601f830112611d5d57600080fd5b61168583833560208501611bee565b600060208284031215611d7e57600080fd5b813567ffffffffffffffff811115611d9557600080fd5b61053584828501611d4c565b600082601f830112611db257600080fd5b8135602067ffffffffffffffff821115611dce57611dce611b70565b8160051b611ddd828201611b9f565b9283528481018201928281019087851115611df757600080fd5b83870192505b84831015611e1657823582529183019190830190611dfd565b979650505050505050565b600060408284031215611e3357600080fd5b6040516040810167ffffffffffffffff8282108183111715611e5757611e57611b70565b81604052829350843583526020850135915080821115611e7657600080fd5b50611e8385828601611da1565b6020830152505092915050565b600080600060608486031215611ea557600080fd5b83359250602084013567ffffffffffffffff80821115611ec457600080fd5b611ed087838801611c64565b93506040860135915080821115611ee657600080fd5b50611ef386828701611e21565b9150509250925092565b600060208284031215611f0f57600080fd5b5035919050565b60008060008060808587031215611f2c57600080fd5b8435935060208501359250604085013567ffffffffffffffff80821115611f5257600080fd5b611f5e88838901611c64565b93506060870135915080821115611f7457600080fd5b50611f8187828801611e21565b91505092959194509250565b60008060408385031215611fa057600080fd5b823567ffffffffffffffff811115611fb757600080fd5b611fc385828601611da1565b95602094909401359450505050565b600060208284031215611fe457600080fd5b813567ffffffffffffffff811115611ffb57600080fd5b61053584828501611c64565b6000806000806080858703121561201d57600080fd5b84359350602085013567ffffffffffffffff8082111561203c57600080fd5b61204888838901611da1565b945060408701359350606087013591508082111561206557600080fd5b50611f8187828801611d4c565b60005b8381101561208d578181015183820152602001612075565b8381111561209c576000848401525b50505050565b600082516120b4818460208701612072565b7f5f4d564d5f467261756456657269666965720000000000000000000000000000920191825250601201919050565b600081518084526120fb816020860160208601612072565b601f017fffffffffffffffffffffffffffffffffffffffffffffffffffffffffffffffe0169290920160200192915050565b60208152600061168560208301846120e3565b73ffffffffffffffffffffffffffffffffffffffff8116811461094d57600080fd5b60006020828403121561217457600080fd5b815161168581612140565b6000806040838503121561219257600080fd5b8251915060208301516121a481612140565b809150509250929050565b7f4e487b7100000000000000000000000000000000000000000000000000000000600052601160045260246000fd5b600082198211156121f1576121f16121af565b500190565b60006020828403121561220857600080fd5b5051919050565b60008251612221818460208701612072565b7f5f4d564d5f50726f706f73657200000000000000000000000000000000000000920191825250600d01919050565b60006020828403121561226257600080fd5b8151801515811461168557600080fd5b60007fffffffffffffffffffffffffffffffffffffffffffffffffffffffffffffffff8214156122a4576122a46121af565b5060010190565b7f4e487b7100000000000000000000000000000000000000000000000000000000600052601260045260246000fd5b6000826122e9576122e96122ab565b500490565b600082821015612300576123006121af565b500390565b6000817fffffffffffffffffffffffffffffffffffffffffffffffffffffffffffffffff048311821515161561233d5761233d6121af565b500290565b600060ff821660ff84168060ff0382111561235f5761235f6121af565b019392505050565b7f4e487b7100000000000000000000000000000000000000000000000000000000600052603260045260246000fd5b6000602082840312156123a857600080fd5b81517fffffffffffffffffffffffffffffffffffffffffffffffffffffff00000000008116811461168557600080fd5b85815284602082015283604082015282606082015260a060808201526000611e1660a08301846120e3565b84815283602082015282604082015260806060820152600061242860808301846120e3565b9695505050505050565b600082612441576124416122ab565b50069056fe436861696e53746f72616765436f6e7461696e65722d5343432d62617463686573a2646970667358221220c7c9a643e7529205ff672e020a056c41edbca24d11e9ea845179ac9cb9f87acc64736f6c63430008090033",
  "devdoc": {
    "details": "The State Commitment Chain (SCC) contract contains a list of proposed state roots which Proposers assert to be a result of each transaction in the Canonical Transaction Chain (CTC). Elements here have a 1:1 correspondence with transactions in the CTC, and should be the unique state root calculated off-chain by applying the canonical transactions one by one. Runtime target: EVM",
    "kind": "dev",
    "methods": {
      "appendStateBatch(bytes32[],uint256)": {
        "params": {
          "_batch": "Batch of state roots.",
          "_shouldStartAtElement": "Index of the element at which this batch should start."
        }
      },
      "appendStateBatchByChainId(uint256,bytes32[],uint256,string)": {
        "params": {
          "_batch": "Batch of state roots.",
          "_chainId": "identity for the l2 chain.",
          "_shouldStartAtElement": "Index of the element at which this batch should start."
        }
      },
      "batches()": {
        "returns": {
          "_0": "Reference to the batch storage container."
        }
      },
      "constructor": {
        "params": {
          "_libAddressManager": "Address of the Address Manager."
        }
      },
      "deleteStateBatch((uint256,bytes32,uint256,uint256,bytes))": {
        "params": {
          "_batchHeader": "Header of the batch to start deleting from."
        }
      },
      "deleteStateBatchByChainId(uint256,(uint256,bytes32,uint256,uint256,bytes))": {
        "params": {
          "_batchHeader": "Header of the batch to start deleting from.",
          "_chainId": "identity for the l2 chain."
        }
      },
      "getLastSequencerTimestamp()": {
        "returns": {
          "_lastSequencerTimestamp": "Last sequencer batch timestamp."
        }
      },
      "getLastSequencerTimestampByChainId(uint256)": {
        "params": {
          "_chainId": "identity for the l2 chain."
        },
        "returns": {
          "_lastSequencerTimestamp": "Last sequencer batch timestamp."
        }
      },
      "getTotalBatches()": {
        "returns": {
          "_totalBatches": "Total submitted batches."
        }
      },
      "getTotalBatchesByChainId(uint256)": {
        "params": {
          "_chainId": "identity for the l2 chain."
        },
        "returns": {
          "_totalBatches": "Total submitted batches."
        }
      },
      "getTotalElements()": {
        "returns": {
          "_totalElements": "Total submitted elements."
        }
      },
      "getTotalElementsByChainId(uint256)": {
        "params": {
          "_chainId": "identity for the l2 chain."
        },
        "returns": {
          "_totalElements": "Total submitted elements."
        }
      },
      "insideFraudProofWindow((uint256,bytes32,uint256,uint256,bytes))": {
        "params": {
          "_batchHeader": "Header of the batch to check."
        },
        "returns": {
          "_inside": "Whether or not the batch is inside the fraud proof window."
        }
      },
      "resolve(string)": {
        "params": {
          "_name": "Name to resolve an address for."
        },
        "returns": {
          "_0": "Address associated with the given name."
        }
      },
      "verifyStateCommitment(bytes32,(uint256,bytes32,uint256,uint256,bytes),(uint256,bytes32[]))": {
        "params": {
          "_batchHeader": "Header of the batch in which the element was included.",
          "_element": "Hash of the element to verify a proof for.",
          "_proof": "Merkle inclusion proof for the element."
        }
      },
      "verifyStateCommitmentByChainId(uint256,bytes32,(uint256,bytes32,uint256,uint256,bytes),(uint256,bytes32[]))": {
        "params": {
          "_batchHeader": "Header of the batch in which the element was included.",
          "_chainId": "identity for the l2 chain.",
          "_element": "Hash of the element to verify a proof for.",
          "_proof": "Merkle inclusion proof for the element."
        }
      }
    },
    "title": "MVM_StateCommitmentChain",
    "version": 1
  },
  "userdoc": {
    "kind": "user",
    "methods": {
      "appendStateBatch(bytes32[],uint256)": {
        "notice": "Appends a batch of state roots to the chain."
      },
      "appendStateBatchByChainId(uint256,bytes32[],uint256,string)": {
        "notice": "Appends a batch of state roots to the chain."
      },
      "batches()": {
        "notice": "Accesses the batch storage container."
      },
      "deleteStateBatch((uint256,bytes32,uint256,uint256,bytes))": {
        "notice": "Deletes all state roots after (and including) a given batch."
      },
      "deleteStateBatchByChainId(uint256,(uint256,bytes32,uint256,uint256,bytes))": {
        "notice": "Deletes all state roots after (and including) a given batch."
      },
      "getLastSequencerTimestamp()": {
        "notice": "Retrieves the timestamp of the last batch submitted by the sequencer."
      },
      "getLastSequencerTimestampByChainId(uint256)": {
        "notice": "Retrieves the timestamp of the last batch submitted by the sequencer."
      },
      "getTotalBatches()": {
        "notice": "Retrieves the total number of batches submitted."
      },
      "getTotalBatchesByChainId(uint256)": {
        "notice": "Retrieves the total number of batches submitted."
      },
      "getTotalElements()": {
        "notice": "Retrieves the total number of elements submitted."
      },
      "getTotalElementsByChainId(uint256)": {
        "notice": "Retrieves the total number of elements submitted."
      },
      "insideFraudProofWindow((uint256,bytes32,uint256,uint256,bytes))": {
        "notice": "Checks whether a given batch is still inside its fraud proof window."
      },
      "resolve(string)": {
        "notice": "Resolves the address associated with a given name."
      },
      "verifyStateCommitment(bytes32,(uint256,bytes32,uint256,uint256,bytes),(uint256,bytes32[]))": {
        "notice": "Verifies a batch inclusion proof."
      },
      "verifyStateCommitmentByChainId(uint256,bytes32,(uint256,bytes32,uint256,uint256,bytes),(uint256,bytes32[]))": {
        "notice": "Verifies a batch inclusion proof."
      }
    },
    "version": 1
  },
  "storageLayout": {
    "storage": [
      {
        "astId": 16289,
        "contract": "contracts/MVM/MVM_StateCommitmentChain.sol:MVM_StateCommitmentChain",
        "label": "libAddressManager",
        "offset": 0,
        "slot": "0",
        "type": "t_contract(Lib_AddressManager)16281"
      },
      {
        "astId": 12560,
        "contract": "contracts/MVM/MVM_StateCommitmentChain.sol:MVM_StateCommitmentChain",
        "label": "FRAUD_PROOF_WINDOW",
        "offset": 0,
        "slot": "1",
        "type": "t_uint256"
      },
      {
        "astId": 12562,
        "contract": "contracts/MVM/MVM_StateCommitmentChain.sol:MVM_StateCommitmentChain",
        "label": "SEQUENCER_PUBLISH_WINDOW",
        "offset": 0,
        "slot": "2",
        "type": "t_uint256"
      },
      {
        "astId": 12565,
        "contract": "contracts/MVM/MVM_StateCommitmentChain.sol:MVM_StateCommitmentChain",
        "label": "DEFAULT_CHAINID",
        "offset": 0,
        "slot": "3",
        "type": "t_uint256"
      }
    ],
    "types": {
      "t_contract(Lib_AddressManager)16281": {
        "encoding": "inplace",
        "label": "contract Lib_AddressManager",
        "numberOfBytes": "20"
      },
      "t_uint256": {
        "encoding": "inplace",
        "label": "uint256",
        "numberOfBytes": "32"
      }
    }
  }
}